:020000040800F2
:10000000E01B0020ED8F0008A5010008A7010008F3
:10001000AB010008AF010008B301000800000000B8
:10002000000000000000000000000000B701000810
:10003000B901000800000000BB010008BD01000874
:100040000790000807900008079000080790000834
:100050000790000807900008079000080790000824
:100060000790000807900008FD6600080790000848
:10007000290F000807900008079000080790000863
:10008000D76E000807900008079000080790000846
:1000900007900008079000080790000807900008E4
:1000A00007900008079000080790000807900008D4
:1000B00007900008079000080790000807900008C4
:1000C00007900008079000080790000807900008B4
:1000D00007900008079000080790000807900008A4
:1000E0000790000807900008079000080790000894
:1000F0000790000807900008079000080790000884
:100100000790000807900008079000080790000873
:1001100007900008ED2B00080790000807900008E2
:100120000790000807900008079000080790000853
:100130000790000807900008079000080790000843
:100140000790000807900008079000080790000833
:100150000790000807900008079000080790000823
:100160000790000807900008079000080790000813
:100170000790000807900008079000080790000803
:100180000790000807900008DFF80CD009F088FC01
:10019000004800479D010008E01B002000F0A5F882
:1001A00000BFFEE7704700BFFEE700BFFEE700BFED
:1001B000FEE700BFFEE770477047704710B516486E
:1001C0000068401C1449086014480088401C13490A
:1001D000088008464088401C488008468088401CAB
:1001E00088800846C088401CC88008460089401C9A
:1001F000088108464089401C48810948D0E9002010
:10020000521C40F100000649C1E900200548C078B1
:1002100008B100F049F910BD00000020B805002029
:10022000080000205C0000207FB5684607F01FFE34
:100230004FF47A710198B0FBF1F4E4082146481EAE
:10024000B0F1807F00D31BE0481E4FF0E0225061E8
:1002500050170F22002807DA13071E0E434B00F039
:100260000F052D1F5E5503E013071D0E404B1D5457
:1002700000BF00204FF0E02290610720106100BF16
:100280006FF0040006F092FE7FBD3A4A11684FF00D
:10029000E02252694FF0E0239B69D21A4FF47A733F
:1002A0005A434FF0E0235B69B2FBF3F201EB4103E9
:1002B000C3EBC11302EBC300704730B50446FFF730
:1002C000E4FF054600BFFFF7E0FF401BA042FAD362
:1002D00030BD10B5044603E04FF47A70FFF7EDFF30
:1002E000201EA4F10104F7D110BD10B502F0FCFCF2
:1002F0004FF4805020490880801006F005FEFFF77B
:1003000093FF02F017FD00F095FD4FF4C87001F067
:10031000CFFE02F0DAFCF2EE040A9FED180A05F0B7
:10032000D7F9F2EE040A9FED150A05F077FBF2EE1D
:10033000040A9FED120A05F073FCF2EE040A9FED29
:100340000F0A05F040FDF2EE040A9FED0C0A05F0DD
:100350003FFE02F0A0FA06F0E4FB4FF4805006499D
:10036000891E088001200649C87010BD18ED00E004
:1003700000E400E0000000201A0802400000C8422B
:100380005C0000207047704710B52DED028B0020F7
:1003900002F060FCB0EE408A6749684808F02FFA26
:1003A00008B100F097FCB0EE480A01F04DF901F0F9
:1003B00012FFBDEC028B10BD10B52DED028B01209C
:1003C00002F048FCB0EE408A5D48D0ED023AB0EE53
:1003D000633AD0ED013AF0EE632AD0ED003AB0EE88
:1003E000632AD0ED053AF0EE631AD0ED043AB0EE90
:1003F000631AD0ED033AF0EE630AF6EE003A68EEC7
:10040000233AB0EE630A00F0A7F8B0EE480A00F015
:10041000B3FDB0EE480A06F000FABDEC028B10BD49
:1004200010B52DED028B022002F014FCB0EE408AD4
:10043000B0EE480A01F0A6FCDFED420AB0EE480A31
:1004400006F02EFBBDEC028B10BD10B52DED028B1E
:10045000032002F0FFFBB0EE408AB0EE480A01F044
:10046000AFFCBDEC028B10BD10B52DED028B04204E
:1004700002F0F0FBB0EE408AB0EE480A01F0D7FC83
:1004800031480078401CC0B22F4908700A2807DDA7
:10049000002008702D48006880F480602B490860B7
:1004A000BDEC028B10BD704710B5294800880128AB
:1004B00004DBFFF767FF00202549088024484088B7
:1004C000022804DBFFF760FF002021494880204814
:1004D0008088052804DBFFF76FFF00201C49888017
:1004E0001B48C0880A2804DBFFF79AFF0020184940
:1004F000C88017480089142804DBFFF7A6FF0020F6
:100500001349088112484089322804DBFFF7ACFF09
:1005100000200F4948810F48D0E900304FF47A722B
:100520009A1A70F1000005DBFFF7BDFF0021094AB0
:100530001160516010BD00000008001028600240EA
:10054000C8070020000048431000002014080240A3
:10055000B80500200800002000B52DED108B83B0F9
:10056000B0EE408AB0EE609AF0EE419AB0EE61AA29
:10057000F0EE42DAF0EE62AAB0EE43DA6DEEAD0ACA
:100580004AEEAA0A4DEE0D0AB0EE600A02F0EFFD47
:10059000F0EE408A8DEEA80AF0EE40DA8AEEA80A64
:1005A000F0EE40AA8DEE280AB0EE40DAFE4890ED5B
:1005B000000AFE48D0ED000A20EE200AFC48D0EDEB
:1005C000000AFC4890ED001A00EEC10AF0EE000AA5
:1005D00020EE200AF84880ED000AF54890ED000A68
:1005E000F148D0ED000A20EE200AF248D0ED000AD2
:1005F000EE4890ED001A00EE810AF0EE000A20EEBF
:10060000200AEE4880ED000AE74890ED000A20EE4F
:10061000000AE848D0ED000A90ED001A00EE810AC9
:10062000F7EE000AB0EE001A41EE400AE448C0EDD1
:10063000000A90ED000A2AEE800AE048D0ED000A98
:100640000DEE600AB0EE40EADB4890ED000A2DEEB8
:10065000000ADB48D0ED000A0DEEE00AF0EE40EAB9
:10066000D64890ED000A2DEE800AD348D0ED000A5E
:100670000AEEE00AB0EE40FA9FEDD20A2EEE000A32
:10068000F0EE000A60EE200ACF4890ED000A00EE7E
:10069000880A80ED000A9FEDCB0A2EEE800AF0EE6C
:1006A000000A60EE200AC94890ED000A00EE880AB0
:1006B00080ED000A9FEDC30A2FEE000AF0EE000A5B
:1006C00060EE200AC24890ED000A00EE880A80ED34
:1006D000000ABD4890ED000ADFEDBE0AB4EEE00A64
:1006E000F1EE10FA02D29FEDBB0A0FE0B64890ED92
:1006F000000ADFEDB90AB4EEE00AF1EE10FA02DD0D
:100700009FEDB50A02E0B04890ED000AAE4880EDDA
:10071000000A90ED000ADFEDAF0AB4EEE00AF1EE58
:1007200010FA02D29FEDAB0A0FE0A74890ED000A45
:10073000DFEDA90AB4EEE00AF1EE10FA02DD9FED5A
:10074000A60A02E0A04890ED000A9F4880ED000A4A
:1007500090ED000ADFED9F0AB4EEE00AF1EE10FA28
:1007600002D29FED9C0A0FE0974890ED000ADFED62
:100770009A0AB4EEE00AF1EE10FA02DD9FED960A55
:1007800002E0914890ED000A8F4880ED000A90ED5C
:10079000000A7EEE000A9FED911AB0EE490A01EEC2
:1007A000200AB0EE409A894890ED000A7EEE800A59
:1007B0009FED8A1AB0EE690A01EE200AF0EE409A27
:1007C000834890ED000A7FEE000A9FED841AB0EE98
:1007D0004A0A01EE200AB0EE40AA734890ED000AE2
:1007E000B1EE400A20EE090A7248D0ED000A00EE90
:1007F000E90A6E48D0ED000A00EECA0A6C48D0ED56
:10080000000A40EE080AC0ED000A90ED000A20EE52
:10081000090A6848D0ED000A00EE8A0A6348D0ED64
:10082000000A00EEE90A6048D0ED000A40EE080A2E
:10083000C0ED000A5E4890ED000A20EE290A5A48F1
:10084000D0ED000A00EECA0A5848D0ED000A00EECA
:10085000890A5848D0ED000A40EE080AC0ED000AA7
:10086000534890ED000A20EE0A0A4F48D0ED000AE6
:1008700000EEA90A4F48D0ED000A00EEC90A4B4825
:10088000D0ED000A40EE080AC0ED000A4848D0ED5D
:10089000000A60EEA00A444890ED001AD0ED001A5C
:1008A00041EE210A434890ED001AD0ED001A41EEC6
:1008B000210A3E4890ED001AD0ED001A41EE210ABF
:1008C000B0EE600A02F053FCF0EE408A384890ED3A
:1008D000000AC0EE280AC0ED000A334890ED000A75
:1008E000C0EE280AC0ED000A324890ED000AC0EEC2
:1008F000280AC0ED000A2D4890ED000AC0EE280A33
:10090000C0ED000A2B4890ED001AF8EE001A21EE17
:10091000211AD0ED001A21EE211A2448D0ED001A38
:10092000B0EE002A61EE821A90ED002A01EEC21AA2
:10093000F7EE001A31EE211AF0EE410A1A4890ED56
:10094000001AF0EE001A21EE211A1A48D0ED001A12
:1009500021EE211A1648D0ED001AB0EE002A61EE01
:10096000821A124890ED002A01EE821AB0EE410A76
:1009700002F034FBDFED1A0A20EE200A194880ED60
:10098000020A094890ED001AF8EE001A21EE211A29
:10099000D0ED001A21EE211A0648D0ED001AB0EE73
:1009A000002A61EE821A1FE01800002020000020BB
:1009B000140000201C000020480000204C000020F3
:1009C00050000020CDCCCC3D240000202800002089
:1009D0002C00002034FA0EBD34FA0E3D9A99193FCE
:1009E000333365428807002090ED002A01EEC21AD9
:1009F000F7EE001A31EE211AF0EE410A90ED001ADE
:100A0000F0EE001A21EE211A7048D0ED001A21EE06
:100A1000211A6F48D0ED001AB0EE002A61EE821A5A
:100A20006C4890ED002A01EE821AB0EE410A02F005
:100A3000D5FA5FED150A20EE200A674880ED010A1D
:100A4000644890ED000AF8EE000A20EE200A5F48A4
:100A5000D0ED000A20EE200A5D48D0ED000AB0EE8D
:100A6000001A60EE810A5D4890ED001A00EE810ADE
:100A700010EE101A084608F0EEFE41EC1C0BB0EE2A
:100A80004C0AF0EE6C0A09F0C7F8B0EE40BAF0EE8E
:100A900060BA9FED530B53EC102B51EC1B0B08F07D
:100AA000BCFDCDE900019DED000B51EC100B08F0F1
:100AB00015FF49490860494890ED000A20EE000AF8
:100AC0004248D0ED000A90ED001A00EE810AF7EEE0
:100AD000000AB0EE001A41EE400A4348C0ED000A99
:100AE0003C4890ED000A3D48D0ED000A20EE200A77
:100AF0003748D0ED000A354890ED001A00EEC10AE3
:100B0000F0EE000A20EE200A384880ED000A314855
:100B100090ED000A2D48D0ED000A20EE200A2C4866
:100B2000D0ED000A2D4890ED001A00EE810AF0EE9B
:100B3000000A20EE200A2E4880ED000A254890ED9C
:100B4000000A2648D0ED000A20EE200A2048D0ED09
:100B5000000A1E4890ED001A00EE810AF0EE000A2D
:100B600020EE200A234880ED000A1A4890ED000A82
:100B700020EE000A1548D0ED000A90ED001A00EEB4
:100B8000810AF7EE000AB0EE001A41EE400A1A4858
:100B9000C0ED000A114890ED000A0C48D0ED000AA3
:100BA00020EE200A0A48D0ED000A0A4890ED001A0B
:100BB00000EEC10AF0EE000A20EE200A0F4880ED98
:100BC000000A03B0BDEC108B00BD00002000002027
:100BD0001400002018000020880700201C000020BE
:100BE0000000006066A64C40300000203400002069
:100BF000380000203C00002040000020440000207D
:100C0000002005E0D049095CD04A1154411CC8B20B
:100C10000428F7DBCD4991ED000ACD4981ED020AA8
:100C2000042006E0C8490A5C011FC84B5A54411C05
:100C3000C8B20828F6DBC54991ED000AC44981ED28
:100C4000010A082007E0C0490A5CA0F10801BF4B77
:100C50005A54411CC8B20C28F5DBBC4991ED000A7E
:100C6000BB4981ED000A0C2007E0B7490A5CA0F1FE
:100C70000C01B64B5A54411CC8B21028F5DBB349DD
:100C800091ED000AB34981ED060A102007E0AE4954
:100C90000A5CA0F11001AD4B5A54411CC8B2142893
:100CA000F5DBAA4991ED000AAA4981ED070A142053
:100CB00007E0A5490A5CA0F11401A44B5A54411C59
:100CC000C8B21828F5DBA14991ED000AA14981EDD0
:100CD000080A704710B52DED048B002405E09A48F2
:100CE000005D9A490855601CC4B2042CF7DB974894
:100CF00090ED000A974880ED000A042406E092482F
:100D0000015D201F914A1154601CC4B2082CF6DB0F
:100D10008E4890ED000A8F4880ED010A082407E014
:100D20008948015DA4F10800884A1154601CC4B2CE
:100D30000C2CF5DB854890ED000A864880ED020A10
:100D40000C2407E08048015DA4F10C007F4A115497
:100D5000601CC4B2102CF5DB7C4890ED000A7D4885
:100D600080ED030A102407E07748015DA4F110002C
:100D7000764A1154601CC4B2142CF5DB734890ED14
:100D8000000A744880ED040A142407E06E48015DEF
:100D9000A4F114006D4A1154601CC4B2182CF5DB88
:100DA0006A4890ED000A6B4880ED050A90ED030A51
:100DB00010EE101A084608F04EFD41EC190B9FED9D
:100DC000660B53EC102B08F028FC41EC180B08F0D4
:100DD00085FD60498861084690ED040A10EE101AFE
:100DE000084608F038FD41EC190B9FED5B0B53EC06
:100DF000102B08F012FC41EC180B08F06FFD554960
:100E0000C861084690ED050A10EE101A084608F071
:100E100022FD41EC190B9FED500B53EC102B08F009
:100E2000FCFB41EC180B08F059FD4A490862BDEC87
:100E3000048B10BD00B597B00121494807F0ACF80C
:100E40000121880407F0DBF807220B21454807F051
:100E500068FB4FF40060119002208DF848000020DC
:100E60008DF84A0003208DF8490000208DF84B00D2
:100E700011A93C4807F0CAFA4FF4E1201390002072
:100E8000ADF85000ADF85200ADF854000420ADF8B4
:100E900056000020ADF8580013A9334807F098FD1C
:100EA0000121314807F01CFE012240212E4807F0A5
:100EB000C4FE0C208DF8400001208DF84100022076
:100EC0008DF8420001208DF8430010A806F021F8AB
:100ED000264807F05BFB4FF0006001902248001DA0
:100EE00002901948039000200490182005900020DB
:100EF00006904FF4806007900020089009904FF40E
:100F000080700A904FF440300B9000200C900D90B0
:100F10000E900F9001A9154807F0DAFB0121134844
:100F200007F010FC17B000BD10B511490F4807F0CD
:100F3000B3FC40B10F490D4807F07DFC0C490B484C
:100F4000603007F0D3FC10BDF807002058000020E7
:100F500088070020C8070020FBEB1516DCA54C40D5
:100F600004002000000802400048004028600240C1
:100F7000008800100008001010B52DED028BB0EEB7
:100F8000408AFE4890ED000ADFEDFD0AB4EEE00A6B
:100F9000F1EE10FA11DBFB4890ED270AFA48B0F9A0
:100FA0000400404200EE900AF8EEE00A9FEDF71AC6
:100FB00000EE810AF34880ED270AF24890ED270AF7
:100FC000DFEDF30AB4EEE00AF1EE10FA07DD90ED82
:100FD000270ADFEDF00A30EE600A80ED270AE948C3
:100FE00090ED270ADFEDEC0AB4EEE00AF1EE10FA1C
:100FF00007D290ED270ADFEDE70A30EE200A80EDF8
:10100000270AE148B0F9000000EE100AB8EEC00A65
:10101000F3EE090A20EE200ADFEDE00A80EE201A46
:10102000D84880ED251AD848B0F9020000EE100A21
:10103000B8EEC00AF3EE090A20EE200ADFEDD70A67
:1010400080EE201ACF4880ED261A90ED250AD4486C
:10105000D0ED010A30EE600ACA4880ED280A90ED12
:10106000260ACF48D0ED000A30EE600AC54880ED70
:10107000290A90ED270ACA48D0ED020A30EE600A2C
:10108000C04880ED2A0AD0ED2A0AB0EE600A02F0CC
:10109000F6F9BC4880ED2A0A90ED280AB5EEC00AA0
:1010A000F1EE10FA02DD90ED280A04E0B54890ED6B
:1010B000280AB1EE400AF3EE0E0A80EE201AB1487B
:1010C00080ED2B1A90ED290AB5EEC00AF1EE10FA68
:1010D00002DD90ED290A04E0AA4890ED290AB1EE5C
:1010E000400AF3EE0E0A80EE201AA64880ED2C1A74
:1010F00090ED2A0AB5EEC00AF1EE10FA02DD90ED8D
:101100002A0A04E09F4890ED2A0AB1EE400AF3EE65
:101110000E0A80EE201A9B4880ED2D1A9A4890ED19
:10112000060A20EE080AF3EE090A60EE200A9FED97
:101130009D1A80EE810A9A48D0ED010AF1EE600A0C
:10114000904890ED2E1A70EEC10A30EE200A9648B3
:10115000D0ED050AB2EE041A60EE810A20EE200AF4
:10116000DFED920A80EE881A60EE010A854890ED64
:101170002B1A9FED8F0ADFED8F1A01EE810A20EE08
:10118000800A80ED310A804890ED070A20EE080AB7
:10119000F3EE090A60EE200A9FED821A80EE810AC2
:1011A0007F48D0ED000AF1EE600A764890ED2F1AE4
:1011B00070EEC10A30EE200A7B48D0ED020AB2EE92
:1011C000041A60EE810A20EE200ADFED780A80EE34
:1011D000881A60EE010A6B4890ED2C1A9FED740A94
:1011E000DFED741A01EE810A20EE800A80ED320AEA
:1011F000DFED6E0A80EE880AD0ED2A0A90ED301AF3
:1012000070EEC10A684890ED081AF2EE041A21EE59
:10121000211A60EE810A60EE200A5A4890ED2D1ADC
:101220009FED630ADFED631A01EE810A20EE800A6A
:1012300080ED330A5C4890ED040A5248D0ED280A4C
:1012400060EE200A90ED370A00EE880A80ED370A3A
:10125000554890ED010A4B48D0ED290A60EE200A6E
:1012600090ED380A00EE880A80ED380A4E4890ED7D
:10127000070A4448D0ED2A0A60EE200A90ED390AA8
:1012800000EE880A80ED390A3C4890ED020AF6EE3D
:10129000000A20EE200AF3EE090A20EE200A39485F
:1012A00080ED430A354890ED020AF6EE000A20EE82
:1012B000200AF3EE090A20EE200A324880ED440AA3
:1012C0002E4890ED020AF6EE000A20EE200AF3EE18
:1012D000090A20EE200A2B4880ED450A90ED370AD6
:1012E000D0ED430AF1EE600AB4EEE00AF1EE10FA36
:1012F00004D290ED430AB1EE400A0FE0214890ED90
:10130000370AD0ED430AB4EEE00AF1EE10FA02DD3E
:1013100090ED430A02E01B4890ED370A194880ED32
:10132000370A90ED380AD0ED440AF1EE600AB4EEC7
:10133000E00AF1EE10FA04D290ED440AB1EE400A50
:101340000FE0104890ED380AD0ED440AB4EEE00A00
:10135000F1EE10FA02DD90ED440A02E0094890ED4A
:10136000380A084880ED380A90ED390AD0ED450A70
:10137000F1EE600AB4EEE00A1EE000004009002031
:1013800000007043180800209407002052491D3ABD
:10139000000034430000B443000034C3000025447F
:1013A0008807002000001644740A00200AD7A33BD7
:1013B0006666263F3333B33EF1EE10FA04D290ED69
:1013C000450AB1EE400A0FE0F74890ED390AD0ED3A
:1013D000450AB4EEE00AF1EE10FA02DD90ED450A9E
:1013E00002E0F14890ED390AEF4880ED390A90EDBE
:1013F000280ADFEDEE0AB4EEE00AF1EE10FA02D2AE
:101400009FEDEA0A0FE0E84890ED280ADFEDE80AD0
:10141000B4EEE00AF1EE10FA02DD9FEDE50A02E01B
:10142000E14890ED280AE04880ED280A90ED290A6D
:10143000DFEDDE0AB4EEE00AF1EE10FA02D29FED23
:10144000DB0A0FE0D84890ED290ADFEDD90AB4EEA7
:10145000E00AF1EE10FA02DD9FEDD50A02E0D24873
:1014600090ED290AD04880ED290A90ED2A0ADFED97
:10147000CF0AB4EEE00AF1EE10FA02D29FEDCB0AE9
:101480000FE0C94890ED2A0ADFEDC90AB4EEE00A80
:10149000F1EE10FA02DD9FEDC60A02E0C24890EDBF
:1014A0002A0AC14880ED2A0A90ED280AD0ED310AB7
:1014B00030EE200AD0ED370A30EE200ABD48D0EDDC
:1014C000030A20EE200AB84880ED460A90ED290A6A
:1014D000D0ED320A30EE200AD0ED380A30EE200A84
:1014E000B448D0ED000A20EE200AAF4880ED470A4C
:1014F00090ED2A0AD0ED330A30EE200AD0ED390AF9
:1015000030EE200AAB48D0ED060A20EE200AA648AD
:1015100080ED480AA84890ED010AB1EE400AA248C1
:1015200080ED2E0AA44890ED000AB1EE400A9E48D4
:1015300080ED2F0AA04890ED020AB1EE400A9A48C9
:1015400080ED300ABDEC028B10BD10B52DED088B7F
:10155000B0EE408A99480078A0B39949B1F90600E5
:1015600008F03CF941EC1B0B9FED960B53EC102B54
:1015700008F053F841EC1A0B9FED940B53EC102B31
:1015800007F0A4FF41EC190B08F0A8F99149086095
:10159000084690ED000ADFED900AB4EEE00AF1EEA5
:1015A00010FA02D29FED8C0A10E08A4890ED000AF2
:1015B000DFED8A0AB4EEE00AF1EE10FA03DD9FEDEA
:1015C000870A03E006E0834890ED000A814880ED39
:1015D000000A04E09FED820A7E4880ED000A7D4803
:1015E000D0ED000A9FED7F1A80EE810AD0ED010A4E
:1015F00070EE600A90ED010A9FED7B1A28EE011A49
:1016000001EE200A80ED010A90ED010AB5EEC00A54
:10161000F1EE10FA02D29FED720A0FE06D4890EDE4
:10162000010AF7EE000AB4EEE00AF1EE10FA02DD6C
:10163000B7EE000A02E0674890ED010A654880EDC8
:10164000020ABDEC088B10BD10B52DED028BB0EE7B
:10165000408A554890ED460AF3EE0E0A80EE201AB5
:101660009FED620A21EE000A80ED000A90ED470A24
:10167000F3EE0E0A80EE201A9FED5C0A21EE000ABE
:1016800080ED010A90ED480AF3EE0E0A80EE201A72
:101690009FED560A21EE000A80ED020A90ED000A45
:1016A000DFED530AB4EEE00AF1EE10FA02D29FED3C
:1016B000500A0FE03C4890ED000ADFED4C0AB4EE12
:1016C000E00AF1EE10FA02DD9FED480A02E036482A
:1016D00090ED000A344880ED000A90ED010ADFED3C
:1016E000440AB4EEE00AF1EE10FA02D29FED400A8D
:1016F0000FE02D4890ED010ADFED3C0AB4EEE00A60
:10170000F1EE10FA02DD9FED390A02E0264890ED75
:10171000010A254880ED010A90ED020ADFED340A46
:10172000B4EEE00AF1EE10FA02D29FED310A0FE0BA
:101730001D4890ED020ADFED2D0AB4EEE00AF1EE4D
:1017400010FA02DD9FED290A02E0174890ED020A27
:10175000154880ED020A90ED000A2648D0ED060AF1
:1017600030EE600A104880ED030A90ED010A21482E
:10177000D0ED070A30EE600A0B4880ED040A90EDC8
:10178000020A1C48D0ED080A30EE600A064880EDD7
:10179000050A90ED030AB5EEC00AF1EE10FA2BDD52
:1017A00090ED030A2DE00000180800200000B4C2EC
:1017B0000000B442740A0020880700205C0000206A
:1017C000940700201361C3D32B65E33F00000000A2
:1017D00000407F40400900200000C84200007A44D9
:1017E000000000000000C8433433FB4100005C43AC
:1017F00000005CC3C8070020FE4890ED030AB1EE6C
:10180000400A5FED060A80EE201AFA4880ED061ABB
:1018100090ED040AB5EEC00AF1EE10FA02DD90ED8B
:10182000040A04E0F34890ED040AB1EE400A5FEDCB
:10183000110A80EE201AEF4880ED071A90ED050A94
:10184000B5EEC00AF1EE10FA02DD90ED050A04E0F3
:10185000E84890ED050AB1EE400ADFEDE70A80EEB8
:10186000201AE44880ED081AE44890ED060AE148A1
:10187000D0ED090A30EE600AE148D0ED0E0AF1EE33
:10188000600A20EE200AC0EE080ADA48C0ED0C0A11
:10189000DA4890ED070AD748D0ED0A0A30EE600A20
:1018A000D748D0ED0B0AF1EE600A20EE200AC0EE18
:1018B000080AD048C0ED0D0AD04890ED080ACD487E
:1018C000D0ED0B0A30EE600ACD48D0ED110AF1EEF2
:1018D000600A20EE200AC0EE080AC648C0ED0E0AD3
:1018E00090ED030AD0ED0C0A30EE600AC448D0ED4A
:1018F0000D0A60EE200ABF4890ED120A00EE880A39
:1019000080ED120A90ED040AD0ED0D0A30EE600A67
:10191000BB48D0ED0A0A60EE200AB64890ED130AE3
:1019200000EE880A80ED130A90ED050AD0ED0E0A4C
:1019300030EE600AB248D0ED100A60EE200AAD48E1
:1019400090ED140A00EE880A80ED140AAD4890ED7F
:10195000020AF6EE000A20EE200A5FED5C0A20EE95
:10196000200AA44880ED1E0AA64890ED020AF6EE71
:10197000000A20EE200A5FED630A20EE200A9D484F
:1019800080ED1F0A9F4890ED020AF6EE000A20EE55
:10199000200A5FED6A0A20EE200A964880ED200AB0
:1019A00090ED120AD0ED1E0AF1EE600AB4EEE00AE4
:1019B000F1EE10FA04D290ED1E0AB1EE400A0FE0EB
:1019C0008C4890ED120AD0ED1E0AB4EEE00AF1EE5A
:1019D00010FA02DD90ED1E0A02E0864890ED120A30
:1019E000844880ED120A90ED130AD0ED1F0AF1EE43
:1019F000600AB4EEE00AF1EE10FA04D290ED1F0A8C
:101A0000B1EE400A0FE07B4890ED130AD0ED1F0ABB
:101A1000B4EEE00AF1EE10FA02DD90ED1F0A02E0EA
:101A2000744890ED130A734880ED130A90ED140A80
:101A3000D0ED200AF1EE600AB4EEE00AF1EE10FA01
:101A400004D290ED200AB1EE400A0FE0694890ED13
:101A5000140AD0ED200AB4EEE00AF1EE10FA02DD2D
:101A600090ED200A02E0634890ED140A614880ED91
:101A7000140A90ED240AF7EE000A30EEC00A60481E
:101A8000D0ED0C0A20EE200A5A48D0ED030A90ED62
:101A90000C1A70EE810A90ED121A70EE810A60EE57
:101AA000200A90ED241AD0ED061A9FED570A9FEDFB
:101AB000572A02EE210AB5EEC00AF1EE10FA02D260
:101AC0001FEDB90A1BE04B48D0ED061A9FED4E0AF8
:101AD0009FED4E2A02EE210AF7EE001AB4EEE10A5B
:101AE000F1EE10FA02DDB7EE000A08E04148D0ED51
:101AF000061A9FED450A9FED452A02EE210A21EEC6
:101B0000000A3C4890ED251A40EE010AB0EE080AA2
:101B100020EE800A80ED210A90ED240AF7EE000AFB
:101B200030EEC00A3648D0ED090A20EE200A3148CE
:101B3000D0ED040A90ED0D1A70EE810A90ED131AA3
:101B400070EE810A60EE200A90ED241AD0ED071A9B
:101B50009FED2D0A9FED2D2A02EE210AB5EEC00A57
:101B6000F1EE10FA02D21FEDE20A1BE02148D0ED9F
:101B7000071A9FED250A9FED252A02EE210AF7EEAE
:101B8000001AB4EEE10AF1EE10FA02DDB7EE000A37
:101B900008E01848D0ED071A9FED1B0A9FED1B2A9D
:101BA00002EE210A21EE000A124890ED261A40EEBC
:101BB000010AB0EE080A20EE800A80ED220A90EDBC
:101BC000240AF7EE000A30EEC00A0D48D0ED0F0AE5
:101BD00020EE200A0748D0ED050A90ED0E1A70EEAF
:101BE000810A90ED141A70EE810A60EE200A90EDE1
:101BF000241A0DE01808002000001643C807002032
:101C0000740A0020400900206666E63ECDCC0C3FF9
:101C1000D0ED081A1FED040A1FED042A02EE210A76
:101C2000B5EEC00AF1EE10FA02D29FED510A1BE0A8
:101C30005048D0ED081A1FED0C0A1FED0C2A02EED9
:101C4000210AF7EE001AB4EEE10AF1EE10FA02DD15
:101C5000B7EE000A08E04748D0ED081A1FED160A53
:101C60001FED162A02EE210A21EE000A414890EDEE
:101C7000271A40EE010AB0EE080A20EE800A80ED35
:101C8000230A90ED210ADFED3C0AB4EEE00AF1EE02
:101C900010FA02D29FED380A0FE0364890ED210A83
:101CA000DFED360AB4EEE00AF1EE10FA02DD9FED48
:101CB000330A02E02F4890ED210A2E4880ED210AD8
:101CC00090ED220ADFED2C0AB4EEE00AF1EE10FAF4
:101CD00002D29FED290A0FE0264890ED220ADFED9F
:101CE000270AB4EEE00AF1EE10FA02DD9FED230AB6
:101CF00002E0204890ED220A1E4880ED220A90ED75
:101D0000230ADFED1D0AB4EEE00AF1EE10FA02D26A
:101D10009FED190A0FE0174890ED230ADFED170A2F
:101D2000B4EEE00AF1EE10FA02DD9FED140A02E0D3
:101D3000104890ED230A0F4880ED230A104890EDDB
:101D4000060A0C4880ED090A0D4890ED070A09487B
:101D500080ED0A0A0A4890ED080A064880ED0B0A51
:101D6000B0EE480AFFF7F1FBBDEC028B10BD00009E
:101D70000000000018080020000048C3000048438D
:101D8000C807002010B52DED028BF0EE408AB84850
:101D9000D0ED020AB0EE600A03F010FDB0EE408A0A
:101DA000B44890ED0A0AF1EE480A20EE200A80EDD0
:101DB000060A90ED060A80ED090ABDEC028B10BD03
:101DC000AC48D0ED230AAA4890ED051A70EEC10A7E
:101DD000A848C0ED0E0AD0ED0E0A9FEDA71AF4EE4A
:101DE000C10AF1EE10FA02D2DFEDA30A0FE0A1481A
:101DF000D0ED0E0A9FEDA11AF4EEC10AF1EE10FA31
:101E000002DDDFED9E0A02E09A48D0ED0E0A994805
:101E1000C0ED0E0AD0ED0E0A90ED171A60EE810AA1
:101E2000C0ED130AD0ED130AC0ED160A70479448AE
:101E3000B0F90810B0F91400814209D09048008927
:101E4000012805D18A48D0ED080A8A48C0ED1A0A4F
:101E50008B48008901287DD100038A4908808A487F
:101E6000D0ED000A9FED891AF4EEC10AF1EE10FAE6
:101E700012DD8048D0ED1A0A834890ED001ADFED9C
:101E8000831A31EE611A21EE001AF5EE001A41EEC6
:101E9000210A7848C0ED1A0A7B48D0ED000A9FED70
:101EA0007C1AF4EEC10AF1EE10FA12D27148D0EDAC
:101EB0001A0A754890ED001ADFED751A31EE611AB5
:101EC00021EE001AF5EE001A41EE210A6948C0ED34
:101ED0001A0A6B484089012809D16E48D0ED250ABD
:101EE0009FED6D1A70EE810A6248C0ED1A0A6148D2
:101EF000D0ED1A0A5E4890ED081A70EEC10A5D48EE
:101F0000C0ED1B0AD0ED250A90ED1B1A20EE811AB8
:101F1000D0ED210A41EE000AC0ED210AD0ED1B0AE6
:101F2000F5EEC00AF1EE10FA02DDD0ED1B0A04E076
:101F30005048D0ED1B0AF1EE600A4E48C0ED1F0A72
:101F4000D0ED1F0AB3EE041AF4EEC10AF1EE10FA56
:101F500004D200E048E0F3EE040A0FE04548D0ED7B
:101F60001F0A9FED4E1AF4EEC10AF1EE10FA02DDDF
:101F7000DFED4A0A02E03F48D0ED1F0A3D48C0EDC0
:101F80001F0AD0ED210A90ED1F1AB1EE411AF4EEAE
:101F9000C10AF1EE10FA04D2D0ED1F0AF1EE600A88
:101FA0000FE03448D0ED210A90ED1F1AF4EEC10A7B
:101FB000F1EE10FA02DDD0ED1F0A02E02D48D0ED5F
:101FC000210A2C48C0ED210AD0ED1B0A90ED241AFD
:101FD00060EE810AC0ED200AD0ED200A90ED211AB2
:101FE00070EE810AC0ED230A25480089032802D03B
:101FF0002348008980BB4FF480502249891E088005
:10200000DFED270A1B48C0ED210A1F48D0ED000A6A
:102010009FED241A70EEC10AB6EE001A60EE810A36
:102020001448C0ED230AD0ED230A9FED1F1AF4EEE9
:10203000C10AF1EE10FA02D2DFED1B0A10E00D48E2
:10204000D0ED230A9FED191AF4EEC10AF1EE10FA51
:1020500003DDDFED160A03E005E00648D0ED230AB4
:102060000448C0ED230A06480189818270470000B8
:10207000E816002050090020000016C30000164397
:10208000940700201A08024040090020000016446E
:102090000000C843880B00200000FA4300004842BB
:1020A000000000000000E14300007AC300007A4312
:1020B00010B58AB004460121022005F0A0FF0121DD
:1020C000042005F069FF02220621FE4806F029FAE5
:1020D00002220721FB4806F024FA02220821F948CF
:1020E00006F01FFA02220921F64806F01AFA4FF408
:1020F0007070089002208DF8240003208DF82500D0
:1021000000208DF8260001208DF8270008A9ED4851
:1021100006F07CF91420ADF814000020ADF816008C
:1021200042F2107006900020ADF81C008DF81E00E1
:1021300005A9E54805F005F86020ADF8000000208D
:10214000ADF80C000120ADF802006946DE4805F04C
:102150008DF86946DC4805F0C2F86946DA4805F0B2
:102160000BF96946D84805F06DF90821D64805F005
:102170000AFA0821D44805F00FFA0821D24805F0E0
:1021800018FA0821D04805F01DFA0121CE4805F0C3
:1021900043F80121CC4805F05DF84FF4FA50CA49E4
:1021A00034310860091D0860091D0860091D0860B8
:1021B0008010FEF78EF84FF47A60C349343108601E
:1021C000091D0860091D0860091D08604010FEF720
:1021D00080F80AB010BD10B52DED108BBB48B0F9DA
:1021E0000600BB49884211DCBA480068B0F5FA7FA6
:1021F00006DD0120B84948700020B649086008E0B3
:10220000B4480068401CB349086002E00020B249AD
:102210004870B148407830BBAF488078012822D15F
:10222000AD48007818B10020AB4908701BE00120D0
:10223000A94908709FEDA90AA94880ED270AB7EEC1
:10224000000AA84880ED000A9FEDA40AA64880ED88
:10225000000A9FEDA20AA54880ED000A9FED9F0AA3
:10226000A34880ED000A9C4840789B498870084646
:10227000C07800287ED00846007800287BD09D4892
:1022800090ED010ADFED9C0A80EE201A11EE104A53
:10229000204607F0E0FA41EC1B0BB0EE4B0AF0EEE3
:1022A0006B0A07F069FEB0EE409AF0EE609A914832
:1022B00090ED000ADFED900A80EE201A11EE104A30
:1022C000204607F0C8FA41EC1D0BB0EE4D0AF0EEC7
:1022D0006D0A07F051FEB0EE40BAF0EE60BA8748E2
:1022E00090ED000A10EE101A084607F0B4FA41EC1F
:1022F0001C0B53EC1B2B07F002FA41EC1A0B53ECAE
:10230000192B07F0FCF941EC180B07F0E7FA7B49B1
:10231000C860784890ED010ADFED770A80EE201A58
:1023200011EE104A204607F096FA41EC1D0BB0EE74
:102330004D0AF0EE6D0A07F01FFEB0EE40BAF0EE67
:1023400060BA6C4890ED000ADFED6B0A80EE201A4F
:1023500011EE104A204607F07EFA41EC1F0BB0EE5A
:102360004F0AF0EE6F0A07F007FEB0EE40DAF0EE2B
:1023700060DA01E06EE21CE2614890ED090AD0EDFE
:10238000160A30EE200A10EE101A084607F063FA1B
:1023900041EC1E0B53EC1D2B07F0B1F941EC1C0B6B
:1023A00053EC1B2B07F0ABF941EC190B534890EDA4
:1023B000030A4B48D0ED210A30EE600AD0ED220A24
:1023C00030EE600AD0ED230A30EE600A10EE101AEB
:1023D000084607F040FA41EC1A0B53EC192B07F0B2
:1023E00075F841EC180B07F079FA46490860414846
:1023F00090ED010ADFED400A80EE201A11EE104A3E
:10240000204607F028FA41EC1D0BB0EE4D0AF0EE25
:102410006D0A07F0B1FDB0EE40BAF0EE60BA354893
:1024200090ED000ADFED340A80EE201A11EE104A1A
:10243000204607F010FA41EC1F0BB0EE4F0AF0EE09
:102440006F0A07F099FDB0EE40DAF0EE60DA2C4842
:1024500090ED090AD0ED160A30EE200A10EE101A9F
:10246000084607F0F8F941EC1E0B53EC1D2B07F062
:1024700046F941EC1C0B53EC1B2B07F040F941ECE7
:10248000190B1E4890ED030A1548D0ED210A30EED5
:10249000200AD0ED220A30EE600AD0ED230A30EE99
:1024A000200A10EE101A084607F0D5F941EC1A0B75
:1024B00053EC192B07F00AF841EC180B07F00EFA51
:1024C000104921E000080240000400409407002069
:1024D00076FDFFFF600000205C000020000000008F
:1024E0001808002014000020180000201C00002004
:1024F0002000002088070020A34C654240090020EE
:1025000050090020EC0900204860D44890ED010AF1
:102510005FED070A80EE201A11EE104A204607F000
:102520009AF941EC1D0BB0EE4D0AF0EE6D0A07F082
:1025300023FDB0EE40BAF0EE60BAC84890ED000A54
:102540005FED130A80EE201A11EE104A204607F0C4
:1025500082F941EC1F0BB0EE4F0AF0EE6F0A07F064
:102560000BFDB0EE40DAF0EE60DABD4890ED090AFE
:10257000D0ED160A30EE200A10EE101A084607F0C9
:102580006AF941EC1E0B53EC1D2B07F0B8F841EC37
:102590001C0B53EC1B2B07F0B2F841EC190BB148A4
:1025A00090ED030AB048D0ED210A30EE200AD0EDBC
:1025B000220A30EE200AD0ED230A30EE600A10EE37
:1025C000101A084607F047F941EC1A0B53EC192B87
:1025D00006F07CFF41EC180B07F080F9A3498860F6
:1025E0009E4890ED010A5FED3C0A80EE201A11EE44
:1025F000104A204607F02FF941EC1D0BB0EE4D0AB2
:10260000F0EE6D0A07F0B8FCB0EE40BAF0EE60BA3A
:10261000924890ED000A5FED480A80EE201A11EE14
:10262000104A204607F017F941EC1F0BB0EE4F0A95
:10263000F0EE6F0A07F0A0FCB0EE40DAF0EE60DAE0
:10264000874890ED090AD0ED160A30EE200A10EE08
:10265000101A084607F0FFF841EC1E0B53EC1D2B37
:1026600007F04DF841EC1C0B53EC1B2B07F047F81F
:1026700041EC190B7B4890ED030A7B48D0ED210A11
:1026800030EE600AD0ED220A30EE200AD0ED230AA7
:1026900030EE200A10EE101A084607F0DCF841EC84
:1026A0001A0B53EC192B06F011FF41EC180B07F035
:1026B00015F96E49C860084690ED000ADFED6C0A16
:1026C000B4EEE00AF1EE10FA02D29FED690A0FE0D3
:1026D000664890ED000ADFED670AB4EEE00AF1EE1D
:1026E00010FA02DD9FED630A02E0604890ED000AF7
:1026F0005E4880ED000A90ED010ADFED5D0AB4EE60
:10270000E00AF1EE10FA02D29FED590A0FE05748A5
:1027100090ED010ADFED570AB4EEE00AF1EE10FA8F
:1027200002DD9FED540A02E0504890ED010A4F4847
:1027300080ED010A90ED020ADFED4D0AB4EEE00AE9
:10274000F1EE10FA02D29FED4A0A0FE0474890EDF1
:10275000020ADFED480AB4EEE00AF1EE10FA02DDFB
:102760009FED440A02E0414890ED020A3F4880EDA7
:10277000020A90ED030ADFED3E0AB4EEE00AF1EE44
:1027800010FA02D29FED3A0A0FE0384890ED030AA2
:10279000DFED380AB4EEE00AF1EE10FA02DD9FED4B
:1027A000350A02E0314890ED030A304880ED030A13
:1027B00010E01FEDB60A2D4880ED000A1FEDB90AA2
:1027C00080ED010A1FEDBB0A80ED020A1FEDBD0A74
:1027D00080ED030A2548D0ED000A9FED270AB1EEEF
:1027E000001A01EE200ABDEEC00A10EE100A00B277
:1027F000224908601D48D0ED010A9FED1F0AB1EE85
:10280000001A01EE200ABDEEC00A10EE100A00B256
:10281000091D08601548D0ED020A9FED170AB1EEB8
:10282000001A01EE200ABDEEC00A10EE100A00B236
:10283000091D08600D48D0ED030A9FED0F0AB1EEA7
:10284000001A01EE200ABDEEC00A10EE100A00B216
:10285000091D0860BDEC108B10BD0000880700202A
:10286000500900204009002018080020EC09002031
:102870000000A0420080894400007A4534040040F2
:1028800000BF2F4A128802F04002002AF9D0C2B2DB
:102890002B4B9A80704700B587B00121294805F07D
:1028A0007BFB0121102005F0BBFB072209212648F4
:1028B00005F037FE07220A21234805F032FE4FF4C7
:1028C000C060019002208DF8080000208DF80A00F9
:1028D00003208DF8090000208DF80B0001A91A488B
:1028E00005F094FD4FF4FA2003900020ADF810009D
:1028F000ADF81200ADF814000C20ADF81600002061
:10290000ADF8180003A90E4806F062F8012240F263
:1029100025510B4806F09AF90121094806F0E0F824
:1029200007B000BD10B5044600BF4021044806F0C2
:10293000B2F90028F9D02146014806F0FCF810BD94
:1029400000100140010040000000024010B50446A4
:1029500000BF4021B84806F09EF90028F9D0214672
:10296000B54806F0E8F810BD00B597B00121B348AE
:1029700005F012FB0121080505F041FB08220C219E
:10298000AF4805F0CEFD08220221AE4805F0C9FD92
:102990004FF48050119002208DF8480000208DF8EF
:1029A0004A0003208DF8490000208DF84B0011A942
:1029B000A34805F02BFD0420119002208DF848005B
:1029C00000208DF84A0003208DF8490000208DF882
:1029D0004B0011A99B4805F019FD974805F0AAFF87
:1029E0004FF4165013900020ADF85000ADF852008F
:1029F000ADF854000C20ADF856000020ADF858009A
:102A000013A98D4805F0E4FF01218B4806F068F812
:102A10006420FDF75EFCB520FFF798FF6220FFF70A
:102A200095FF0620FFF792FF0020FFF78FFF14208D
:102A3000FFF78CFF0020FFF789FF0120FFF786FFDB
:102A40000020FFF783FF0020FFF780FF0020FFF743
:102A50007DFFD020FFF77AFF0820FFF777FF0020E7
:102A6000FFF774FF0020FFF771FF0020FFF76EFFF4
:102A7000C220FFF76BFF0120FFF768FF0020FFF780
:102A800065FF0720FFF762FF0020FFF75FFF0320CD
:102A9000FFF75CFF0020FFF759FF0020FFF756FF0C
:102AA0000020FFF753FF0020FFF750FF0020FFF743
:102AB0004DFFC020FFF74AFF7E20FFF747FF64204D
:102AC000FDF707FC00215C4806F00AF85A4805F0BB
:102AD00031FF4FF4E13013900020ADF85000ADF815
:102AE0005200ADF854000C20ADF856000020ADF8AF
:102AF000580013A9504805F06BFF01214E4805F01E
:102B0000EFFF6420FDF7E5FBB520FFF71FFF622014
:102B1000FFF71CFF0620FFF719FF0820FFF716FF3D
:102B20000620FFF713FF0020FFF710FF6420FFF7D8
:102B30000DFF0020FFF70AFF0120FFF707FF00202D
:102B4000FFF704FF0120FFF701FF0020FFF7FEFE63
:102B50007A20FFF7FBFE1220FFF7F8FE6420FDF756
:102B6000B8FB012240F22441334806F06FF80122FD
:102B70004021314806F061F835208DF840000320EF
:102B80008DF8410001208DF842008DF8430010A817
:102B900004F0BFF92C4805F0F9FC4FF000600190FB
:102BA0002548001D029029480390002004904FF40E
:102BB00000600590002006904FF480600790002090
:102BC000089009904FF480700A9040020B9000200A
:102BD0000C900D900E900F9001A91B4805F078FD08
:102BE0000121194805F0AEFD17B000BD10B540F247
:102BF0002441114806F065F8E0B10021124805F0C3
:102C0000A1FD062000F026F8114880ED000A0A48D0
:102C10000488848800F064FF4FF400600A4910398A
:102C2000486140F22441044806F082F80121064838
:102C300005F088FD10BD0000005000400C00200091
:102C400000080240000C024010600240F80C002016
:102C50006400002010B5044604EB4400204901EB59
:102C6000800090ED000A04EB440001EB800080ED51
:102C7000010AFDF70AFB00EE100AB8EE400ADFED8C
:102C8000190A80EE201A04EB4400154901EB80007C
:102C900080ED001A04EB440001EB800090ED000A87
:102CA00004EB440001EB8000D0ED010A30EE600A35
:102CB00004EB440001EB800080ED020A04EB4400C9
:102CC00001EB800090ED020A10BD10B5002404E075
:102CD0002046FFF7BFFF601CC4B20A2CF8DB10BD12
:102CE000FC090020002474491CB50121042005F0D2
:102CF00053F941F20240009001208DF804000020B9
:102D00008DF8060003208DF805006946084805F097
:102D10007DFB4FF480600649183108800220891C31
:102D20000880C002891E08801CBD704770470000E3
:102D3000000802409FED960A964880ED000A9FED3C
:102D4000960A80ED010AB0EE000A80ED020A9FEDBE
:102D5000900A80ED030A9FED900A80ED040AB0EE20
:102D6000000A80ED050AB7EE000A80ED060A9FED25
:102D70008B0A80ED070A9FED890A80ED080A9FED16
:102D8000880A80ED090A9FED850A80ED0A0A9FED09
:102D9000850A80ED0B0A9FED820A80ED0C0A9FEDFB
:102DA0007F0A80ED0D0A9FED7F0A80ED0E0A9FEDF0
:102DB0007E0A80ED0F0A9FED790A80ED100A9FEDE3
:102DC0007B0A80ED110A9FED7A0A7A4880ED240A89
:102DD0009FED790A794880ED0A0AB0EE040A80ED89
:102DE000170AB7EE000A80ED240A9FED750A80ED00
:102DF000250AB2EE040A80ED1F0A9FED720A72489E
:102E000080ED060A9FED6F0A80ED120A9FED650ABC
:102E100080ED080A9FED630A80ED140A9FED6B0AAE
:102E200080ED1E0A9FED690A80ED2A0A9FED680A6F
:102E300080ED1F0A9FED660A80ED2B0A704770B582
:102E4000FF250026002403F0DEFD05463E2D06DDAD
:102E500003F0D4FD08B1002501E0002070BD5D48FD
:102E600000EBC52606F012F95B48B0F92020214698
:102E7000631C9CB2304603F0F1FD08B90020EDE779
:102E80005548B0F922202146631C9CB2304603F01D
:102E9000E5FD08B90020E1E74F48B0F924202146BC
:102EA000631C9CB2304603F0D9FD08B90020D5E779
:102EB0004948B0F926202146631C9CB2304603F0F5
:102EC000CDFD08B90020C9E74348B0F928202146C4
:102ED000631C9CB2304603F0C1FD08B90020BDE779
:102EE0003D48B0F92A202146631C9CB2304603F0CD
:102EF000B5FD08B90020B1E706F0D5F80120ADE72F
:102F000070B5FF250026002403F07DFD05460DB9B0
:102F1000002070BD681EC5B22E4800EBC5262146B4
:102F2000621C94B2304603F0B4FD00B22A49088412
:102F30002146621C94B2304603F0ABFD01B2264834
:102F400041842146621C94B2304603F0A2FD01B2D6
:102F5000214881842146621C94B2304603F099FDD9
:102F600000B21D49C8842146621C94B2304603F069
:102F700090FD01B2184801852146621C94B230468A
:102F800003F087FD01B2144841850120C1E700002C
:102F9000CDCC4C3F740A0020AE47E13D000000005C
:102FA000CDCCCC3E0AD7A33C9A99193F295C0F3D62
:102FB0008FC2753D180800203333B33E50090020FE
:102FC000CDCCCC3D295C8F3DC00A00209A99993E1A
:102FD000CDCC4C3E00000E0800070020B0EE401A99
:102FE000F0EE601AB5EEC01AF1EE10FA07D1F5EE68
:102FF000C01AF1EE10FA02D19FEDF90AA5E0B5EE84
:10300000C01AF1EE10FA02DDB0EE414A01E0B1EE75
:10301000414AB0EE443AF5EEC01AF1EE10FA02DD84
:10302000B0EE614A01E0B1EE614AF0EE442AB4EE3E
:10303000E23AF1EE10FA02D283EE222A01E082EEA9
:10304000832A9FEDE84AB4EEC42AF1EE10FA02D2C8
:10305000F0EE420A2DE0DFEDE44AB6EE004A12EE51
:10306000244AF0EE443ABDEEE34A14EE100A04EEB0
:10307000100AB8EEC44A33EEC44AF0EE443ADB49D3
:1030800001EB800191ED004AF0EE440AD74A411C61
:1030900002EB810191ED004A114601EB8001D1ED77
:1030A000004A74EE644AB0EE604A04EEA34AF0EEC1
:1030B000440AF4EEC32AF1EE10FA20DDF5EEC01A50
:1030C000F1EE10FA0ADBB5EEC01AF1EE10FA02DBEF
:1030D000B0EE600A39E0B1EE600A36E09FEDC40A56
:1030E000B5EEC01AF1EE10FA04DB30EE604AB0EE35
:1030F000440A2AE030EEC04AB0EE440A25E0B5EEBC
:10310000C01AF1EE10FA10DB9FEDBA0AF5EEC01A04
:10311000F1EE10FA04DB30EE604AB0EE440A14E03F
:1031200030EE204AB0EE440A0FE09FEDB30AF5EE10
:10313000C01AF1EE10FA04DB30EE204AB0EE440A79
:1031400003E030EE604AB0EE440A704700B5B0EEDE
:10315000405AF0EE605AF0EE450AB0EE650AFFF70D
:103160003DFF00BDF0EE400A20EEA00A7047B0EE31
:10317000401AB7EE080AB0EE402AB6EE000A21EE79
:10318000000AF0EE401AF0EE410A10EE900A9B4958
:10319000A1EB600000EE900A61EEA02AB7EE080AEB
:1031A00002EEE00A20EE200AF0EE400A61EEA02ACC
:1031B000B7EE080A02EEE00A20EE200AF0EE400A1E
:1031C00021EE200A704710B52DED0A8BB0EE409A23
:1031D000F0EE609A9FED8A0B53EC102B51EC190B1B
:1031E00006F04CFB18D29FED880B53EC102B51ECE2
:1031F000190B06F012FA41EC1B0B9FED850B53ECFB
:10320000102B06F063F941EC1A0B53EC192B06F066
:1032100004FA41EC180B17E09FED7B0B53EC102BDD
:1032200051EC190B06F0F9F941EC1B0B9FED780BF3
:1032300053EC102B06F0EEF941EC1A0B53EC192B62
:1032400006F0EBF941EC180B9FED6D0B53EC102BD6
:1032500051EC180B06F012FB20D29FED6F0B53ECD4
:10326000102B51EC180B06F031F941EC1C0B9FEDC3
:103270006C0B53EC102B06F0D0F941EC1B0B9FEDBF
:10328000660B53EC102B06F021F941EC1A0B53ECB2
:10329000182B06F0C2F941EC180B1FE09FED5E0BF6
:1032A00053EC102B51EC180B06F0B1F941EC1C0B50
:1032B0009FED5D0B53EC102B06F0AFF941EC1B0BAF
:1032C0009FED550B53EC102B06F000F941EC1A0B57
:1032D00053EC182B06F0A1F941EC180BB0EE480A9C
:1032E000F0EE680ABDEC0A8B10BD10B52DED068B13
:1032F000B0EE408AF0EE608A01249FED4D0B53EC56
:10330000102B51EC180B06F0D1FA0AD89FED480BA0
:1033100053EC102B51EC180B06F079F941EC180B1B
:10332000A41E204606F05AFA41EC190BB0EE480AEA
:10333000F0EE680AFFF747FFB0EE40AAF0EE60AA91
:1033400053EC192B51EC1A0B06F067F941EC100BFA
:10335000BDEC068B10BD10B52DED088BB0EE408A8C
:10336000F0EE608A01249FED340B53EC102B51ECEE
:10337000180B06F0ABF841EC180B9FED2D0B53EC3E
:10338000102B51EC180B06F091FA0AD8A41E9FEDF1
:10339000280B53EC102B51EC180B06F038F941ECCC
:1033A000180B204606F01AFA41EC1A0BB0EE480A48
:1033B000F0EE680AFFF799FFB0EE40BAF0EE60BA9F
:1033C00053EC1A2B51EC1B0B06F027F941EC190BAF
:1033D00006F084FA00EE100ABDEC088B10BD000068
:1033E000000000008180803B0000804368000020D6
:1033F000DB0F4940DB0FC93FDB0FC9BFDF59375F28
:103400000000000000000000000000602FF0D93F25
:1034100000000060305FF43F000000000000F03F5B
:10342000000000C0CCCCCCBF000000C0CCCCCC3F56
:10343000F1D4C853FB210940F1D4C853FB21F93F13
:10344000B0EE401AB5EEC01AF1EE10FA0BDD31EE17
:10345000600AB5EEC00AF1EE10FA0FD25FED201A45
:10346000B0EE610A0AE031EE200AB5EEC00AF1EED4
:1034700010FA03DD5FED261AB0EE610A7047F0EE38
:10348000400A9FED0D0AF4EEC00AF1EE10FA04DDD9
:103490009FED0A0A30EEC00A70479FED090AF4EE6C
:1034A000C00AF1EE10FA04D29FED040A30EE800A51
:1034B000F2E7B0EE600AEFE7000034430000B443E7
:1034C000000034C3F0B502460B460026002400215C
:1034D000002502B10BB90020F0BD144613E0701CAA
:1034E00086B22546194606E008782F78B84200D003
:1034F00004E06D1C491C08780028F5D100BF08784D
:1035000000B903E0641C20780028E8D100BF3046F1
:10351000E2E72DE9F04100270025F6A1F748FFF783
:10352000D1FF8046B8F1000F41D000BFF3484044BE
:10353000861D00BF16F8014B2C2C03D1781CC7B296
:1035400000252EE0092F27D2DFE807F005080B0F32
:1035500012161A1E2200EA4844551EE0E848C472BA
:103560001BE0E7480C30445517E0E548847514E04B
:10357000E3481730445510E0E14880F822400CE061
:10358000DF482330445508E0DD482930445504E045
:10359000DB482F30445500E000BF00BF681CC5B2B7
:1035A00000BF00BF2A2C02D0D6488642C2D3BDE855
:1035B000F08110B52DED108B88B0D148407B3038AC
:1035C000CF49097B303901EB810100EB410084B226
:1035D000CB49497DA1F1300006F000F941EC1A0B0E
:1035E0009FEDC90B53EC102B06F017F841EC190BAB
:1035F000C349097DA1F1300006F0F0F841EC1B0B46
:103600009FEDC30B53EC102B06F007F8CDE9040136
:10361000BB49C97CA1F1300006F0E0F841EC1D0B7C
:103620009FEDBD0B53EC102B05F0F7FF41EC1B0B8E
:10363000B349897CA1F1300006F0D0F841EC1E0BB3
:103640009FEDB70B53EC102B05F0E7FF41EC1D0B82
:10365000AB49497CA1F1300006F0C0F841EC1F0BEA
:103660009FEDB10B53EC102B05F0D7FFCDE9000116
:10367000A349C97B3039A24A927B303A02EB8202DD
:1036800001EB420006F0AAF841EC1E0B9DED000B89
:1036900053EC102B05F01AFF53EC1D2BCDE9020162
:1036A0009DED020B51EC100B05F010FF41EC1C0BD3
:1036B00053EC1B2B05F00AFF41EC1A0B9DED040B9C
:1036C00053EC102B05F002FF53EC192BCDE906014A
:1036D0009DED060B51EC100B05F0F8FE41EC180BBC
:1036E0009FED930B53EC102B51EC180B06F007F8E1
:1036F00041EC180B204606F082F841EC190B53EC14
:10370000182B05F0E3FE41EC180BB0EE480AF0EE82
:10371000680A08B0BDEC108B10BD10B52DED108BF4
:1037200088B07748C07D3038642110FB01F17448BF
:10373000007E303800EB800001EB40017048407E95
:103740003038084484B26E4991F82110A1F130005C
:1037500006F044F89FED6C0B53EC102B05F05DFF69
:1037600041EC190B664991F82010A1F1300006F0E8
:1037700035F89FED670B53EC102B05F04EFFCDE9AC
:1037800004015F49C97FA1F1300006F027F89FEDE1
:10379000620B53EC102B05F040FF41EC1B0B58491A
:1037A000897FA1F1300006F019F89FED5D0B53EC15
:1037B000102B05F032FF41EC1D0B5149497FA1F15F
:1037C000300006F00BF89FED580B53EC102B05F072
:1037D00024FFCDE900014A49C97E3039484A927E2A
:1037E000303A02EB820201EB420005F0F7FF9DED5B
:1037F000000B53EC102B05F069FE53EC1D2BCDE9AB
:1038000002019DED020B51EC100B05F05FFE53EC35
:103810001B2B05F05BFE9DED040B53EC102B05F00C
:1038200055FE53EC192BCDE906019DED060B51EC2D
:10383000100B05F04BFE41EC180B9FED3D0B53ECCC
:10384000102B51EC180B05F05AFF41EC180B2046D9
:1038500005F0D5FF53EC182B05F038FE41EC180BA2
:10386000B0EE480AF0EE680A08B0BDEC108B10BD4F
:1038700070B52DED068B00259FED2F0BB0EE408A25
:10388000F0EE608A002429E01D482330005D2E28D8
:103890001CD01B482330005DC0B119492331095D9C
:1038A000A1F1300005F09AFF41EC190B9FED240BBC
:1038B00053EC102B51EC180B05F0AFFE41EC1A0B3A
:1038C00053EC192B05F002FE41EC180B0C48233089
:1038D000005D2E2800D12546601CC4B2062CD3DB27
:1038E000012D31D0022D3AD0032D43D0042D57D1D4
:1038F0004BE0000024474E524D432C00F80C0020B2
:10390000280C0020F8140020F168E388B5F8E43EA4
:103910002D431CEBE2361A3FFCA9F1D24D62503F19
:103920007B14AE47E17A843F9A9999999999B93F66
:103930000000000000004E400000000000000000F9
:1039400000000000000024409FEDFE0B53EC102B04
:1039500051EC180B05F0D3FE41EC180B21E09FED64
:10396000FB0B53EC102B51EC180B05F0C8FE41EC8F
:10397000180B16E09FEDF70B53EC102B51EC180BC6
:1039800005F0BDFE41EC180B0BE01FED130B53ECE3
:10399000102B51EC180B05F0B2FE41EC180B00E0B7
:1039A00000BF00BF9FEDED0B53EC102B51EC180B3B
:1039B00005F033FE41EC190B9FEDEA0B53EC102B95
:1039C00005F09DFE41EC180BB0EE480AF0EE680AD7
:1039D000BDEC068B70BD70B52DED068B00251FED7F
:1039E0002A0BB0EE408AF0EE608A002425E0DF4822
:1039F000005D2E281AD0DD48005DB8B1DB49095DB5
:103A0000A1F1300005F0EAFE41EC190B1FED340B7B
:103A100053EC102B51EC180B05F0FFFD41EC1A0B89
:103A200053EC192B05F052FD41EC180BCF48005D0B
:103A30002E2800D12546601CC4B2062CD7DB012DF0
:103A400006D0022D0FD0032D18D0042D2CD120E04C
:103A50009FEDBC0B53EC102B51EC180B05F04FFEF7
:103A600041EC180B21E09FEDB90B53EC102B51ECFE
:103A7000180B05F044FE41EC180B16E09FEDB50B5A
:103A800053EC102B51EC180B05F039FE41EC180BE0
:103A90000BE01FED550B53EC102B51EC180B05F000
:103AA0002EFE41EC180B00E000BF00BF9FEDB00BF5
:103AB00053EC102B51EC180B05F0F8FE09D29FEDDA
:103AC000AE0B53EC102B51EC180B05F0A0FD41ECA4
:103AD000180BB0EE480AF0EE680ABDEC068B70BD1C
:103AE00010B52DED068BFFF714FDFFF762FDA4481E
:103AF00080ED000BFFF711FEA14880ED020BFFF7F0
:103B0000B7FE9F4880ED180BFFF765FF9C4880EDDE
:103B10001A0B90ED1A1BB0EE410AF0EE610A9FED10
:103B2000991B53EC112B51EC100B05F0E8FD41EC07
:103B30001A0BB0EE4A0AF0EE6A0A06F01DFAB0EE71
:103B4000409AF0EE609A8E4890ED181BB0EE410A54
:103B5000F0EE610A53EC102B51EC190B05F05DFDF2
:103B600041EC180B05F0BAFE85498867084690EDD0
:103B70001A1BB0EE410AF0EE610A9FED821B53EC76
:103B8000112B51EC100B05F0BAFD41EC1A0BB0EE05
:103B90004A0AF0EE6A0A06F0FBFAB0EE409AF0EE3E
:103BA000609A774890ED181BB0EE410AF0EE610A7A
:103BB00053EC102B51EC190B05F02FFD41EC180BB9
:103BC00005F08CFE6E49C86768482938C07A4128DC
:103BD00035D1084690F8980080B3084690ED042B44
:103BE000B0EE420AF0EE620A90ED002BB0EE421AFF
:103BF000F0EE621A53EC102B51EC110B05F007FD9F
:103C00005F4AC2E90801104690ED062BB0EE420A69
:103C1000F0EE620A90ED022BB0EE421AF0EE621A5C
:103C200053EC102B51EC110B05F0F1FC544AC2E996
:103C30000A014FF480505549088005E0FFE74FF432
:103C400080505249891E08804D4890ED001BB0EE0F
:103C5000410AF0EE610A1FEDC81B53EC112B51EC29
:103C6000100B05F00BFE25D0454890ED021BB0EE81
:103C7000410AF0EE610A1FEDD01B53EC112B51EC01
:103C8000100B05F0FBFD15D038482938C07A4128C3
:103C900010D13B4890F8980060B9394890ED000B7E
:103CA00080ED040B90ED020B80ED060B01203449F2
:103CB00081F89800BDEC068B10BD1D2017E0411E59
:103CC000334A02EBC10191ED002B114601EBC0011B
:103CD00081ED002B411E2F4A02EBC10191ED002B1B
:103CE000114601EBC00181ED002B411EC8B2002836
:103CF000E5DC274981ED000B264981ED001B70476B
:103D00002DE9F0412DED0E8BB0EE408A9FED220A99
:103D1000F0EE408A9FED200A10EE104A9FED1E0A39
:103D200010EE105A9FED1C0A10EE106A144890ED28
:103D3000001BB0EE410AF0EE610A9FED121B53EC3E
:103D4000112B2BE0000000000088C34000000000A1
:103D500000408F400000000000005940000000605B
:103D600066266740000000C0CCCC0C40510C0020FF
:103D700000000000008066400000000000807640E7
:103D8000880B00200000006066A64C401A08024024
:103D9000F8140020E81500200000000051EC100B82
:103DA00005F0ADFC41EC1B0BB0EE4B0AF0EE6B0ADC
:103DB00006F0E2F8B0EE409AF0EE609AFE4890ED20
:103DC0000A1BB0EE410AF0EE610A9FEDFC1B53ECBA
:103DD000112B51EC100B05F020FC41EC1A0B53ECAD
:103DE000192B05F01AFCF74AC2E91A01F24890EDC6
:103DF000081BB0EE410AF0EE610A9FEDF01B53EC98
:103E0000112B51EC100B05F008FCEE4A7832C2E998
:103E10000201EC4890ED202BB0EE421AF0EE621A4F
:103E200090ED1A2BB0EE420AF0EE620AFFF745FF62
:103E3000B3EE0D0A28EE000A10EE101A084605F03F
:103E40000AFD41EC190BE04890ED3A2BB0EE420A26
:103E5000F0EE620ADB4890ED1A2BB0EE421AF0EE5B
:103E6000621A53EC102B51EC110B05F0D0FB41EC16
:103E70001A0B53EC192B05F042FCD24AC2E91C0183
:103E8000B3EE0D0A28EE000A10EE101A084605F0EF
:103E9000E2FC41EC190BCD4890ED3A2BB0EE420A12
:103EA000F0EE620AC74890ED202BB0EE421AF0EE19
:103EB000621A53EC102B51EC110B05F0A8FB41ECEE
:103EC0001A0B53EC192B05F01AFCBE4A7832C2E9E2
:103ED0000401BF4890ED0E0ABE48D0ED000A20EE66
:103EE000200ABB48D0ED0F0ABB4890ED001A00EE47
:103EF000810AB748D0ED100AB84890ED001A00EEDC
:103F0000810ADFEDB70A20EE200ADFEDB60A80EE67
:103F1000201A11EE104AAE4890ED0E0AB248D0EDCC
:103F2000000A20EE200AAA48D0ED0F0AAF4890ED13
:103F3000001A00EE810AA648D0ED100AAC4890EDB8
:103F4000001A10EEC10ADFEDA60A20EE200ADFED0E
:103F5000A50A80EE201AF0EE418AA64890ED020AEA
:103F6000DFEDA50A80EE201A11EE107A384605F032
:103F700072FC41EC1E0BB0EE4E0AF0EE6E0A06F03B
:103F800007F9B0EE40CAF0EE60CA204605F063FCC7
:103F900041EC1D0B53EC1C2B05F03FFB41EC1A0BC5
:103FA000944890ED020ADFED940A80EE201A11EE9B
:103FB000107A384605F04FFC41EC1E0BB0EE4E0A6D
:103FC000F0EE6E0A05F0D8FFB0EE40CAF0EE60CA1F
:103FD00018EE900A05F03FFC41EC1D0B53EC1C2B36
:103FE00005F01BFB41EC1B0B53EC1A2B05F06EFA92
:103FF00041EC190B05F072FC05467E4890ED020A73
:10400000DFED7D0A80EE201A11EE107A384605F0B9
:1040100022FC41EC1E0BB0EE4E0AF0EE6E0A05F0EB
:10402000ABFFB0EE40CAF0EE60CA204605F013FCCC
:1040300041EC1D0B53EC1C2B05F0EFFA41EC1A0B75
:104040006C4890ED020ADFED6C0A80EE201A11EE4A
:10405000107A384605F0FFFB41EC1E0BB0EE4E0A1D
:10406000F0EE6E0A06F094F8B0EE40CAF0EE60CAC8
:10407000B1EE680A10EE100A05F0EDFB41EC1D0BE5
:1040800053EC1C2B05F0C9FA41EC1B0B53EC1A2B1B
:1040900005F01CFA41EC190B05F020FC06465748C8
:1040A00090ED120ADFED540A80EE201A11EE107A1C
:1040B000384605F0D0FB41EC1D0BB0EE4D0AF0EE9A
:1040C0006D0A06F065F8B0EE40BAF0EE60BA304620
:1040D00005F0C1FB41EC1C0B53EC1B2B05F09DFACA
:1040E00041EC190B454890ED120ADFED430A80EED2
:1040F000201A11EE107A384605F0ADFB41EC1D0B8D
:10410000B0EE4D0AF0EE6D0A05F036FFB0EE40BAA3
:10411000F0EE60BA284605F09EFB41EC1C0B53EC18
:104120001B2B05F07AFA41EC1A0B53EC192B05F016
:104130006EFA244A03C2314890ED120ADFED2E0ACE
:1041400080EE201A11EE107A384605F084FB41EC1F
:104150001D0BB0EE4D0AF0EE6D0A05F00DFFB0EE4E
:1041600040BAF0EE60BA304605F075FB41EC1C0B2E
:1041700053EC1B2B05F051FA41EC190B1F4890ED45
:10418000120ADFED1D0A80EE201A11EE107A384671
:1041900005F061FB41EC1D0BB0EE4D0AF0EE6D0A2F
:1041A00005F0F6FFB0EE40BAF0EE60BA284605F032
:1041B00052FB41EC1C0B23E0880B00200000008028
:1041C00019976541680C0020F8140020E8150020BC
:1041D000C4050020300000203400002038000020FA
:1041E00000007544000080453C0000204000002095
:1041F0004400002088070020333365420007002078
:1042000053EC1B2B05F009FA41EC1A0B53EC192B5C
:1042100005F05CF9FE4AC2E9060118EE100A05F045
:104220001AFB41EC1D0BFA4890ED001BB0EE410A61
:10423000F0EE610A53EC102B51EC1D0B05F0EDF97B
:1042400041EC1C0BF24890ED0C1BB0EE410AF0EE75
:10425000610A53EC102B51EC1C0B05F037F941ECC3
:104260001B0B9FEDEC0B53EC102B05F0D6F941EC3A
:10427000190BE74890ED1C1BB0EE410AF0EE610A05
:1042800053EC102B9FEDE51B51EC110B05F0C5F91C
:1042900041EC1A0B53EC192B05F018F9DC4AC2E972
:1042A0000C0118EE100A05F0D6FA41EC190BD848AB
:1042B00090ED061BB0EE410AF0EE610A53EC102BB4
:1042C00051EC190B05F0A9F941EC1D0BD04890ED0C
:1042D000121BB0EE410AF0EE610A53EC102B51ECC8
:1042E0001D0B05F0F3F841EC1C0B9FEDCA0B53ECD2
:1042F000102B05F092F941EC1A0BC54890ED221BEA
:10430000B0EE410AF0EE610A53EC102B9FEDC31B97
:1043100051EC110B05F081F941EC1B0B53EC1A2BFE
:1043200005F0D4F8BA4AC2E91201BDEC0E8BBDE823
:10433000F08110B52DED068BBA48007888287CD125
:10434000B8484078A12878D1B649C9780906B54A55
:10435000127941EA0241B34A527941EA0221B14A53
:10436000927941EA020005F039FA41EC180B9FED11
:10437000AE0B53EC102B05F0C2F9AD4AC2E90C01AB
:10438000104690ED002BB0EE420AF0EE620A90ED7E
:104390000C2BB0EE421AF0EE621A53EC102B51ECDB
:1043A000110B05F034F941EC180B1FED7C0B53ECAD
:1043B000102B05F032F99E4AC2E912019949C979D8
:1043C0000906984A127A41EA0241964A527A41EA2B
:1043D0000221944A927A41EA020005F0FFF941EC89
:1043E000180B9FED910B53EC102B05F088F9904AB8
:1043F000C2E90E01104690ED001BB0EE410AF0EE4E
:10440000610A9FED8C1B53EC112B51EC100B05F046
:1044100076F941EC1A0BB0EE4A0AF0EE6A0A05F0A2
:10442000ABFDB0EE408AF0EE608A814890ED022B41
:10443000B0EE420AF0EE620A00E01CE090ED0E2BB6
:10444000B0EE421AF0EE621A53EC102B51EC110B45
:1044500005F0DDF841EC1A0B1FEDA80B53EC102B07
:1044600005F0DBF841EC190B53EC182B05F0D5F8EF
:104470006F4AC2E91001BDEC068B10BD10B52DEDE1
:10448000108B84B0B0EE408A9FED6C0AF0EE408A4B
:104490009FED6A0AB0EE40FA6248007888287DD124
:1044A00060484078A128FAD15E48C07D012804D038
:1044B00002280BD003281BD111E09FED600AF0EE1B
:1044C000408A9FED5E0AB0EE40FA1AE09FED5C0A6A
:1044D000F0EE408A9FED5B0AB0EE40FA11E09FEDEE
:1044E000580AF0EE408A9FED580AB0EE40FA08E014
:1044F0009FED520AF0EE408A9FED500AB0EE40FA6E
:1045000000BF00BF514890ED000AB4EEE80AF1EE9A
:1045100010FA08DD90ED000AF2EE040A30EE600AAF
:1045200080ED000A0FE0494890ED000AB4EEE80A79
:10453000F1EE10FA07D290ED000AF2EE040A30EE26
:10454000200A80ED000A424890ED000AB4EECF0A3E
:10455000F1EE10FA08DD90ED000AF2EE040A30EEFA
:10456000600A80ED000A0FE0394890ED000AB4EED1
:10457000CF0AF1EE10FA07D290ED000AF2EE040A2B
:1045800030EE200A80ED000A324890ED120A5FED0D
:10459000E60A80EE201A11EE104A00E0C6E320463B
:1045A00005F059F941EC1D0BB0EE4D0AF0EE6D0A25
:1045B00005F0EEFDB0EE40BAF0EE60BA2648B0F974
:1045C000020000EE100AB8EEC00ADFED240A60EE29
:1045D000200A9FED231A80EE810A20EE080A10EED1
:1045E000104A204605F037F941EC1C0B53EC1B2B0D
:1045F00005F013F841EC1E0B164890ED120ADFEDA2
:10460000190A80EE201A11EE104A20462CE0000014
:10461000680C0020000000A09999E93F000000A06C
:104620009999C93F6817002000000000D01263412B
:10463000880B00200000006066A64C4000000000CF
:104640000000FA440000FAC400007AC56C0400209F
:1046500070040020000700209407002000007A4327
:10466000000025443333654205F0F5F841EC1D0B9D
:10467000B0EE4D0AF0EE6D0A05F07EFCB0EE40BAE9
:10468000F0EE60BAFE48B0F9000000EE100AB8EE95
:10469000C00A5FED0E0A60EE200A1FED0F1A80EED1
:1046A000810A20EE080A10EE104A204605F0D3F8E1
:1046B00041EC1C0B53EC1B2B04F0AFFF41EC1A0B2D
:1046C00053EC1E2B04F0A3FF41EC190BED4890EDC9
:1046D000221BB0EE410AF0EE610A53EC102B51ECB4
:1046E000190B04F0F3FEE74A6032C2E90A01E6481A
:1046F00090ED120A5FED250A80EE201A11EE104AA5
:10470000204605F0A8F841EC1D0BB0EE4D0AF0EE86
:104710006D0A05F03DFDB0EE40BAF0EE60BAD84843
:10472000B0F9000000EE100AB8EEC00A5FED350ADD
:1047300060EE200A1FED361A80EE810A20EE080A8C
:1047400010EE104A204605F086F841EC1C0B53ECA5
:104750001B2B04F062FF41EC190BCB4890ED120AC1
:104760005FED400A80EE201A11EE104A204605F057
:1047700072F841EC1D0BB0EE4D0AF0EE6D0A05F03B
:10478000FBFBB0EE40BAF0EE60BABD48B0F90200F3
:1047900000EE100AB8EEC00A5FED500A60EE200A83
:1047A0001FED511A80EE810A20EE080A10EE104A21
:1047B000204605F050F841EC1C0B53EC1B2B04F089
:1047C0002CFF41EC1A0B53EC192B04F07FFE41EC4B
:1047D0001E0BAC4890ED2E1BB0EE410AF0EE610AC4
:1047E00053EC102B51EC1E0B04F070FEA54A9032D6
:1047F000C2E90A01A549C9780906A44A127941EA21
:104800000241A24A527941EA0221A04A927941EA40
:10481000020004F0E3FF41EC190B1FED7D0B53EC9C
:10482000102B04F06CFF9A4AC2E90C019948006809
:1048300005F011F841EC1B0B954890ED042BB0EE00
:10484000420AF0EE620A90ED0C2BB0EE421AF0EE46
:10485000621A53EC102B51EC110B04F0D8FE41EC12
:104860001E0B9FED8D0B53EC102B04F0D6FE41EC8C
:104870001D0B874890ED121BB0EE410AF0EE610A65
:1048800053EC102B51EC1D0B04F0C1FE41EC1C0B42
:1048900053EC1B2B04F01AFE41EC1A0B794890EDF7
:1048A0002E1BB0EE410AF0EE610A53EC102B51ECD6
:1048B0001A0B04F00BFE41EC190B05F00FF87149CF
:1048C000C1F890007149C9790906704A127A41EA23
:1048D00002416E4A527A41EA02216C4A927A41EAD6
:1048E000020004F07BFF41EC190B1FEDB10B53EC00
:1048F000102B04F004FF664AC2E90E016848006804
:1049000004F0A9FF41EC1A0B614890ED001BB0EEDA
:10491000410AF0EE610A1FEDB91B53EC112B51EC6B
:10492000100B04F0ECFE41EC1D0BB0EE4D0AF0EE66
:104930006D0A05F021FBB0EE40CAF0EE60CA5448A3
:1049400090ED062BB0EE420AF0EE620A90ED0E2BCF
:10495000B0EE421AF0EE621A53EC102B51EC110B30
:1049600004F055FE41EC1D0B9FED4B0B53EC102B4F
:1049700004F053FE41EC1E0B53EC1C2B04F04DFED7
:10498000CDE90001424890ED101BB0EE410AF0EE77
:10499000610A53EC102B9DED001B51EC110B04F040
:1049A00036FE41EC1B0B53EC1A2B04F08FFDCDE9C6
:1049B0000201344890ED221BB0EE410AF0EE610A8C
:1049C00053EC102B9DED021B51EC110B04F07EFDFE
:1049D00041EC190B04F082FF2A4908662B48007B42
:1049E0002A49C97A40EA012000EE100AB8EEC00A4E
:1049F000274880ED250A90ED250ADFED2A0AB4EE5E
:104A0000E00AF1EE10FA07DD90ED250ADFED260A47
:104A100030EE600A80ED250A1C48807B1B49497BEB
:104A200040EA012000EE100AB8EEC00A184880EDF6
:104A3000200A1648007C1549C97B40EA012000EE97
:104A4000100AB8EEC00A124880ED210A0F48807C97
:104A50000E49497C40EA012000EE100AB8EEC00A77
:104A60000B4880ED220A90ED200ADFED0E0AB4EE2D
:104A7000E00AF1EE10FA1FDD90ED200A16E00000CA
:104A800094070020C00A00200007002068170020BB
:104A9000880B0020700400200000008019976541F9
:104AA0006C04002000FEFF4600FF7F475FED020A16
:104AB00030EE600A80ED200AF94890ED210A5FEDA2
:104AC000070AB4EEE00AF1EE10FA07DD90ED210AD4
:104AD0005FED0B0A30EE600A80ED210AF04890EDA0
:104AE000220A5FED100AB4EEE00AF1EE10FA07DDDB
:104AF00090ED220A5FED140A30EE600A80ED220A82
:104B0000E74890ED200AF2EE040A80EE201ABBEE90
:104B1000040AB4EEC01AF1EE10FA02D2BBEE040A97
:104B200017E0DF4890ED200AF2EE040A80EE201A2A
:104B3000B3EE040AB4EEC01AF1EE10FA02DDB3EEE1
:104B4000040A06E0D648D0ED200AB2EE041A80EE40
:104B5000810AD34880ED200AD0ED210AB2EE041A72
:104B600080EE810AFBEE040AB4EEE00AF1EE10FAE0
:104B700002D2BBEE040A17E0C94890ED210AB2EE5A
:104B8000041AC0EE010AB3EE040AF4EEC00AF1EE14
:104B900010FA02DDB3EE040A06E0C148D0ED210AA6
:104BA000B2EE041A80EE810ABD4880ED210AD0EDF4
:104BB000220AB2EE041A80EE810ADFEDBA0AB4EEE0
:104BC000E00AF1EE10FA02D29FEDB60A17E0B448FF
:104BD00090ED220AB2EE041AC0EE010A9FEDB20A6D
:104BE000F4EEC00AF1EE10FA02DD9FEDAF0A06E026
:104BF000AB48D0ED220AB2EE041A80EE810AA84832
:104C000080ED220AA948007DA849C97C40EA01201C
:104C100000EE100AB8EEC00AA14880ED240AA348AD
:104C2000807DA249497D40EA012000EE100AB8EEDD
:104C3000C00A9B4880ED230A90ED240A5FED670AC5
:104C4000B4EEE00AF1EE10FA07DD90ED240A5FED14
:104C50006A0A30EE600A80ED240A914890ED230A3A
:104C60005FED700AB4EEE00AF1EE10FA07DD90EDA8
:104C7000230A5FED730A30EE600A80ED230A88484C
:104C8000D0ED240AB2EE041A80EE810ADFED880A24
:104C9000B4EEE00AF1EE10FA02D29FED850A17E0B9
:104CA0007F48D0ED240AB2EE041A80EE810ADFEDCF
:104CB000810AB4EEE00AF1EE10FA02DD9FED7D0A02
:104CC00006E07748D0ED240AB2EE041A80EE810A9D
:104CD000734880ED240A90ED230AF2EE040A80EE78
:104CE000201A9FED730AB4EEC01AF1EE10FA02D248
:104CF0009FED6F0A17E06A48D0ED230AB2EE041A5E
:104D000080EE810ADFED6B0AB4EEE00AF1EE10FAF4
:104D100002DD9FED680A06E06148D0ED230AB2EE9D
:104D2000041A80EE810A5E4880ED230A04B0BDECCF
:104D3000108B10BD10B52DED108B82B05E4890ED3C
:104D4000001BB0EE410AF0EE610A51EC100B04F0CA
:104D5000C5FD08EE100AB0EE480A01F0AAF88DED84
:104D6000010A554890ED061BB0EE410AF0EE610ACB
:104D700051EC100B04F0B2FD08EE100AB0EE480A38
:104D800001F09CF98DED000A4C484089012803D0C0
:104D90004A484089022875D148484089022810D1E4
:104DA0009FED470A3E4880ED200A9FED450A80EDC1
:104DB000210A9FED430A80ED240A9FED410A80ED10
:104DC000230A404890ED1D0A10EE101A084604F020
:104DD00042FD41EC190B384890ED0C1BB0EE410A36
:104DE000F0EE610A53EC102B51EC190B04F00FFCA0
:104DF00041EC180B04F072FD32494860084690ED12
:104E0000290A10EE101A084604F025FD41EC190B92
:104E1000294890ED121BB0EE410AF0EE610A53EC06
:104E2000102B51EC190B04F0F2FB41EC180B04F0C1
:104E300055FD24494863084690ED010AD0ED060A65
:104E400020EE200A80ED020AD0ED080A9DED010A4D
:104E5000B1EE400A20EE800A80ED040A90ED020ACD
:104E6000D0ED040A30EE200A80ED050A90ED050A27
:104E7000FAEE0E0AB4EEE00AF1EE10FA03D2BAEE40
:104E80000E0A24E07CE10F4890ED050AF2EE0E0ACE
:104E9000B4EEE00AF1EE10FA16DDB2EE0E0A16E0FC
:104EA000880B0020000034C3000034436817002042
:104EB000000048C300004843680C0020940700200D
:104EC00000000000C00A0020FE4890ED050AFD48E1
:104ED00080ED050A90ED0D0AD0ED120A20EE200AB1
:104EE00080ED0E0AD0ED140A9DED000AB1EE400AE5
:104EF00020EE800A80ED100A90ED0E0AD0ED100A27
:104F000030EE200A80ED110A90ED110AFAEE0E0A39
:104F1000B4EEE00AF1EE10FA02D2BAEE0E0A0FE099
:104F2000E84890ED110AF2EE0E0AB4EEE00AF1EE56
:104F300010FA02DDB2EE0E0A02E0E24890ED110A2C
:104F4000E04880ED110AE04890ED120ADFEDDF0A3B
:104F500080EE201A11EE104A204604F07CFC41EC51
:104F60001D0BB0EE4D0AF0EE6D0A05F005F8B0EE3F
:104F700040BAF0EE60BAD34890ED110A10EE101A64
:104F8000084604F068FC41EC1C0B53EC1B2B04F0AE
:104F900044FB41EC190BCC4890ED120ADFEDCB0A33
:104FA00080EE201A11EE104A204604F054FC41EC29
:104FB0001F0BB0EE4F0AF0EE6F0A05F0E9F8B0EE05
:104FC00040DAF0EE60DABF4890ED050A10EE101AF4
:104FD000084604F040FC41EC1E0B53EC1D2B04F082
:104FE0001CFB41EC1B0BBA4890ED200ADFEDB90A1F
:104FF00020EE200A10EE101A084604F02CFC41ECBA
:105000001C0B53EC1B2B04F002FB41EC1A0B53EC72
:10501000192B04F05BFA41EC180B04F05FFCA94972
:10502000C1F8C000A84890ED120ADFEDA80A80EE92
:10503000201A11EE104A204604F00DFC41EC1D0B25
:10504000B0EE4D0AF0EE6D0A05F0A2F8B0EE40BAEF
:10505000F0EE60BA9B4890ED110A10EE101A084667
:1050600004F0F9FB41EC1C0B53EC1B2B04F0D5FABC
:1050700041EC190B944890ED120ADFED940A80EE92
:10508000201A11EE104A204604F0E5FB41EC1F0BFC
:10509000B0EE4F0AF0EE6F0A04F06EFFB0EE40DAA9
:1050A000F0EE60DA874890ED050A10EE101A084617
:1050B00004F0D1FB41EC1E0B53EC1D2B04F0ADFAB8
:1050C00041EC1B0B824890ED210ADFED820A20EEB5
:1050D000200A10EE101A084604F0BDFB41EC1C0B30
:1050E00053EC1B2B04F0F2F941EC1A0B53EC192B87
:1050F00004F0ECF941EC180B04F0F0FB7149C1F835
:10510000C400084690ED300AFBEE040AB4EEE00A53
:10511000F1EE10FA02D2BBEE040A0FE0694890EDFE
:10512000300AF3EE040AB4EEE00AF1EE10FA02DD02
:10513000B3EE040A02E0634890ED300A614880ED66
:10514000300A90ED310AFBEE040AB4EEE00AF1EE0B
:1051500010FA02D2BBEE040A0FE05A4890ED310A71
:10516000F3EE040AB4EEE00AF1EE10FA02DDB3EE5B
:10517000040A02E0534890ED310A524880ED310AAA
:1051800055484089032810D11FEDB30A4D4880EDE2
:10519000300A1FEDB50A80ED310A9FED500B80ED0E
:1051A000220B9FED4E0B80ED2E0B02B0BDEC108B51
:1051B00010BD10B52DED108B82B0B0EE408A464880
:1051C000B0F90A10B0F91600814224D04248408953
:1051D00002281AD1434890ED1A1BB0EE410AF0EEB6
:1051E000610A51EC100B04F079FB364908663D4822
:1051F00090ED201BB0EE410AF0EE610A51EC100B6D
:1052000004F06CFB2F49C1F8900033484089012815
:1052100001D1FFF78EF830484089012803D1B0EE64
:10522000480AFFF72BF92C484089012803D02A4867
:10523000408902287DD1244890ED120ADFED230A2F
:1052400080EE201A11EE104A204604F004FB41ECD7
:105250001F0BB0EE4F0AF0EE6F0A04F099FFB0EEAC
:1052600040DAF0EE60DA1C48B0F9020000EE100AF5
:10527000B8EEC00ADFED1C0A60EE200A9FED1B1A93
:1052800080EE810A20EE080A10EE104A204604F053
:10529000E2FA41EC1E0B53EC1D2B04F0BEF941EC7D
:1052A0001C0B094890ED120ADFED080A80EE201A67
:1052B00011EE104A204604F0CEFA41EC1F0BB0EE7E
:1052C0004F0A15E0C00A0020000700203333654272
:1052D000880B00209A99193F9407002000000000D5
:1052E00000000000680C002000007A430000254404
:1052F000F0EE6F0A04F040FEB0EE40DAF0EE60DA55
:10530000EA48B0F9000000EE100AB8EEC00A5FEDFE
:105310000A0A60EE200A1FED0B1A80EE810A20EEC9
:10532000080A10EE104A204604F095FA41EC1E0BD4
:1053300000E09EE153EC1D2B04F06FF953EC1C2BA5
:10534000CDE900019DED000B51EC100B04F05FF96D
:1053500041EC1A0BD64890ED180A10EE101A0846C8
:1053600004F079FA41EC1B0B53EC1A2B04F0AEF865
:1053700041EC190B04F0B2FACD490866CD4890ED26
:10538000120A5FED2E0A80EE201A11EE104A204616
:1053900004F061FA41EC1F0BB0EE4F0AF0EE6F0A19
:1053A00004F0F6FEB0EE40DAF0EE60DABF48B0F995
:1053B000000000EE100AB8EEC00A5FED350A60EE9C
:1053C000200A1FED361A80EE810A20EE080A10EE40
:1053D000104A204604F03FFA41EC1E0B53EC1D2B03
:1053E00004F01BF941EC1B0BB24890ED120A5FED83
:1053F000490A80EE201A11EE104A204604F02BFADA
:1054000041EC1F0BB0EE4F0AF0EE6F0A04F0B4FD52
:10541000B0EE40DAF0EE60DAA448B0F9020000EE37
:10542000100AB8EEC00A5FED500A60EE200A1FEDC8
:10543000511A80EE810A20EE080A10EE104A20462A
:1054400004F009FA41EC1E0B53EC1D2B04F0E5F8B7
:1054500041EC1C0B53EC1B2B04F038F841EC190BFE
:10546000934890ED240A10EE101A084604F0F3F960
:1054700041EC1A0B53EC192B04F028F8CDE900018C
:105480009DED000B51EC100B04F028FA8849C1F88F
:105490009000084690ED180A10EE101A084604F025
:1054A000DAF941EC1A0B844890ED1A1BB0EE410A70
:1054B000F0EE610A53EC102B51EC1A0B04F0A7F834
:1054C00041EC190B04F00AFA79494866084690ED58
:1054D000240A10EE101A084604F0BDF941EC1A0B2C
:1054E000754890ED201BB0EE410AF0EE610A53ECD6
:1054F000102B51EC1A0B04F08AF841EC190B04F054
:10550000EDF96B49C1F89400084690ED190AD0ED09
:105510001E0A20EE200A80ED1A0A90ED190AD0ED3D
:105520001F0A60EE200A90ED1B0A00EE880A80ED4B
:105530001B0A90ED1B0ADFED610AB4EEE00AF1EE02
:1055400010FA02D29FED5D0A0FE0594890ED1B0A58
:10555000DFED5B0AB4EEE00AF1EE10FA02DD9FED3A
:10556000580A02E0524890ED1B0A514880ED1B0A90
:1055700090ED1A0AD0ED1B0A30EE200A80ED1D0ACC
:1055800090ED1D0ADFED4F0AB4EEE00AF1EE10FADD
:1055900002D29FED4C0A0FE0454890ED1D0ADFED69
:1055A0004A0AB4EEE00AF1EE10FA02DD9FED460A77
:1055B00002E03F4890ED1D0A3D4880ED1D0A90ED48
:1055C000250AD0ED2A0A20EE200A80ED260A90ED69
:1055D000250AD0ED2B0A60EE200A90ED270A00EE96
:1055E000880A80ED270A90ED270ADFED340AB4EE31
:1055F000E00AF1EE10FA02D29FED300A0FE02C48DB
:1056000090ED270ADFED2E0AB4EEE00AF1EE10FA73
:1056100002DD9FED2B0A02E0254890ED270A244881
:1056200080ED270A90ED260AD0ED270A30EE200AF9
:1056300080ED290A90ED290ADFED220AB4EEE00A96
:10564000F1EE10FA02D29FED1F0A0FE0184890ED1C
:10565000290ADFED1D0AB4EEE00AF1EE10FA02DDD0
:105660009FED190A02E0124890ED290A104880EDDA
:10567000290A0E484089032810D19FED140A0C48CE
:1056800080ED1B0A9FED110A80ED270A9FED0F0A9E
:1056900080ED1D0A9FED0D0A80ED290A034841891E
:1056A000C18202B0BDEC108B10BD00009407002039
:1056B000C00A002000070020680C00200000A0C2E3
:1056C0000000A042000096C30000964300000000C6
:1056D00010B52DED068BF0EE409AF0EE608A9FED4E
:1056E000FE0AB0EE40AA9FEDFC0AB0EE408A9FEDA4
:1056F000FA0AB0EE409A89EEA80AB0EE40AA9FEDF1
:10570000F70AC0EE0A0AF0EE60AAB0EE6A0A04F0E8
:10571000A3FDB0EE408A9FEDF20A04F091FCF0EE9A
:10572000000A60EE200AB7EE000A00EE880A08EED2
:10573000080AB0EE409AEB48C0ED008A90ED000AEE
:10574000B5EEC00AF1EE10FA35DD28EE080AC0EE1B
:10575000090AE548C0ED000A90ED000AF0EE000AE3
:1057600020EE200AE14880ED000ADF4890ED000AB3
:10577000DF4880ED000AB7EE000A18EE080AF0EEE6
:10578000000A20EE200AC0EE090ADA48C0ED000A3D
:105790009FEDD30A04F054FCF0EE000A60EE200AFC
:1057A000B7EE000A00EEC80A08EE080AC0EE090AC1
:1057B000D148C0ED000ABDEC068B10BD10B52DED33
:1057C000048BF0EE408A9FEDC40AB0EE408A9FED54
:1057D000C20AB0EE409AC34890ED000AB5EEC00A86
:1057E000F1EE10FA04D8B0EE680ABDEC048B10BDDF
:1057F000B0EE680AC148D0ED000ABE4890ED001A2C
:1058000000EEC10ABE48D0ED000ABB4890ED001A78
:1058100000EEC10AB0EE408A18EE100A00F005FF53
:1058200020B918EE100A00F0F6FE08B1B0EE688A52
:10583000AD4890ED000A28EE000AB048D0ED000A0D
:10584000AA4890ED001A00EE810AAD48D0ED000A9A
:10585000A74890ED001A00EE810AB0EE409AA748E2
:1058600090ED000AA64880ED000AA44880ED008A69
:10587000B0EE490AB9E710B52DED068BF0EE409A6F
:10588000F0EE608A9FED940AB0EE40AA9FED920A76
:10589000B0EE408A9FED900AB0EE409A89EEA80AD9
:1058A000B0EE40AA9FED8D0AC0EE0A0AF0EE60AAA3
:1058B000B0EE6A0A04F0D0FCB0EE408A9FED880A90
:1058C00004F0BEFBF0EE000A60EE200AB7EE000A1C
:1058D00000EE880A08EE080AB0EE409A8948C0ED4A
:1058E000008A90ED000AB5EEC00AF1EE10FA35DD3F
:1058F00028EE080AC0EE090A8348C0ED000A90EDC0
:10590000000AF0EE000A20EE200A804880ED000A2E
:105910007D4890ED000A7E4880ED000AB7EE000A4F
:1059200018EE080AF0EE000A20EE200AC0EE090A7E
:105930007848C0ED000A9FED6A0A04F081FBF0EEA2
:10594000000A60EE200AB7EE000A00EEC80A08EE70
:10595000080AC0EE090A7048C0ED000ABDEC068BCB
:1059600010BD10B52DED048BF0EE408A9FED5A0A64
:10597000B0EE408A9FED580AB0EE409A614890ED33
:10598000000AB5EEC00AF1EE10FA04D8B0EE680ACB
:10599000BDEC048B10BDB0EE680A6048D0ED000A83
:1059A0005C4890ED001A00EEC10A5D48D0ED000A97
:1059B000594890ED001A00EEC10AB0EE408A18EE88
:1059C000100A00F032FE20B918EE100A00F023FE93
:1059D00008B1B0EE688A4C4890ED000A28EE000A43
:1059E0004E48D0ED000A494890ED001A00EE810AB9
:1059F0004B48D0ED000A464890ED001A00EE810AAF
:105A0000B0EE409A454890ED000A454880ED000A06
:105A1000424880ED008AB0EE490AB9E710B52DED95
:105A2000068BF0EE409AF0EE608A9FED2B0AB0EE06
:105A300040AA9FED290AB0EE408A9FED270AB0EEFA
:105A4000409A89EEA80AB0EE40AA9FED240AC0EE63
:105A50000A0AF0EE60AAB0EE6A0A04F0FDFBB0EEAE
:105A6000408A9FED1F0A04F0EBFAF0EE000A60EEA8
:105A7000200AB7EE000A00EE880A08EE080AB0EE27
:105A8000409A2848C0ED008A90ED000AB5EEC00AA1
:105A9000F1EE10FA64DD28EE080AC0EE090A224889
:105AA000C0ED000A90ED000AF0EE000A20EE200A98
:105AB0001E4880ED000A1C4890ED000A1C4880ED4D
:105AC000000AB7EE000A18EE080AF0EE000A20EE0F
:105AD000200AC0EE090A2DE000000000DA0F49405C
