:020000040800F2
:10000000A01B0020898E0008BD010008BF01000868
:10001000C3010008C7010008CB0100080000000070
:10002000000000000000000000000000CF010008F8
:10003000D101000800000000D3010008D50100082C
:10004000A38E0008A38E0008A38E0008A38E0008CC
:10005000A38E0008A38E0008A38E0008A38E0008BC
:10006000A38E0008A38E000845670008A38E000831
:10007000A70E0008A38E0008A38E0008A38E000818
:100080005D6D0008A38E0008A38E0008A38E0008F3
:10009000A38E0008A38E0008A38E0008A38E00087C
:1000A000A38E0008A38E0008A38E0008A38E00086C
:1000B000A38E0008A38E0008A38E0008A38E00085C
:1000C000A38E0008A38E0008A38E0008A38E00084C
:1000D000A38E0008A38E0008A38E0008A38E00083C
:1000E000A38E0008A38E0008A38E0008A38E00082C
:1000F000A38E0008A38E0008A38E0008A38E00081C
:10010000A38E0008A38E0008A38E0008A38E00080B
:10011000A38E0008352C0008A38E0008A38E0008CB
:10012000A38E0008A38E0008A38E0008A38E0008EB
:10013000A38E0008A38E0008A38E0008A38E0008DB
:10014000A38E0008A38E0008A38E0008A38E0008CB
:10015000A38E0008A38E0008A38E0008A38E0008BB
:10016000A38E0008A38E0008A38E0008A38E0008AB
:10017000A38E0008A38E0008A38E0008A38E00089B
:10018000A38E0008A38E0008DFF80CD009F0D6FB80
:10019000004800479D010008A01B002000F0B1F8B6
:1001A00002A009F059FC00BFFEE70000746865205A
:1001B000626567696E6E696E67200A00704700BFEE
:1001C000FEE700BFFEE700BFFEE700BFFEE77047A7
:1001D0007047704710B516480068401C1449086005
:1001E00014480088401C1349088008464088401C79
:1001F000488008468088401C88800846C088401C8B
:10020000C88008460089401C088108464089401C77
:1002100048810948D0E90020521C40F100000649FD
:10022000C1E900200548C07808B100F03EF910BDD2
:1002300000000020B0050020080000205C00002025
:100240007FB5684607F061FD4FF47A710198B0FB05
:10025000F1F4E4082146481EB0F1807F00D31BE092
:10026000481E4FF0E022506150170F22002807DA95
:1002700013071E0E324B00F00F052D1F5E5503E0D5
:1002800013071D0E2F4B1D5400BF00204FF0E0221E
:1002900090610720106100BF6FF0040006F0D4FDEC
:1002A0007FBD294A11684FF0E02252694FF0E023E8
:1002B0009B69D21A4FF47A735A434FF0E0235B697B
:1002C000B2FBF3F201EB4103C3EBC11302EBC3003A
:1002D000704730B50446FFF7E4FF054600BFFFF75F
:1002E000E0FF401BA042FAD330BD10B5044603E046
:1002F0004FF47A70FFF7EDFF201EA4F10104F7D14F
:1003000010BD10B54FF4806006F04CFDFFF798FF6C
:1003100002F034FD00F048FD02F00AFD4FF4C87011
:1003200001F0EAFE02F0F5FC02F0D9FA06F02FFB2C
:100330004FF480500549088001200549C87010BD60
:1003400018ED00E000E400E0000000201A08024080
:100350005C000020704710B52DED048B764890EDC1
:10036000030A10EE101A084609F0C3F941EC190B04
:100370009FED720B53EC102B09F09DF841EC180B1C
:1003800009F0FAF96C498861084690ED040A10EE0C
:10039000101A084609F0ADF941EC190B9FED670BF7
:1003A00053EC102B09F087F841EC180B09F0E4F935
:1003B0006149C861084690ED050A10EE101A08461A
:1003C00009F097F941EC190B9FED5C0B53EC102BE6
:1003D00009F071F841EC180B09F0CEF956490862A2
:1003E000BDEC048B10BD10B52DED028B002002F08A
:1003F00055FCB0EE408AB0EE480A01F04BF901F02E
:100400000EFF5048006880F008004E490860BDECBF
:10041000028B10BD10B52DED028B012002F03EFCC9
:10042000B0EE408AB0EE480A00F08EFDBDEC028BC3
:1004300010BD10B52DED028B022002F02FFCB0EEA6
:10044000408ADFED410AB0EE480A06F05FFABDECE3
:10045000028B10BD10B52DED028B032002F01EFCA7
:10046000B0EE408ABDEC028B10BD10B52DED028BB5
:10047000042002F013FCB0EE408AB0EE480A01F00E
:10048000FAFC32480078401CC0B2304908700A2893
:1004900007DD002008702B48006880F4806029493F
:1004A0000860BDEC028B10BD704710B5284800886D
:1004B000012804DBFFF74EFF00202549088024486F
:1004C0004088022804DBFFF78EFF00202049488087
:1004D0001F488088052804DBFFF79CFF00201C498B
:1004E00088801B48C0880A2804DBFFF7A2FF002091
:1004F0001749C88016480089142804DBFFF7AAFFB3
:1005000000201349088112484089322804DBFFF794
:10051000ACFF00200E4948810E48D0E900304FF46E
:100520007A729A1A70F1000005DBFFF7BDFF002117
:10053000084A1160516010BD88070020FBEB1516BA
:10054000DCA54C4014080240000048431000002085
:10055000B00500200800002000B52DED108B83B001
:10056000B0EE408AB0EE609AF0EE419AB0EE61AA29
:10057000F0EE42DAF0EE62AAB0EE43DA6DEEAD0ACA
:100580004AEEAA0A4DEE0D0AB0EE600A02F013FE22
:10059000F0EE408A8DEEA80AF0EE40DA8AEEA80A64
:1005A000F0EE40AA8DEE280AB0EE40DAFE4890ED5B
:1005B000000AFE48D0ED000A20EE200AFC48D0EDEB
:1005C000000AFC4890ED001A00EEC10AF0EE000AA5
:1005D00020EE200AF84880ED000AF54890ED000A68
:1005E000F148D0ED000A20EE200AF248D0ED000AD2
:1005F000EE4890ED001A00EE810AF0EE000A20EEBF
:10060000200AEE4880ED000AE74890ED000A20EE4F
:10061000000AE848D0ED000A90ED001A00EE810AC9
:10062000F7EE000AB0EE001A41EE400AE448C0EDD1
:10063000000A90ED000A2AEE800AE048D0ED000A98
:100640000DEE600AB0EE40EADB4890ED000A2DEEB8
:10065000000ADB48D0ED000A0DEEE00AF0EE40EAB9
:10066000D64890ED000A2DEE800AD348D0ED000A5E
:100670000AEEE00AB0EE40FA9FEDD20A2EEE000A32
:10068000F0EE000A60EE200ACF4890ED000A00EE7E
:10069000880A80ED000A9FEDCB0A2EEE800AF0EE6C
:1006A000000A60EE200AC94890ED000A00EE880AB0
:1006B00080ED000A9FEDC30A2FEE000AF0EE000A5B
:1006C00060EE200AC24890ED000A00EE880A80ED34
:1006D000000ABD4890ED000ADFEDBE0AB4EEE00A64
:1006E000F1EE10FA02D29FEDBB0A0FE0B64890ED92
:1006F000000ADFEDB90AB4EEE00AF1EE10FA02DD0D
:100700009FEDB50A02E0B04890ED000AAE4880EDDA
:10071000000A90ED000ADFEDAF0AB4EEE00AF1EE58
:1007200010FA02D29FEDAB0A0FE0A74890ED000A45
:10073000DFEDA90AB4EEE00AF1EE10FA02DD9FED5A
:10074000A60A02E0A04890ED000A9F4880ED000A4A
:1007500090ED000ADFED9F0AB4EEE00AF1EE10FA28
:1007600002D29FED9C0A0FE0974890ED000ADFED62
:100770009A0AB4EEE00AF1EE10FA02DD9FED960A55
:1007800002E0914890ED000A8F4880ED000A90ED5C
:10079000000A7EEE000A9FED911AB0EE490A01EEC2
:1007A000200AB0EE409A894890ED000A7EEE800A59
:1007B0009FED8A1AB0EE690A01EE200AF0EE409A27
:1007C000834890ED000A7FEE000A9FED841AB0EE98
:1007D0004A0A01EE200AB0EE40AA734890ED000AE2
:1007E000B1EE400A20EE090A7248D0ED000A00EE90
:1007F000E90A6E48D0ED000A00EECA0A6C48D0ED56
:10080000000A40EE080AC0ED000A90ED000A20EE52
:10081000090A6848D0ED000A00EE8A0A6348D0ED64
:10082000000A00EEE90A6048D0ED000A40EE080A2E
:10083000C0ED000A5E4890ED000A20EE290A5A48F1
:10084000D0ED000A00EECA0A5848D0ED000A00EECA
:10085000890A5848D0ED000A40EE080AC0ED000AA7
:10086000534890ED000A20EE0A0A4F48D0ED000AE6
:1008700000EEA90A4F48D0ED000A00EEC90A4B4825
:10088000D0ED000A40EE080AC0ED000A4848D0ED5D
:10089000000A60EEA00A444890ED001AD0ED001A5C
:1008A00041EE210A434890ED001AD0ED001A41EEC6
:1008B000210A3E4890ED001AD0ED001A41EE210ABF
:1008C000B0EE600A02F077FCF0EE408A384890ED16
:1008D000000AC0EE280AC0ED000A334890ED000A75
:1008E000C0EE280AC0ED000A324890ED000AC0EEC2
:1008F000280AC0ED000A2D4890ED000AC0EE280A33
:10090000C0ED000A2B4890ED001AF8EE001A21EE17
:10091000211AD0ED001A21EE211A2448D0ED001A38
:10092000B0EE002A61EE821A90ED002A01EEC21AA2
:10093000F7EE001A31EE211AF0EE410A1A4890ED56
:10094000001AF0EE001A21EE211A1A48D0ED001A12
:1009500021EE211A1648D0ED001AB0EE002A61EE01
:10096000821A124890ED002A01EE821AB0EE410A76
:1009700002F058FBDFED1A0A20EE200A194880ED3C
:10098000020A094890ED001AF8EE001A21EE211A29
:10099000D0ED001A21EE211A0648D0ED001AB0EE73
:1009A000002A61EE821A1FE01800002020000020BB
:1009B000140000201C000020480000204C000020F3
:1009C00050000020CDCCCC3D240000202800002089
:1009D0002C00002034FA0EBD34FA0E3D9A99193FCE
:1009E000333365424807002090ED002A01EEC21A19
:1009F000F7EE001A31EE211AF0EE410A90ED001ADE
:100A0000F0EE001A21EE211A7048D0ED001A21EE06
:100A1000211A6F48D0ED001AB0EE002A61EE821A5A
:100A20006C4890ED002A01EE821AB0EE410A02F005
:100A3000F9FA5FED150A20EE200A674880ED010AF9
:100A4000644890ED000AF8EE000A20EE200A5F48A4
:100A5000D0ED000A20EE200A5D48D0ED000AB0EE8D
:100A6000001A60EE810A5D4890ED001A00EE810ADE
:100A700010EE101A084608F03CFE41EC1C0BB0EEDC
:100A80004C0AF0EE6C0A09F01BF8B0EE40BAF0EE3A
:100A900060BA9FED530B53EC102B51EC1B0B08F07D
:100AA0000AFDCDE900019DED000B51EC100B08F0A3
:100AB00063FE49490860494890ED000A20EE000AAB
:100AC0004248D0ED000A90ED001A00EE810AF7EEE0
:100AD000000AB0EE001A41EE400A4348C0ED000A99
:100AE0003C4890ED000A3D48D0ED000A20EE200A77
:100AF0003748D0ED000A354890ED001A00EEC10AE3
:100B0000F0EE000A20EE200A384880ED000A314855
:100B100090ED000A2D48D0ED000A20EE200A2C4866
:100B2000D0ED000A2D4890ED001A00EE810AF0EE9B
:100B3000000A20EE200A2E4880ED000A254890ED9C
:100B4000000A2648D0ED000A20EE200A2048D0ED09
:100B5000000A1E4890ED001A00EE810AF0EE000A2D
:100B600020EE200A234880ED000A1A4890ED000A82
:100B700020EE000A1548D0ED000A90ED001A00EEB4
:100B8000810AF7EE000AB0EE001A41EE400A1A4858
:100B9000C0ED000A114890ED000A0C48D0ED000AA3
:100BA00020EE200A0A48D0ED000A0A4890ED001A0B
:100BB00000EEC10AF0EE000A20EE200A0F4880ED98
:100BC000000A03B0BDEC108B00BD00002000002027
:100BD0001400002018000020480700201C000020FE
:100BE0000000006066A64C40300000203400002069
:100BF000380000203C00002040000020440000207D
:100C0000002005E0C649095CC64A1154411CC8B21F
:100C10000428F7DBC34991ED000AC34981ED020ABC
:100C2000042006E0BE490A5C011FBE4B5A54411C19
:100C3000C8B20828F6DBBB4991ED000ABA4981ED3C
:100C4000010A082007E0B6490A5CA0F10801B54B8B
:100C50005A54411CC8B20C28F5DBB24991ED000A88
:100C6000B14981ED000A0C2007E0AD490A5CA0F112
:100C70000C01AC4B5A54411CC8B21028F5DBA949F1
:100C800091ED000AA94981ED060A102007E0A44968
:100C90000A5CA0F11001A34B5A54411CC8B214289D
:100CA000F5DBA04991ED000AA04981ED070A142067
:100CB00007E09B490A5CA0F114019A4B5A54411C6D
:100CC000C8B21828F5DB974991ED000A974981EDE4
:100CD000080A7047002005E09149095C914A1154C7
:100CE000411CC8B20428F7DB8E4991ED000A8F49F8
:100CF00081ED000A042006E089490A5C011F894B46
:100D00005A54411CC8B20828F6DB864991ED000A06
:100D1000864981ED010A082007E081490A5CA0F1BB
:100D20000801804B5A54411CC8B20C28F5DB7D49A0
:100D300091ED000A7D4981ED020A0C2007E0784917
:100D40000A5CA0F10C01774B5A54411CC8B2102820
:100D5000F5DB744991ED000A744981ED030A102016
:100D600007E06F490A5CA0F110016E4B5A54411C18
:100D7000C8B21428F5DB6B4991ED000A6B4981ED8F
:100D8000040A142007E066490A5CA0F11401654BCF
:100D90005A54411CC8B21828F5DB624991ED000A8B
:100DA000624981ED050A704700B597B0012160489E
:100DB00007F040F80121880407F06FF807220B21A3
:100DC0005C4807F0FCFA4FF40060119002208DF8A7
:100DD000480000208DF84A0003208DF849000020CB
:100DE0008DF84B0011A9534807F05EFA4FF4E1204B
:100DF00013900020ADF85000ADF85200ADF854004B
:100E00000420ADF856000020ADF8580013A94A4858
:100E100007F02CFD0121484807F0B0FD01224021D8
:100E2000454807F058FE0C208DF8400001208DF851
:100E3000410002208DF8420001208DF8430010A8E7
:100E400005F0B5FF3D4807F0EFFA4FF00060019064
:100E50003948001D02903248039000200490182069
:100E60000590002006904FF48060079000200890C5
:100E700009904FF480700A904FF440300B9000209E
:100E80000C900D900E900F9001A92C4807F06EFB6E
:100E900001221021294807F030FC0121274807F0E2
:100EA0009FFB17B000BD10B52DED028B24492348E0
:100EB00007F040FC88B32349204807F00AFC20498A
:100EC0001E48603007F060FCFFF704FF012001F0CE
:100ED000E5FEB0EE408A1548D0ED023AB0EE633A36
:100EE000D0ED013AF0EE632AD0ED003AB0EE632A7D
:100EF000D0ED053AF0EE631AD0ED043AB0EE631A85
:100F0000D0ED033AF0EE630AF6EE003A68EE233ACB
:100F1000B0EE630AFFF720FB00BFBDEC028B10BDF3
:100F2000B80700205800002048070020880700204C
:100F300004002000000802400048004028600240F1
:100F4000008800100008001010B52DED028BB0EEE7
:100F5000408AFC4890ED000ADFEDFB0AB4EEE00A9F
:100F6000F1EE10FA11DBF94890ED270AF848B0F9D4
:100F70000400404200EE900AF8EEE00A9FEDF51AF8
:100F800000EE810AF14880ED270AF04890ED270A2B
:100F9000DFEDF10AB4EEE00AF1EE10FA07DD90EDB4
:100FA000270ADFEDEE0A30EE600A80ED270AE748F7
:100FB00090ED270ADFEDEA0AB4EEE00AF1EE10FA4E
:100FC00007D290ED270ADFEDE50A30EE200A80ED2A
:100FD000270ADF484089032824D1DD48B0F9000002
:100FE00000EE100AB8EEC00AF3EE090A20EE200A5D
:100FF000DFEDDC0A80EE201AD44880ED251AD448B3
:10100000B0F9020000EE100AB8EEC00AF3EE090AC9
:1010100020EE200ADFEDD30A80EE201ACB4880EDC7
:10102000261A35E0CA48B0F9000000EE100AB8EE02
:10103000C00AF3EE090A20EE200ADFEDCB0A20EE0B
:10104000200ADFEDC80A80EE201AC84890ED310A68
:1010500031EE000ABD4880ED250ABD48B0F9020016
:1010600000EE100AB8EEC00AF3EE090A20EE200ADC
:10107000DFEDBD0A20EE200A9FEDBA1AC0EE010A8C
:10108000BA4890ED300A30EE800AB04880ED260A6A
:10109000AE4890ED250AB648D0ED010A30EE600A60
:1010A000AA4880ED280A90ED260AB148D0ED000A42
:1010B00030EE600AA54880ED290A90ED270AAC4879
:1010C000D0ED020A30EE600AA04880ED2A0AD0ED89
:1010D0002A0AB0EE600A02F0F6F99C4880ED2A0A6E
:1010E00090ED280AB5EEC00AF1EE10FA02DD90ED9F
:1010F000280A04E0954890ED280AB1EE400AF3EE84
:101100000E0A80EE201A914880ED2B1A90ED290AE4
:10111000B5EEC00AF1EE10FA02DD90ED290A04E006
:101120008A4890ED290AB1EE400AF3EE0E0A80EEED
:10113000201A864880ED2C1A90ED2A0AB5EEC00AD6
:10114000F1EE10FA02DD90ED2A0A04E07F4890EDFE
:101150002A0AB1EE400AF3EE0E0A80EE201A7B480E
:1011600080ED2D1A7A4890ED060A20EE080AF3EE7B
:10117000090A60EE200A9FED7F1A80EE810A7C4802
:10118000D0ED010AF1EE600A704890ED2E1A70EE73
:10119000C10A30EE200A7848D0ED050AB2EE041AF2
:1011A00060EE810A20EE200ADFED740A80EE881AD4
:1011B00060EE010A654890ED2B1A9FED710ADFED94
:1011C000711A01EE810A20EE800A80ED310A604832
:1011D00090ED070A20EE080AF3EE090A60EE200AF5
:1011E0009FED641A80EE810A6148D0ED000AF1EEAD
:1011F000600A564890ED2F1A70EEC10A30EE200AB0
:101200005D48D0ED020AB2EE041A60EE810A20EECB
:10121000200ADFED5A0A80EE881A60EE010A4B4878
:1012200090ED2C1A9FED560ADFED561A01EE810A59
:1012300020EE800A80ED320ADFED500A80EE880A47
:10124000D0ED2A0A90ED301A70EEC10A4A4890EDAE
:10125000081AF2EE041A21EE211A60EE810A60EEFD
:10126000200A3A4890ED2D1A9FED450ADFED451A08
:1012700001EE810A20EE800A80ED330A3E4890EDAF
:10128000040A3248D0ED280A60EE200A90ED370AB1
:1012900000EE880A80ED370A374890ED010A2B48A6
:1012A000D0ED290A60EE200A90ED380A00EE880A97
:1012B00080ED380A304890ED070A2448D0ED2A0A1C
:1012C00060EE200A90ED390A00EE880A80ED390AB6
:1012D0001C4890ED020AF6EE000A20EE200AF3EE1A
:1012E000090A20EE200A194880ED430A154890EDBE
:1012F000020AF6EE000A20EE200AF3EE090A20EEBA
:10130000200A124880ED440A0E4890ED020AF6EEDB
:10131000000A20EE200AF3EE090A20EE200A0B480C
:1013200080ED450A90ED370AD0ED430AF1EE600AF0
:10133000B4EEE00AF1EE10FA26D290ED430AB1EED7
:10134000400A31E00009002000007043D807002067
:101350005407002052491D3A000034430000B443B2
:10136000000034C300002544CDCC4C3E800A002050
:101370004807002000001644340A00200AD7A33B87
:101380006666263F3333B33EFC4890ED370AD0ED16
:10139000430AB4EEE00AF1EE10FA02DD90ED430AE2
:1013A00002E0F64890ED370AF44880ED370A90EDF8
:1013B000380AD0ED440AF1EE600AB4EEE00AF1EE2C
:1013C00010FA04D290ED440AB1EE400A0FE0EB4867
:1013D00090ED380AD0ED440AB4EEE00AF1EE10FACE
:1013E00002DD90ED440A02E0E44890ED380AE3485B
:1013F00080ED380A90ED390AD0ED450AF1EE600A29
:10140000B4EEE00AF1EE10FA04D290ED450AB1EE26
:10141000400A0FE0D94890ED390AD0ED450AB4EE04
:10142000E00AF1EE10FA02DD90ED450A02E0D34841
:1014300090ED390AD14880ED390A90ED280ADFEDA8
:10144000D00AB4EEE00AF1EE10FA02D29FEDCC0A17
:101450000FE0CA4890ED280ADFEDCA0AB4EEE00AB0
:10146000F1EE10FA02DD9FEDC70A02E0C34890EDED
:10147000280AC24880ED280A90ED290ADFEDC00A4B
:10148000B4EEE00AF1EE10FA02D29FEDBD0A0FE0D1
:10149000BA4890ED290ADFEDBB0AB4EEE00AF1EE9E
:1014A00010FA02DD9FEDB70A02E0B44890ED290A78
:1014B000B24880ED290A90ED2A0ADFEDB10AB4EEB8
:1014C000E00AF1EE10FA02D29FEDAD0A0FE0AB4850
:1014D00090ED2A0ADFEDAB0AB4EEE00AF1EE10FA65
:1014E00002DD9FEDA80A02E0A44890ED2A0AA34875
:1014F00080ED2A0A90ED280AD0ED310A30EE200A5C
:10150000D0ED370A30EE200A9F48D0ED030A20EED6
:10151000200A9A4880ED460A90ED290AD0ED320A59
:1015200030EE200AD0ED380A30EE200A9648D0ED91
:10153000000A20EE200A914880ED470A90ED2A0A21
:10154000D0ED330A30EE200AD0ED390A30EE200A11
:101550008D48D0ED060A20EE200A884880ED480A22
:101560008A4890ED010AB1EE400A844880ED2E0AC7
:10157000864890ED000AB1EE400A804880ED2F0ABF
:10158000824890ED020AB1EE400A7C4880ED300AB4
:10159000BDEC028B10BD10B52DED088BB0EE408A6E
:1015A0007B480078A0B37B49B1F9060008F064F8E5
:1015B00041EC1B0B9FED780B53EC102B07F07BFFDE
:1015C00041EC1A0B9FED760B53EC102B07F0CCFE81
:1015D00041EC190B08F0D0F873490860084690ED0B
:1015E000000ADFED720AB4EEE00AF1EE10FA02D260
:1015F0009FED6E0A10E06C4890ED000ADFED6C0A7A
:10160000B4EEE00AF1EE10FA03DD9FED690A03E0A3
:1016100006E0654890ED000A634880ED000A04E0AA
:101620009FED640A604880ED000A5F48D0ED000A33
:101630009FED611A80EE810AD0ED010A70EE600A1A
:1016400090ED010A9FED5D1A28EE011A01EE200AC5
:1016500080ED010A90ED010AB5EEC00AF1EE10FA34
:1016600002D29FED540A0FE04F4890ED010AF7EEC9
:10167000000AB4EEE00AF1EE10FA02DDB7EE000A5D
:1016800002E0494890ED010A474880ED020ABDECAE
:10169000088B10BD10B52DED028BB0EE408A374897
:1016A00090ED460AF3EE0E0A80EE201A9FED440AF2
:1016B00021EE000A80ED000A90ED470AF3EE0E0AD3
:1016C00080EE201A9FED3E0A21EE000A80ED010A0D
:1016D00090ED480AF3EE0E0A80EE201A9FED380ACC
:1016E00021EE000A80ED020A90ED000ADFED350AD6
:1016F000B4EEE00AF1EE10FA02D29FED320A0FE0EA
:101700001E4890ED000ADFED2E0AB4EEE00AF1EE7D
:1017100010FA02DD9FED2A0A02E0184890ED000A57
:10172000164880ED000A90ED010ADFED260AB4EEBE
:10173000E00AF1EE10FA02D29FED220A0FE00F4804
:1017400090ED010ADFED1E0AB4EEE00AF1EE10FAA8
:1017500002DD9FED1B0A02E0084890ED010A0748F0
:1017600080ED010A90ED020ADFED160AB4EEE00A00
:10177000F1EE10FA28D29FED130A35E0D8070020C9
:101780000000B4C20000B442340A00204807002020
:101790005C000020540700201361C3D32B65E33F96
:1017A0000000000000407F40000900200000C84207
:1017B00000007A44000000000000C8433433FB41BD
:1017C00000005C4300005CC3FA4890ED020A5FED44
:1017D000040AB4EEE00AF1EE10FA02DD1FED080A89
:1017E00002E0F44890ED020AF24880ED020A90ED22
:1017F000000AF148D0ED060A30EE600AED4880EDAF
:10180000030A90ED010AEC48D0ED070A30EE600AB9
:10181000E84880ED040A90ED020AE748D0ED080A96
:1018200030EE600AE34880ED050A90ED030AB5EE5C
:10183000C00AF1EE10FA02DD90ED030A04E0DD4883
:1018400090ED030AB1EE400A5FED230A80EE201A04
:10185000D84880ED061A90ED040AB5EEC00AF1EE04
:1018600010FA02DD90ED040A04E0D24890ED040A7B
:10187000B1EE400A5FED2E0A80EE201ACD4880EDD1
:10188000071A90ED050AB5EEC00AF1EE10FA02DD76
:1018900090ED050A04E0C74890ED050AB1EE400A54
:1018A000DFEDC60A80EE201AC24880ED081AC24851
:1018B00090ED060ABF48D0ED090A30EE600AC04834
:1018C000D0ED0E0AF1EE600A20EE200AC0EE080A02
:1018D000B848C0ED0C0AB84890ED070AB548D0EDFD
:1018E0000A0A30EE600AB648D0ED0B0AF1EE600A43
:1018F00020EE200AC0EE080AAE48C0ED0D0AAE4840
:1019000090ED080AAB48D0ED0B0A30EE600AAC4807
:10191000D0ED110AF1EE600A20EE200AC0EE080AAE
:10192000A448C0ED0E0A90ED030AD0ED0C0A30EE8B
:10193000600AA348D0ED0D0A60EE200A9D4890EDA4
:10194000120A00EE880A80ED120A90ED040AD0ED2A
:101950000D0A30EE600A9A48D0ED0A0A60EE200ABD
:10196000944890ED130A00EE880A80ED130A90ED7A
:10197000050AD0ED0E0A30EE600A9148D0ED100A4B
:1019800060EE200A8B4890ED140A00EE880A80ED84
:10199000140A8C4890ED020AF6EE000A20EE200AA6
:1019A0005FED790A20EE200A824880ED1E0A854804
:1019B00090ED020AF6EE000A20EE200A5FED800AA2
:1019C00020EE200A7B4880ED1F0A7E4890ED020A37
:1019D000F6EE000A20EE200A5FED870A20EE200ACC
:1019E000744880ED200A90ED120AD0ED1E0AF1EE47
:1019F000600AB4EEE00AF1EE10FA04D290ED1E0A8D
:101A0000B1EE400A0FE06B4890ED120AD0ED1E0ACD
:101A1000B4EEE00AF1EE10FA02DD90ED1E0A02E0EB
:101A2000644890ED120A634880ED120A90ED130AA3
:101A3000D0ED1F0AF1EE600AB4EEE00AF1EE10FA02
:101A400004D290ED1F0AB1EE400A0FE0594890ED24
:101A5000130AD0ED1F0AB4EEE00AF1EE10FA02DD2F
:101A600090ED1F0A02E0534890ED130A514880EDB3
:101A7000130A90ED140AD0ED200AF1EE600AB4EEDC
:101A8000E00AF1EE10FA04D290ED200AB1EE400A1D
:101A90000FE0484890ED140AD0ED200AB4EEE00AB9
:101AA000F1EE10FA02DD90ED200A02E0414890EDDF
:101AB000140A404880ED140A90ED240AF7EE000A5B
:101AC00030EEC00A3E48D0ED0C0A20EE200A39481C
:101AD000D0ED030A90ED0C1A70EE810A90ED121A07
:101AE00070EE810A60EE200A90ED241AD0ED061AFD
:101AF0009FED350A9FED352A02EE210AB5EEC00AA8
:101B0000F1EE10FA02D21FEDD50A1BE02948D0ED04
:101B1000061A9FED2D0A9FED2D2A02EE210AF7EEFF
:101B2000001AB4EEE10AF1EE10FA02DDB7EE000A97
:101B300008E02048D0ED061A9FED230A9FED232AE6
:101B400002EE210A21EE000A1A4890ED251A40EE15
:101B5000010AB0EE080A20EE800A80ED210A90ED1D
:101B6000240AF7EE000A30EEC00A1548D0ED090A43
:101B700020EE200A0F48D0ED040A90ED0D1A70EE09
:101B8000810A90ED131A70EE810A60EE200A90ED42
:101B9000241AD0ED071A9FED0C0A9FED0C2A02EED5
:101BA000210AB5EEC00AF1EE10FA13D29FED080A31
:101BB0002CE00000D8070020880700200000164312
:101BC000340A0020000900206666E63ECDCC0C3FBA
:101BD000000000007848D0ED071A1FED050A1FED40
:101BE000052A02EE210AF7EE001AB4EEE10AF1EE40
:101BF00010FA02DDB7EE000A08E06F48D0ED071AD0
:101C00001FED0F0A1FED0F2A02EE210A21EE000A36
:101C1000694890ED261A40EE010AB0EE080A20EE5F
:101C2000800A80ED220A90ED240AF7EE000A30EED9
:101C3000C00A6248D0ED0F0A20EE200A5E48D0EDBF
:101C4000050A90ED0E1A70EE810A90ED141A70EEEE
:101C5000810A60EE200A90ED241AD0ED081A1FEDDB
:101C6000260A1FED262A02EE210AB5EEC00AF1EE81
:101C700010FA02D21FED2A0A1BE04F48D0ED081AD5
:101C80001FED2F0A1FED2F2A02EE210AF7EE001A90
:101C9000B4EEE10AF1EE10FA02DDB7EE000A08E058
:101CA0004548D0ED081A1FED380A1FED382A02EE1C
:101CB000210A21EE000A404890ED271A40EE010A61
:101CC000B0EE080A20EE800A80ED230A90ED210A8A
:101CD000DFED3B0AB4EEE00AF1EE10FA02D29FED1E
:101CE000380A0FE0344890ED210ADFED360AB4EEF1
:101CF000E00AF1EE10FA02DD9FED320A02E02E4812
:101D000090ED210A2C4880ED210A90ED220ADFEDAA
:101D10002C0AB4EEE00AF1EE10FA02D29FED280A86
:101D20000FE0254890ED220ADFED260AB4EEE00A26
:101D3000F1EE10FA02DD9FED230A02E01E4890ED5D
:101D4000220A1D4880ED220A90ED230ADFED1C0ACD
:101D5000B4EEE00AF1EE10FA02D29FED190A0FE09C
:101D6000154890ED230ADFED170AB4EEE00AF1EE14
:101D700010FA02DD9FED130A02E00F4890ED230AEE
:101D80000D4880ED230A104890ED060A0A4880EDC0
:101D9000090A0D4890ED070A074880ED0A0A0A482B
:101DA00090ED080A044880ED0B0AB0EE480AFFF7F0
:101DB000F2FBBDEC028B10BDD8070020340A0020D6
:101DC000000048C3000048438807002010B52DEDEF
:101DD000028BF0EE408AB848D0ED020AB0EE600AFD
:101DE00003F010FDB0EE408AB44890ED0A0AF1EE1F
:101DF000480A20EE200A80ED060A90ED060A80EDE2
:101E0000090ABDEC028B10BDAC48D0ED230AAA48EC
:101E100090ED051A70EEC10AA848C0ED0E0AD0ED8B
:101E20000E0A9FEDA71AF4EEC10AF1EE10FA02D2E3
:101E3000DFEDA30A0FE0A148D0ED0E0A9FEDA11A35
:101E4000F4EEC10AF1EE10FA02DDDFED9E0A02E0C7
:101E50009A48D0ED0E0A9948C0ED0E0AD0ED0E0A50
:101E600090ED171A60EE810AC0ED130AD0ED130A47
:101E7000C0ED160A70479448B0F90810B0F9140084
:101E8000814209D090480089012805D18A48D0EDC7
:101E9000080A8A48C0ED1A0A8B48008901287DD1BA
:101EA00000038A4908808A48D0ED000A9FED891A0C
:101EB000F4EEC10AF1EE10FA12DD8048D0ED1A0AF4
:101EC000834890ED001ADFED831A31EE611A21EE9E
:101ED000001AF5EE001A41EE210A7848C0ED1A0A00
:101EE0007B48D0ED000A9FED7C1AF4EEC10AF1EEBA
:101EF00010FA12D27148D0ED1A0A754890ED001A06
:101F0000DFED751A31EE611A21EE001AF5EE001AB6
:101F100041EE210A6948C0ED1A0A6B484089012840
:101F200009D16E48D0ED250A9FED6D1A70EE810A39
:101F30006248C0ED1A0A6148D0ED1A0A5E4890ED79
:101F4000081A70EEC10A5D48C0ED1B0AD0ED250AE3
:101F500090ED1B1A20EE811AD0ED210A41EE000A05
:101F6000C0ED210AD0ED1B0AF5EEC00AF1EE10FA21
:101F700002DDD0ED1B0A04E05048D0ED1B0AF1EE63
:101F8000600A4E48C0ED1F0AD0ED1F0AB3EE041AD6
:101F9000F4EEC10AF1EE10FA04D200E048E0F3EEEC
:101FA000040A0FE04548D0ED1F0A9FED4E1AF4EEEB
:101FB000C10AF1EE10FA02DDDFED4A0A02E03F4805
:101FC000D0ED1F0A3D48C0ED1F0AD0ED210A90ED6B
:101FD0001F1AB1EE411AF4EEC10AF1EE10FA04D262
:101FE000D0ED1F0AF1EE600A0FE03448D0ED210A6F
:101FF00090ED1F1AF4EEC10AF1EE10FA02DDD0EDF9
:102000001F0A02E02D48D0ED210A2C48C0ED210A1C
:10201000D0ED1B0A90ED241A60EE810AC0ED200A73
:10202000D0ED200A90ED211A70EE810AC0ED230A4E
:1020300025480089032802D02348008980BB4FF43B
:1020400080502249891E0880DFED270A1B48C0ED19
:10205000210A1F48D0ED000A9FED241A70EEC10A34
:10206000B6EE001A60EE810A1448C0ED230AD0EDE6
:10207000230A9FED1F1AF4EEC10AF1EE10FA02D204
:10208000DFED1B0A10E00D48D0ED230A9FED191A71
:10209000F4EEC10AF1EE10FA03DDDFED160A03E0FB
:1020A00005E00648D0ED230A0448C0ED230A06489F
:1020B0000189818270470000A816002010090020C5
:1020C000000016C300001643540700201A080240FF
:1020D00000090020000016440000C843480B0020FF
:1020E0000000FA4300004842000000000000E14305
:1020F00000007AC300007A4310B58AB0044601217B
:10210000022005F0CAFE0121042005F093FE022200
:102110000621FE4806F053F902220721FB4806F08B
:102120004EF902220821F94806F049F90222092154
:10213000F64806F044F94FF47070089002208DF8CC
:10214000240003208DF8250000208DF826000120B2
:102150008DF8270008A9ED4806F0A6F81420ADF880
:1021600014000020ADF8160042F210700690002016
:10217000ADF81C008DF81E0005A9E54804F02FFFFE
:102180006020ADF800000020ADF80C000120ADF893
:1021900002006946DE4804F0B7FF6946DC4804F0F7
:1021A000ECFF6946DA4805F035F86946D84805F08D
:1021B00097F80821D64805F034F90821D44805F0ED
:1021C00039F90821D24805F042F90821D04805F034
:1021D00047F90121CE4804F06DFF0121CC4804F0FD
:1021E00087FF4FF4FA50CA4934310860091D08606E
:1021F000091D0860091D08608010FEF776F84FF48D
:102200007A60C34934310860091D0860091D0860FF
:10221000091D08604010FEF768F80AB010BD10B53F
:102220002DED108BBB48B0F90600BB49884211DC8C
:10223000BA480068B0F5FA7F06DD0120B849487059
:102240000020B649086008E0B4480068401CB34963
:10225000086002E00020B2494870B148407830BBC5
:10226000AF488078012822D1AD48007818B100200D
:10227000AB4908701BE00120A94908709FEDA90A2D
:10228000A94880ED270AB7EE000AA84880ED000AA9
:102290009FEDA40AA64880ED000A9FEDA20AA5487A
:1022A00080ED000A9FED9F0AA34880ED000A9C483C
:1022B00040789B4988700846C07800287ED0084640
:1022C000007800287BD09D4890ED010ADFED9C0A44
:1022D00080EE201A11EE104A204607F00AFA41EC6F
:1022E0001B0BB0EE4B0AF0EE6B0A07F099FDB0EE57
:1022F000409AF0EE609A914890ED000ADFED900A66
:1023000080EE201A11EE104A204607F0F2F941EC57
:102310001D0BB0EE4D0AF0EE6D0A07F081FDB0EE38
:1023200040BAF0EE60BA874890ED000A10EE101A3D
:10233000084607F0DEF941EC1C0B53EC1B2B07F0B1
:102340002CF941EC1A0B53EC192B07F026F941EC50
:10235000180B07F011FA7B49C860784890ED010A24
:10236000DFED770A80EE201A11EE104A204607F0C2
:10237000C0F941EC1D0BB0EE4D0AF0EE6D0A07F00E
:102380004FFDB0EE40BAF0EE60BA6C4890ED000A36
:10239000DFED6B0A80EE201A11EE104A204607F09E
:1023A000A8F941EC1F0BB0EE4F0AF0EE6F0A07F0F0
:1023B00037FDB0EE40DAF0EE60DA01E06EE21CE2EA
:1023C000614890ED090AD0ED160A30EE200A10EEB1
:1023D000101A084607F08DF941EC1E0B53EC1D2B2B
:1023E00007F0DBF841EC1C0B53EC1B2B07F0D5F886
:1023F00041EC190B534890ED030A4B48D0ED210AEC
:1024000030EE600AD0ED220A30EE600AD0ED230AE9
:1024100030EE600A10EE101A084607F06AF941EC37
:102420001A0B53EC192B06F09FFF41EC180B07F029
:10243000A3F946490860414890ED010ADFED400AE2
:1024400080EE201A11EE104A204607F052F941ECB6
:102450001D0BB0EE4D0AF0EE6D0A07F0E1FCB0EE98
:1024600040BAF0EE60BA354890ED000ADFED340A6C
:1024700080EE201A11EE104A204607F03AF941EC9E
:102480001F0BB0EE4F0AF0EE6F0A07F0C9FCB0EE7A
:1024900040DAF0EE60DA2C4890ED090AD0ED160A29
:1024A00030EE200A10EE101A084607F022F941EC2F
:1024B0001E0B53EC1D2B07F070F841EC1C0B53EC7A
:1024C0001B2B07F06AF841EC190B1E4890ED030A2C
:1024D0001548D0ED210A30EE200AD0ED220A30EE68
:1024E000600AD0ED230A30EE200A10EE101A0846DA
:1024F00007F0FFF841EC1A0B53EC192B06F034FFF0
:1025000041EC180B07F038F9104921E000080240AF
:10251000000400405407002076FDFFFF600000200B
:102520005C00002000000000D807002014000020FC
:10253000180000201C000020200000204807002078
:10254000A34C65420009002010090020AC090020BE
:102550004860D44890ED010A5FED070A80EE201A2A
:1025600011EE104A204607F0C4F841EC1D0BB0EE06
:102570004D0AF0EE6D0A07F053FCB0EE40BAF0EEF3
:1025800060BAC84890ED000A5FED130A80EE201A89
:1025900011EE104A204607F0ACF841EC1F0BB0EEEC
:1025A0004F0AF0EE6F0A07F03BFCB0EE40DAF0EEB7
:1025B00060DABD4890ED090AD0ED160A30EE200A27
:1025C00010EE101A084607F094F841EC1E0B53EC7D
:1025D0001D2B06F0E2FF41EC1C0B53EC1B2B06F00D
:1025E000DCFF41EC190BB14890ED030AB048D0ED87
:1025F000210A30EE200AD0ED220A30EE200AD0ED7A
:10260000230A30EE600A10EE101A084607F071F83F
:1026100041EC1A0B53EC192B06F0A6FE41EC180BFB
:1026200007F0AAF8A34988609E4890ED010A5FED83
:102630003C0A80EE201A11EE104A204607F059F8A5
:1026400041EC1D0BB0EE4D0AF0EE6D0A07F0E8FB11
:10265000B0EE40BAF0EE60BA924890ED000A5FED3D
:10266000480A80EE201A11EE104A204607F041F881
:1026700041EC1F0BB0EE4F0AF0EE6F0A07F0D0FBF3
:10268000B0EE40DAF0EE60DA874890ED090AD0ED5E
:10269000160A30EE200A10EE101A084607F029F844
:1026A00041EC1E0B53EC1D2B06F077FF41EC1C0B8D
:1026B00053EC1B2B06F071FF41EC190B7B4890ED9E
:1026C000030A7B48D0ED210A30EE600AD0ED220AE1
:1026D00030EE200AD0ED230A30EE200A10EE101A58
:1026E000084607F006F841EC1A0B53EC192B06F0DC
:1026F0003BFE41EC180B07F03FF86E49C8600846F6
:1027000090ED000ADFED6C0AB4EEE00AF1EE10FA8B
:1027100002D29FED690A0FE0664890ED000ADFEDF6
:10272000670AB4EEE00AF1EE10FA02DD9FED630AEB
:1027300002E0604890ED000A5E4880ED000A90EDEE
:10274000010ADFED5D0AB4EEE00AF1EE10FA02D202
:102750009FED590A0FE0574890ED010ADFED570A47
:10276000B4EEE00AF1EE10FA02DD9FED540A02E049
:10277000504890ED010A4F4880ED010A90ED020AA1
:10278000DFED4D0AB4EEE00AF1EE10FA02D29FED51
:102790004A0A0FE0474890ED020ADFED480AB4EE1E
:1027A000E00AF1EE10FA02DD9FED440A02E0414832
:1027B00090ED020A3F4880ED020A90ED030ADFED3A
:1027C0003E0AB4EEE00AF1EE10FA02D29FED3A0AA8
:1027D0000FE0384890ED030ADFED380AB4EEE00A66
:1027E000F1EE10FA02DD9FED350A02E0314890ED7E
:1027F000030A304880ED030A10E01FEDB60A2D48A9
:1028000080ED000A1FEDB90A80ED010A1FEDBB0A39
:1028100080ED020A1FEDBD0A80ED030A2548D0EDC8
:10282000000A9FED270AB1EE001A01EE200ABDEE64
:10283000C00A10EE100A00B2224908601D48D0ED0F
:10284000010A9FED1F0AB1EE001A01EE200ABDEE4B
:10285000C00A10EE100A00B2091D08601548D0ED3C
:10286000020A9FED170AB1EE001A01EE200ABDEE32
:10287000C00A10EE100A00B2091D08600D48D0ED24
:10288000030A9FED0F0AB1EE001A01EE200ABDEE19
:10289000C00A10EE100A00B2091D0860BDEC108BD2
:1028A00010BD00004807002010090020000900208A
:1028B000D8070020AC0900200000A0420080894415
:1028C00000007A453404004000BF2F4A128802F00D
:1028D0004002002AF9D0C2B22B4B9A80704700B553
:1028E00087B00121294805F0A5FA0121102005F043
:1028F000E5FA07220921264805F061FD07220A2191
:10290000234805F05CFD4FF4C060019002208DF873
:10291000080000208DF80A0003208DF8090000202F
:102920008DF80B0001A91A4805F0BEFC4FF4FA20FF
:1029300003900020ADF81000ADF81200ADF81400BF
:102940000C20ADF816000020ADF8180003A90E48C1
:1029500005F08CFF012240F225510B4806F0C4F827
:102960000121094806F00AF807B000BD10B5044679
:1029700000BF4021044806F0DCF80028F9D02146C9
:10298000014806F026F810BD00100140010040008B
:102990000000024010B5044600BF4021B84806F0D0
:1029A000C8F80028F9D02146B54806F012F810BD45
:1029B00000B597B00121B34805F03CFA01210805A4
:1029C00005F06BFA08220C21AF4805F0F8FC08224C
:1029D0000221AE4805F0F3FC4FF480501190022024
:1029E0008DF8480000208DF84A0003208DF849003A
:1029F00000208DF84B0011A9A34805F055FC0420D8
:102A0000119002208DF8480000208DF84A00032024
:102A10008DF8490000208DF84B0011A99B4805F066
:102A200043FC974805F0D4FE4FF416501390002055
:102A3000ADF85000ADF85200ADF854000C20ADF8E0
:102A400056000020ADF8580013A98D4805F00EFF80
:102A500001218B4805F092FF6420FDF746FCB5206C
:102A6000FFF798FF6220FFF795FF0620FFF792FF20
:102A70000020FFF78FFF1420FFF78CFF0020FFF7E7
:102A800089FF0120FFF786FF0020FFF783FF00206A
:102A9000FFF780FF0020FFF77DFFD020FFF77AFFD0
:102AA0000820FFF777FF0020FFF774FF0020FFF7F3
:102AB00071FF0020FFF76EFFC220FFF76BFF0120C0
:102AC000FFF768FF0020FFF765FF0720FFF762FFB1
:102AD0000020FFF75FFF0320FFF75CFF0020FFF7F8
:102AE00059FF0020FFF756FF0020FFF753FF00209B
:102AF000FFF750FF0020FFF74DFFC020FFF74AFF10
:102B00007E20FFF747FF6420FDF7EFFB00215C48C4
:102B100005F034FF5A4805F05BFE4FF4E1301390A6
:102B20000020ADF85000ADF85200ADF854000C2074
:102B3000ADF856000020ADF8580013A9504805F034
:102B400095FE01214E4805F019FF6420FDF7CDFBED
:102B5000B520FFF71FFF6220FFF71CFF0620FFF7DD
:102B600019FF0820FFF716FF0620FFF713FF0020CC
:102B7000FFF710FF6420FFF70DFF0020FFF70AFFAB
:102B80000120FFF707FF0020FFF704FF0120FFF7F8
:102B900001FF0020FFF7FEFE7A20FFF7FBFE122068
:102BA000FFF7F8FE6420FDF7A0FB012240F224416C
:102BB000334805F099FF01224021314805F08BFF91
:102BC00035208DF8400003208DF8410001208DF85C
:102BD00042008DF8430010A804F0E9F82C4805F0F5
:102BE00023FC4FF0006001902548001D0290294809
:102BF0000390002004904FF40060059000200690A0
:102C00004FF4806007900020089009904FF4807086
:102C10000A9040020B9000200C900D900E900F90A7
:102C200001A91B4805F0A2FC0121194805F0D8FCB8
:102C300017B000BD10B540F22441114805F08FFFD8
:102C4000E0B10021124805F0CBFC062000F026F888
:102C5000114880ED000A0A480488848800F064FF67
:102C60004FF400600A491039486140F22441044899
:102C700005F0ACFF0121064805F0B2FC10BD0000D4
:102C8000005000400C00200000080240000C0240F0
:102C900010600240B80C00206800002010B5044607
:102CA00004EB4400204901EB800090ED000A04EBA6
:102CB000440001EB800080ED010AFDF7F2FA00EE1E
:102CC000100AB8EE400ADFED190A80EE201A04EB74
:102CD0004400154901EB800080ED001A04EB44002C
:102CE00001EB800090ED000A04EB440001EB800052
:102CF000D0ED010A30EE600A04EB440001EB8000E5
:102D000080ED020A04EB440001EB800090ED020A22
:102D100010BD10B5002404E02046FFF7BFFF601C83
:102D2000C4B20A2CF8DB10BDBC0900200024744991
:102D30001CB50121042005F07DF841F2024000900D
:102D400001208DF8040000208DF8060003208DF886
:102D500005006946084805F0A7FA4FF48060064967
:102D6000183108800220891C0880C002891E088052
:102D70001CBD704770470000000802409FED960A96
:102D8000964880ED000A9FED960A80ED010AB0EEAC
:102D9000000A80ED020A9FED900A80ED030A9FED84
:102DA000900A80ED040AB0EE000A80ED050AB7EE45
:102DB000000A80ED060A9FED8B0A80ED070A9FED61
:102DC000890A80ED080A9FED880A80ED090A9FEDC7
:102DD000850A80ED0A0A9FED850A80ED0B0A9FEDBA
:102DE000820A80ED0C0A9FED7F0A80ED0D0A9FEDAF
:102DF0007F0A80ED0E0A9FED7E0A80ED0F0A9FED9F
:102E0000790A80ED100A9FED7B0A80ED110A9FED93
:102E10007A0A7A4880ED240A9FED790A794880ED94
:102E20000A0AB0EE040A80ED170AB7EE000A80ED38
:102E3000240A9FED750A80ED250AB2EE040A80EDA2
:102E40001F0A9FED720A724880ED060A9FED6F0A15
:102E500080ED120A9FED650A80ED080A9FED630A76
:102E600080ED140A9FED6B0A80ED1E0A9FED690A42
:102E700080ED2A0A9FED680A80ED1F0A9FED660A21
:102E800080ED2B0A704770B5FF250026002403F063
:102E9000F0FC05463E2D06DD03F0E6FC08B10025FA
:102EA00001E0002070BD5D4800EBC52606F03CF84F
:102EB0005B48B0F920202146631C9CB2304603F0E9
:102EC00003FD08B90020EDE75548B0F9222021465E
:102ED000631C9CB2304603F0F7FC08B90020E1E720
:102EE0004F48B0F924202146631C9CB2304603F0C1
:102EF000EBFC08B90020D5E74948B0F92620214667
:102F0000631C9CB2304603F0DFFC08B90020C9E71F
:102F10004348B0F928202146631C9CB2304603F098
:102F2000D3FC08B90020BDE73D48B0F92A2021466E
:102F3000631C9CB2304603F0C7FC08B90020B1E71F
:102F400005F0FFFF0120ADE770B5FF250026002446
:102F500003F08FFC05460DB9002070BD681EC5B298
:102F60002E4800EBC5262146621C94B2304603F081
:102F7000C6FC00B22A4908842146621C94B230463D
:102F800003F0BDFC01B2264841842146621C94B284
:102F9000304603F0B4FC01B2214881842146621C12
:102FA00094B2304603F0ABFC00B21D49C884214600
:102FB000621C94B2304603F0A2FC01B218480185AD
:102FC0002146621C94B2304603F099FC01B21448C9
:102FD00041850120C1E70000CDCC4C3F340A0020E0
:102FE000AE47E13D00000000CDCCCC3E0AD7A33C6B
:102FF0009A99193F295C0F3D8FC2753DD807002073
:103000003333B33E10090020CDCCCC3D295C8F3D3D
:10301000800A00209A99993ECDCC4C3E00000E08C3
:10302000F8060020B0EE401AF0EE601AB5EEC01AB5
:10303000F1EE10FA07D1F5EEC01AF1EE10FA02D156
:103040009FEDF90AA5E0B5EEC01AF1EE10FA02DD27
:10305000B0EE414A01E0B1EE414AB0EE443AF5EE3D
:10306000C01AF1EE10FA02DDB0EE614A01E0B1EEF5
:10307000614AF0EE442AB4EEE23AF1EE10FA02D2DE
:1030800083EE222A01E082EE832A9FEDE84AB4EE25
:10309000C42AF1EE10FA02D2F0EE420A2DE0DFED82
:1030A000E44AB6EE004A12EE244AF0EE443ABDEE8F
:1030B000E34A14EE100A04EE100AB8EEC44A33EEE6
:1030C000C44AF0EE443ADB4901EB800191ED004A3D
:1030D000F0EE440AD74A411C02EB810191ED004A0F
:1030E000114601EB8001D1ED004A74EE644AB0EE66
:1030F000604A04EEA34AF0EE440AF4EEC32AF1EE6D
:1031000010FA20DDF5EEC01AF1EE10FA0ADBB5EE8A
:10311000C01AF1EE10FA02DBB0EE600A39E0B1EE4F
:10312000600A36E09FEDC40AB5EEC01AF1EE10FA5F
:1031300004DB30EE604AB0EE440A2AE030EEC04ACA
:10314000B0EE440A25E0B5EEC01AF1EE10FA10DB3D
:103150009FEDBA0AF5EEC01AF1EE10FA04DB30EE7C
:10316000604AB0EE440A14E030EE204AB0EE440A61
:103170000FE09FEDB30AF5EEC01AF1EE10FA04DB92
:1031800030EE204AB0EE440A03E030EE604AB0EE82
:10319000440A704700B5B0EE405AF0EE605AF0EEC7
:1031A000450AB0EE650AFFF73DFF00BDF0EE400AAC
:1031B00020EEA00A7047B0EE401AB7EE080AB0EE53
:1031C000402AB6EE000A21EE000AF0EE401AF0EEB8
:1031D000410A10EE900A9B49A1EB600000EE900AB4
:1031E00061EEA02AB7EE080A02EEE00A20EE200AFD
:1031F000F0EE400A61EEA02AB7EE080A02EEE00AFD
:1032000020EE200AF0EE400A21EE200A704710B5A9
:103210002DED0A8BB0EE409AF0EE609A9FED8A0B8E
:1032200053EC102B51EC190B06F076FA18D29FEDE7
:10323000880B53EC102B51EC190B06F03CF941ECC8
:103240001B0B9FED850B53EC102B06F08DF841EC1A
:103250001A0B53EC192B06F02EF941EC180B17E062
:103260009FED7B0B53EC102B51EC190B06F023F95F
:1032700041EC1B0B9FED780B53EC102B06F018F96B
:1032800041EC1A0B53EC192B06F015F941EC180B15
:103290009FED6D0B53EC102B51EC180B06F03CFA24
:1032A00020D29FED6F0B53EC102B51EC180B06F056
:1032B0005BF841EC1C0B9FED6C0B53EC102B06F0F4
:1032C000FAF841EC1B0B9FED660B53EC102B06F04C
:1032D0004BF841EC1A0B53EC182B06F0ECF841ECD0
:1032E000180B1FE09FED5E0B53EC102B51EC180BED
:1032F00006F0DBF841EC1C0B9FED5D0B53EC102B43
:1033000006F0D9F841EC1B0B9FED550B53EC102B3D
:1033100006F02AF841EC1A0B53EC182B06F0CBF808
:1033200041EC180BB0EE480AF0EE680ABDEC0A8BCF
:1033300010BD10B52DED068BB0EE408AF0EE608A20
:1033400001249FED4D0B53EC102B51EC180B06F0A4
:10335000FBF90AD89FED480B53EC102B51EC180BDE
:1033600006F0A3F841EC180BA41E204606F084F9E1
:1033700041EC190BB0EE480AF0EE680AFFF747FF80
:10338000B0EE40AAF0EE60AA53EC192B51EC1A0BE8
:1033900006F091F841EC100BBDEC068B10BD10B59A
:1033A0002DED088BB0EE408AF0EE608A01249FED8F
:1033B000340B53EC102B51EC180B05F0D5FF41ECFE
:1033C000180B9FED2D0B53EC102B51EC180B06F046
:1033D000BBF90AD8A41E9FED280B53EC102B51EC1F
:1033E000180B06F062F841EC180B204606F044F981
:1033F00041EC1A0BB0EE480AF0EE680AFFF799FFAD
:10340000B0EE40BAF0EE60BA53EC1A2B51EC1B0B45
:1034100006F051F841EC190B06F0AEF900EE100A77
:10342000BDEC088B10BD0000000000008180803BD7
:10343000000080436C000020DB0F4940DB0FC93FD8
:10344000DB0FC9BFDF59375F00000000000000003C
:10345000000000602FF0D93F00000060305FF43FB3
:10346000000000000000F03F000000C0CCCCCCBF4A
:10347000000000C0CCCCCC3FF1D4C853FB210940A4
:10348000F1D4C853FB21F93FB0EE401AB5EEC01A93
:10349000F1EE10FA0BDD31EE600AB5EEC00AF1EE86
:1034A00010FA0FD25FED201AB0EE610A0AE031EE99
:1034B000200AB5EEC00AF1EE10FA03DD5FED261A20
:1034C000B0EE610A7047F0EE400A9FED0D0AF4EE8F
:1034D000C00AF1EE10FA04DD9FED0A0A30EEC00AD0
:1034E00070479FED090AF4EEC00AF1EE10FA04D21B
:1034F0009FED040A30EE800AF2E7B0EE600AEFE7D3
:10350000000034430000B443000034C3F0B5024669
:103510000B46002600240021002502B10BB9002033
:10352000F0BD144613E0701C86B22546194606E02D
:1035300008782F78B84200D004E06D1C491C087848
:103540000028F5D100BF087800B903E0641C20789A
:103550000028E8D100BF3046E2E72DE9F04100271E
:103560000025F6A1F748FFF7D1FF8046B8F1000F1C
:1035700041D000BFF3484044861D00BF16F8014B00
:103580002C2C03D1781CC7B200252EE0092F27D29E
:10359000DFE807F005080B0F12161A1E2200EA4892
:1035A00044551EE0E848C4721BE0E7480C3044551F
:1035B00017E0E548847514E0E3481730445510E0FF
:1035C000E14880F822400CE0DF482330445508E011
:1035D000DD482930445504E0DB482F30445500E0F5
:1035E00000BF00BF681CC5B200BF00BF2A2C02D0BC
:1035F000D6488642C2D3BDE8F08110B52DED108BC0
:1036000088B0D148407B3038CF49097B303901EB55
:10361000810100EB410084B2CB49497DA1F130002A
:1036200006F02AF841EC1A0B9FEDC90B53EC102B56
:1036300005F041FF41EC190BC349097DA1F13000B0
:1036400006F01AF841EC1B0B9FEDC30B53EC102B4B
:1036500005F031FFCDE90401BB49C97CA1F130007F
:1036600006F00AF841EC1D0B9FEDBD0B53EC102B3F
:1036700005F021FF41EC1B0BB349897CA1F130001F
:1036800005F0FAFF41EC1E0B9FEDB70B53EC102B2E
:1036900005F011FF41EC1D0BAB49497CA1F1300055
:1036A00005F0EAFF41EC1F0B9FEDB10B53EC102B23
:1036B00005F001FFCDE90001A349C97B3039A24AD9
:1036C000927B303A02EB820201EB420005F0D4FF1C
:1036D00041EC1E0B9DED000B53EC102B05F044FE4E
:1036E00053EC1D2BCDE902019DED020B51EC100BAB
:1036F00005F03AFE41EC1C0B53EC1B2B05F034FE9D
:1037000041EC1A0B9DED040B53EC102B05F02CFE35
:1037100053EC192BCDE906019DED060B51EC100B76
:1037200005F022FE41EC180B9FED930B53EC102B90
:1037300051EC180B05F031FF41EC180B204605F059
:10374000ACFF41EC190B53EC182B05F00DFE41ECCE
:10375000180BB0EE480AF0EE680A08B0BDEC108B0A
:1037600010BD10B52DED108B88B07748C07D303876
:10377000642110FB01F17448007E303800EB8000BA
:1037800001EB40017048407E3038084484B26E49F5
:1037900091F82110A1F1300005F06EFF9FED6C0B48
:1037A00053EC102B05F087FE41EC190B664991F89C
:1037B0002010A1F1300005F05FFF9FED670B53EC87
:1037C000102B05F078FECDE904015F49C97FA1F116
:1037D000300005F051FF9FED620B53EC102B05F00C
:1037E0006AFE41EC1B0B5849897FA1F1300005F0BE
:1037F00043FF9FED5D0B53EC102B05F05CFE41EC9D
:103800001D0B5149497FA1F1300005F035FF9FEDB7
:10381000580B53EC102B05F04EFECDE900014A4940
:10382000C97E3039484A927E303A02EB820201EB7F
:10383000420005F021FF9DED000B53EC102B05F02D
:1038400093FD53EC1D2BCDE902019DED020B51ECD4
:10385000100B05F089FD53EC1B2B05F085FD9DED4C
:10386000040B53EC102B05F07FFD53EC192BCDE925
:1038700006019DED060B51EC100B05F075FD41ECBA
:10388000180B9FED3D0B53EC102B51EC180B05F072
:1038900084FE41EC180B204605F0FFFE53EC182B7C
:1038A00005F062FD41EC180BB0EE480AF0EE680A34
:1038B00008B0BDEC108B10BD70B52DED068B00254A
:1038C0009FED2F0BB0EE408AF0EE608A002429E0D5
:1038D0001D482330005D2E281CD01B482330005D7E
:1038E000C0B119492331095DA1F1300005F0C4FED2
:1038F00041EC190B9FED240B53EC102B51EC180BE2
:1039000005F0D9FD41EC1A0B53EC192B05F02CFDF9
:1039100041EC180B0C482330005D2E2800D12546C1
:10392000601CC4B2062CD3DB012D31D0022D3AD05D
:10393000032D43D0042D57D14BE0000024474E52B5
:103940004D432C00B80C0020E80B0020B8140020D8
:10395000F168E388B5F8E43E2D431CEBE2361A3FEC
:10396000FCA9F1D24D62503F7B14AE47E17A843F0F
:103970009A9999999999B93F0000000000004E402A
:1039800000000000000000000000000000002440D3
:103990009FEDFE0B53EC102B51EC180B05F0FDFDC9
:1039A00041EC180B21E09FEDFB0B53EC102B51EC7D
:1039B000180B05F0F2FD41EC180B16E09FEDF70B2C
:1039C00053EC102B51EC180B05F0E7FD41EC180BF4
:1039D0000BE01FED130B53EC102B51EC180B05F003
:1039E000DCFD41EC180B00E000BF00BF9FEDED0BCC
:1039F00053EC102B51EC180B05F05DFD41EC190B4D
:103A00009FEDEA0B53EC102B05F0C7FD41EC180BB2
:103A1000B0EE480AF0EE680ABDEC068B70BD70B5DA
:103A20002DED068B00251FED2A0BB0EE408AF0EE3F
:103A3000608A002425E0DF48005D2E281AD0DD488A
:103A4000005DB8B1DB49095DA1F1300005F014FE5D
:103A500041EC190B1FED340B53EC102B51EC180BF0
:103A600005F029FD41EC1A0B53EC192B05F07CFCF9
:103A700041EC180BCF48005D2E2800D12546601C74
:103A8000C4B2062CD7DB012D06D0022D0FD0032D9A
:103A900018D0042D2CD120E09FEDBC0B53EC102B43
:103AA00051EC180B05F079FD41EC180B21E09FED6E
:103AB000B90B53EC102B51EC180B05F06EFD41ECDB
:103AC000180B16E09FEDB50B53EC102B51EC180BB7
:103AD00005F063FD41EC180B0BE01FED550B53ECAB
:103AE000102B51EC180B05F058FD41EC180B00E0C1
:103AF00000BF00BF9FEDB00B53EC102B51EC180B27
:103B000005F022FE09D29FEDAE0B53EC102B51ECC9
:103B1000180B05F0CAFC41EC180BB0EE480AF0EEA9
:103B2000680ABDEC068B70BD10B52DED068BFFF756
:103B300014FDFFF762FDA44880ED000BFFF711FEB6
:103B4000A14880ED020BFFF7B7FE9F4880ED180BF0
:103B5000FFF765FF9C4880ED1A0B90ED1A1BB0EE45
:103B6000410AF0EE610A9FED991B53EC112B51ECC9
:103B7000100B05F012FD41EC1A0BB0EE4A0AF0EE04
:103B80006A0A06F04DF9B0EE409AF0EE609A8E485F
:103B900090ED181BB0EE410AF0EE610A53EC102BC9
:103BA00051EC190B05F087FC41EC180B05F0E4FD16
:103BB00085498867084690ED1A1BB0EE410AF0EE81
:103BC000610A9FED821B53EC112B51EC100B05F099
:103BD000E4FC41EC1A0BB0EE4A0AF0EE6A0A06F079
:103BE0002BFAB0EE409AF0EE609A774890ED181BF1
:103BF000B0EE410AF0EE610A53EC102B51EC190BB8
:103C000005F059FC41EC180B05F0B6FD6E49C8678C
:103C100068482938C07A412835D1084690F898007C
:103C200080B3084690ED042BB0EE420AF0EE620A33
:103C300090ED002BB0EE421AF0EE621A53EC102B0E
:103C400051EC110B05F031FC5F4AC2E90801104646
:103C500090ED062BB0EE420AF0EE620A90ED022BD8
:103C6000B0EE421AF0EE621A53EC102B51EC110B2D
:103C700005F01BFC544AC2E90A014FF48050554933
:103C8000088005E0FFE74FF480505249891E088004
:103C90004D4890ED001BB0EE410AF0EE610A1FEDB9
:103CA000C81B53EC112B51EC100B05F035FD25D042
:103CB000454890ED021BB0EE410AF0EE610A1FED9F
:103CC000D01B53EC112B51EC100B05F025FD15D03A
:103CD00038482938C07A412810D13B4890F89800DC
:103CE00060B9394890ED000B80ED040B90ED020BAC
:103CF00080ED060B0120344981F89800BDEC068B5D
:103D000010BD1D2017E0411E334A02EBC10191EDA9
:103D1000002B114601EBC00181ED002B411E2F4A03
:103D200002EBC10191ED002B114601EBC00181EDC9
:103D3000002B411EC8B20028E5DC274981ED000BAD
:103D4000264981ED001B70472DE9F0412DED0E8BCA
:103D5000B0EE408A9FED220AF0EE408A9FED200AE5
:103D600010EE104A9FED1E0A10EE105A9FED1C0A2D
:103D700010EE106A144890ED001BB0EE410AF0EE10
:103D8000610A9FED121B53EC112B2BE00000000089
:103D90000088C3400000000000408F400000000089
:103DA000000059400000006066266740000000C027
:103DB000CCCC0C40110C00200000000000806640BC
:103DC0000000000000807640480B002000000060EA
:103DD00066A64C401A080240B8140020A81500201E
:103DE0000000000051EC100B05F0D7FB41EC1B0B61
:103DF000B0EE4B0AF0EE6B0A06F012F8B0EE409A05
:103E0000F0EE609AFE4890ED0A1BB0EE410AF0EE2B
:103E1000610A9FEDFC1B53EC112B51EC100B05F0CC
:103E20004AFB41EC1A0B53EC192B05F044FBF74A03
:103E3000C2E91A01F24890ED081BB0EE410AF0EE1B
:103E4000610A9FEDF01B53EC112B51EC100B05F0A8
:103E500032FBEE4A7832C2E90201EC4890ED202BA9
:103E6000B0EE421AF0EE621A90ED1A2BB0EE420A52
:103E7000F0EE620AFFF745FFB3EE0D0A28EE000AE6
:103E800010EE101A084605F034FC41EC190BE0481E
:103E900090ED3A2BB0EE420AF0EE620ADB4890ED6C
:103EA0001A2BB0EE421AF0EE621A53EC102B51ECC2
:103EB000110B05F0FAFA41EC1A0B53EC192B05F033
:103EC0006CFBD24AC2E91C01B3EE0D0A28EE000ACF
:103ED00010EE101A084605F00CFC41EC190BCD4809
:103EE00090ED3A2BB0EE420AF0EE620AC74890ED30
:103EF000202BB0EE421AF0EE621A53EC102B51EC6C
:103F0000110B05F0D2FA41EC1A0B53EC192B05F00A
:103F100044FBBE4A7832C2E90401BF4890ED0E0A64
:103F2000BE48D0ED000A20EE200ABB48D0ED0F0AB3
:103F3000BB4890ED001A00EE810AB748D0ED100A98
:103F4000B84890ED001A00EE810ADFEDB70A20EEC6
:103F5000200ADFEDB60A80EE201A11EE104AAE48B4
:103F600090ED0E0AB248D0ED000A20EE200AAA48D1
:103F7000D0ED0F0AAF4890ED001A00EE810AA64876
:103F8000D0ED100AAC4890ED001A10EEC10ADFED3A
:103F9000A60A20EE200ADFEDA50A80EE201AF0EE38
:103FA000418AA64890ED020ADFEDA50A80EE201AAC
:103FB00011EE107A384605F09CFB41EC1E0BB0EE7A
:103FC0004E0AF0EE6E0A06F037F8B0EE40CAF0EE98
:103FD00060CA204605F08DFB41EC1D0B53EC1C2BF9
:103FE00005F069FA41EC1A0B944890ED020ADFEDF6
:103FF000940A80EE201A11EE107A384605F079FB0B
:1040000041EC1E0BB0EE4E0AF0EE6E0A05F008FF12
:10401000B0EE40CAF0EE60CA18EE900A05F069FBF7
:1040200041EC1D0B53EC1C2B05F045FA41EC1B0B2E
:1040300053EC1A2B05F098F941EC190B05F09CFB99
:1040400005467E4890ED020ADFED7D0A80EE201ADB
:1040500011EE107A384605F04CFB41EC1E0BB0EE29
:104060004E0AF0EE6E0A05F0DBFEB0EE40CAF0EE4E
:1040700060CA204605F03DFB41EC1D0B53EC1C2BA8
:1040800005F019FA41EC1A0B6C4890ED020ADFEDCD
:104090006C0A80EE201A11EE107A384605F029FBE2
:1040A00041EC1E0BB0EE4E0AF0EE6E0A05F0C4FFB6
:1040B000B0EE40CAF0EE60CAB1EE680A10EE100A27
:1040C00005F017FB41EC1D0B53EC1C2B05F0F3F92D
:1040D00041EC1B0B53EC1A2B05F046F941EC190B84
:1040E00005F04AFB0646574890ED120ADFED540AE8
:1040F00080EE201A11EE107A384605F0FAFA41ECFB
:104100001D0BB0EE4D0AF0EE6D0A05F095FFB0EE16
:1041100040BAF0EE60BA304605F0EBFA41EC1C0B09
:1041200053EC1B2B05F0C7F941EC190B454890EDFA
:10413000120ADFED430A80EE201A11EE107A38469B
:1041400005F0D7FA41EC1D0BB0EE4D0AF0EE6D0A0A
:1041500005F066FEB0EE40BAF0EE60BA284605F013
:10416000C8FA41EC1C0B53EC1B2B05F0A4F941ECF5
:104170001A0B53EC192B05F098F9244A03C2314865
:1041800090ED120ADFED2E0A80EE201A11EE107A61
:10419000384605F0AEFA41EC1D0BB0EE4D0AF0EEDC
:1041A0006D0A05F03DFEB0EE40BAF0EE60BA304662
:1041B00005F09FFA41EC1C0B53EC1B2B05F07BF92F
:1041C00041EC190B1F4890ED120ADFED1D0A80EE3D
:1041D000201A11EE107A384605F08BFA41EC1D0BCF
:1041E000B0EE4D0AF0EE6D0A05F026FFB0EE40BAD3
:1041F000F0EE60BA284605F07CFA41EC1C0B23E097
:10420000480B00200000008019976541280C002011
:10421000B8140020A8150020BC05002030000020A4
:104220003400002038000020000075440000804564
:104230003C000020400000204400002048070020EF
:1042400033336542F806002053EC1B2B05F033F99D
:1042500041EC1A0B53EC192B05F086F8FE4AC2E923
:10426000060118EE100A05F044FA41EC1D0BFA485D
:1042700090ED001BB0EE410AF0EE610A53EC102BFA
:1042800051EC1D0B05F017F941EC1C0BF24890EDB9
:104290000C1BB0EE410AF0EE610A53EC102B51EC0E
:1042A0001C0B05F061F841EC1B0B9FEDEC0B53EC84
:1042B000102B05F000F941EC190BE74890ED1C1BA1
:1042C000B0EE410AF0EE610A53EC102B9FEDE51BB6
:1042D00051EC110B05F0EFF841EC1A0B53EC192BD4
:1042E00005F042F8DC4AC2E90C0118EE100A05F0AC
:1042F00000FA41EC190BD84890ED061BB0EE410ACC
:10430000F0EE610A53EC102B51EC190B05F0D3F8C9
:1043100041EC1D0BD04890ED121BB0EE410AF0EEBF
:10432000610A53EC102B51EC1D0B05F01DF841EC0C
:104330001C0B9FEDCA0B53EC102B05F0BCF841ECA5
:104340001A0BC54890ED221BB0EE410AF0EE610A4F
:1043500053EC102B9FEDC31B51EC110B05F0ABF888
:1043600041EC1B0B53EC1A2B04F0FEFFBA4AC2E9D6
:104370001201BDEC0E8BBDE8F08110B52DED068B62
:10438000BA48007888287CD1B8484078A12878D1EC
:10439000B649C9780906B54A127941EA0241B34AD9
:1043A000527941EA0221B14A927941EA020005F0CC
:1043B00063F941EC180B9FEDAE0B53EC102B05F09D
:1043C000ECF8AD4AC2E90C01104690ED002BB0EEBE
:1043D000420AF0EE620A90ED0C2BB0EE421AF0EEBB
:1043E000621A53EC102B51EC110B05F05EF841EC06
:1043F000180B1FED7C0B53EC102B05F05CF89E4A5C
:10440000C2E912019949C9790906984A127A41EA22
:104410000241964A527A41EA0221944A927A41EA4A
:10442000020005F029F941EC180B9FED910B53ECBC
:10443000102B05F0B2F8904AC2E90E01104690ED3B
:10444000001BB0EE410AF0EE610A9FED8C1B53ECAD
:10445000112B51EC100B05F0A0F841EC1A0BB0EE4B
:104460004A0AF0EE6A0A05F0DBFCB0EE408AF0EE94
:10447000608A814890ED022BB0EE420AF0EE620AAB
:1044800000E01CE090ED0E2BB0EE421AF0EE621A46
:1044900053EC102B51EC110B05F007F841EC1A0B03
:1044A0001FEDA80B53EC102B05F005F841EC190B90
:1044B00053EC182B04F0FFFF6F4AC2E91001BDEC6A
:1044C000068B10BD10B52DED108B84B0B0EE408A78
:1044D0009FED6C0AF0EE408A9FED6A0AB0EE40FA5A
:1044E0006248007888287DD160484078A128FAD1B8
:1044F0005E48C07D012804D002280BD003281BD1C0
:1045000011E09FED600AF0EE408A9FED5E0AB0EE8A
:1045100040FA1AE09FED5C0AF0EE408A9FED5B0ADC
:10452000B0EE40FA11E09FED580AF0EE408A9FEDA0
:10453000580AB0EE40FA08E09FED520AF0EE408AC9
:104540009FED500AB0EE40FA00BF00BF514890ED19
:10455000000AB4EEE80AF1EE10FA08DD90ED000A68
:10456000F2EE040A30EE600A80ED000A0FE04948DE
:1045700090ED000AB4EEE80AF1EE10FA07D290EDE1
:10458000000AF2EE040A30EE200A80ED000A4248EA
:1045900090ED000AB4EECF0AF1EE10FA08DD90EDCE
:1045A000000AF2EE040A30EE600A80ED000A0FE025
:1045B000394890ED000AB4EECF0AF1EE10FA07D2B6
:1045C00090ED000AF2EE040A30EE200A80ED000AB7
:1045D000324890ED120A5FEDE60A80EE201A11EEE5
:1045E000104A00E0C6E3204605F083F841EC1D0BBD
:1045F000B0EE4D0AF0EE6D0A05F01EFDB0EE40BAC9
:10460000F0EE60BA2648B0F9020000EE100AB8EEEB
:10461000C00ADFED240A60EE200A9FED231A80EE27
:10462000810A20EE080A10EE104A204605F061F8D3
:1046300041EC1C0B53EC1B2B04F03DFF41EC1E0B1B
:10464000164890ED120ADFED190A80EE201A11EEDD
:10465000104A20462CE00000280C0020000000A09A
:104660009999E93F000000A09999C93F28170020B7
:1046700000000000D0126341480B002000000060E1
:1046800066A64C40000000000000FA440000FAC496
:1046900000007AC57004002074040020F806002091
:1046A0005407002000007A4300002544333365425C
:1046B00005F01FF841EC1D0BB0EE4D0AF0EE6D0A4F
:1046C00005F0AEFBB0EE40BAF0EE60BAFE48B0F9CD
:1046D000000000EE100AB8EEC00A5FED0E0A60EEB0
:1046E000200A1FED0F1A80EE810A20EE080A10EE54
:1046F000104A204604F0FDFF41EC1C0B53EC1B2B31
:1047000004F0D9FE41EC1A0B53EC1E2B04F0CDFE45
:1047100041EC190BED4890ED221BB0EE410AF0EE92
:10472000610A53EC102B51EC190B04F01DFEE74A03
:104730006032C2E90A01E64890ED120A5FED250AEF
:1047400080EE201A11EE104A204604F0D2FF41EC10
:104750001D0BB0EE4D0AF0EE6D0A05F06DFCB0EEEB
:1047600040BAF0EE60BAD848B0F9000000EE100A86
:10477000B8EEC00A5FED350A60EE200A1FED361A6A
:1047800080EE810A20EE080A10EE104A204604F05E
:10479000B0FF41EC1C0B53EC1B2B04F08CFE41ECE6
:1047A000190BCB4890ED120A5FED400A80EE201AFB
:1047B00011EE104A204604F09CFF41EC1D0BB0EEB8
:1047C0004D0AF0EE6D0A05F02BFBB0EE40BAF0EEAC
:1047D00060BABD48B0F9020000EE100AB8EEC00A97
:1047E0005FED500A60EE200A1FED511A80EE810A3B
:1047F00020EE080A10EE104A204604F07AFF41EC41
:104800001C0B53EC1B2B04F056FE41EC1A0B53EC23
:10481000192B04F0A9FD41EC1E0BAC4890ED2E1BAA
:10482000B0EE410AF0EE610A53EC102B51EC1E0B76
:1048300004F09AFDA54A9032C2E90A01A549C97857
:104840000906A44A127941EA0241A24A527941EA90
:104850000221A04A927941EA020004F00DFF41ECE6
:10486000190B1FED7D0B53EC102B04F096FE9A4AAA
:10487000C2E90C019948006804F03BFF41EC1B0BB6
:10488000954890ED042BB0EE420AF0EE620A90EDEE
:104890000C2BB0EE421AF0EE621A53EC102B51ECD6
:1048A000110B04F002FE41EC1E0B9FED8D0B53EC3F
:1048B000102B04F000FE41EC1D0B874890ED121BFD
:1048C000B0EE410AF0EE610A53EC102B51EC1D0BD7
:1048D00004F0EBFD41EC1C0B53EC1B2B04F044FDEE
:1048E00041EC1A0B794890ED2E1BB0EE410AF0EE28
:1048F000610A53EC102B51EC1A0B04F035FD41EC1E
:10490000190B04F039FF7149C1F890007149C97958
:104910000906704A127A41EA02416E4A527A41EA25
:1049200002216C4A927A41EA020004F0A5FE41ECB1
:10493000190B1FEDB10B53EC102B04F02EFE664A41
:10494000C2E90E016848006804F0D3FE41EC1A0B7E
:10495000614890ED001BB0EE410AF0EE610A1FEDD8
:10496000B91B53EC112B51EC100B04F016FE41EC6B
:104970001D0BB0EE4D0AF0EE6D0A05F051FAB0EEE7
:1049800040CAF0EE60CA544890ED062BB0EE420AE1
:10499000F0EE620A90ED0E2BB0EE421AF0EE621AC3
:1049A00053EC102B51EC110B04F07FFD41EC1D0B6F
:1049B0009FED4B0B53EC102B04F07DFD41EC1E0BD7
:1049C00053EC1C2B04F077FDCDE90001424890ED3B
:1049D000101BB0EE410AF0EE610A53EC102B9DED76
:1049E000001B51EC110B04F060FD41EC1B0B53EC70
:1049F0001A2B04F0B9FCCDE90201344890ED221BDA
:104A0000B0EE410AF0EE610A53EC102B9DED021B53
:104A100051EC110B04F0A8FC41EC190B04F0ACFEB6
:104A20002A4908662B48007B2A49C97A40EA0120B6
:104A300000EE100AB8EEC00A274880ED250A90ED76
:104A4000250ADFED2A0AB4EEE00AF1EE10FA07DDDE
:104A500090ED250ADFED260A30EE600A80ED250A8A
:104A60001C48807B1B49497B40EA012000EE100A6C
:104A7000B8EEC00A184880ED200A1648007C154997
:104A8000C97B40EA012000EE100AB8EEC00A1248C5
:104A900080ED210A0F48807C0E49497C40EA0120C4
:104AA00000EE100AB8EEC00A0B4880ED220A90ED25
:104AB000200ADFED0E0AB4EEE00AF1EE10FA1FDD77
:104AC00090ED200A16E0000054070020800A002024
:104AD000F806002028170020480B0020740400204E
:104AE00000000080199765417004002000FEFF4619
:104AF00000FF7F475FED020A30EE600A80ED200A7A
:104B0000F94890ED210A5FED070AB4EEE00AF1EEF4
:104B100010FA07DD90ED210A5FED0B0A30EE600A16
:104B200080ED210AF04890ED220A5FED100AB4EE04
:104B3000E00AF1EE10FA07DD90ED220A5FED140AAB
:104B400030EE600A80ED220AE74890ED200AF2EE8E
:104B5000040A80EE201ABBEE040AB4EEC01AF1EE8D
:104B600010FA02D2BBEE040A17E0DF4890ED200AEB
:104B7000F2EE040A80EE201AB3EE040AB4EEC01A74
:104B8000F1EE10FA02DDB3EE040A06E0D648D0EDED
:104B9000200AB2EE041A80EE810AD34880ED200A82
:104BA000D0ED210AB2EE041A80EE810AFBEE040A6F
:104BB000B4EEE00AF1EE10FA02D2BBEE040A17E0FE
:104BC000C94890ED210AB2EE041AC0EE010AB3EE14
:104BD000040AF4EEC00AF1EE10FA02DDB3EE040AA4
:104BE00006E0C148D0ED210AB2EE041A80EE810A37
:104BF000BD4880ED210AD0ED220AB2EE041A80EE03
:104C0000810ADFEDBA0AB4EEE00AF1EE10FA02D240
:104C10009FEDB60A17E0B44890ED220AB2EE041AEE
:104C2000C0EE010A9FEDB20AF4EEC00AF1EE10FAEE
:104C300002DD9FEDAF0A06E0AB48D0ED220AB2EEEE
:104C4000041A80EE810AA84880ED220AA948007D56
:104C5000A849C97C40EA012000EE100AB8EEC00A5B
:104C6000A14880ED240AA348807DA249497D40EAFD
:104C7000012000EE100AB8EEC00A9B4880ED230A1E
:104C800090ED240A5FED670AB4EEE00AF1EE10FA47
:104C900007DD90ED240A5FED6A0A30EE600A80EDD0
:104CA000240A914890ED230A5FED700AB4EEE00A01
:104CB000F1EE10FA07DD90ED230A5FED730A30EE96
:104CC000600A80ED230A8848D0ED240AB2EE041A67
:104CD00080EE810ADFED880AB4EEE00AF1EE10FA08
:104CE00002D29FED850A17E07F48D0ED240AB2EE8C
:104CF000041A80EE810ADFED810AB4EEE00AF1EEDB
:104D000010FA02DD9FED7D0A06E07748D0ED240A17
:104D1000B2EE041A80EE810A734880ED240A90ED09
:104D2000230AF2EE040A80EE201A9FED730AB4EE15
:104D3000C01AF1EE10FA02D29FED6F0A17E06A482E
:104D4000D0ED230AB2EE041A80EE810ADFED6B0A81
:104D5000B4EEE00AF1EE10FA02DD9FED680A06E01B
:104D60006148D0ED230AB2EE041A80EE810A5E4853
:104D700080ED230A04B0BDEC108B10BD10B52DEDF5
:104D8000108B82B05E4890ED001BB0EE410AF0EE51
:104D9000610A51EC100B04F0EFFC08EE100AB0EEC3
:104DA000480A01F0AAF88DED010A554890ED061B5E
:104DB000B0EE410AF0EE610A51EC100B04F0DCFC9D
:104DC00008EE100AB0EE480A01F09CF98DED000AD9
:104DD0004C484089012803D04A484089022875D1AF
:104DE00048484089022810D19FED470A3E4880ED8F
:104DF000200A9FED450A80ED210A9FED430A80EDD0
:104E0000240A9FED410A80ED230A404890ED1D0AD7
:104E100010EE101A084604F06CFC41EC190B3848EF
:104E200090ED0C1BB0EE410AF0EE610A53EC102B32
:104E300051EC190B04F039FB41EC180B04F09CFC0D
:104E400032494860084690ED290A10EE101A0846CB
:104E500004F04FFC41EC190B294890ED121BB0EE09
:104E6000410AF0EE610A53EC102B51EC190B04F0DF
:104E70001CFB41EC180B04F07FFC244948630846F6
:104E800090ED010AD0ED060A20EE200A80ED020A1C
:104E9000D0ED080A9DED010AB1EE400A20EE800A2D
:104EA00080ED040A90ED020AD0ED040A30EE200AEB
:104EB00080ED050A90ED050AFAEE0E0AB4EEE00A5E
:104EC000F1EE10FA03D2BAEE0E0A24E07CE10F48AC
:104ED00090ED050AF2EE0E0AB4EEE00AF1EE10FAD9
:104EE00016DDB2EE0E0A16E0480B0020000034C3B7
:104EF0000000344328170020000048C30000484346
:104F0000280C00205407002000000000800A002028
:104F1000FE4890ED050AFD4880ED050A90ED0D0A6A
:104F2000D0ED120A20EE200A80ED0E0AD0ED140A10
:104F30009DED000AB1EE400A20EE800A80ED100AD5
:104F400090ED0E0AD0ED100A30EE200A80ED110A25
:104F500090ED110AFAEE0E0AB4EEE00AF1EE10FA44
:104F600002D2BAEE0E0A0FE0E84890ED110AF2EE16
:104F70000E0AB4EEE00AF1EE10FA02DDB2EE0E0A0D
:104F800002E0E24890ED110AE04880ED110AE048A5
:104F900090ED120ADFEDDF0A80EE201A11EE104AC2
:104FA000204604F0A6FB41EC1D0BB0EE4D0AF0EEDE
:104FB0006D0A04F035FFB0EE40BAF0EE60BAD348A7
:104FC00090ED110A10EE101A084604F092FB41EC25
:104FD0001C0B53EC1B2B04F06EFA41EC190BCC4864
:104FE00090ED120ADFEDCB0A80EE201A11EE104A86
:104FF000204604F07EFB41EC1F0BB0EE4F0AF0EEB2
:105000006F0A05F019F8B0EE40DAF0EE60DABF484A
:1050100090ED050A10EE101A084604F06AFB41EC08
:105020001E0B53EC1D2B04F046FA41EC1B0BBA4847
:1050300090ED200ADFEDB90A20EE200A10EE101ADA
:10504000084604F056FB41EC1C0B53EC1B2B04F000
:105050002CFA41EC1A0B53EC192B04F085F941ECB6
:10506000180B04F089FBA949C1F8C000A84890EDCD
:10507000120ADFEDA80A80EE201A11EE104A20462F
:1050800004F037FB41EC1D0BB0EE4D0AF0EE6D0A5B
:1050900004F0D2FFB0EE40BAF0EE60BA9B4890ED5B
:1050A000110A10EE101A084604F023FB41EC1C0B09
:1050B00053EC1B2B04F0FFF941EC190B944890EDD5
:1050C000120ADFED940A80EE201A11EE104A2046F3
:1050D00004F00FFB41EC1F0BB0EE4F0AF0EE6F0A2D
:1050E00004F09EFEB0EE40DAF0EE60DA874890ED14
:1050F000050A10EE101A084604F0FBFA41EC1E0BEC
:1051000053EC1D2B04F0D7F941EC1B0B824890EDBA
:10511000210ADFED820A20EE200A10EE101A08465E
:1051200004F0E7FA41EC1C0B53EC1B2B04F01CF9C8
:1051300041EC1A0B53EC192B04F016F941EC180B47
:1051400004F01AFB7149C1F8C400084690ED300A1A
:10515000FBEE040AB4EEE00AF1EE10FA02D2BBEE66
:10516000040A0FE0694890ED300AF3EE040AB4EE49
:10517000E00AF1EE10FA02DDB3EE040A02E0634841
:1051800090ED300A614880ED300A90ED310AFBEE77
:10519000040AB4EEE00AF1EE10FA02D2BBEE040A01
:1051A0000FE05A4890ED310AF3EE040AB4EEE00A3B
:1051B000F1EE10FA02DDB3EE040A02E0534890ED7E
:1051C000310A524880ED310A55484089032810D1F0
:1051D0001FEDB30A4D4880ED300A1FEDB50A80ED92
:1051E000310A9FED500B80ED220B9FED4E0B80EDB1
:1051F0002E0B02B0BDEC108B10BD10B52DED108B39
:1052000082B0B0EE408A4648B0F90A10B0F91600F4
:10521000814224D04248408902281AD1434890ED67
:105220001A1BB0EE410AF0EE610A51EC100B04F0CB
:10523000A3FA364908663D4890ED201BB0EE410ABE
:10524000F0EE610A51EC100B04F096FA2F49C1F808
:10525000900033484089012801D1FFF78EF830488B
:105260004089012803D1B0EE480AFFF72BF92C48FA
:105270004089012803D02A48408902287DD124484A
:1052800090ED120ADFED230A80EE201A11EE104A8B
:10529000204604F02EFA41EC1F0BB0EE4F0AF0EE60
:1052A0006F0A04F0C9FEB0EE40DAF0EE60DA1C4896
:1052B000B0F9020000EE100AB8EEC00ADFED1C0AD9
:1052C00060EE200A9FED1B1A80EE810A20EE080A8C
:1052D00010EE104A204604F00CFA41EC1E0B53EC81
:1052E0001D2B04F0E8F841EC1C0B094890ED120A64
:1052F000DFED080A80EE201A11EE104A204604F075
:10530000F8F941EC1F0BB0EE4F0A15E0800A0020BF
:10531000F806002033336542480B00209A99193F64
:10532000540700200000000000000000280C0020AE
:1053300000007A4300002544F0EE6F0A04F070FD8F
:10534000B0EE40DAF0EE60DAEA48B0F9000000EEC4
:10535000100AB8EEC00A5FED0A0A60EE200A1FEDDF
:105360000B1A80EE810A20EE080A10EE104A204641
:1053700004F0BFF941EC1E0B00E09EE153EC1D2B45
:1053800004F099F853EC1C2BCDE900019DED000BC6
:1053900051EC100B04F089F841EC1A0BD64890ED53
:1053A000180A10EE101A084604F0A3F941EC1B0B82
:1053B00053EC1A2B03F0D8FF41EC190B04F0DCF985
:1053C000CD490866CD4890ED120A5FED2E0A80EEB9
:1053D000201A11EE104A204604F08BF941EC1F0B05
:1053E000B0EE4F0AF0EE6F0A04F026FEB0EE40DA9F
:1053F000F0EE60DABF48B0F9000000EE100AB8EE37
:10540000C00A5FED350A60EE200A1FED361A80EE05
:10541000810A20EE080A10EE104A204604F069F9CD
:1054200041EC1E0B53EC1D2B04F045F841EC1B0B1B
:10543000B24890ED120A5FED490A80EE201A11EE93
:10544000104A204604F055F941EC1F0BB0EE4F0A0C
:10545000F0EE6F0A04F0E4FCB0EE40DAF0EE60DA51
:10546000A448B0F9020000EE100AB8EEC00A5FEDE1
:10547000500A60EE200A1FED511A80EE810A20EEDC
:10548000080A10EE104A204604F033F941EC1E0BD6
:1054900053EC1D2B04F00FF841EC1C0B53EC1B2BB1
:1054A00003F062FF41EC190B934890ED240A10EED3
:1054B000101A084604F01DF941EC1A0B53EC192B95
:1054C00003F052FFCDE900019DED000B51EC100BF4
:1054D00004F052F98849C1F89000084690ED180A86
:1054E00010EE101A084604F004F941EC1A0B844837
:1054F00090ED1A1BB0EE410AF0EE610A53EC102B4E
:1055000051EC1A0B03F0D1FF41EC190B04F034F904
:1055100079494866084690ED240A10EE101A0846AC
:1055200004F0E7F841EC1A0B754890ED201BB0EE43
:10553000410AF0EE610A53EC102B51EC1A0B03F008
:10554000B4FF41EC190B04F017F96B49C1F8940052
:10555000084690ED190AD0ED1E0A20EE200A80EDD3
:105560001A0A90ED190AD0ED1F0A60EE200A90ED9C
:105570001B0A00EE880A80ED1B0A90ED1B0ADFED86
:10558000610AB4EEE00AF1EE10FA02D29FED5D0A74
:105590000FE0594890ED1B0ADFED5B0AB4EEE00A1C
:1055A000F1EE10FA02DD9FED580A02E0524890ED4C
:1055B0001B0A514880ED1B0A90ED1A0AD0ED1B0A18
:1055C00030EE200A80ED1D0A90ED1D0ADFED4F0A36
:1055D000B4EEE00AF1EE10FA02D29FED4C0A0FE0B1
:1055E000454890ED1D0ADFED4A0AB4EEE00AF1EEFF
:1055F00010FA02DD9FED460A02E03F4890ED1D0AD9
:105600003D4880ED1D0A90ED250AD0ED2A0A20EED6
:10561000200A80ED260A90ED250AD0ED2B0A60EED7
:10562000200A90ED270A00EE880A80ED270A90ED07
:10563000270ADFED340AB4EEE00AF1EE10FA02D2E6
:105640009FED300A0FE02C4890ED270ADFED2E0A7F
:10565000B4EEE00AF1EE10FA02DD9FED2B0A02E053
:10566000254890ED270A244880ED270A90ED260A68
:10567000D0ED270A30EE200A80ED290A90ED290AA4
:10568000DFED220AB4EEE00AF1EE10FA02D29FED4D
:105690001F0A0FE0184890ED290ADFED1D0AB4EE4D
:1056A000E00AF1EE10FA02DD9FED190A02E012485D
:1056B00090ED290A104880ED290A0E4840890328F8
:1056C00010D19FED140A0C4880ED1B0A9FED110AC2
:1056D00080ED270A9FED0F0A80ED1D0A9FED0D0A50
:1056E00080ED290A03484189C18202B0BDEC108BCC
:1056F00010BD000054070020800A0020F80600209A
:10570000280C00200000A0C20000A042000096C3A8
:10571000000096430000000010B52DED068BF0EE62
:10572000409AF0EE608A9FEDFE0AB0EE40AA9FED2F
:10573000FC0AB0EE408A9FEDFA0AB0EE409A89EE7C
:10574000A80AB0EE40AA9FEDF70AC0EE0A0AF0EEF2
:1057500060AAB0EE6A0A04F0D3FCB0EE408A9FED76
:10576000F20A04F0C1FBF0EE000A60EE200AB7EE88
:10577000000A00EE880A08EE080AB0EE409AEB48EC
:10578000C0ED008A90ED000AB5EEC00AF1EE10FA05
:1057900035DD28EE080AC0EE090AE548C0ED000A2A
:1057A00090ED000AF0EE000A20EE200AE14880EDBC
:1057B000000ADF4890ED000ADF4880ED000AB7EEEE
:1057C000000A18EE080AF0EE000A20EE200AC0EEE9
:1057D000090ADA48C0ED000A9FEDD30A04F084FB01
:1057E000F0EE000A60EE200AB7EE000A00EEC80AEA
:1057F00008EE080AC0EE090AD148C0ED000ABDEC67
:10580000068B10BD10B52DED048BF0EE408A9FED98
:10581000C40AB0EE408A9FEDC20AB0EE409AC34877
:1058200090ED000AB5EEC00AF1EE10FA04D8B0EE21
:10583000680ABDEC048B10BDB0EE680AC148D0ED1B
:10584000000ABE4890ED001A00EEC10ABE48D0ED35
:10585000000ABB4890ED001A00EEC10AB0EE408A83
:1058600018EE100A00F005FF20B918EE100A00F03B
:10587000F6FE08B1B0EE688AAD4890ED000A28EE59
:10588000000AB048D0ED000AAA4890ED001A00EED8
:10589000810AAD48D0ED000AA74890ED001A00EE4D
:1058A000810AB0EE409AA74890ED000AA64880ED24
:1058B000000AA44880ED008AB0EE490AB9E710B5A5
:1058C0002DED068BF0EE409AF0EE608A9FED940A83
:1058D000B0EE40AA9FED920AB0EE408A9FED900A8A
:1058E000B0EE409A89EEA80AB0EE40AA9FED8D0A6C
:1058F000C0EE0A0AF0EE60AAB0EE6A0A04F000FCFC
:10590000B0EE408A9FED880A04F0EEFAF0EE000A4D
:1059100060EE200AB7EE000A00EE880A08EE080AD8
:10592000B0EE409A8948C0ED008A90ED000AB5EECD
:10593000C00AF1EE10FA35DD28EE080AC0EE090AB9
:105940008348C0ED000A90ED000AF0EE000A20EE58
:10595000200A804880ED000A7D4890ED000A7E48CC
:1059600080ED000AB7EE000A18EE080AF0EE000A11
:1059700020EE200AC0EE090A7848C0ED000A9FED2B
:105980006A0A04F0B1FAF0EE000A60EE200AB7EEFF
:10599000000A00EEC80A08EE080AC0EE090A7048BC
:1059A000C0ED000ABDEC068B10BD10B52DED048BCB
:1059B000F0EE408A9FED5A0AB0EE408A9FED580AF9
:1059C000B0EE409A614890ED000AB5EEC00AF1EEE3
:1059D00010FA04D8B0EE680ABDEC048B10BDB0EE2E
:1059E000680A6048D0ED000A5C4890ED001A00EEAD
:1059F000C10A5D48D0ED000A594890ED001A00EE4A
:105A0000C10AB0EE408A18EE100A00F032FE20B94A
:105A100018EE100A00F023FE08B1B0EE688A4C4878
:105A200090ED000A28EE000A4E48D0ED000A4948E1
:105A300090ED001A00EE810A4B48D0ED000A46486E
:105A400090ED001A00EE810AB0EE409A454890EDC4
:105A5000000A454880ED000A424880ED008AB0EE19
:105A6000490AB9E710B52DED068BF0EE409AF0EE3D
:105A7000608A9FED2B0AB0EE40AA9FED290AB0EE96
:105A8000408A9FED270AB0EE409A89EEA80AB0EE50
:105A900040AA9FED240AC0EE0A0AF0EE60AAB0EE1A
:105AA0006A0A04F02DFBB0EE408A9FED1F0A04F055
:105AB0001BFAF0EE000A60EE200AB7EE000A00EED4
:105AC000880A08EE080AB0EE409A2848C0ED008A1D
:105AD00090ED000AB5EEC00AF1EE10FA64DD28EE92
