:020000040800F2
:10000000D81B0020A58E0008A5010008A701000844
:10001000AB010008AF010008B301000800000000B8
:10002000000000000000000000000000B701000810
:10003000B901000800000000BB010008BD01000874
:10004000BF8E0008BF8E0008BF8E0008BF8E00085C
:10005000BF8E0008BF8E0008BF8E0008BF8E00084C
:10006000BF8E0008BF8E0008E9650008BF8E00083B
:10007000BF8E0008BF8E0008AD6C0008BF8E000860
:10008000D70E0008BF8E0008BF8E0008BF8E000884
:10009000BF8E0008BF8E0008BF8E0008BF8E00080C
:1000A000BF8E0008BF8E0008BF8E0008BF8E0008FC
:1000B000BF8E0008BF8E0008BF8E0008BF8E0008EC
:1000C000BF8E0008BF8E0008BF8E0008BF8E0008DC
:1000D000BF8E0008BF8E0008BF8E0008CD6C0008E0
:1000E000BF8E0008BF8E0008BF8E0008BF8E0008BC
:1000F000BF8E0008BF8E0008BF8E0008BF8E0008AC
:10010000BF8E0008BF8E0008BF8E0008BF8E00089B
:10011000BF8E0008DD2A0008BF8E0008BF8E0008D1
:10012000BF8E0008BF8E0008BF8E0008BF8E00087B
:10013000BF8E0008BF8E0008BF8E0008BF8E00086B
:10014000BF8E0008BF8E0008BF8E0008BF8E00085B
:10015000BF8E0008BF8E0008BF8E0008BF8E00084B
:10016000BF8E0008BF8E0008BF8E0008BF8E00083B
:10017000BF8E0008BF8E0008BF8E0008BF8E00082B
:10018000BF8E0008BF8E0008DFF80CD009F0FAFB24
:10019000004800479D010008D81B002000F0A5F88A
:1001A00000BFFEE7704700BFFEE700BFFEE700BFED
:1001B000FEE700BFFEE770477047704710B516486E
:1001C0000068401C1449086014480088401C13490A
:1001D000088008464088401C488008468088401CAB
:1001E00088800846C088401CC88008460089401C9A
:1001F000088108464089401C48810948D0E9002010
:10020000521C40F100000649C1E900200548C078B1
:1002100008B100F02CF910BD00000020C00500203E
:1002200008000020600000207FB5684607F07BFDD5
:100230004FF47A710198B0FBF1F4E4082146481EAE
:10024000B0F1807F00D31BE0481E4FF0E0225061E8
:1002500050170F22002807DA13071E0E434B00F039
:100260000F052D1F5E5503E013071D0E404B1D5457
:1002700000BF00204FF0E02290610720106100BF16
:100280006FF0040006F0EEFD7FBD3A4A11684FF0B2
:10029000E02252694FF0E0239B69D21A4FF47A733F
:1002A0005A434FF0E0235B69B2FBF3F201EB4103E9
:1002B000C3EBC11302EBC300704730B50446FFF730
:1002C000E4FF054600BFFFF7E0FF401BA042FAD362
:1002D00030BD10B5044603E04FF47A70FFF7EDFF30
:1002E000201EA4F10104F7D110BD10B502F074FC7A
:1002F00000F012F94FF4806006F062FDFFF794FF02
:1003000002F08EFC06F00BFC4FF4C87001F0AEFE5C
:1003100002F053FC00F0DEFA00F008FCF2EE040AF2
:100320009FED150A05F04AF9F2EE040A9FED120A54
:1003300005F0EAFAF2EE040A9FED0F0A05F0E6FB7B
:10034000F2EE040A9FED0C0A05F0B3FCF2EE040A8B
:100350009FED090A05F0B2FD00F091FC4FF48050CA
:100360000649088001200649C87010BD18ED00E05C
:1003700000E400E0000000200000C842180802402D
:10038000600000207047704710B52DED028B0020F3
:1003900002F0D8FBB0EE408A5849594808F08BF972
:1003A00018B15649564808F0A2F9B0EE480A01F0D3
:1003B00029F901F0EEFEBDEC028B10BD10B52DED5C
:1003C000028B012002F0BEFBB0EE408AB0EE480A7C
:1003D00000F0B0FDB0EE480A06F095F9BDEC028BD6
:1003E00010BD10B52DED028B022002F0ABFBB0EE7C
:1003F000408A00F07FFBB0EE480A01F0A1FCDFED7F
:10040000410AB0EE480A00F0F9FBBDEC028B10BDCA
:1004100010B52DED028B032002F094FBB0EE408A64
:10042000B0EE480A01F0AAFCBDEC028B10BD10B57D
:100430002DED028B042002F085FBB0EE408AB0EE79
:10044000480A01F0D2FC30480078401CC0B22E4966
:1004500008700A2807DD002008702C48006880F02A
:1004600020002A490860BDEC028B10BD704710B512
:1004700027480088012804DBFFF784FF0020244977
:10048000088023484088022804DBFFF77DFF002016
:100490001F4948801E488088052804DBFFF78EFF2F
:1004A00000201B4988801A48C0880A2804DBFFF70F
:1004B00098FF00201649C88015480089142804DBDD
:1004C000FFF7A6FF00201249088111484089322811
:1004D00004DBFFF7ACFF00200D4948810D48D0E94F
:1004E00000304FF47A729A1A70F1000005DBFFF7C2
:1004F000BDFF0021074A1160516010BD00080010C7
:100500002860024000004843100000201408024008
:10051000C0050020080000201CB50121022007F0C2
:1005200097FC0320009001208DF804008DF8060050
:1005300003208DF8050001208DF807006946CA48A0
:1005400007F0C0FE1CBD00BF00BF00BF00BF00BF62
:1005500000BF00BF00BF00BFC448007838B90F20FB
:1005600000BF011EA0F10102D0B2FAD100BF704756
:1005700000B50220BC491831088001200880FFF72F
:10058000E2FFB9481030006808B9012000E00020FF
:1005900000F0020008B1002000BD0220B2491A316B
:1005A0000880FFF7D0FFB0481030006800F002006C
:1005B00008B10020F0E70220AB491A310880FFF7AC
:1005C000C2FF0120E8E700B50120A7491A310880E1
:1005D000FFF7B9FF0220A4491A310880FFF7B3FFE3
:1005E0000120A14918310880FFF7ADFF02209E4984
:1005F00018310880FFF7A7FF00BD00B501209A4918
:100600001A310880FFF79FFF022097491A310880AE
:10061000FFF799FF0120944918310880FFF793FFF5
:10062000012091491A310880FFF78DFF00BD00B508
:1006300001208D491A310880FFF785FF02208A4981
:1006400018310880FFF77FFF0120874918310880A3
:10065000FFF779FF012084491A310880FFF773FF03
:1006600000BD00B5012080491A310880FFF76BFFFB
:1006700002207D4918310880FFF765FF01207A4983
:1006800018310880FFF75FFF77481030006800F0EE
:10069000020038B1012074491A310880FFF753FF76
:1006A000002000BD012070491A310880FFF74BFF80
:1006B0000120F6E710B5034608241BE001206A4933
:1006C0001A310880FFF73FFF03F0800020B10220BD
:1006D00065491831088003E0022063491A31088017
:1006E0005806030EFFF72FFF01205F4918310880DD
:1006F000FFF729FF201EA4F10101CCB2DED10120B9
:1007000059491A31088010BD10B508240023022071
:1007100055491831088015E05806030E012052494A
:100720001A310880FFF70FFF01204F491831088068
:10073000FFF709FF4C481030006800F0020008B1D4
:1007400043F00103201EA4F10101CCB2E4D1012049
:1007500045491A310880184610BD70B506460C464A
:100760001546FFF705FF08B9002070BD3046FFF7BA
:10077000A1FFFFF776FF18B9FFF725FF0020F4E788
:100780002046FFF797FFFFF76CFF2846FFF792FF21
:10079000FFF767FFFFF717FF0120E6E770B5044694
:1007A0000D46FFF7E5FE08B9002070BD2046FFF7B3
:1007B00081FFFFF756FF18B9FFF705FF0020F4E7A8
:1007C0002846FFF777FFFFF74CFFFFF7D1FE611CCC
:1007D000C8B2FFF76FFFFFF744FFFFF795FF06462C
:1007E000FFF725FFFFF7EFFE3046DEE72DE9F0418A
:1007F0000746884614461D46012D02DA0020BDE852
:10080000F081FFF7B5FE08B90020F8E73846FFF79A
:1008100051FFFFF726FF18B9FFF7D5FE0020EEE7DE
:100820004046FFF747FFFFF71CFFFFF7A1FE791CCB
:10083000C8B2FFF73FFFFFF714FF012607E0FFF7FD
:1008400063FF04F8010BFFF7D8FE701CC6B2AE427E
:10085000F5DBFFF759FF04F8010BFFF7E8FEFFF7A0
:10086000B2FE0120CBE7000000040240110000208E
:1008700010B501221E21EE20FFF76FFF10BD38B525
:10088000002000900025002415E0A02000EB44008B
:10089000C1B202236A46EE20FFF7A8FF2844C5B282
:1008A0009DF801009DF8001040EA0120C24921F89E
:1008B0001400601CC4B2082CE7DB082D01D1012014
:1008C00038BD0020FCE710B501225821EE20FFF7CB
:1008D00044FF10BD10B50A20FFF7FBFCFFF7C8FF6F
:1008E0000320FFF7F6FCFFF7CAFFFFF7ECFF10BD90
:1008F00010B50323B14A0021EE20FFF777FF10BDAA
:1009000010B50323AE4A0021EE20FFF76FFF10BDA4
:1009100010B501224821EE20FFF71FFF10BD2DE981
:10092000F04F2DED088B83B000260027A3480078F8
:100930000004A249497840EA0120A0498978084387
:10094000A04988619E48007800049D49497840EAA2
:1009500001209B49897808439A49C8610846806903
:1009600095494989A0EB012493488088000400221E
:10097000914909894FEAE47AA1FB04CB02FB04B355
:1009800001FB0A334FEADC1141EA436110EB010835
:1009900042EBE319884840884FEAC0308649C9884D
:1009A0004FEAE47AA1FB04CB02FB04B301FB0A3358
:1009B0004FEA1C2141EA0361401842EB2322CDE9B2
:1009C00000027D48808932464FEAE471A0FB043C76
:1009D00002FB04C200FB01204FEA402141EAD35050
:1009E0004FF4FA6140187749886008468068B0F58E
:1009F000FA6F1DDA08468068A0F5FA656D4305EBCD
:100A00008500461005EB85008710084680686E4912
:100A100088420DDA6B48806800F2DC556D43072090
:100A200000FB056605EB450000EBC50007EB600722
:100A3000B8EB060869EBE679DDE90001C01B61EB64
:100A4000E771CDE900015F484FF00003C169DDE9BE
:100A5000002CA1FB020A03FB02A201FB0C214FEABE
:100A6000505040EAC1224FEA6150B2EB080160EBFE
:100A70000900420442EAD13052494860084690EDEC
:100A8000010AB8EEC00ADFED510A80EE201A11EE1D
:100A900010AA504608F03BFE41EC1B0B9FED4C1B8F
:100AA000B0EE4B0AF0EE6B0A09F032F9B0EE40AA54
:100AB000F0EE60AA9FED480B53EC102B51EC1A0B93
:100AC00008F004FD9FED460B53EC102B08F001FDE0
:100AD00008F0FEFD3B4948600846406928B10846D9
:100AE00040684969401A3749086003B0BDEC088B7B
:100AF000BDE8F08F10B500203B4908703B48006806
:100B000048B1FFF7FDFEFFF7DEFEFFF708FF00200C
:100B10003649086006E0FFF7EBFEFFF7F9FE01201B
:100B20003249086010BD27480068704770B5C82575
:100B300000242F482349C860400C08611BE00A20AC
:100B4000FFF7C7FBFFF7D6FF1E4840681D49C9687D
:100B5000884203DD1B4840681A49C860194840684C
:100B600018490969884203DA16484068154908613E
:100B7000144840680444281EA5F101018DB2DED15D
:100B800000EE104AB8EEC00ADFED1A0A80EE201A15
:100B9000BDEEC10A0B4880ED050A4FF4004016492E
:100BA00008804FF49670FFF794FB4FF40040124911
:100BB000891C088070BD0000800700201400002000
:100BC000170000205807002024FAFFFF80E6C547E1
:100BD00000000020965BC83F000000000000F03FCE
:100BE000000000001AE95041110000201C00002004
:100BF0000080FFFF0000484318040240B2EE0E1AC6
:100C0000F4EEC10AF1EE10FA00D270479FEDBC1A63
:100C1000C0EE811ABB48018E008E401CB94A108676
:100C20004EF66020814206DA1046008E1146098E8B
:100C3000491C118601E04EF6602001EE100AB8EE64
:100C4000C11A21EE001AF4EEC11AF1EE10FA03D225
:100C50000120AC4981F83200AA4890F832000128FE
:100C60000BD10020A7490880488088804FF6FC609F
:100C7000C880032008810220488100BFC5E700B575
:100C800097B00121A04807F0E3F80121480407F0DC
:100C900012F9072203219D4807F09FFB08201190BD
:100CA00002208DF8480000208DF84A0003208DF8BE
:100CB000490000208DF84B0011A9944807F002FB71
:100CC000934807F093FD934813900020ADF850002F
:100CD000ADF852004FF48060ADF854000420ADF838
:100CE00056000020ADF8580013A9894807F0CCFD44
:100CF0000121874807F050FE01224021844807F077
:100D0000F8FE10208DF8400001208DF841008DF88C
:100D100042008DF8430010A806F057F87E4807F00F
:100D200091FB4FF0006001907948001D02907B48D4
:100D300003900020049012200590002006904FF4AC
:100D4000806007900020089009904FF480700A900E
:100D50004FF440300B9000200C900D900E900F90AF
:100D600001A96D4807F010FC012210216A4807F024
:100D7000D2FC0121684807F041FC17B000BD10B556
:100D8000604800885F49888108464188C181818820
:100D90000182C1884182614800786049497840EA0F
:100DA0000120C0F30A005E4908800846B0F900003F
:100DB000A0F5806000EE900AF8EEE00AB0EE600A5E
:100DC000F1EE040A02F0B2FABDEEC00A10EE100A0B
:100DD00000B24C49088051484078C0104F4989788A
:100DE00040EA4110C0F30A004D4948800846B0F976
:100DF0000200A0F5806000EE900AF8EEE00AB0EE86
:100E0000600AF1EE040A02F091FABDEEC00A10EE9B
:100E1000100A00B23B49C8804048807880113F49A1
:100E2000C97840EA81003D49097940EA8120C0F350
:100E30000A003B4988800846B0F90400A0F58060AC
:100E400000EE900AF8EEE00AB0EE600AF1EE040A55
:100E500002F06CFABDEEC00A10EE100A00B2294989
:100E600088802E48007940102C49497940EAC11009
:100E7000C0F30A002A49C8800846B0F90600A0F568
:100E8000806000EE900AF8EEE00AB0EE600AF1EE43
:100E9000040A02F04BFABDEEC00A10EE100A00B2CE
:100EA000184948801D4840790011800808811B4876
:100EB0004079C0F30110488108464089022802D1D8
:100EC00000201849087005F02AFF00200D49088607
:100ED00081F8320010BD10B513490F4807F038FCF7
:100EE00068B112490C4807F002FC0F490A4807F0A4
:100EF00059FC4FF480500E490880FFF740FF10BDA9
:100F000000007A4460170020010020000000024029
:100F100000440040A086010088600240BC07002019
:100F2000D607002060000020008800200008002074
:100F30001A08024010B52DED028BB0EE408AFE4833
:100F400090ED000ADFEDFD0AB4EEE00AF1EE10FAD2
:100F500011DBFB4890ED270AFA48B0F90400404243
:100F600000EE900AF8EEE00A9FEDF71A00EE810A13
:100F7000F34880ED270AF24890ED270ADFEDF30AE7
:100F8000B4EEE00AF1EE10FA07DD90ED270ADFED8E
:100F9000F00A30EE600A80ED270AE94890ED270A52
:100FA000DFEDEC0AB4EEE00AF1EE10FA07D290EDB4
:100FB000270ADFEDE70A30EE200A80ED270AE14834
:100FC000B0F9000000EE100AB8EEC00AF3EE090A0C
:100FD00020EE200ADFEDE00A80EE201AD84880EDEE
:100FE000251AD848B0F9020000EE100AB8EEC00A7F
:100FF000F3EE090A20EE200ADFEDD70A80EE201A70
:10100000CF4880ED261A90ED250AD448D0ED010A8C
:1010100030EE600ACA4880ED280A90ED260ACF48D3
:10102000D0ED000A30EE600AC54880ED290A90ED47
:10103000270ACA48D0ED020A30EE600AC04880EDA7
:101040002A0AD0ED2A0AB0EE600A02F08EF9BC48F6
:1010500080ED2A0A90ED280AB5EEC00AF1EE10FAEA
:1010600002DD90ED280A04E0B54890ED280AB1EEC3
:10107000400AF3EE0E0A80EE201AB14880ED2B1ADA
:1010800090ED290AB5EEC00AF1EE10FA02DD90EDFE
:10109000290A04E0AA4890ED290AB1EE400AF3EECD
:1010A0000E0A80EE201AA64880ED2C1A90ED2A0A2E
:1010B000B5EEC00AF1EE10FA02DD90ED2A0A04E066
:1010C0009F4890ED2A0AB1EE400AF3EE0E0A80EE38
:1010D000201A9B4880ED2D1A9A4890ED060A20EEC2
:1010E000080AF3EE090A60EE200A9FED9D1A80EED1
:1010F000810A9A48D0ED010AF1EE600A904890ED1D
:101100002E1A70EEC10A30EE200A9648D0ED050A7C
:10111000B2EE041A60EE810A20EE200ADFED920A98
:1011200080EE881A60EE010A854890ED2B1A9FED3B
:101130008F0ADFED8F1A01EE810A20EE800A80ED22
:10114000310A804890ED070A20EE080AF3EE090AFA
:1011500060EE200A9FED821A80EE810A7F48D0ED72
:10116000000AF1EE600A764890ED2F1A70EEC10A7F
:1011700030EE200A7B48D0ED020AB2EE041A60EE8F
:10118000810A20EE200ADFED780A80EE881A60EEF0
:10119000010A6B4890ED2C1A9FED740ADFED741A6A
:1011A00001EE810A20EE800A80ED320ADFED6E0A40
:1011B00080EE880AD0ED2A0A90ED301A70EEC10A4E
:1011C000684890ED081AF2EE041A21EE211A60EE3A
:1011D000810A60EE200A5A4890ED2D1A9FED630AAD
:1011E000DFED631A01EE810A20EE800A80ED330AFA
:1011F0005C4890ED040A5248D0ED280A60EE200ABF
:1012000090ED370A00EE880A80ED370A554890EDD8
:10121000010A4B48D0ED290A60EE200A90ED380A09
:1012200000EE880A80ED380A4E4890ED070A4448DF
:10123000D0ED2A0A60EE200A90ED390A00EE880A05
:1012400080ED390A3C4890ED020AF6EE000A20EEE5
:10125000200AF3EE090A20EE200A394880ED430AFD
:10126000354890ED020AF6EE000A20EE200AF3EE71
:10127000090A20EE200A324880ED440A2E4890EDFB
:10128000020AF6EE000A20EE200AF3EE090A20EE2A
:10129000200A2B4880ED450A90ED370AD0ED430A2D
:1012A000F1EE600AB4EEE00AF1EE10FA04D290ED2D
:1012B000430AB1EE400A0FE0214890ED370AD0ED25
:1012C000430AB4EEE00AF1EE10FA02DD90ED430AB3
:1012D00002E01B4890ED370A194880ED370A90ED7F
:1012E000380AD0ED440AF1EE600AB4EEE00AF1EEFD
:1012F00010FA04D290ED440AB1EE400A0FE0104813
:1013000090ED380AD0ED440AB4EEE00AF1EE10FA9E
:1013100002DD90ED440A02E0094890ED380A0848E1
:1013200080ED380A90ED390AD0ED450AF1EE600AF9
:10133000B4EEE00A1EE000001C090020000070432B
:10134000F40700206017002052491D3A0000344382
:101350000000B443000034C300002544900700207F
:1013600000001644500A00200AD7A33B6666263FB9
:101370003333B33EF1EE10FA04D290ED450AB1EEEC
:10138000400A0FE0F74890ED390AD0ED450AB4EE77
:10139000E00AF1EE10FA02DD90ED450A02E0F148B4
:1013A00090ED390AEF4880ED390A90ED280ADFED1B
:1013B000EE0AB4EEE00AF1EE10FA02D29FEDEA0A6C
:1013C0000FE0E84890ED280ADFEDE80AB4EEE00A05
:1013D000F1EE10FA02DD9FEDE50A02E0E14890ED42
:1013E000280AE04880ED280A90ED290ADFEDDE0AA0
:1013F000B4EEE00AF1EE10FA02D29FEDDB0A0FE044
:10140000D84890ED290ADFEDD90AB4EEE00AF1EEF2
:1014100010FA02DD9FEDD50A02E0D24890ED290ACC
:10142000D04880ED290A90ED2A0ADFEDCF0AB4EE0C
:10143000E00AF1EE10FA02D29FEDCB0A0FE0C948A4
:1014400090ED2A0ADFEDC90AB4EEE00AF1EE10FAD7
:1014500002DD9FEDC60A02E0C24890ED2A0AC148AB
:1014600080ED2A0A90ED280AD0ED310A30EE200AEC
:10147000D0ED370A30EE200ABD48D0ED030A20EE49
:10148000200AB84880ED460A90ED290AD0ED320ACC
:1014900030EE200AD0ED380A30EE200AB448D0ED04
:1014A000000A20EE200AAF4880ED470A90ED2A0A94
:1014B000D0ED330A30EE200AD0ED390A30EE200AA2
:1014C000AB48D0ED060A20EE200AA64880ED480A77
:1014D000A84890ED010AB1EE400AA24880ED2E0A1C
:1014E000A44890ED000AB1EE400A9E4880ED2F0A14
:1014F000A04890ED020AB1EE400A9A4880ED300A09
:10150000BDEC028B10BD10B52DED088BB0EE408AFE
:1015100099480078A0B39949B1F9060008F0BAF8E3
:1015200041EC1B0B9FED960B53EC102B07F0D1FFFA
:1015300041EC1A0B9FED940B53EC102B07F022FF9C
:1015400041EC190B08F026F991490860084690ED26
:10155000000ADFED900AB4EEE00AF1EE10FA02D2D2
:101560009FED8C0A10E08A4890ED000ADFED8A0AB0
:10157000B4EEE00AF1EE10FA03DD9FED870A03E016
:1015800006E0834890ED000A814880ED000A04E0FF
:101590009FED820A7E4880ED000A7D48D0ED000A6A
:1015A0009FED7F1A80EE810AD0ED010A70EE600A8D
:1015B00090ED010A9FED7B1A28EE011A01EE200A38
:1015C00080ED010A90ED010AB5EEC00AF1EE10FAC5
:1015D00002D29FED720A0FE06D4890ED010AF7EE1E
:1015E000000AB4EEE00AF1EE10FA02DDB7EE000AEE
:1015F00002E0674890ED010A654880ED020ABDEC03
:10160000088B10BD10B52DED028BB0EE408A554809
:1016100090ED460AF3EE0E0A80EE201A9FED620A64
:1016200021EE000A80ED000A90ED470AF3EE0E0A63
:1016300080EE201A9FED5C0A21EE000A80ED010A7F
:1016400090ED480AF3EE0E0A80EE201A9FED560A3E
:1016500021EE000A80ED020A90ED000ADFED530A48
:10166000B4EEE00AF1EE10FA02D29FED500A0FE05C
:101670003C4890ED000ADFED4C0AB4EEE00AF1EED2
:1016800010FA02DD9FED480A02E0364890ED000AAC
:10169000344880ED000A90ED010ADFED440AB4EE13
:1016A000E00AF1EE10FA02D29FED400A0FE02D4859
:1016B00090ED010ADFED3C0AB4EEE00AF1EE10FA1B
:1016C00002DD9FED390A02E0264890ED010A254827
:1016D00080ED010A90ED020ADFED340AB4EEE00A73
:1016E000F1EE10FA02D29FED310A0FE01D4890EDA5
:1016F000020ADFED2D0AB4EEE00AF1EE10FA02DD87
:101700009FED290A02E0174890ED020A154880ED86
:10171000020A90ED000A2648D0ED060A30EE600A73
:10172000104880ED030A90ED010A2148D0ED070A28
:1017300030EE600A0B4880ED040A90ED020A1C4866
:10174000D0ED080A30EE600A064880ED050A90EDFB
:10175000030AB5EEC00AF1EE10FA2BDD90ED030A94
:101760002DE00000F40700200000B4C20000B442E5
:10177000500A002090070020600000206017002021
:101780001361C3D32B65E33F0000000000407F409E
:101790001C0900200000C84200007A44000000003C
:1017A0000000C8433433FB4100005C4300005CC3CD
:1017B00094170020FE4890ED030AB1EE400A5FED59
:1017C000060A80EE201AFA4880ED061A90ED040A07
:1017D000B5EEC00AF1EE10FA02DD90ED040A04E065
:1017E000F34890ED040AB1EE400A5FED110A80EE75
:1017F000201AEF4880ED071A90ED050AB5EEC00AF1
:10180000F1EE10FA02DD90ED050A04E0E84890EDF3
:10181000050AB1EE400ADFEDE70A80EE201AE4483F
:1018200080ED081AE44890ED060AE148D0ED090A77
:1018300030EE600AE148D0ED0E0AF1EE600A20EECB
:10184000200AC0EE080ADA48C0ED0C0ADA4890ED2A
:10185000070AD748D0ED0A0A30EE600AD748D0ED23
:101860000B0AF1EE600A20EE200AC0EE080AD0480A
:10187000C0ED0D0AD04890ED080ACD48D0ED0B0A16
:1018800030EE600ACD48D0ED110AF1EE600A20EE8C
:10189000200AC0EE080AC648C0ED0E0A90ED030A01
:1018A000D0ED0C0A30EE600AC448D0ED0D0A60EEAF
:1018B000200ABF4890ED120A00EE880A80ED120A55
:1018C00090ED040AD0ED0D0A30EE600ABB48D0ED71
:1018D0000A0A60EE200AB64890ED130A00EE880A64
:1018E00080ED130A90ED050AD0ED0E0A30EE600A85
:1018F000B248D0ED100A60EE200AAD4890ED140A0F
:1019000000EE880A80ED140AAD4890ED020AF6EE6A
:10191000000A20EE200A5FED5C0A20EE200AA448AF
:1019200080ED1E0AA64890ED020AF6EE000A20EEAF
:10193000200A5FED630A20EE200A9D4880ED1F0A11
:101940009F4890ED020AF6EE000A20EE200A5FEDB5
:101950006A0A20EE200A964880ED200A90ED120ACD
:10196000D0ED1E0AF1EE600AB4EEE00AF1EE10FAD4
:1019700004D290ED1E0AB1EE400A0FE08C4890EDC3
:10198000120AD0ED1E0AB4EEE00AF1EE10FA02DD02
:1019900090ED1E0A02E0864890ED120A844880ED20
:1019A000120A90ED130AD0ED1F0AF1EE600AB4EEB0
:1019B000E00AF1EE10FA04D290ED1F0AB1EE400AEF
:1019C0000FE07B4890ED130AD0ED1F0AB4EEE00A59
:1019D000F1EE10FA02DD90ED1F0A02E0744890ED7E
:1019E000130A734880ED130A90ED140AD0ED200A13
:1019F000F1EE600AB4EEE00AF1EE10FA04D290EDD6
:101A0000200AB1EE400A0FE0694890ED140AD0EDCB
:101A1000200AB4EEE00AF1EE10FA02DD90ED200AA1
:101A200002E0634890ED140A614880ED140A90EDDD
:101A3000240AF7EE000A30EEC00A6048D0ED0C0A26
:101A400020EE200A5A48D0ED030A90ED0C1A70EEF1
:101A5000810A90ED121A70EE810A60EE200A90ED74
:101A6000241AD0ED061A9FED570A9FED572A02EE71
:101A7000210AB5EEC00AF1EE10FA02D21FEDB90A42
:101A80001BE04B48D0ED061A9FED4E0A9FED4E2A03
:101A900002EE210AF7EE001AB4EEE10AF1EE10FAB6
:101AA00002DDB7EE000A08E04148D0ED061A9FEDCE
:101AB000450A9FED452A02EE210A21EE000A3C4824
:101AC00090ED251A40EE010AB0EE080A20EE800AD9
:101AD00080ED210A90ED240AF7EE000A30EEC00AEC
:101AE0003648D0ED090A20EE200A3148D0ED040A2C
:101AF00090ED0D1A70EE810A90ED131A70EE810AC6
:101B000060EE200A90ED241AD0ED071A9FED2D0A01
:101B10009FED2D2A02EE210AB5EEC00AF1EE10FA71
:101B200002D21FEDE20A1BE02148D0ED071A9FED1B
:101B3000250A9FED252A02EE210AF7EE001AB4EEDF
:101B4000E10AF1EE10FA02DDB7EE000A08E01848EB
:101B5000D0ED071A9FED1B0A9FED1B2A02EE210A0A
:101B600021EE000A124890ED261A40EE010AB0EE6E
:101B7000080A20EE800A80ED220A90ED240AF7EE92
:101B8000000A30EEC00A0D48D0ED0F0A20EE200A00
:101B90000748D0ED050A90ED0E1A70EE810A90ED1F
:101BA000141A70EE810A60EE200A90ED241A0DE0FE
:101BB000F40700200000164394170020500A00206C
:101BC0001C0900206666E63ECDCC0C3FD0ED081A1D
:101BD0001FED040A1FED042A02EE210AB5EEC00A29
:101BE000F1EE10FA02D29FED510A1BE05048D0ED01
:101BF000081A1FED0C0A1FED0C2A02EE210AF7EE5F
:101C0000001AB4EEE10AF1EE10FA02DDB7EE000AB6
:101C100008E04748D0ED081A1FED160A1FED162AF6
:101C200002EE210A21EE000A414890ED271A40EE0B
:101C3000010AB0EE080A20EE800A80ED230A90ED3A
:101C4000210ADFED3C0AB4EEE00AF1EE10FA02D20E
:101C50009FED380A0FE0364890ED210ADFED360A95
:101C6000B4EEE00AF1EE10FA02DD9FED330A02E075
:101C70002F4890ED210A2E4880ED210A90ED220A8E
:101C8000DFED2C0AB4EEE00AF1EE10FA02D29FED7D
:101C9000290A0FE0264890ED220ADFED270AB4EE6C
:101CA000E00AF1EE10FA02DD9FED230A02E020487F
:101CB00090ED220A1E4880ED220A90ED230ADFED06
:101CC0001D0AB4EEE00AF1EE10FA02D29FED190AF5
:101CD0000FE0174890ED230ADFED170AB4EEE00A93
:101CE000F1EE10FA02DD9FED140A02E0104890EDCB
:101CF000230A0F4880ED230A104890ED060A0C488D
:101D000080ED090A0D4890ED070A094880ED0A0A9E
:101D10000A4890ED080A064880ED0B0AB0EE480A22
:101D2000FFF7F1FBBDEC028B10BD000000000000CE
:101D3000F4070020000048C3000048439417002027
:101D400010B52DED028BF0EE408AB848D0ED020AB6
:101D5000B0EE600A03F0A8FCB0EE408AB44890ED03
:101D60000A0AF1EE480A20EE200A80ED060A90EDFC
:101D7000060A80ED090ABDEC028B10BDAC48D0ED1F
:101D8000230AAA4890ED051A70EEC10AA848C0EDD2
:101D90000E0AD0ED0E0A9FEDA71AF4EEC10AF1EE7D
:101DA00010FA02D2DFEDA30A0FE0A148D0ED0E0A2F
:101DB0009FEDA11AF4EEC10AF1EE10FA02DDDFED9B
:101DC0009E0A02E09A48D0ED0E0A9948C0ED0E0A2C
:101DD000D0ED0E0A90ED171A60EE810AC0ED130ADD
:101DE000D0ED130AC0ED160A70479448B0F90810F8
:101DF000B0F91400814209D090480089012805D12A
:101E00008A48D0ED080A8A48C0ED1A0A8B48008932
:101E100001287DD100038A4908808A48D0ED000A54
:101E20009FED891AF4EEC10AF1EE10FA12DD804836
:101E3000D0ED1A0A834890ED001ADFED831A31EED7
:101E4000611A21EE001AF5EE001A41EE210A7848D7
:101E5000C0ED1A0A7B48D0ED000A9FED7C1AF4EE23
:101E6000C10AF1EE10FA12D27148D0ED1A0A754883
:101E700090ED001ADFED751A31EE611A21EE001AAD
:101E8000F5EE001A41EE210A6948C0ED1A0A6B48C6
:101E90004089012809D16E48D0ED250A9FED6D1AC1
:101EA00070EE810A6248C0ED1A0A6148D0ED1A0A44
:101EB0005E4890ED081A70EEC10A5D48C0ED1B0A3D
:101EC000D0ED250A90ED1B1A20EE811AD0ED210AE3
:101ED00041EE000AC0ED210AD0ED1B0AF5EEC00A62
:101EE000F1EE10FA02DDD0ED1B0A04E05048D0ED0F
:101EF0001B0AF1EE600A4E48C0ED1F0AD0ED1F0A22
:101F0000B3EE041AF4EEC10AF1EE10FA04D200E0C6
:101F100048E0F3EE040A0FE04548D0ED1F0A9FEDBC
:101F20004E1AF4EEC10AF1EE10FA02DDDFED4A0AB4
:101F300002E03F48D0ED1F0A3D48C0ED1F0AD0ED3A
:101F4000210A90ED1F1AB1EE411AF4EEC10AF1EE2A
:101F500010FA04D2D0ED1F0AF1EE600A0FE0344807
:101F6000D0ED210A90ED1F1AF4EEC10AF1EE10FA3D
:101F700002DDD0ED1F0A02E02D48D0ED210A2C48E9
:101F8000C0ED210AD0ED1B0A90ED241A60EE810A03
:101F9000C0ED200AD0ED200A90ED211A70EE810AE2
:101FA000C0ED230A25480089032802D02348008970
:101FB00080BB4FF480502249891E0880DFED270A3C
:101FC0001B48C0ED210A1F48D0ED000A9FED241ADE
:101FD00070EEC10AB6EE001A60EE810A1448C0ED38
:101FE000230AD0ED230A9FED1F1AF4EEC10AF1EE89
:101FF00010FA02D2DFED1B0A10E00D48D0ED230AE3
:102000009FED191AF4EEC10AF1EE10FA03DDDFEDCF
:10201000160A03E005E00648D0ED230A0448C0EDA7
:10202000230A06480189818270470000C0160020FB
:102030002C090020000016C3000016436017002082
:102040001A0802401C090020000016440000C84382
:10205000600B00200000FA4300004842000000002E
:102060000000E14300007AC300007A4310B58AB053
:1020700004460121022005F01EFF0121042005F085
:10208000E7FE02220621FE4806F0A7F902220721F8
:10209000FB4806F0A2F902220821F94806F09DF952
:1020A00002220921F64806F098F94FF47070089062
:1020B00002208DF8240003208DF8250000208DF8E3
:1020C000260001208DF8270008A9ED4806F0FAF84F
:1020D0001420ADF814000020ADF8160042F2107084
:1020E00006900020ADF81C008DF81E0005A9E548FB
:1020F00004F083FF6020ADF800000020ADF80C0074
:102100000120ADF802006946DE4805F00BF869468B
:10211000DC4805F040F86946DA4805F089F8694678
:10212000D84805F0EBF80821D64805F088F90821D1
:10213000D44805F08DF90821D24805F096F9082118
:10214000D04805F09BF90121CE4804F0C1FF0121E0
:10215000CC4804F0DBFF4FF4FA50CA493431086030
:10216000091D0860091D0860091D08608010FEF740
:10217000B0F84FF47A60C34934310860091D086033
:10218000091D0860091D08604010FEF7A2F80AB09A
:1021900010BD10B52DED108BBB48B0F90600BB4942
:1021A000884211DCBA480068B0F5FA7F06DD0120EC
:1021B000B84948700020B649086008E0B448006893
:1021C000401CB349086002E00020B2494870B148A1
:1021D000407830BBAF488078012822D1AD480078E4
:1021E00018B10020AB4908701BE00120A949087014
:1021F0009FEDA90AA94880ED270AB7EE000AA84872
:1022000080ED000A9FEDA40AA64880ED000A9FED2C
:10221000A20AA54880ED000A9FED9F0AA34880ED21
:10222000000A9C4840789B4988700846C07800287E
:102230007ED00846007800287BD09D4890ED010AAA
:10224000DFED9C0A80EE201A11EE104A204607F0BE
:102250005EFA41EC1B0BB0EE4B0AF0EE6B0A07F096
:102260004BFCB0EE409AF0EE609A914890ED000A77
:10227000DFED900A80EE201A11EE104A204607F09A
:1022800046FA41EC1D0BB0EE4D0AF0EE6D0A07F078
:1022900033FCB0EE40BAF0EE60BA874890ED000A29
:1022A00010EE101A084607F032FA41EC1C0B53EC02
:1022B0001B2B07F080F941EC1A0B53EC192B07F09C
:1022C0007AF941EC180B07F065FA7B49C860784849
:1022D00090ED010ADFED770A80EE201A11EE104A28
:1022E000204607F014FA41EC1D0BB0EE4D0AF0EE5B
:1022F0006D0A07F001FCB0EE40BAF0EE60BA6C482F
:1023000090ED000ADFED6B0A80EE201A11EE104A04
:10231000204607F0FCF941EC1F0BB0EE4F0AF0EE3F
:102320006F0A07F0E9FBB0EE40DAF0EE60DA01E0A8
:102330006EE21CE2614890ED090AD0ED160A30EE1B
:10234000200A10EE101A084607F0E1F941EC1E0BC6
:1023500053EC1D2B07F02FF941EC1C0B53EC1B2BFE
:1023600007F029F941EC190B534890ED030A4B484B
:10237000D0ED210A30EE600AD0ED220A30EE600A7C
:10238000D0ED230A30EE600A10EE101A084607F06E
:10239000BEF941EC1A0B53EC192B06F0F3FF41EC9C
:1023A000180B07F0F7F946490860414890ED010A1B
:1023B000DFED400A80EE201A11EE104A204607F0A9
:1023C000A6F941EC1D0BB0EE4D0AF0EE6D0A07F0D8
:1023D00093FBB0EE40BAF0EE60BA354890ED000ADB
:1023E000DFED340A80EE201A11EE104A204607F085
:1023F0008EF941EC1F0BB0EE4F0AF0EE6F0A07F0BA
:102400007BFBB0EE40DAF0EE60DA2C4890ED090A82
:10241000D0ED160A30EE200A10EE101A084607F02A
:1024200076F941EC1E0B53EC1D2B07F0C4F841EC80
:102430001C0B53EC1B2B07F0BEF841EC190B1E488C
:1024400090ED030A1548D0ED210A30EE200AD0EDB8
:10245000220A30EE600AD0ED230A30EE200A10EE98
:10246000101A084607F053F941EC1A0B53EC192BDC
:1024700006F088FF41EC180B07F08CF9104921E0B9
:1024800000080240000400406017002076FDFFFFB6
:10249000640000206000002000000000F40700201D
:1024A0002000002024000020280000202C00002014
:1024B00090070020A34C65421C0900202C09002035
:1024C000C80900204860D44890ED010A5FED070A72
:1024D00080EE201A11EE104A204607F018F941EC60
:1024E0001D0BB0EE4D0AF0EE6D0A07F005FBB0EEE5
:1024F00040BAF0EE60BAC84890ED000A5FED130AEA
:1025000080EE201A11EE104A204607F000F941EC47
:102510001F0BB0EE4F0AF0EE6F0A07F0EDFAB0EEC7
:1025200040DAF0EE60DABD4890ED090AD0ED160A07
:1025300030EE200A10EE101A084607F0E8F841ECD9
:102540001E0B53EC1D2B07F036F841EC1C0B53EC23
:102550001B2B07F030F841EC190BB14890ED030A42
:10256000B048D0ED210A30EE200AD0ED220A30EE3C
:10257000200AD0ED230A30EE600A10EE101A084649
:1025800007F0C5F841EC1A0B53EC192B06F0FAFED4
:1025900041EC180B07F0FEF8A34988609E4890EDC7
:1025A000010A5FED3C0A80EE201A11EE104A204627
:1025B00007F0ADF841EC1D0BB0EE4D0AF0EE6D0AE0
:1025C00007F09AFAB0EE40BAF0EE60BA924890ED99
:1025D000000A5FED480A80EE201A11EE104A2046EC
:1025E00007F095F841EC1F0BB0EE4F0AF0EE6F0AC2
:1025F00007F082FAB0EE40DAF0EE60DA874890ED4C
:10260000090AD0ED160A30EE200A10EE101A08461C
:1026100007F07DF841EC1E0B53EC1D2B06F0CBFFB1
:1026200041EC1C0B53EC1B2B06F0C5FF41EC190BC6
:102630007B4890ED030A7B48D0ED210A30EE600A1A
:10264000D0ED220A30EE200AD0ED230A30EE200A27
:1026500010EE101A084607F05AF841EC1A0B53EC2A
:10266000192B06F08FFE41EC180B07F093F86E491A
:10267000C860084690ED000ADFED6C0AB4EEE00A8F
:10268000F1EE10FA02D29FED690A0FE0664890ED74
:10269000000ADFED670AB4EEE00AF1EE10FA02DD9F
:1026A0009FED630A02E0604890ED000A5E4880ED0D
:1026B000000A90ED010ADFED5D0AB4EEE00AF1EEEA
:1026C00010FA02D29FED590A0FE0574890ED010A27
:1026D000DFED570AB4EEE00AF1EE10FA02DD9FEDED
:1026E000540A02E0504890ED010A4F4880ED010A7B
:1026F00090ED020ADFED4D0AB4EEE00AF1EE10FAB9
:1027000002D29FED4A0A0FE0474890ED020ADFED42
:10271000480AB4EEE00AF1EE10FA02DD9FED440A39
:1027200002E0414890ED020A3F4880ED020A90ED38
:10273000030ADFED3E0AB4EEE00AF1EE10FA02D22F
:102740009FED3A0A0FE0384890ED030ADFED380AB2
:10275000B4EEE00AF1EE10FA02DD9FED350A02E078
:10276000314890ED030A304880ED030A10E01FED78
:10277000B60A2D4880ED000A1FEDB90A80ED010A66
:102780001FEDBB0A80ED020A1FEDBD0A80ED030AB2
:102790002548D0ED000A9FED270AB1EE001A01EEA0
:1027A000200ABDEEC00A10EE100A00B222490860ED
:1027B0001D48D0ED010A9FED1F0AB1EE001A01EE8F
:1027C000200ABDEEC00A10EE100A00B2091D086012
:1027D0001548D0ED020A9FED170AB1EE001A01EE7E
:1027E000200ABDEEC00A10EE100A00B2091D0860F2
:1027F0000D48D0ED030A9FED0F0AB1EE001A01EE6D
:10280000200ABDEEC00A10EE100A00B2091D0860D1
:10281000BDEC108B10BD0000900700202C0900209B
:102820001C090020F4070020C80900200000A04275
:102830000080894400007A453404004010B5044605
:1028400000BF4021B84806F082F90028F9D021469F
:10285000B54806F0CCF810BD00B597B00121B348DB
:1028600005F0F6FA0121080505F025FB08220C21E8
:10287000AF4805F0B2FD08220221AE4805F0ADFDDB
:102880004FF48050119002208DF8480000208DF800
:102890004A0003208DF8490000208DF84B0011A953
:1028A000A34805F00FFD0420119002208DF8480088
:1028B00000208DF84A0003208DF8490000208DF893
:1028C0004B0011A99B4805F0FDFC974805F08EFFD1
:1028D0004FF4165013900020ADF85000ADF85200A0
:1028E000ADF854000C20ADF856000020ADF85800AB
:1028F00013A98D4805F0C8FF01218B4806F04CF85C
:102900006420FDF7E6FCB520FFF798FF6220FFF793
:1029100095FF0620FFF792FF0020FFF78FFF14209E
:10292000FFF78CFF0020FFF789FF0120FFF786FFEC
:102930000020FFF783FF0020FFF780FF0020FFF754
:102940007DFFD020FFF77AFF0820FFF777FF0020F8
:10295000FFF774FF0020FFF771FF0020FFF76EFF05
:10296000C220FFF76BFF0120FFF768FF0020FFF791
:1029700065FF0720FFF762FF0020FFF75FFF0320DE
:10298000FFF75CFF0020FFF759FF0020FFF756FF1D
:102990000020FFF753FF0020FFF750FF0020FFF754
:1029A0004DFFC020FFF74AFF7E20FFF747FF64205E
:1029B000FDF78FFC00215C4805F0EEFF5A4805F05A
:1029C00015FF4FF4E13013900020ADF85000ADF842
:1029D0005200ADF854000C20ADF856000020ADF8C0
:1029E000580013A9504805F04FFF01214E4805F04B
:1029F000D3FF6420FDF76DFCB520FFF71FFF6220B9
:102A0000FFF71CFF0620FFF719FF0820FFF716FF4E
:102A10000620FFF713FF0020FFF710FF6420FFF7E9
:102A20000DFF0020FFF70AFF0120FFF707FF00203E
:102A3000FFF704FF0120FFF701FF0020FFF7FEFE74
:102A40007A20FFF7FBFE1220FFF7F8FE6420FDF767
:102A500040FC012240F22441334806F053F80122A1
:102A60004021314806F045F835208DF8400003201C
:102A70008DF8410001208DF842008DF8430010A828
:102A800004F0A3F92C4805F0DDFC4FF00060019044
:102A90002548001D029029480390002004904FF41F
:102AA00000600590002006904FF4806007900020A1
:102AB000089009904FF480700A9040020B9000201B
:102AC0000C900D900E900F9001A91B4805F05CFD35
:102AD0000121194805F092FD17B000BD10B540F274
:102AE0002441114806F049F8E0B10021124805F0F0
:102AF00085FD062000F026F8114880ED000A0A48FE
:102B00000488848800F062FF4FF400600A4910399D
:102B1000486140F22441044806F066F80121064865
:102B200005F06CFD10BD0000005000400C002000BE
:102B300000080240000C024010600240D00C00204F
:102B40006800002010B5044604EB4400204901EB66
:102B5000800090ED000A04EB440001EB800080ED62
:102B6000010AFDF792FB00EE100AB8EE400ADFED15
:102B7000190A80EE201A04EB4400154901EB80008D
:102B800080ED001A04EB440001EB800090ED000A98
:102B900004EB440001EB8000D0ED010A30EE600A46
:102BA00004EB440001EB800080ED020A04EB4400DA
:102BB00001EB800090ED020A10BD10B5002404E086
:102BC0002046FFF7BFFF601CC4B20A2CF8DB10BD23
:102BD000D8090020002474491CB50121042005F007
:102BE00037F941F23000009001208DF804000020F8
:102BF0008DF8060003208DF805006946074805F0AA
:102C000061FB10200549183108802020891C0880AC
:102C1000C001891E08801CBD704770470008024033
:102C20009FED960A964880ED000A9FED960A80ED8A
:102C3000010AB0EE000A80ED020A9FED900A80EDD5
:102C4000030A9FED900A80ED040AB0EE000A80EDC1
:102C5000050AB7EE000A80ED060A9FED8B0A80EDAB
:102C6000070A9FED890A80ED080A9FED880A80ED2A
:102C7000090A9FED850A80ED0A0A9FED850A80ED1D
:102C80000B0A9FED820A80ED0C0A9FED7F0A80ED12
:102C90000D0A9FED7F0A80ED0E0A9FED7E0A80ED02
:102CA0000F0A9FED790A80ED100A9FED7B0A80EDF7
:102CB000110A9FED7A0A7A4880ED240A9FED790A7D
:102CC000794880ED0A0AB0EE040A80ED170AB7EEE3
:102CD000000A80ED240A9FED750A80ED250AB2EE08
:102CE000040A80ED1F0A9FED720A724880ED060A01
:102CF0009FED6F0A80ED120A9FED650A80ED080ACC
:102D00009FED630A80ED140A9FED6B0A80ED1E0AA9
:102D10009FED690A80ED2A0A9FED680A80ED1F0A7F
:102D20009FED660A80ED2B0A704770B5FF250026DF
:102D3000002403F0DEFD05463E2D06DD03F0D4FD44
:102D400008B1002501E0002070BD5D4800EBC526FC
:102D500006F0F8F85B48B0F920202146631C9CB2CD
:102D6000304603F0F1FD08B90020EDE75548B0F911
:102D700022202146631C9CB2304603F0E5FD08B9D1
:102D80000020E1E74F48B0F924202146631C9CB2A3
:102D9000304603F0D9FD08B90020D5E74948B0F91D
:102DA00026202146631C9CB2304603F0CDFD08B9B5
:102DB0000020C9E74348B0F928202146631C9CB293
:102DC000304603F0C1FD08B90020BDE73D48B0F929
:102DD0002A202146631C9CB2304603F0B5FD08B999
:102DE0000020B1E706F0BBF80120ADE770B5FF2584
:102DF0000026002403F07DFD05460DB9002070BDBE
:102E0000681EC5B22E4800EBC5262146621C94B24E
:102E1000304603F0B4FD00B22A4908842146621C02
:102E200094B2304603F0ABFD01B2264841842146FE
:102E3000621C94B2304603F0A2FD01B221488184A5
:102E40002146621C94B2304603F099FD00B21D4940
:102E5000C8842146621C94B2304603F090FD01B252
:102E6000184801852146621C94B2304603F087FD64
:102E700001B2144841850120C1E70000CDCC4C3F90
:102E8000500A0020AE47E13D00000000CDCCCC3E12
:102E90000AD7A33C9A99193F295C0F3D8FC2753D13
:102EA000F40700203333B33E2C090020CDCCCC3DB9
:102EB000295C8F3D980A00209A99993ECDCC4C3ED2
:102EC00000000E0808070020B0EE401AF0EE601A6D
:102ED000B5EEC01AF1EE10FA07D1F5EEC01AF1EE18
:102EE00010FA02D19FEDF90AA5E0B5EEC01AF1EE95
:102EF00010FA02DDB0EE414A01E0B1EE414AB0EE17
:102F0000443AF5EEC01AF1EE10FA02DDB0EE614A75
:102F100001E0B1EE614AF0EE442AB4EEE23AF1EE9D
:102F200010FA02D283EE222A01E082EE832A9FED7C
:102F3000E84AB4EEC42AF1EE10FA02D2F0EE420AE8
:102F40002DE0DFEDE44AB6EE004A12EE244AF0EE40
:102F5000443ABDEEE34A14EE100A04EE100AB8EE4D
:102F6000C44A33EEC44AF0EE443ADB4901EB800137
:102F700091ED004AF0EE440AD74A411C02EB810170
:102F800091ED004A114601EB8001D1ED004A74EE4B
:102F9000644AB0EE604A04EEA34AF0EE440AF4EE4E
:102FA000C32AF1EE10FA20DDF5EEC01AF1EE10FAA8
:102FB0000ADBB5EEC01AF1EE10FA02DBB0EE600AE1
:102FC00039E0B1EE600A36E09FEDC40AB5EEC01AF2
:102FD000F1EE10FA04DB30EE604AB0EE440A2AE06B
:102FE00030EEC04AB0EE440A25E0B5EEC01AF1EE6C
:102FF00010FA10DB9FEDBA0AF5EEC01AF1EE10FAE6
:1030000004DB30EE604AB0EE440A14E030EE204AB1
:10301000B0EE440A0FE09FEDB30AF5EEC01AF1EEF0
:1030200010FA04DB30EE204AB0EE440A03E030EE42
:10303000604AB0EE440A704700B5B0EE405AF0EE78
:10304000605AF0EE450AB0EE650AFFF73DFF00BD9D
:10305000F0EE400A20EEA00A7047B0EE401AB7EE3C
:10306000080AB0EE402AB6EE000A21EE000AF0EEA1
:10307000401AF0EE410A10EE900A9B49A1EB600065
:1030800000EE900A61EEA02AB7EE080A02EEE00A0E
:1030900020EE200AF0EE400A61EEA02AB7EE080A00
:1030A00002EEE00A20EE200AF0EE400A21EE200AAD
:1030B000704710B52DED0A8BB0EE409AF0EE609A95
:1030C0009FED8A0B53EC102B51EC190B06F032FBE1
:1030D00018D29FED880B53EC102B51EC190B06F016
:1030E000F8F941EC1B0B9FED850B53EC102B06F010
:1030F00049F941EC1A0B53EC192B06F0EAF941ECB3
:10310000180B17E09FED7B0B53EC102B51EC190BB8
:1031100006F0DFF941EC1B0B9FED780B53EC102B05
:1031200006F0D4F941EC1A0B53EC192B06F0D1F947
:1031300041EC180B9FED6D0B53EC102B51EC180B61
:1031400006F0F8FA20D29FED6F0B53EC102B51ECE8
:10315000180B06F017F941EC1C0B9FED6C0B53ECB0
:10316000102B06F0B6F941EC1B0B9FED660B53ECF0
:10317000102B06F007F941EC1A0B53EC182B06F054
:10318000A8F941EC180B1FE09FED5E0B53EC102BE0
:1031900051EC180B06F097F941EC1C0B9FED5D0B01
:1031A00053EC102B06F095F941EC1B0B9FED550BE2
:1031B00053EC102B06F0E6F841EC1A0B53EC182BED
:1031C00006F087F941EC180BB0EE480AF0EE680AF9
:1031D000BDEC0A8B10BD10B52DED068BB0EE408A0C
:1031E000F0EE608A01249FED4D0B53EC102B51EC57
:1031F000180B06F0B7FA0AD89FED480B53EC102BCA
:1032000051EC180B06F05FF941EC180BA41E204698
:1032100006F040FA41EC190BB0EE480AF0EE680AED
:10322000FFF747FFB0EE40AAF0EE60AA53EC192B6F
:1032300051EC1A0B06F04DF941EC100BBDEC068B6E
:1032400010BD10B52DED088BB0EE408AF0EE608A0F
:1032500001249FED340B53EC102B51EC180B06F0AE
:1032600091F841EC180B9FED2D0B53EC102B51EC0A
:10327000180B06F077FA0AD8A41E9FED280B53EC22
:10328000102B51EC180B06F01EF941EC180B2046E0
:1032900006F000FA41EC1A0BB0EE480AF0EE680AAC
:1032A000FFF799FFB0EE40BAF0EE60BA53EC1A2B7C
:1032B00051EC1B0B06F00DF941EC190B06F06AFA04
:1032C00000EE100ABDEC088B10BD000000000000ED
:1032D0008180803B000080436C000020DB0F494070
:1032E000DB0FC93FDB0FC9BFDF59375F00000000AC
:1032F00000000000000000602FF0D93F00000060D7
:10330000305FF43F000000000000F03F000000C00C
:10331000CCCCCCBF000000C0CCCCCC3FF1D4C85347
:10332000FB210940F1D4C853FB21F93FB0EE401A0C
:10333000B5EEC01AF1EE10FA0BDD31EE600AB5EE13
:10334000C00AF1EE10FA0FD25FED201AB0EE610A5A
:103350000AE031EE200AB5EEC00AF1EE10FA03DD04
:103360005FED261AB0EE610A7047F0EE400A9FED5D
:103370000D0AF4EEC00AF1EE10FA04DD9FED0A0A20
:1033800030EEC00A70479FED090AF4EEC00AF1EE74
:1033900010FA04D29FED040A30EE800AF2E7B0EE94
:1033A000600AEFE7000034430000B443000034C378
:1033B000F0B502460B46002600240021002502B18C
:1033C0000BB90020F0BD144613E0701C86B22546F0
:1033D000194606E008782F78B84200D004E06D1C4A
:1033E000491C08780028F5D100BF087800B903E02F
:1033F000641C20780028E8D100BF3046E2E72DE9C0
:10340000F04100270025F6A1F748FFF7D1FF8046DD
:10341000B8F1000F41D000BFF3484044861D00BF03
:1034200016F8014B2C2C03D1781CC7B200252EE0D6
:10343000092F27D2DFE807F005080B0F12161A1E16
:103440002200EA4844551EE0E848C4721BE0E74801
:103450000C30445517E0E548847514E0E348173014
:10346000445510E0E14880F822400CE0DF4823306A
:10347000445508E0DD482930445504E0DB482F304E
:10348000445500E000BF00BF681CC5B200BF00BFCC
:103490002A2C02D0D6488642C2D3BDE8F08110B5AE
:1034A0002DED108B88B0D148407B3038CF49097B57
:1034B000303901EB810100EB410084B2CB49497DF9
:1034C000A1F1300006F0E6F841EC1A0B9FEDC90BB4
:1034D00053EC102B05F0FDFF41EC190BC349097D9E
:1034E000A1F1300006F0D6F841EC1B0B9FEDC30BA9
:1034F00053EC102B05F0EDFFCDE90401BB49C97C6D
:10350000A1F1300006F0C6F841EC1D0B9FEDBD0B9C
:1035100053EC102B05F0DDFF41EC1B0BB349897C0C
:10352000A1F1300006F0B6F841EC1E0B9FEDB70B91
:1035300053EC102B05F0CDFF41EC1D0BAB49497C42
:10354000A1F1300006F0A6F841EC1F0B9FEDB10B86
:1035500053EC102B05F0BDFFCDE90001A349C97B59
:103560003039A24A927B303A02EB820201EB4200F0
:1035700006F090F841EC1E0B9DED000B53EC102B68
:1035800005F000FF53EC1D2BCDE902019DED020B70
:1035900051EC100B05F0F6FE41EC1C0B53EC1B2B11
:1035A00005F0F0FE41EC1A0B9DED040B53EC102BD3
:1035B00005F0E8FE53EC192BCDE906019DED060B55
:1035C00051EC100B05F0DEFE41EC180B9FED930B58
:1035D00053EC102B51EC180B05F0EDFF41EC180BE0
:1035E000204606F068F841EC190B53EC182B05F057
:1035F000C9FE41EC180BB0EE480AF0EE680A08B0BC
:10360000BDEC108B10BD10B52DED108B88B0774838
:10361000C07D3038642110FB01F17448007E3038E1
:1036200000EB800001EB40017048407E30380844D8
:1036300084B26E4991F82110A1F1300006F02AF809
:103640009FED6C0B53EC102B05F043FF41EC190B75
:10365000664991F82010A1F1300006F01BF89FEDAB
:10366000670B53EC102B05F034FFCDE904015F49E3
:10367000C97FA1F1300006F00DF89FED620B53EC0D
:10368000102B05F026FF41EC1B0B5849897FA1F157
:10369000300005F0FFFF9FED5D0B53EC102B05F0A4
:1036A00018FF41EC1D0B5149497FA1F1300005F095
:1036B000F1FF9FED580B53EC102B05F00AFFCDE9FD
:1036C00000014A49C97E3039484A927E303A02EBBD
:1036D000820201EB420005F0DDFF9DED000B53EC93
:1036E000102B05F04FFE53EC1D2BCDE902019DED93
:1036F000020B51EC100B05F045FE53EC1B2B05F0B3
:1037000041FE9DED040B53EC102B05F03BFE53ECFA
:10371000192BCDE906019DED060B51EC100B05F0C0
:1037200031FE41EC180B9FED3D0B53EC102B51EC8F
:10373000180B05F040FF41EC180B204605F0BBFFCD
:1037400053EC182B05F01EFE41EC180BB0EE480AA6
:10375000F0EE680A08B0BDEC108B10BD70B52DED11
:10376000068B00259FED2F0BB0EE408AF0EE608AAD
:10377000002429E01D482330005D2E281CD01B4862
:103780002330005DC0B119492331095DA1F130003A
:1037900005F080FF41EC190B9FED240B53EC102B2F
:1037A00051EC180B05F095FE41EC1A0B53EC192B5C
:1037B00005F0E8FD41EC180B0C482330005D2E2885
:1037C00000D12546601CC4B2062CD3DB012D31D0BC
:1037D000022D3AD0032D43D0042D57D14BE00000E9
:1037E00024474E524D432C00D00C0020000C0020EA
:1037F000D0140020F168E388B5F8E43E2D431CEBBB
:10380000E2361A3FFCA9F1D24D62503F7B14AE471D
:10381000E17A843F9A9999999999B93F00000000FB
:1038200000004E400000000000000000000000000A
:10383000000024409FEDFE0B53EC102B51EC180BB5
:1038400005F0B9FE41EC180B21E09FEDFB0B53ECAA
:10385000102B51EC180B05F0AEFE41EC180B16E0E6
:103860009FEDF70B53EC102B51EC180B05F0A3FE5A
:1038700041EC180B0BE01FED130B53EC102B51EC2C
:10388000180B05F098FE41EC180B00E000BF00BFDC
:103890009FEDED0B53EC102B51EC180B05F019FEBE
:1038A00041EC190B9FEDEA0B53EC102B05F083FE56
:1038B00041EC180BB0EE480AF0EE680ABDEC068B3E
:1038C00070BD70B52DED068B00251FED2A0BB0EEF7
:1038D000408AF0EE608A002425E0DF48005D2E2853
:1038E0001AD0DD48005DB8B1DB49095DA1F13000B7
:1038F00005F0D0FE41EC190B1FED340B53EC102BEF
:1039000051EC180B05F0E5FD41EC1A0B53EC192BAB
:1039100005F038FD41EC180BCF48005D2E2800D192
:103920002546601CC4B2062CD7DB012D06D0022D23
:103930000FD0032D18D0042D2CD120E09FEDBC0B0F
:1039400053EC102B51EC180B05F035FE41EC180B25
:1039500021E09FEDB90B53EC102B51EC180B05F047
:103960002AFE41EC180B16E09FEDB50B53EC102B23
:1039700051EC180B05F01FFE41EC180B0BE01FED8E
:10398000550B53EC102B51EC180B05F014FE41ECC9
:10399000180B00E000BF00BF9FEDB00B53EC102BE5
:1039A00051EC180B05F0DEFE09D29FEDAE0B53EC87
:1039B000102B51EC180B05F086FD41EC180BB0EE06
:1039C000480AF0EE680ABDEC068B70BD10B52DED0F
:1039D000068BFFF714FDFFF762FDA44880ED000B96
:1039E000FFF711FEA14880ED020BFFF7B7FE9F48DD
:1039F00080ED180BFFF765FF9C4880ED1A0B90EDEA
:103A00001A1BB0EE410AF0EE610A9FED991B53ECD0
:103A1000112B51EC100B05F0CEFD41EC1A0BB0EE62
:103A20004A0AF0EE6A0A06F067F8B0EE409AF0EE45
:103A3000609A8E4890ED181BB0EE410AF0EE610AD4
:103A400053EC102B51EC190B05F043FD41EC180B16
:103A500005F0A0FE85498867084690ED1A1BB0EE78
:103A6000410AF0EE610A9FED821B53EC112B51ECE1
:103A7000100B05F0A0FD41EC1A0BB0EE4A0AF0EE77
:103A80006A0A06F06DFFB0EE409AF0EE609A774851
:103A900090ED181BB0EE410AF0EE610A53EC102BCA
:103AA00051EC190B05F015FD41EC180B05F072FEF9
:103AB0006E49C86768482938C07A412835D1084618
:103AC00090F8980080B3084690ED042BB0EE420ABF
:103AD000F0EE620A90ED002BB0EE421AF0EE621AA0
:103AE00053EC102B51EC110B05F0EDFC5F4AC2E9D1
:103AF0000801104690ED062BB0EE420AF0EE620A85
:103B000090ED022BB0EE421AF0EE621A53EC102B3D
:103B100051EC110B05F0D7FC544AC2E90A014FF4ED
:103B200080505549088005E0FFE74FF48050524926
:103B3000891E08804D4890ED001BB0EE410AF0EE62
:103B4000610A1FEDC81B53EC112B51EC100B05F053
:103B5000F1FD25D0454890ED021BB0EE410AF0EE94
:103B6000610A1FEDD01B53EC112B51EC100B05F02B
:103B7000E1FD15D038482938C07A412810D13B489A
:103B800090F8980060B9394890ED000B80ED040B77
:103B900090ED020B80ED060B0120344981F898006E
:103BA000BDEC068B10BD1D2017E0411E334A02EB11
:103BB000C10191ED002B114601EBC00181ED002BFD
:103BC000411E2F4A02EBC10191ED002B114601EB82
:103BD000C00181ED002B411EC8B20028E5DC274959
:103BE00081ED000B264981ED001B70472DE9F04166
:103BF0002DED0E8BB0EE408A9FED220AF0EE408A4A
:103C00009FED200A10EE104A9FED1E0A10EE105A8A
:103C10009FED1C0A10EE106A144890ED001BB0EEE8
:103C2000410AF0EE610A9FED121B53EC112B2BE0C1
:103C3000000000000088C3400000000000408F40EA
:103C40000000000000005940000000606626674048
:103C5000000000C0CCCC0C40290C0020000000006B
:103C6000008066400000000000807640600B00206D
:103C70000000006066A64C401A080240D0140020E4
:103C8000C01500200000000051EC100B05F093FC63
:103C900041EC1B0BB0EE4B0AF0EE6B0A05F02CFF6B
:103CA000B0EE409AF0EE609AFE4890ED0A1BB0EE3E
:103CB000410AF0EE610A9FEDFC1B53EC112B51EC15
:103CC000100B05F006FC41EC1A0B53EC192B05F018
:103CD00000FCF74AC2E91A01F24890ED081BB0EE69
:103CE000410AF0EE610A9FEDF01B53EC112B51ECF1
:103CF000100B05F0EEFBEE4A7832C2E90201EC4807
:103D000090ED202BB0EE421AF0EE621A90ED1A2BD5
:103D1000B0EE420AF0EE620AFFF745FFB3EE0D0A7D
:103D200028EE000A10EE101A084605F0F0FC41ECEF
:103D3000190BE04890ED3A2BB0EE420AF0EE620A21
:103D4000DB4890ED1A2BB0EE421AF0EE621A53ECFB
:103D5000102B51EC110B05F0B6FB41EC1A0B53EC98
:103D6000192B05F028FCD24AC2E91C01B3EE0D0A5A
:103D700028EE000A10EE101A084605F0C8FC41ECC7
:103D8000190BCD4890ED3A2BB0EE420AF0EE620AE4
:103D9000C74890ED202BB0EE421AF0EE621A53ECB9
:103DA000102B51EC110B05F08EFB41EC1A0B53EC70
:103DB000192B05F000FCBE4A7832C2E90401BF4865
:103DC00090ED0E0ABE48D0ED000A20EE200ABB4856
:103DD000D0ED0F0ABB4890ED001A00EE810AB748FB
:103DE000D0ED100AB84890ED001A00EE810ADFED20
:103DF000B70A20EE200ADFEDB60A80EE201A11EE97
:103E0000104AAE4890ED0E0AB248D0ED000A20EEFE
:103E1000200AAA48D0ED0F0AAF4890ED001A00EE34
:103E2000810AA648D0ED100AAC4890ED001A10EEB9
:103E3000C10ADFEDA60A20EE200ADFEDA50A80EE1A
:103E4000201AF0EE418AA64890ED020ADFEDA50A9D
:103E500080EE201A11EE107A384605F058FC41EC3D
:103E60001E0BB0EE4E0AF0EE6E0A06F079FDB0EED3
:103E700040CAF0EE60CA204605F049FC41EC1D0B3B
:103E800053EC1C2B05F025FB41EC1A0B944890EDEC
:103E9000020ADFED940A80EE201A11EE107A3846FD
:103EA00005F035FC41EC1E0BB0EE4E0AF0EE6E0A4A
:103EB00005F022FEB0EE40CAF0EE60CA18EE900A9D
:103EC00005F025FC41EC1D0B53EC1C2B05F001FB10
:103ED00041EC1B0B53EC1A2B05F054FA41EC190B77
:103EE00005F058FC05467E4890ED020ADFED7D0A9C
:103EF00080EE201A11EE107A384605F008FC41ECED
:103F00001E0BB0EE4E0AF0EE6E0A05F0F5FDB0EEB7
:103F100040CAF0EE60CA204605F0F9FB41EC1D0BEB
:103F200053EC1C2B05F0D5FA41EC1A0B6C4890EDC4
:103F3000020ADFED6C0A80EE201A11EE107A384684
:103F400005F0E5FB41EC1E0BB0EE4E0AF0EE6E0AFA
:103F500006F006FDB0EE40CAF0EE60CAB1EE680AA7
:103F600010EE100A05F0D3FB41EC1D0B53EC1C2B9B
:103F700005F0AFFA41EC1B0B53EC1A2B05F002FADB
:103F800041EC190B05F006FC0646574890ED120A65
:103F9000DFED540A80EE201A11EE107A384605F053
:103FA000B6FB41EC1D0BB0EE4D0AF0EE6D0A06F0CB
:103FB000D7FCB0EE40BAF0EE60BA304605F0A7FB91
:103FC00041EC1C0B53EC1B2B05F083FA41EC190B55
:103FD000454890ED120ADFED430A80EE201A11EEFB
:103FE000107A384605F093FB41EC1D0BB0EE4D0AFC
:103FF000F0EE6D0A05F080FDB0EE40BAF0EE60BA6A
:10400000284605F084FB41EC1C0B53EC1B2B05F000
:1040100060FA41EC1A0B53EC192B05F054FA244AC0
:1040200003C2314890ED120ADFED2E0A80EE201A0D
:1040300011EE107A384605F06AFB41EC1D0BB0EE2C
:104040004D0AF0EE6D0A05F057FDB0EE40BAF0EE05
:1040500060BA304605F05BFB41EC1C0B53EC1B2BAC
:1040600005F037FA41EC190B1F4890ED120ADFED0D
:104070001D0A80EE201A11EE107A384605F047FB33
:1040800041EC1D0BB0EE4D0AF0EE6D0A06F068FC37
:10409000B0EE40BAF0EE60BA284605F038FB41ECCD
:1040A0001C0B23E0600B0020000000801997654185
:1040B000400C0020D0140020C0150020CC050020AA
:1040C0003C00002040000020440000200000754417
:1040D00000008045480000204C00002050000020D7
:1040E00090070020333365420807002053EC1B2B58
:1040F00005F0EFF941EC1A0B53EC192B05F042F9DE
:10410000FE4AC2E9060118EE100A05F000FB41EC78
:104110001D0BFA4890ED001BB0EE410AF0EE610A6B
:1041200053EC102B51EC1D0B05F0D3F941EC1C0B9B
:10413000F24890ED0C1BB0EE410AF0EE610A53EC30
:10414000102B51EC1C0B05F01DF941EC1B0B9FEDE6
:10415000EC0B53EC102B05F0BCF941EC190BE748C4
:1041600090ED1C1BB0EE410AF0EE610A53EC102BEF
:104170009FEDE51B51EC110B05F0ABF941EC1A0B6F
:1041800053EC192B05F0FEF8DC4AC2E90C0118EEDD
:10419000100A05F0BCFA41EC190BD84890ED061B4B
:1041A000B0EE410AF0EE610A53EC102B51EC190B02
:1041B00005F08FF941EC1D0BD04890ED121BB0EECD
:1041C000410AF0EE610A53EC102B51EC1D0B05F087
:1041D000D9F841EC1C0B9FEDCA0B53EC102B05F0EA
:1041E00078F941EC1A0BC54890ED221BB0EE410A5C
:1041F000F0EE610A53EC102B9FEDC31B51EC110B39
:1042000005F067F941EC1B0B53EC1A2B05F0BAF8DB
:10421000BA4AC2E91201BDEC0E8BBDE8F08110B5BF
:104220002DED068BBA48007888287CD1B8484078B4
:10423000A12878D1B649C9780906B54A127941EA68
:104240000241B34A527941EA0221B14A927941EAE4
:10425000020005F01FFA41EC180B9FEDAE0B53EC7A
:10426000102B05F0A8F9AD4AC2E90C01104690EDFB
:10427000002BB0EE420AF0EE620A90ED0C2BB0EE8D
:10428000421AF0EE621A53EC102B51EC110B05F0B0
:104290001AF941EC180B1FED7C0B53EC102B05F0B9
:1042A00018F99E4AC2E912019949C9790906984A42
:1042B000127A41EA0241964A527A41EA0221944A2C
:1042C000927A41EA020005F0E5F941EC180B9FED06
:1042D000910B53EC102B05F06EF9904AC2E90E01D8
:1042E000104690ED001BB0EE410AF0EE610A9FED22
:1042F0008C1B53EC112B51EC100B05F05CF941ECCD
:104300001A0BB0EE4A0AF0EE6A0A05F0F5FBB0EEC1
:10431000408AF0EE608A814890ED022BB0EE420AAE
:10432000F0EE620A00E01CE090ED0E2BB0EE421AB7
:10433000F0EE621A53EC102B51EC110B05F0C3F8A0
:1043400041EC1A0B1FEDA80B53EC102B05F0C1F834
:1043500041EC190B53EC182B05F0BBF86F4AC2E97E
:104360001001BDEC068B10BD10B52DED108B84B087
:10437000B0EE408A9FED6C0AF0EE408A9FED6A0A2B
:10438000B0EE40FA6248007888287DD160484078D5
:10439000A128FAD15E48C07D012804D002280BD0A4
:1043A00003281BD111E09FED600AF0EE408A9FEDDB
:1043B0005E0AB0EE40FA1AE09FED5C0AF0EE408A29
:1043C0009FED5B0AB0EE40FA11E09FED580AF0EE67
:1043D000408A9FED580AB0EE40FA08E09FED520A7D
:1043E000F0EE408A9FED500AB0EE40FA00BF00BFE9
:1043F000514890ED000AB4EEE80AF1EE10FA08DD3B
:1044000090ED000AF2EE040A30EE600A80ED000A38
:104410000FE0494890ED000AB4EEE80AF1EE10FA18
:1044200007D290ED000AF2EE040A30EE200A80ED89
:10443000000A424890ED000AB4EECF0AF1EE10FAFD
:1044400008DD90ED000AF2EE040A30EE600A80ED1D
:10445000000A0FE0394890ED000AB4EECF0AF1EE01
:1044600010FA07D290ED000AF2EE040A30EE200AAC
:1044700080ED000A324890ED120A5FEDE60A80EE08
:10448000201A11EE104A00E0C6E3204605F03FF97D
:1044900041EC1D0BB0EE4D0AF0EE6D0A06F060FA2D
:1044A000B0EE40BAF0EE60BA2648B0F9020000EE75
:1044B000100AB8EEC00ADFED240A60EE200A9FED74
:1044C000231A80EE810A20EE080A10EE104A2046D8
:1044D00005F01DF941EC1C0B53EC1B2B04F0F9FF0C
:1044E00041EC1E0B164890ED120ADFED190A80EE22
:1044F000201A11EE104A20462CE00000400C00204B
:10450000000000A09999E93F000000A09999C93FD7
:104510004017002000000000D0126341600B002013
:104520000000006066A64C40000000000000FA4455
:104530000000FAC400007AC5700400207404002052
:10454000080700206017002000007A43000025447F
:104550003333654205F0DBF841EC1D0BB0EE4D0A3C
:10456000F0EE6D0A05F0C8FAB0EE40BAF0EE60BAAF
:10457000FE48B0F9000000EE100AB8EEC00A5FED88
:104580000E0A60EE200A1FED0F1A80EE810A20EE5F
:10459000080A10EE104A204605F0B9F841EC1C0B51
:1045A00053EC1B2B04F095FF41EC1A0B53EC1E2B24
:1045B00004F089FF41EC190BED4890ED221BB0EEA1
:1045C000410AF0EE610A53EC102B51EC190B04F088
:1045D000D9FEE74A6032C2E90A01E64890ED120AC4
:1045E0005FED250A80EE201A11EE104A204605F0F4
:1045F0008EF841EC1D0BB0EE4D0AF0EE6D0A06F0A0
:10460000AFF9B0EE40BAF0EE60BAD848B0F90000A9
:1046100000EE100AB8EEC00A5FED350A60EE200A1F
:104620001FED361A80EE810A20EE080A10EE104ABD
:10463000204605F06CF841EC1C0B53EC1B2B04F0EE
:1046400048FF41EC190BCB4890ED120A5FED400A90
:1046500080EE201A11EE104A204605F058F841EC81
:104660001D0BB0EE4D0AF0EE6D0A05F045FAB0EE06
:1046700040BAF0EE60BABD48B0F9020000EE100A90
:10468000B8EEC00A5FED500A60EE200A1FED511A25
:1046900080EE810A20EE080A10EE104A204605F04E
:1046A00036F841EC1C0B53EC1B2B04F012FF41ECD1
:1046B0001A0B53EC192B04F065FE41EC1E0BAC48B1
:1046C00090ED2E1BB0EE410AF0EE610A53EC102B78
:1046D00051EC1E0B04F056FEA54A9032C2E90A01C5
:1046E000A549C9780906A44A127941EA0241A24AB9
:1046F000527941EA0221A04A927941EA020004F08B
:10470000C9FF41EC190B1FED7D0B53EC102B04F08E
:1047100052FF9A4AC2E90C019948006804F0F7FF79
:1047200041EC1B0B954890ED042BB0EE420AF0EEE5
:10473000620A90ED0C2BB0EE421AF0EE621A53ECC6
:10474000102B51EC110B04F0BEFE41EC1E0B9FED43
:104750008D0B53EC102B04F0BCFE41EC1D0B874875
:1047600090ED121BB0EE410AF0EE610A53EC102BF3
:1047700051EC1D0B04F0A7FE41EC1C0B53EC1B2B62
:1047800004F000FE41EC1A0B794890ED2E1BB0EEC0
:10479000410AF0EE610A53EC102B51EC1A0B04F0B5
:1047A000F1FD41EC190B04F0F5FF7149C1F89000DF
:1047B0007149C9790906704A127A41EA02416E4A82
:1047C000527A41EA02216C4A927A41EA020004F0EC
:1047D00061FF41EC190B1FEDB10B53EC102B04F0F2
:1047E000EAFE664AC2E90E016848006804F08FFFDD
:1047F00041EC1A0B614890ED001BB0EE410AF0EE5F
:10480000610A1FEDB91B53EC112B51EC100B04F096
:10481000D2FE41EC1D0BB0EE4D0AF0EE6D0A05F034
:104820006BF9B0EE40CAF0EE60CA544890ED062B2A
:10483000B0EE420AF0EE620A90ED0E2BB0EE421A94
:10484000F0EE621A53EC102B51EC110B04F03BFE0E
:1048500041EC1D0B9FED4B0B53EC102B04F039FE7C
:1048600041EC1E0B53EC1C2B04F033FECDE9000190
:10487000424890ED101BB0EE410AF0EE610A53EC95
:10488000102B9DED001B51EC110B04F01CFE41ECB4
:104890001B0B53EC1A2B04F075FDCDE902013448D3
:1048A00090ED221BB0EE410AF0EE610A53EC102BA2
:1048B0009DED021B51EC110B04F064FD41EC190B52
:1048C00004F068FF2A4908662B48007B2A49C97A08
:1048D00040EA012000EE100AB8EEC00A274880ED39
:1048E000250A90ED250ADFED2A0AB4EEE00AF1EE82
:1048F00010FA07DD90ED250ADFED260A30EE600A9A
:1049000080ED250A1C48807B1B49497B40EA012039
:1049100000EE100AB8EEC00A184880ED200A1648CA
:10492000007C1549C97B40EA012000EE100AB8EE70
:10493000C00A124880ED210A0F48807C0E49497C4C
:1049400040EA012000EE100AB8EEC00A0B4880EDE4
:10495000220A90ED200ADFED0E0AB4EEE00AF1EE35
:1049600010FA1FDD90ED200A16E00000601700200D
:10497000980A00200807002040170020600B002044
:104980007404002000000080199765417004002025
:1049900000FEFF4600FF7F475FED020A30EE600A2F
:1049A00080ED200AF94890ED210A5FED070AB4EE88
:1049B000E00AF1EE10FA07DD90ED210A5FED0B0A37
:1049C00030EE600A80ED210AF04890ED220A5FED9A
:1049D000100AB4EEE00AF1EE10FA07DD90ED220ABB
:1049E0005FED140A30EE600A80ED220AE74890ED90
:1049F000200AF2EE040A80EE201ABBEE040AB4EE9E
:104A0000C01AF1EE10FA02D2BBEE040A17E0DF483A
:104A100090ED200AF2EE040A80EE201AB3EE040AAA
:104A2000B4EEC01AF1EE10FA02DDB3EE040A06E0AD
:104A3000D648D0ED200AB2EE041A80EE810AD3489F
:104A400080ED200AD0ED210AB2EE041A80EE810A30
:104A5000FBEE040AB4EEE00AF1EE10FA02D2BBEE6D
:104A6000040A17E0C94890ED210AB2EE041AC0EE1C
:104A7000010AB3EE040AF4EEC00AF1EE10FA02DD08
:104A8000B3EE040A06E0C148D0ED210AB2EE041AE2
:104A900080EE810ABD4880ED210AD0ED220AB2EEF7
:104AA000041A80EE810ADFEDBA0AB4EEE00AF1EEF4
:104AB00010FA02D29FEDB60A17E0B44890ED220A30
:104AC000B2EE041AC0EE010A9FEDB20AF4EEC00A7B
:104AD000F1EE10FA02DD9FEDAF0A06E0AB48D0ED33
:104AE000220AB2EE041A80EE810AA84880ED220A5A
:104AF000A948007DA849C97C40EA012000EE100ABF
:104B0000B8EEC00AA14880ED240AA348807DA249DE
:104B1000497D40EA012000EE100AB8EEC00A9B4829
:104B200080ED230A90ED240A5FED670AB4EEE00AF7
:104B3000F1EE10FA07DD90ED240A5FED6A0A30EE1F
:104B4000600A80ED240A914890ED230A5FED700A17
:104B5000B4EEE00AF1EE10FA07DD90ED230A5FED06
:104B6000730A30EE600A80ED230A8848D0ED240AEB
:104B7000B2EE041A80EE810ADFED880AB4EEE00A94
:104B8000F1EE10FA02D29FED850A17E07F48D0EDD2
:104B9000240AB2EE041A80EE810ADFED810AB4EE37
:104BA000E00AF1EE10FA02DD9FED7D0A06E077489B
:104BB000D0ED240AB2EE041A80EE810A734880ED2B
:104BC000240A90ED230AF2EE040A80EE201A9FEDEB
:104BD000730AB4EEC01AF1EE10FA02D29FED6F0A1A
:104BE00017E06A48D0ED230AB2EE041A80EE810A7B
:104BF000DFED6B0AB4EEE00AF1EE10FA02DD9FED94
:104C0000680A06E06148D0ED230AB2EE041A80EE8D
:104C1000810A5E4880ED230A04B0BDEC108B10BD04
:104C200010B52DED108B82B05E4890ED001BB0EEFC
:104C3000410AF0EE610A51EC100B04F0ABFD08EEF6
:104C4000100AB0EE480A01F0AAF88DED010A5548A5
:104C500090ED061BB0EE410AF0EE610A51EC100B2C
:104C600004F098FD08EE100AB0EE480A01F09CF935
:104C70008DED000A4C484089012803D04A484089FC
:104C8000022875D148484089022810D19FED470A73
:104C90003E4880ED200A9FED450A80ED210A9FEDF8
:104CA000430A80ED240A9FED410A80ED230A404823
:104CB00090ED1D0A10EE101A084604F028FD41EC94
:104CC000190B384890ED0C1BB0EE410AF0EE610A6A
:104CD00053EC102B51EC190B04F0F5FB41EC180BC5
:104CE00004F058FD32494860084690ED290A10EE5C
:104CF000101A084604F00BFD41EC190B294890ED01
:104D0000121BB0EE410AF0EE610A53EC102B51EC8D
:104D1000190B04F0D8FB41EC180B04F03BFD2449BF
:104D20004863084690ED010AD0ED060A20EE200AFD
:104D300080ED020AD0ED080A9DED010AB1EE400AAD
:104D400020EE800A80ED040A90ED020AD0ED040AFC
:104D500030EE200A80ED050A90ED050AFAEE0E0A03
:104D6000B4EEE00AF1EE10FA03D2BAEE0E0A24E035
:104D70007CE10F4890ED050AF2EE0E0AB4EEE00A6F
:104D8000F1EE10FA16DDB2EE0E0A16E0600B00200E
:104D9000000034C30000344340170020000048C323
:104DA00000004843400C0020601700200000000075
:104DB000980A0020FE4890ED050AFD4880ED050A9E
:104DC00090ED0D0AD0ED120A20EE200A80ED0E0AB9
:104DD000D0ED140A9DED000AB1EE400A20EE800AE3
:104DE00080ED100A90ED0E0AD0ED100A30EE200A88
:104DF00080ED110A90ED110AFAEE0E0AB4EEE00A07
:104E0000F1EE10FA02D2BAEE0E0A0FE0E84890ED89
:104E1000110AF2EE0E0AB4EEE00AF1EE10FA02DD2B
:104E2000B2EE0E0A02E0E24890ED110AE04880ED91
:104E3000110AE04890ED120ADFEDDF0A80EE201A39
:104E400011EE104A204604F062FC41EC1D0BB0EE5E
:104E50004D0AF0EE6D0A04F04FFEB0EE40BAF0EEEF
:104E600060BAD34890ED110A10EE101A084604F00B
:104E70004EFC41EC1C0B53EC1B2B04F02AFB41ECC9
:104E8000190BCC4890ED120ADFEDCB0A80EE201A08
:104E900011EE104A204604F03AFC41EC1F0BB0EE34
:104EA0004F0AF0EE6F0A05F05BFDB0EE40DAF0EE6F
:104EB00060DABF4890ED050A10EE101A084604F0BB
:104EC00026FC41EC1E0B53EC1D2B04F002FB41ECC5
:104ED0001B0BBA4890ED200ADFEDB90A20EE200A3C
:104EE00010EE101A084604F012FC41EC1C0B53ECB7
:104EF0001B2B04F0E8FA41EC1A0B53EC192B04F0CD
:104F000041FA41EC180B04F045FCA949C1F8C00076
:104F1000A84890ED120ADFEDA80A80EE201A11EEE3
:104F2000104A204604F0F3FB41EC1D0BB0EE4D0A95
:104F3000F0EE6D0A05F014FDB0EE40BAF0EE60BA86
:104F40009B4890ED110A10EE101A084604F0DFFBA2
:104F500041EC1C0B53EC1B2B04F0BBFA41EC190B7E
:104F6000944890ED120ADFED940A80EE201A11EEBB
:104F7000104A204604F0CBFB41EC1F0BB0EE4F0A69
:104F8000F0EE6F0A04F0B8FDB0EE40DAF0EE60DA51
:104F9000874890ED050A10EE101A084604F0B7FB9A
:104FA00041EC1E0B53EC1D2B04F093FA41EC1B0B50
:104FB000824890ED210ADFED820A20EE200A10EEF1
:104FC000101A084604F0A3FB41EC1C0B53EC1B2BFE
:104FD00004F0D8F941EC1A0B53EC192B04F0D2F978
:104FE00041EC180B04F0D6FB7149C1F8C400084627
:104FF00090ED300AFBEE040AB4EEE00AF1EE10FA8E
:1050000002D2BBEE040A0FE0694890ED300AF3EEDD
:10501000040AB4EEE00AF1EE10FA02DDB3EE040A7F
:1050200002E0634890ED300A614880ED300A90ED6F
:10503000310AFBEE040AB4EEE00AF1EE10FA02D2F5
:10504000BBEE040A0FE05A4890ED310AF3EE040A71
:10505000B4EEE00AF1EE10FA02DDB3EE040A02E06B
:10506000534890ED310A524880ED310A5548408945
:10507000032810D11FEDB30A4D4880ED300A1FED13
:10508000B50A80ED310A9FED500B80ED220B9FEDAC
:105090004E0B80ED2E0B02B0BDEC108B10BD10B589
:1050A0002DED108B82B0B0EE408A4648B0F90A1060
:1050B000B0F91600814224D04248408902281AD112
:1050C000434890ED1A1BB0EE410AF0EE610A51EC34
:1050D000100B04F05FFB364908663D4890ED201B3D
:1050E000B0EE410AF0EE610A51EC100B04F052FBF5
:1050F0002F49C1F8900033484089012801D1FFF7BA
:105100008EF830484089012803D1B0EE480AFFF7F5
:105110002BF92C484089012803D02A4840890228CD
:105120007DD1244890ED120ADFED230A80EE201A8B
:1051300011EE104A204604F0EAFA41EC1F0BB0EEE3
:105140004F0AF0EE6F0A05F00BFCB0EE40DAF0EE1D
:1051500060DA1C48B0F9020000EE100AB8EEC00A8E
:10516000DFED1C0A60EE200A9FED1B1A80EE810A1B
:1051700020EE080A10EE104A204604F0C8FA41EC6E
:105180001E0B53EC1D2B04F0A4F941EC1C0B094839
:1051900090ED120ADFED080A80EE201A11EE104A97
:1051A000204604F0B4FA41EC1F0BB0EE4F0A15E0B4
:1051B000980A00200807002033336542600B002066
:1051C0009A99193F601700200000000000000000BD
:1051D000400C002000007A4300002544F0EE6F0AE6
:1051E00004F08AFCB0EE40DAF0EE60DAEA48B0F99A
:1051F000000000EE100AB8EEC00A5FED0A0A60EE89
:10520000200A1FED0B1A80EE810A20EE080A10EE2C
:10521000104A204604F07BFA41EC1E0B00E09EE1B0
:1052200053EC1D2B04F055F953EC1C2BCDE9000178
:105230009DED000B51EC100B04F045F941EC1A0BFD
:10524000D64890ED180A10EE101A084604F05FFADE
:1052500041EC1B0B53EC1A2B04F094F841EC190BA6
:1052600004F098FACD490866CD4890ED120A5FED3A
:105270002E0A80EE201A11EE104A204604F047FA5A
:1052800041EC1F0BB0EE4F0AF0EE6F0A05F068FB21
:10529000B0EE40DAF0EE60DABF48B0F9000000EEA0
:1052A000100AB8EEC00A5FED350A60EE200A1FED65
:1052B000361A80EE810A20EE080A10EE104A2046C7
:1052C00004F025FA41EC1E0B53EC1D2B04F001F900
:1052D00041EC1B0BB24890ED120A5FED490A80EEDB
:1052E000201A11EE104A204604F011FA41EC1F0B6F
:1052F000B0EE4F0AF0EE6F0A04F0FEFBB0EE40DABB
:10530000F0EE60DAA448B0F9020000EE100AB8EE40
:10531000C00A5FED500A60EE200A1FED511A80EEC0
:10532000810A20EE080A10EE104A204604F0EFF938
:1053300041EC1E0B53EC1D2B04F0CBF841EC1C0B85
:1053400053EC1B2B04F01EF841EC190B934890ED25
:10535000240A10EE101A084604F0D9F941EC1A0B91
:1053600053EC192B04F00EF8CDE900019DED000B74
:1053700051EC100B04F00EFA8849C1F89000084671
:1053800090ED180A10EE101A084604F0C0F941EC2E
:105390001A0B844890ED1A1BB0EE410AF0EE610A38
:1053A00053EC102B51EC1A0B04F08DF841EC190B57
:1053B00004F0F0F979494866084690ED240A10EEA9
:1053C000101A084604F0A3F941EC1A0B754890ED49
:1053D000201BB0EE410AF0EE610A53EC102B51ECA9
:1053E0001A0B04F070F841EC190B04F0D3F96B4977
:1053F000C1F89400084690ED190AD0ED1E0A20EE7F
:10540000200A80ED1A0A90ED190AD0ED1F0A60EE0D
:10541000200A90ED1B0A00EE880A80ED1B0A90ED31
:105420001B0ADFED610AB4EEE00AF1EE10FA02D2D7
:105430009FED5D0A0FE0594890ED1B0ADFED5B0A16
:10544000B4EEE00AF1EE10FA02DD9FED580A02E038
:10545000524890ED1B0A514880ED1B0A90ED1A0A44
:10546000D0ED1B0A30EE200A80ED1D0A90ED1D0ADA
:10547000DFED4F0AB4EEE00AF1EE10FA02D29FED32
:105480004C0A0FE0454890ED1D0ADFED4A0AB4EEE4
:10549000E00AF1EE10FA02DD9FED460A02E03F4815
:1054A00090ED1D0A3D4880ED1D0A90ED250AD0EDD6
:1054B0002A0A20EE200A80ED260A90ED250AD0ED7A
:1054C0002B0A60EE200A90ED270A00EE880A80ED94
:1054D000270A90ED270ADFED340AB4EEE00AF1EE78
:1054E00010FA02D29FED300A0FE02C4890ED270A07
:1054F000DFED2E0AB4EEE00AF1EE10FA02DD9FEDC8
:105500002B0A02E0254890ED270A244880ED270A5F
:1055100090ED260AD0ED270A30EE200A80ED290A08
:1055200090ED290ADFED220AB4EEE00AF1EE10FA5E
:1055300002D29FED1F0A0FE0184890ED290ADFED17
:105540001D0AB4EEE00AF1EE10FA02DD9FED190A31
:1055500002E0124890ED290A104880ED290A0E4811
:105560004089032810D19FED140A0C4880ED1B0AD6
:105570009FED110A80ED270A9FED0F0A80ED1D0AAD
:105580009FED0D0A80ED290A03484189C18202B0CE
:10559000BDEC108B10BD000060170020980A0020A1
:1055A00008070020400C00200000A0C20000A0421C
:1055B000000096C3000096430000000010B52DEDDA
:1055C000068BF0EE409AF0EE608A9FEDFE0AB0EE98
:1055D00040AA9FEDFC0AB0EE408A9FEDFA0AB0EEB9
:1055E000409A89EEA80AB0EE40AA9FEDF70AC0EEF5
:1055F0000A0AF0EE60AAB0EE6A0A05F015FAB0EEFB
:10560000408A9FEDF20A04F0DBFAF0EE000A60EE49
:10561000200AB7EE000A00EE880A08EE080AB0EE8B
:10562000409AEB48C0ED008A90ED000AB5EEC00A42
:10563000F1EE10FA35DD28EE080AC0EE090AE54859
:10564000C0ED000A90ED000AF0EE000A20EE200AFC
:10565000E14880ED000ADF4890ED000ADF4880ED68
:10566000000AB7EE000A18EE080AF0EE000A20EE73
:10567000200AC0EE090ADA48C0ED000A9FEDD30AFD
:1056800004F09EFAF0EE000A60EE200AB7EE000A7F
:1056900000EEC80A08EE080AC0EE090AD148C0EDBB
:1056A000000ABDEC068B10BD10B52DED048BF0EE9D
:1056B000408A9FEDC40AB0EE408A9FEDC20AB0EE68
:1056C000409AC34890ED000AB5EEC00AF1EE10FA18
:1056D00004D8B0EE680ABDEC048B10BDB0EE680AC9
:1056E000C148D0ED000ABE4890ED001A00EEC10A94
:1056F000BE48D0ED000ABB4890ED001A00EEC10A8A
:10570000B0EE408A18EE100A00F005FF20B918EE3E
:10571000100A00F0F6FE08B1B0EE688AAD4890EDD0
:10572000000A28EE000AB048D0ED000AAA4890ED21
:10573000001A00EE810AAD48D0ED000AA74890EDAE
:10574000001A00EE810AB0EE409AA74890ED000AD8
:10575000A64880ED000AA44880ED008AB0EE490A10
:10576000B9E710B52DED068BF0EE409AF0EE608AA9
:105770009FED940AB0EE40AA9FED920AB0EE408AE7
:105780009FED900AB0EE409A89EEA80AB0EE40AACA
:105790009FED8D0AC0EE0A0AF0EE60AAB0EE6A0A2A
:1057A00005F042F9B0EE408A9FED880A04F008FA4D
:1057B000F0EE000A60EE200AB7EE000A00EE880A5A
:1057C00008EE080AB0EE409A8948C0ED008A90EDD4
:1057D000000AB5EEC00AF1EE10FA35DD28EE080A2F
:1057E000C0EE090A8348C0ED000A90ED000AF0EE11
:1057F000000A20EE200A804880ED000A7D4890EDE6
:10580000000A7E4880ED000AB7EE000A18EE080A8A
:10581000F0EE000A20EE200AC0EE090A7848C0ED3A
:10582000000A9FED6A0A04F0CBF9F0EE000A60EE80
:10583000200AB7EE000A00EEC80A08EE080AC0EE19
:10584000090A7048C0ED000ABDEC068B10BD10B50A
:105850002DED048BF0EE408A9FED5A0AB0EE408A9F
:105860009FED580AB0EE409A614890ED000AB5EEFF
:10587000C00AF1EE10FA04D8B0EE680ABDEC048B51
:1058800010BDB0EE680A6048D0ED000A5C4890EDAB
:10589000001A00EEC10A5D48D0ED000A594890EDAB
:1058A000001A00EEC10AB0EE408A18EE100A00F0AD
:1058B00032FE20B918EE100A00F023FE08B1B0EE57
:1058C000688A4C4890ED000A28EE000A4E48D0ED58
:1058D000000A494890ED001A00EE810A4B48D0EDCD
:1058E000000A464890ED001A00EE810AB0EE409A98
:1058F000454890ED000A454880ED000A424880ED99
:10590000008AB0EE490AB9E710B52DED068BF0EE2E
:10591000409AF0EE608A9FED2B0AB0EE40AA9FED10
:10592000290AB0EE408A9FED270AB0EE409A89EE30
:10593000A80AB0EE40AA9FED240AC0EE0A0AF0EED3
:1059400060AAB0EE6A0A05F06FF8B0EE408A9FEDEB
:105950001F0A04F035F9F0EE000A60EE200AB7EEF7
:10596000000A00EE880A08EE080AB0EE409A2848BD
:10597000C0ED008A90ED000AB5EEC00AF1EE10FA13
:1059800064DD28EE080AC0EE090A2248C0ED000ACC
:1059900090ED000AF0EE000A20EE200A1E4880ED8D
:1059A000000A1C4890ED000A1C4880ED000AB7EE82
:1059B000000A18EE080AF0EE000A20EE200AC0EEF7
:1059C000090A2DE000000000DA0F4940DA0F493FD4
:1059D0007804002084040020880400208C04002027
:1059E0007C04002080040020900400209404002007
:1059F00098040020A4040020A8040020AC04002087
:105A00009C040020A0040020B0040020B404002066
:105A1000B8040020C4040020C8040020CC040020E6
:105A2000FE48C0ED000A1FED170A04F0C9F8F0EEB9
:105A3000000A60EE200AB7EE000A00EEC80A08EE7F
:105A4000080AC0EE090AF648C0ED000ABDEC068B54
:105A500010BD10B52DED048BF0EE408A1FED270A26
:105A6000B0EE408A1FED290AB0EE409AED4890ED65
:105A7000000AB5EEC00AF1EE10FA04D8B0EE680ADA
:105A8000BDEC048B10BDB0EE680AE748D0ED000A0B
:105A9000E24890ED001A00EEC10AE448D0ED000A99
:105AA000DF4890ED001A00EEC10AB0EE408A18EE11
:105AB000100A00F030FD20B918EE100A00F021FDA8
:105AC00008B1B0EE688ADA4890ED000A28EE000AC4
:105AD000D548D0ED000AD74890ED001A00EE810AB3
