:020000040800F2
:10000000701B0020D17B0008A5010008A701000893
:10001000AB010008AF010008B301000800000000B8
:10002000000000000000000000000000B701000810
:10003000B901000800000000BB010008BD01000874
:10004000EB7B0008EB7B0008EB7B0008EB7B0008F8
:10005000EB7B0008EB7B0008EB7B0008EB7B0008E8
:10006000EB7B0008EB7B0008ED540008EB7B0008FD
:10007000EB7B0008EB7B0008D5590008EB7B000800
:10008000590E0008EB7B0008EB7B0008EB7B0008B7
:10009000EB7B0008EB7B0008EB7B0008EB7B0008A8
:1000A000EB7B0008EB7B0008EB7B0008EB7B000898
:1000B000EB7B0008EB7B0008EB7B0008EB7B000888
:1000C000EB7B0008EB7B0008EB7B0008EB7B000878
:1000D000EB7B0008EB7B0008EB7B0008F559000880
:1000E000EB7B0008EB7B0008EB7B0008EB7B000858
:1000F000EB7B0008EB7B0008EB7B0008EB7B000848
:10010000EB7B0008EB7B0008EB7B0008EB7B000837
:10011000EB7B0008E1190008EB7B0008EB7B000893
:10012000EB7B0008EB7B0008EB7B0008EB7B000817
:10013000EB7B0008EB7B0008EB7B0008EB7B000807
:10014000EB7B0008EB7B0008EB7B0008EB7B0008F7
:10015000EB7B0008EB7B0008EB7B0008EB7B0008E7
:10016000EB7B0008EB7B0008EB7B0008EB7B0008D7
:10017000EB7B0008EB7B0008EB7B0008EB7B0008C7
:10018000EB7B0008EB7B0008DFF80CD008F090FA5E
:10019000004800479D010008701B002000F0A5F8F2
:1001A00000BFFEE7704700BFFEE700BFFEE700BFED
:1001B000FEE700BFFEE770477047704710B516486E
:1001C0000068401C1449086014480088401C13490A
:1001D000088008464088401C488008468088401CAB
:1001E00088800846C088401CC88008460089401C9A
:1001F000088108464089401C48810948D0E9002010
:10020000521C40F100000649C1E900200548C078B1
:1002100008B100F0F3F810BD00000020B805002080
:1002200008000020600000207FB5684606F011FC41
:100230004FF47A710198B0FBF1F4E4082146481EAE
:10024000B0F1807F00D31BE0481E4FF0E0225061E8
:1002500050170F22002807DA13071E0E434B00F039
:100260000F052D1F5E5503E013071D0E404B1D5457
:1002700000BF00204FF0E02290610720106100BF16
:100280006FF0040005F084FC7FBD3A4A11684FF01E
:10029000E02252694FF0E0239B69D21A4FF47A733F
:1002A0005A434FF0E0235B69B2FBF3F201EB4103E9
:1002B000C3EBC11302EBC300704730B50446FFF730
:1002C000E4FF054600BFFFF7E0FF401BA042FAD362
:1002D00030BD10B5044603E04FF47A70FFF7EDFF30
:1002E000201EA4F10104F7D110BD10B501F0F6FBFA
:1002F00000F0D6F84FF4806005F0F8FBFFF794FFAC
:1003000001F010FC05F09FFA4FF4C87000F0D4FD26
:1003100001F0D5FB00F0A2FA00F0CCFBF2EE040AEB
:100320009FED150A04F0CCF8F2EE040A9FED120AD4
:1003300004F06CFAF2EE040A9FED0F0A04F068FB79
:10034000F2EE040A9FED0C0A04F035FCF2EE040A0A
:100350009FED090A04F034FD00F053FC4FF4805087
:100360000649088001200649C87010BD18ED00E05C
:1003700000E400E0000000200000C842180802402D
:10038000600000207047704710B52DED028B0020F3
:1003900001F05AFBB0EE408ABDEC028B10BD7047F5
:1003A00010B52DED028B022001F04EFBB0EE408A1D
:1003B000DFED360AB0EE480A00F0E4FBBDEC028B3C
:1003C00010BD704710B52DED028B042001F03CFBF1
:1003D000B0EE408A2E480078401CC0B22C4908700C
:1003E0000A2807DD002008702A48006880F02000F5
:1003F00028490860BDEC028B10BD704710B5264837
:100400000088012804DBFFF7BDFF00202249088097
:1004100021484088022804DBFFF7B6FF00201E4970
:1004200048801D488088052804DBFFF7B8FF0020BE
:10043000194988801848C0880A2804DBFFF7B0FFF4
:1004400000201549C88014480089142804DBFFF7F0
:10045000B8FF0020104908810F484089322804DB8A
:10046000FFF7B0FF00200C4948810C48D0E900306C
:100470004FF47A729A1A70F1000005DBFFF7BDFFA6
:100480000021064A1160516010BD00000000484381
:100490001000002014080240B805002008000020C9
:1004A0001CB50121022006F069FB03200090012009
:1004B0008DF804008DF8060003208DF8050001205A
:1004C0008DF807006946CA4806F092FD1CBD00BFC2
:1004D00000BF00BF00BF00BF00BF00BF00BF00BF24
:1004E000C448007838B90F2000BF011EA0F10102F6
:1004F000D0B2FAD100BF704700B50220BC49183114
:10050000088001200880FFF7E2FFB948103000683A
:1005100008B9012000E0002000F0020008B100202E
:1005200000BD0220B2491A310880FFF7D0FFB04861
:100530001030006800F0020008B10020F0E702204F
:10054000AB491A310880FFF7C2FF0120E8E700B588
:100550000120A7491A310880FFF7B9FF0220A449FA
:100560001A310880FFF7B3FF0120A1491831088034
:10057000FFF7ADFF02209E4918310880FFF7A7FF63
:1005800000BD00B501209A491A310880FFF79FFF8E
:10059000022097491A310880FFF799FF01209449FA
:1005A00018310880FFF793FF012091491A31088024
:1005B000FFF78DFF00BD00B501208D491A3108807D
:1005C000FFF785FF02208A4918310880FFF77FFF77
:1005D0000120874918310880FFF779FF01208449FD
:1005E0001A310880FFF773FF00BD00B50120804974
:1005F0001A310880FFF76BFF02207D49183108800F
:10060000FFF765FF01207A4918310880FFF75FFF87
:1006100077481030006800F0020038B101207449BA
:100620001A310880FFF753FF002000BD01207049F8
:100630001A310880FFF74BFF0120F6E710B503469B
:1006400008241BE001206A491A310880FFF73FFFA8
:1006500003F0800020B1022065491831088003E0D2
:10066000022063491A3108805806030EFFF72FFF56
:1006700001205F4918310880FFF729FF201EA4F1EF
:100680000101CCB2DED1012059491A31088010BDD8
:1006900010B508240023022055491831088015E0C0
:1006A0005806030E012052491A310880FFF70FFF48
:1006B00001204F4918310880FFF709FF4C481030DE
:1006C000006800F0020008B143F00103201EA4F10D
:1006D0000101CCB2E4D1012045491A310880184605
:1006E00010BD70B506460C461546FFF705FF08B964
:1006F000002070BD3046FFF7A1FFFFF776FF18B965
:10070000FFF725FF0020F4E72046FFF797FFFFF7EC
:100710006CFF2846FFF792FFFFF767FFFFF717FF11
:100720000120E6E770B504460D46FFF7E5FE08B97F
:10073000002070BD2046FFF781FFFFF756FF18B974
:10074000FFF705FF0020F4E72846FFF777FFFFF7E4
:100750004CFFFFF7D1FE611CC8B2FFF76FFFFFF738
:1007600044FFFFF795FF0646FFF725FFFFF7EFFE73
:100770003046DEE72DE9F0410746884614461D461F
:10078000012D02DA0020BDE8F081FFF7B5FE08B9BF
:100790000020F8E73846FFF751FFFFF726FF18B9AA
:1007A000FFF7D5FE0020EEE74046FFF747FFFFF7D3
:1007B0001CFFFFF7A1FE791CC8B2FFF73FFFFFF750
:1007C00014FF012607E0FFF763FF04F8010BFFF7B2
:1007D000D8FE701CC6B2AE42F5DBFFF759FF04F835
:1007E000010BFFF7E8FEFFF7B2FE0120CBE70000A8
:1007F000000402401100002010B501221E21EE204D
:10080000FFF76FFF10BD38B50020009000250024D1
:1008100015E0A02000EB4400C1B202236A46EE209E
:10082000FFF7A8FF2844C5B29DF801009DF800100D
:1008300040EA0120C24921F81400601CC4B2082C0F
:10084000E7DB082D01D1012038BD0020FCE710B501
:1008500001225821EE20FFF744FF10BD10B50A20F9
:10086000FFF737FDFFF7C8FF0320FFF732FDFFF763
:10087000CAFFFFF7ECFF10BD10B50323B14A0021FA
:10088000EE20FFF777FF10BD10B50323AE4A00211D
:10089000EE20FFF76FFF10BD10B501224821EE20BA
:1008A000FFF71FFF10BD2DE9F04F2DED088B83B032
:1008B00000260027A34800780004A249497840EAAE
:1008C0000120A04989780843A04988619E480078A2
:1008D00000049D49497840EA01209B4989780843F2
:1008E0009A49C8610846806995494989A0EB012465
:1008F0009348808800040022914909894FEAE47AEC
:10090000A1FB04CB02FB04B301FB0A334FEADC1169
:1009100041EA436110EB010842EBE3198848408843
:100920004FEAC0308649C9884FEAE47AA1FB04CB7C
:1009300002FB04B301FB0A334FEA1C2141EA0361C5
:10094000401842EB2322CDE900027D4880893246DF
:100950004FEAE471A0FB043C02FB04C200FB01204F
:100960004FEA402141EAD3504FF4FA6140187749E9
:10097000886008468068B0F5FA6F1DDA084680681E
:10098000A0F5FA656D4305EB8500461005EB850083
:100990008710084680686E4988420DDA6B48806887
:1009A00000F2DC556D43072000FB056605EB4500B2
:1009B00000EBC50007EB6007B8EB060869EBE679CA
:1009C000DDE90001C01B61EBE771CDE900015F4883
:1009D0004FF00003C169DDE9002CA1FB020A03FB13
:1009E00002A201FB0C214FEA505040EAC1224FEA1B
:1009F0006150B2EB080160EB0900420442EAD130D9
:100A000052494860084690ED010AB8EEC00ADFED91
:100A1000510A80EE201A11EE10AA504607F00DFD83
:100A200041EC1B0B9FED4C1BB0EE4B0AF0EE6B0A3A
:100A300008F006F8B0EE40AAF0EE60AA9FED480B71
:100A400053EC102B51EC1A0B07F0D6FB9FED460B25
:100A500053EC102B07F0D3FB07F0D0FC3B49486068
:100A60000846406928B1084640684969401A374934
:100A7000086003B0BDEC088BBDE8F08F10B5002016
:100A80003B4908703B48006848B1FFF7FDFEFFF79F
:100A9000DEFEFFF708FF00203649086006E0FFF79A
:100AA000EBFEFFF7F9FE01203249086010BD274830
:100AB0000068704770B5C82500242F482349C860D6
:100AC000400C08611BE00A20FFF703FCFFF7D6FF8C
:100AD0001E4840681D49C968884203DD1B484068BC
:100AE0001A49C8601948406818490969884203DAF8
:100AF0001648406815490861144840680444281E97
:100B0000A5F101018DB2DED100EE104AB8EEC00AA7
:100B1000DFED1A0A80EE201ABDEEC10A0B4880ED07
:100B2000050A4FF40040164908804FF49670FFF70D
:100B3000D0FB4FF400401249891C088070BD0000B2
:100B40007807002014000020170000205007002024
:100B500024FAFFFF80E6C54700000020965BC83FEF
:100B6000000000000000F03F000000001AE95041C2
:100B7000110000201C0000200080FFFF00004843FF
:100B800018040240B2EE0E1AF4EEC10AF1EE10FAA9
:100B900000D270479FEDBB1AC0EE811ABA48018E91
:100BA000008E401CB84A10864EF66020814206DA5C
:100BB0001046008E1146098E491C118601E04EF642
:100BC000602001EE100AB8EEC11A21EE001AF4EE10
:100BD000C11AF1EE10FA03D20120AB4981F83200BC
:100BE000A94890F83200012809D14FF47A60A7494A
:100BF0000860091D0860091D0860091D086000BF24
:100C0000C7E700B597B00121A14805F0B7FF012162
:100C1000480405F0E6FF072203219E4806F073FA18
:100C20000820119002208DF8480000208DF84A001D
:100C300003208DF8490000208DF84B0011A995483C
:100C400006F0D6F9944806F067FC9448139000200B
:100C5000ADF85000ADF852004FF48060ADF854008C
:100C60000420ADF856000020ADF8580013A98A48BA
:100C700006F0A0FC0121884806F024FD0122402155
:100C8000854806F0CCFD10208DF8400001208DF83D
:100C900041008DF842008DF8430010A804F02BFFAE
:100CA0007F4806F065FA4FF0006001907A48001D19
:100CB00002907C48039000200490122005900020B0
:100CC00006904FF4806007900020089009904FF440
:100CD00080700A904FF440300B9000200C900D90E3
:100CE0000E900F9001A96E4806F0E4FA012210213F
:100CF0006B4806F0A6FB0121694806F015FB17B00A
:100D000000BD10B5604800885F4988810846418869
:100D1000C18181880182C18841826248007861492D
:100D2000497840EA0120C0F30A005F49088008467C
:100D3000B0F90000A0F5806000EE900AF8EEE00A3D
:100D4000B0EE600AF1EE040A01F072FABDEEC00ADC
:100D500010EE100A00B24C49088052484078C0108A
:100D60005049897840EA4110C0F30A004E49488052
:100D70000846B0F90200A0F5806000EE900AF8EE97
:100D8000E00AB0EE600AF1EE040A01F051FABDEE9D
:100D9000C00A10EE100A00B23B49C8804148807872
:100DA00080114049C97840EA81003E49097940EA0A
:100DB0008120C0F30A003C4988800846B0F904004D
:100DC000A0F5806000EE900AF8EEE00AB0EE600A4E
:100DD000F1EE040A01F02CFABDEEC00A10EE100A82
:100DE00000B2294988802F48007940102D4949795F
:100DF00040EAC110C0F30A002B49C8800846B0F988
:100E00000600A0F5806000EE900AF8EEE00AB0EE71
:100E1000600AF1EE040A01F00BFABDEEC00A10EE12
:100E2000100A00B2184948801E4840790011800815
:100E300008811C484079C0F3011048810846408968
:100E4000022801D004F001FE00F004F900200E4950
:100E5000088681F8320010BD10B51449104806F01C
:100E60000DFB68B112490E4806F0D7FA0F490C483D
:100E700006F02EFB4FF480500E490880FFF741FF2B
:100E800010BD000000007A44F81600203404004031
:100E9000010020000000024000440040A086010044
:100EA00088600240B4070020CE07002000880020A0
:100EB000000800201A08024010B58AB0044601213B
:100EC000022005F08EFE0121042005F057FE0222CB
:100ED0000621FE4806F017F902220721FB4806F01A
:100EE00012F902220821F94806F00DF9022209211F
:100EF000F64806F008F94FF47070089002208DF85B
:100F0000240003208DF8250000208DF82600012004
:100F10008DF8270008A9ED4806F06AF81420ADF80E
:100F200014000020ADF8160042F210700690002068
:100F3000ADF81C008DF81E0005A9E54804F0F3FE8D
:100F40006020ADF800000020ADF80C000120ADF8E5
:100F500002006946DE4804F07BFF6946DC4804F085
:100F6000B0FF6946DA4804F0F9FF6946D84805F051
:100F70005BF80821D64805F0F8F80821D44805F0B8
:100F8000FDF80821D24805F006F90821D04805F0FF
:100F90000BF90121CE4804F031FF0121CC4804F0C7
:100FA0004BFF4FF4FA50CA4934310860091D0860FC
:100FB000091D0860091D086040F6C410FFF789F993
:100FC0004FF47A60C24934310860091D0860091D78
:100FD0000860091D086040F6C410FFF77AF90AB0EE
:100FE00010BDBC48408902280BD14FF47A60B84943
:100FF00034310860091D0860091D0860091D08607A
:1010000027E0B5484078B449097840EA012000B2A9
:10101000AF4934310860B048C078AF49897840EAB8
:10102000012000B2AA4938310860AB484079AA498A
:10103000097940EA012000B2A5493C310860A64880
:10104000C079A549897940EA012000B2A049403120
:10105000086070479F48008800F57A6000B29C499C
:10106000343108609B48408800F57A6000B2091D61
:1010700008609848808800F57A6000B2091D086011
:101080009448C08800F57A6000B2091D0860704776
:1010900010B52DED108B8F48B0F906008F498842AE
:1010A00011DC8F480068B0F5FA7F06DD01208D491C
:1010B000487000208A49086008E089480068401CA0
:1010C0008749086002E000208649487085484078DA
:1010D00030BB84488078012822D18248007818B13A
:1010E0000020804908701BE001207E4908709FEDB8
:1010F0007E0A7E4880ED270AB7EE000A7C4880ED24
:10110000000A9FED790A7B4880ED000A9FED760A80
:10111000794880ED000A9FED740A784880ED000A56
:10112000704840786F4988700846C07800287CD0A5
:1011300008460078002879D0714890ED010ADFED6B
:10114000710A80EE201A11EE104A204607F075F958
:1011500041EC1B0BB0EE4B0AF0EE6B0A07F064FBA0
:10116000B0EE409AF0EE609A654890ED000ADFED2F
:10117000650A80EE201A11EE104A204607F05DF94C
:1011800041EC1D0BB0EE4D0AF0EE6D0A07F04CFB82
:10119000B0EE40BAF0EE60BA5B4890ED000A10EE97
:1011A000101A084607F049F941EC1C0B53EC1B2BB5
:1011B00007F097F841EC1A0B53EC192B07F091F854
:1011C00041EC180B07F07CF94F49C8604C4890ED92
:1011D000010ADFED4C0A80EE201A11EE104A20467B
:1011E00007F02BF941EC1D0BB0EE4D0AF0EE6D0A45
:1011F00007F01AFBB0EE40BAF0EE60BA404890ED4E
:10120000000ADFED400A80EE201A11EE104A204657
:1012100007F013F941EC1F0BB0EE4F0AF0EE6F0A26
:1012200007F002FBB0EE40DA01E073E221E2F0EEFB
:1012300060DA364890ED090AD0ED160A30EE200A41
:1012400010EE101A084607F0F8F841EC1E0B53ECAC
:101250001D2B07F046F841EC1C0B53EC1B2B07F041
:1012600040F841EC190B284890ED030A1F48D0EDD7
:10127000210A30EE600AD0ED220A30EE600AD0ED8D
:10128000230A30EE600A10EE101A084607F0D5F86F
:1012900041EC1A0B53EC192B06F00AFF41EC180B2A
:1012A00007F00EF91A490860154890ED010ADFEDC4
:1012B000150A80EE201A11EE104A204607F0BDF8FC
:1012C00041EC1D0BB0EE4D0A24E000000008024086
:1012D00000040040F81600206517002076FDFFFF8F
:1012E000640000206000002000000000EC070020E7
:1012F0002000002024000020280000202C000020D6
:1013000088070020A34C654214090020240900200E
:10131000C0090020F0EE6D0A07F086FAB0EE40BA80
:10132000F0EE60BAFD4890ED000A5FED0A0A80EE2B
:10133000201A11EE104A204607F07FF841EC1F0BEF
:10134000B0EE4F0AF0EE6F0A07F06EFAB0EE40DA38
:10135000F0EE60DAF24890ED090AD0ED160A30EEB0
:10136000200A10EE101A084607F067F841EC1E0B31
:1013700053EC1D2B06F0B5FF41EC1C0B53EC1B2B63
:1013800006F0AFFF41EC190BE64890ED030AE64882
:10139000D0ED210A30EE200AD0ED220A30EE600AAC
:1013A000D0ED230A30EE200A10EE101A084607F09E
:1013B00044F841EC1A0B53EC192B06F079FE41EC82
:1013C000180B07F07DF8D9494860D44890ED010A20
:1013D0005FED340A80EE201A11EE104A204607F025
:1013E0002CF841EC1D0BB0EE4D0AF0EE6D0A07F043
:1013F0001BFAB0EE40BAF0EE60BAC84890ED000AB1
:101400005FED400A80EE201A11EE104A204607F0E8
:1014100014F841EC1F0BB0EE4F0AF0EE6F0A07F024
:1014200003FAB0EE40DAF0EE60DABD4890ED090A5A
:10143000D0ED160A30EE200A10EE101A084606F01B
:10144000FCFF41EC1E0B53EC1D2B06F04AFF41EC58
:101450001C0B53EC1B2B06F044FF41EC190BB1485D
:1014600090ED030AB048D0ED210A30EE200AD0ED0D
:10147000220A30EE200AD0ED230A30EE600A10EE88
:10148000101A084606F0D9FF41EC1A0B53EC192B41
:1014900006F00EFE41EC180B07F012F8A349886025
:1014A0009E4890ED010A5FED690A80EE201A11EE68
:1014B000104A204606F0C1FF41EC1D0BB0EE4D0A6C
:1014C000F0EE6D0A07F0B0F9B0EE40BAF0EE60BA97
:1014D000924890ED000A5FED750A80EE201A11EE39
:1014E000104A204606F0A9FF41EC1F0BB0EE4F0A50
:1014F000F0EE6F0A07F098F9B0EE40DAF0EE60DA3D
:10150000874890ED090AD0ED160A30EE200A10EE59
:10151000101A084606F091FF41EC1E0B53EC1D2BF0
:1015200006F0DFFE41EC1C0B53EC1B2B06F0D9FE42
:1015300041EC190B7B4890ED030A7B48D0ED210A62
:1015400030EE600AD0ED220A30EE200AD0ED230AF8
:1015500030EE200A10EE101A084606F06EFF41EC3D
:101560001A0B53EC192B06F0A3FD41EC180B06F0F7
:10157000A7FF6E49C860084690ED000ADFED6C0ACF
:10158000B4EEE00AF1EE10FA02D29FED690A0FE024
:10159000664890ED000ADFED670AB4EEE00AF1EE6E
:1015A00010FA02DD9FED630A02E0604890ED000A48
:1015B0005E4880ED000A90ED010ADFED5D0AB4EEB1
:1015C000E00AF1EE10FA02D29FED590A0FE05748F7
:1015D00090ED010ADFED570AB4EEE00AF1EE10FAE1
:1015E00002DD9FED540A02E0504890ED010A4F4899
:1015F00080ED010A90ED020ADFED4D0AB4EEE00A3B
:10160000F1EE10FA02D29FED4A0A0FE0474890ED42
:10161000020ADFED480AB4EEE00AF1EE10FA02DD4C
:101620009FED440A02E0414890ED020A3F4880EDF8
:10163000020A90ED030ADFED3E0AB4EEE00AF1EE95
:1016400010FA02D29FED3A0A0FE0384890ED030AF3
:10165000DFED380AB4EEE00AF1EE10FA02DD9FED9C
:10166000350A02E0314890ED030A304880ED030A64
:1016700010E01FEDE30A2D4880ED000A1FEDE60A99
:1016800080ED010A1FEDE80A80ED020A1FEDEA0A6B
:1016900080ED030A2548D0ED000A9FED270AB1EE40
:1016A000001A01EE200ABDEEC00A10EE100A00B2C8
:1016B000224908601D48D0ED010A9FED1F0AB1EED6
:1016C000001A01EE200ABDEEC00A10EE100A00B2A8
:1016D000091D08601548D0ED020A9FED170AB1EE0A
:1016E000001A01EE200ABDEEC00A10EE100A00B288
:1016F000091D08600D48D0ED030A9FED0F0AB1EEF9
:10170000001A01EE200ABDEEC00A10EE100A00B267
:10171000091D0860BDEC108B10BD0000880700207B
:101720002409002014090020EC070020C009002033
:101730000000A0420080894400007A453404004043
:1017400010B5044600BF4021B84806F096F80028BE
:10175000F9D02146B54805F0E0FF10BD00B597B0BF
:101760000121B34805F00AFA0121080505F039FA0C
:1017700008220C21AF4805F0C6FC08220221AE4821
:1017800005F0C1FC4FF48050119002208DF8480004
:1017900000208DF84A0003208DF8490000208DF8C4
:1017A0004B0011A9A34805F023FC0420119002204E
:1017B0008DF8480000208DF84A0003208DF849007C
:1017C00000208DF84B0011A99B4805F011FC9748AB
:1017D00005F0A2FE4FF4165013900020ADF8500013
:1017E000ADF85200ADF854000C20ADF856000020C2
:1017F000ADF8580013A98D4805F0DCFE01218B4897
:1018000005F060FF6420FEF764FDB520FFF798FF48
:101810006220FFF795FF0620FFF792FF0020FFF7F9
:101820008FFF1420FFF78CFF0020FFF789FF0120B6
:10183000FFF786FF0020FFF783FF0020FFF780FF00
:101840000020FFF77DFFD020FFF77AFF0820FFF789
:1018500077FF0020FFF774FF0020FFF771FF0020E3
:10186000FFF76EFFC220FFF76BFF0120FFF768FF55
:101870000020FFF765FF0720FFF762FF0020FFF75A
:101880005FFF0320FFF75CFF0020FFF759FF0020F8
:10189000FFF756FF0020FFF753FF0020FFF750FF30
:1018A0000020FFF74DFFC020FFF74AFF7E20FFF723
:1018B00047FF6420FEF70DFD00215C4805F002FFA4
:1018C0005A4805F029FE4FF4E13013900020ADF89E
:1018D0005000ADF85200ADF854000C20ADF85600A1
:1018E0000020ADF8580013A9504805F063FE01210F
:1018F0004E4805F0E7FE6420FEF7EBFCB520FFF74D
:101900001FFF6220FFF71CFF0620FFF719FF0820CA
:10191000FFF716FF0620FFF713FF0020FFF710FF69
:101920006420FFF70DFF0020FFF70AFF0120FFF7FB
:1019300007FF0020FFF704FF0120FFF701FF002051
:10194000FFF7FEFE7A20FFF7FBFE1220FFF7F8FEFE
:101950006420FEF7BEFC012240F22441334805F02A
:1019600067FF01224021314805F059FF35208DF8ED
:10197000400003208DF8410001208DF842008DF8D1
:10198000430010A804F0B7F82C4805F0F1FB4FF025
:10199000006001902548001D029029480390002016
:1019A00004904FF400600590002006904FF4806092
:1019B00007900020089009904FF480700A90400230
:1019C0000B9000200C900D900E900F9001A91B48D9
:1019D00005F070FC0121194805F0A6FC17B000BD08
:1019E00010B540F22441114805F05DFFE0B100213F
:1019F000124805F099FC062000F026F8114880ED09
:101A0000000A0A480488848800F062FF4FF40060EE
:101A10000A491039486140F22441044805F07AFF30
:101A20000121064805F080FC10BD00000050004078
:101A30000C00200000080240000C02401060024030
:101A4000C80C00206800002010B5044604EB4400D8
:101A5000204901EB800090ED000A04EB440001EB0B
:101A6000800080ED010AFEF710FC00EE100AB8EECF
:101A7000400ADFED190A80EE201A04EB44001549F4
:101A800001EB800080ED001A04EB440001EB8000C4
:101A900090ED000A04EB440001EB8000D0ED010A58
:101AA00030EE600A04EB440001EB800080ED020A96
:101AB00004EB440001EB800090ED020A10BD10B56C
:101AC000002404E02046FFF7BFFF601CC4B20A2CCC
:101AD000F8DB10BDD0090020002474491CB5012199
:101AE000042005F04BF841F23000009001208DF801
:101AF000040000208DF8060003208DF805006946DB
:101B0000074805F075FA1020054918310880202093
:101B1000891C0880C001891E08801CBD7047704761
:101B2000000802409FED960A964880ED000A9FED5E
:101B3000960A80ED010AB0EE000A80ED020A9FEDE0
:101B4000900A80ED030A9FED900A80ED040AB0EE42
:101B5000000A80ED050AB7EE000A80ED060A9FED47
:101B60008B0A80ED070A9FED890A80ED080A9FED38
:101B7000880A80ED090A9FED850A80ED0A0A9FED2B
:101B8000850A80ED0B0A9FED820A80ED0C0A9FED1D
:101B90007F0A80ED0D0A9FED7F0A80ED0E0A9FED12
:101BA0007E0A80ED0F0A9FED790A80ED100A9FED05
:101BB0007B0A80ED110A9FED7A0A7A4880ED240AAB
:101BC0009FED790A794880ED0A0AB0EE040A80EDAB
:101BD000170AB7EE000A80ED240A9FED750A80ED22
:101BE000250AB2EE040A80ED1F0A9FED720A7248C0
:101BF00080ED060A9FED6F0A80ED120A9FED650ADF
:101C000080ED080A9FED630A80ED140A9FED6B0AD0
:101C100080ED1E0A9FED690A80ED2A0A9FED680A91
:101C200080ED1F0A9FED660A80ED2B0A704770B5A4
:101C3000FF250026002403F0F0FC05463E2D06DDBE
:101C400003F0E6FC08B1002501E0002070BD5D480E
:101C500000EBC52606F00CF85B48B0F920202146C1
:101C6000631C9CB2304603F003FD08B90020EDE789
:101C70005548B0F922202146631C9CB2304603F03F
:101C8000F7FC08B90020E1E74F48B0F924202146CD
:101C9000631C9CB2304603F0EBFC08B90020D5E78A
:101CA0004948B0F926202146631C9CB2304603F017
:101CB000DFFC08B90020C9E74348B0F928202146D5
:101CC000631C9CB2304603F0D3FC08B90020BDE78A
:101CD0003D48B0F92A202146631C9CB2304603F0EF
:101CE000C7FC08B90020B1E705F0CFFF0120ADE740
:101CF00070B5FF250026002403F08FFC05460DB9C2
:101D0000002070BD681EC5B22E4800EBC5262146D6
:101D1000621C94B2304603F0C6FC00B22A49088423
:101D20002146621C94B2304603F0BDFC01B2264845
:101D300041842146621C94B2304603F0B4FC01B2E7
:101D4000214881842146621C94B2304603F0ABFCEA
:101D500000B21D49C8842146621C94B2304603F08B
:101D6000A2FC01B2184801852146621C94B230469B
:101D700003F099FC01B2144841850120C1E700003D
:101D8000CDCC4C3F480A0020AE47E13D00000000AA
:101D9000CDCCCC3E0AD7A33C9A99193F295C0F3D84
:101DA0008FC2753DEC0700203333B33E2409002079
:101DB000CDCCCC3D295C8F3D900A00209A99993E6C
:101DC000CDCC4C3E00000E0800070020B0EE401ABB
:101DD000F0EE601AB5EEC01AF1EE10FA07D1F5EE8A
:101DE000C01AF1EE10FA02D19FEDF90AA5E0B5EEA6
:101DF000C01AF1EE10FA02DDB0EE414A01E0B1EE98
:101E0000414AB0EE443AF5EEC01AF1EE10FA02DDA6
:101E1000B0EE614A01E0B1EE614AF0EE442AB4EE60
:101E2000E23AF1EE10FA02D283EE222A01E082EECB
:101E3000832A9FEDE84AB4EEC42AF1EE10FA02D2EA
:101E4000F0EE420A2DE0DFEDE44AB6EE004A12EE73
:101E5000244AF0EE443ABDEEE34A14EE100A04EED2
:101E6000100AB8EEC44A33EEC44AF0EE443ADB49F5
:101E700001EB800191ED004AF0EE440AD74A411C83
:101E800002EB810191ED004A114601EB8001D1ED99
:101E9000004A74EE644AB0EE604A04EEA34AF0EEE3
:101EA000440AF4EEC32AF1EE10FA20DDF5EEC01A72
:101EB000F1EE10FA0ADBB5EEC01AF1EE10FA02DB11
:101EC000B0EE600A39E0B1EE600A36E09FEDC40A78
:101ED000B5EEC01AF1EE10FA04DB30EE604AB0EE57
:101EE000440A2AE030EEC04AB0EE440A25E0B5EEDE
:101EF000C01AF1EE10FA10DB9FEDBA0AF5EEC01A27
:101F0000F1EE10FA04DB30EE604AB0EE440A14E061
:101F100030EE204AB0EE440A0FE09FEDB30AF5EE32
:101F2000C01AF1EE10FA04DB30EE204AB0EE440A9B
:101F300003E030EE604AB0EE440A704700B5B0EE00
:101F4000405AF0EE605AF0EE450AB0EE650AFFF72F
:101F50003DFF00BDF0EE400A20EEA00A7047B0EE53
:101F6000401AB7EE080AB0EE402AB6EE000A21EE9B
:101F7000000AF0EE401AF0EE410A10EE900A9B497A
:101F8000A1EB600000EE900A61EEA02AB7EE080A0D
:101F900002EEE00A20EE200AF0EE400A61EEA02AEE
:101FA000B7EE080A02EEE00A20EE200AF0EE400A40
:101FB00021EE200A704710B52DED0A8BB0EE409A45
:101FC000F0EE609A9FED8A0B53EC102B51EC190B3D
:101FD00006F046FA18D29FED880B53EC102B51EC0B
:101FE000190B06F00CF941EC1B0B9FED850B53EC24
:101FF000102B06F05DF841EC1A0B53EC192B06F090
:10200000FEF841EC180B17E09FED7B0B53EC102B07
:1020100051EC190B06F0F3F841EC1B0B9FED780B1C
:1020200053EC102B06F0E8F841EC1A0B53EC192B8B
:1020300006F0E5F841EC180B9FED6D0B53EC102BFF
:1020400051EC180B06F00CFA20D29FED6F0B53ECFD
:10205000102B51EC180B06F02BF841EC1C0B9FEDEC
:102060006C0B53EC102B06F0CAF841EC1B0B9FEDE8
:10207000660B53EC102B06F01BF841EC1A0B53ECDB
:10208000182B06F0BCF841EC180B1FE09FED5E0B1F
:1020900053EC102B51EC180B06F0ABF841EC1C0B79
:1020A0009FED5D0B53EC102B06F0A9F841EC1B0BD8
:1020B0009FED550B53EC102B05F0FAFF41EC1A0B7A
:1020C00053EC182B06F09BF841EC180BB0EE480AC5
:1020D000F0EE680ABDEC0A8B10BD10B52DED068B35
:1020E000B0EE408AF0EE608A01249FED4D0B53EC78
:1020F000102B51EC180B06F0CBF90AD89FED480BCA
:1021000053EC102B51EC180B06F073F841EC180B44
:10211000A41E204606F054F941EC190BB0EE480A13
:10212000F0EE680AFFF747FFB0EE40AAF0EE60AAB3
:1021300053EC192B51EC1A0B06F061F841EC100B23
:10214000BDEC068B10BD10B52DED088BB0EE408AAE
:10215000F0EE608A01249FED340B53EC102B51EC10
:10216000180B05F0A5FF41EC180B9FED2D0B53EC60
:10217000102B51EC180B06F08BF90AD8A41E9FED1A
:10218000280B53EC102B51EC180B06F032F841ECF5
:10219000180B204606F014F941EC1A0BB0EE480A71
:1021A000F0EE680AFFF799FFB0EE40BAF0EE60BAC1
:1021B00053EC1A2B51EC1B0B06F021F841EC190BD8
:1021C00006F07EF900EE100ABDEC088B10BD000091
:1021D000000000008180803B000080436C000020F4
:1021E000DB0F4940DB0FC93FDB0FC9BFDF59375F4A
:1021F0000000000000000000000000602FF0D93F48
:1022000000000060305FF43F000000000000F03F7D
:10221000000000C0CCCCCCBF000000C0CCCCCC3F78
:10222000F1D4C853FB210940F1D4C853FB21F93F35
:10223000B0EE401AB5EEC01AF1EE10FA0BDD31EE39
:10224000600AB5EEC00AF1EE10FA0FD25FED201A67
:10225000B0EE610A0AE031EE200AB5EEC00AF1EEF6
:1022600010FA03DD5FED261AB0EE610A7047F0EE5A
:10227000400A9FED0D0AF4EEC00AF1EE10FA04DDFB
:102280009FED0A0A30EEC00A70479FED090AF4EE8E
:10229000C00AF1EE10FA04D29FED040A30EE800A73
:1022A000F2E7B0EE600AEFE7000034430000B44309
:1022B000000034C3F0B502460B460026002400217E
:1022C000002502B10BB90020F0BD144613E0701CCC
:1022D00086B22546194606E008782F78B84200D025
:1022E00004E06D1C491C08780028F5D100BF08786F
:1022F00000B903E0641C20780028E8D100BF304614
:10230000E2E72DE9F04100270025F6A1F748FFF7A5
:10231000D1FF8046B8F1000F41D000BFF3484044E0
:10232000861D00BF16F8014B2C2C03D1781CC7B2B8
:1023300000252EE0092F27D2DFE807F005080B0F54
:1023400012161A1E2200EA4844551EE0E848C472DC
:102350001BE0E7480C30445517E0E548847514E06D
:10236000E3481730445510E0E14880F822400CE083
:10237000DF482330445508E0DD482930445504E067
:10238000DB482F30445500E000BF00BF681CC5B2D9
:1023900000BF00BF2A2C02D0D6488642C2D3BDE877
:1023A000F08110B52DED108B88B0D148407B3038CE
:1023B000CF49097B303901EB810100EB410084B248
:1023C000CB49497DA1F1300005F0FAFF41EC1A0B31
:1023D0009FEDC90B53EC102B05F011FF41EC190BCD
:1023E000C349097DA1F1300005F0EAFF41EC1B0B68
:1023F0009FEDC30B53EC102B05F001FFCDE9040159
:10240000BB49C97CA1F1300005F0DAFF41EC1D0B9E
:102410009FEDBD0B53EC102B05F0F1FE41EC1B0BB7
:10242000B349897CA1F1300005F0CAFF41EC1E0BD5
:102430009FEDB70B53EC102B05F0E1FE41EC1D0BAB
:10244000AB49497CA1F1300005F0BAFF41EC1F0B0C
:102450009FEDB10B53EC102B05F0D1FECDE900013F
:10246000A349C97B3039A24A927B303A02EB8202FF
:1024700001EB420005F0A4FF41EC1E0B9DED000BAB
:1024800053EC102B05F014FE53EC1D2BCDE902018B
:102490009DED020B51EC100B05F00AFE41EC1C0BFC
:1024A00053EC1B2B05F004FE41EC1A0B9DED040BC5
:1024B00053EC102B05F0FCFD53EC192BCDE9060174
:1024C0009DED060B51EC100B05F0F2FD41EC180BE5
:1024D0009FED930B53EC102B51EC180B05F001FF03
:1024E00041EC180B204605F07CFF41EC190B53EC36
:1024F000182B05F0DDFD41EC180BB0EE480AF0EEAC
:10250000680A08B0BDEC108B10BD10B52DED108B16
:1025100088B07748C07D3038642110FB01F17448E1
:10252000007E303800EB800001EB40017048407EB7
:102530003038084484B26E4991F82110A1F130007E
:1025400005F03EFF9FED6C0B53EC102B05F057FE92
:1025500041EC190B664991F82010A1F1300005F00B
:102560002FFF9FED670B53EC102B05F048FECDE9D4
:1025700004015F49C97FA1F1300005F021FF9FED03
:10258000620B53EC102B05F03AFE41EC1B0B584943
:10259000897FA1F1300005F013FF9FED5D0B53EC37
:1025A000102B05F02CFE41EC1D0B5149497FA1F188
:1025B000300005F005FF9FED580B53EC102B05F094
:1025C0001EFECDE900014A49C97E3039484A927E53
:1025D000303A02EB820201EB420005F0F1FE9DED84
:1025E000000B53EC102B05F063FD53EC1D2BCDE9D4
:1025F00002019DED020B51EC100B05F059FD53EC5F
:102600001B2B05F055FD9DED040B53EC102B05F035
:102610004FFD53EC192BCDE906019DED060B51EC56
:10262000100B05F045FD41EC180B9FED3D0B53ECF5
:10263000102B51EC180B05F054FE41EC180B204602
:1026400005F0CFFE53EC182B05F032FD41EC180BD2
:10265000B0EE480AF0EE680A08B0BDEC108B10BD71
:1026600070B52DED068B00259FED2F0BB0EE408A47
:10267000F0EE608A002429E01D482330005D2E28FA
:102680001CD01B482330005DC0B119492331095DBE
:10269000A1F1300005F094FE41EC190B9FED240BE5
:1026A00053EC102B51EC180B05F0A9FD41EC1A0B63
:1026B00053EC192B05F0FCFC41EC180B0C482330B3
:1026C000005D2E2800D12546601CC4B2062CD3DB49
:1026D000012D31D0022D3AD0032D43D0042D57D1F6
:1026E0004BE0000024474E524D432C00C80C002004
:1026F000F80B0020C8140020F168E388B5F8E43E28
:102700002D431CEBE2361A3FFCA9F1D24D62503F3B
:102710007B14AE47E17A843F9A9999999999B93F88
:102720000000000000004E4000000000000000001B
:1027300000000000000024409FEDFE0B53EC102B26
:1027400051EC180B05F0CDFD41EC180B21E09FED8D
:10275000FB0B53EC102B51EC180B05F0C2FD41ECB8
:10276000180B16E09FEDF70B53EC102B51EC180BE8
:1027700005F0B7FD41EC180B0BE01FED130B53EC0C
:10278000102B51EC180B05F0ACFD41EC180B00E0E0
:1027900000BF00BF9FEDED0B53EC102B51EC180B5D
:1027A00005F02DFD41EC190B9FEDEA0B53EC102BBE
:1027B00005F097FD41EC180BB0EE480AF0EE680A00
:1027C000BDEC068B70BD70B52DED068B00251FEDA1
:1027D0002A0BB0EE408AF0EE608A002425E0DF4844
:1027E000005D2E281AD0DD48005DB8B1DB49095DD7
:1027F000A1F1300005F0E4FD41EC190B1FED340BA5
:1028000053EC102B51EC180B05F0F9FC41EC1A0BB2
:1028100053EC192B05F04CFC41EC180BCF48005D34
:102820002E2800D12546601CC4B2062CD7DB012D12
:1028300006D0022D0FD0032D18D0042D2CD120E06E
:102840009FEDBC0B53EC102B51EC180B05F049FD20
:1028500041EC180B21E09FEDB90B53EC102B51EC20
:10286000180B05F03EFD41EC180B16E09FEDB50B83
:1028700053EC102B51EC180B05F033FD41EC180B09
:102880000BE01FED550B53EC102B51EC180B05F022
:1028900028FD41EC180B00E000BF00BF9FEDB00B1E
:1028A00053EC102B51EC180B05F0F2FD09D29FED03
:1028B000AE0B53EC102B51EC180B05F09AFC41ECCD
:1028C000180BB0EE480AF0EE680ABDEC068B70BD3E
:1028D00010B52DED068BFFF714FDFFF762FDA44840
:1028E00080ED000BFFF711FEA14880ED020BFFF712
:1028F000B7FE9F4880ED180BFFF765FF9C4880ED01
:102900001A0B90ED1A1BB0EE410AF0EE610A9FED32
:10291000991B53EC112B51EC100B05F0E2FC41EC30
:102920001A0BB0EE4A0AF0EE6A0A05F07DFFB0EE2F
:10293000409AF0EE609A8E4890ED181BB0EE410A76
:10294000F0EE610A53EC102B51EC190B05F057FC1B
:1029500041EC180B05F0B4FD85498867084690EDF9
:102960001A1BB0EE410AF0EE610A9FED821B53EC98
:10297000112B51EC100B05F0B4FC41EC1A0BB0EE2E
:102980004A0AF0EE6A0A06F083FEB0EE409AF0EED4
:10299000609A774890ED181BB0EE410AF0EE610A9C
:1029A00053EC102B51EC190B05F029FC41EC180BE2
:1029B00005F086FD6E49C86768482938C07A412805
:1029C00035D1084690F8980080B3084690ED042B66
:1029D000B0EE420AF0EE620A90ED002BB0EE421A21
:1029E000F0EE621A53EC102B51EC110B05F001FCC8
:1029F0005F4AC2E90801104690ED062BB0EE420A8C
:102A0000F0EE620A90ED022BB0EE421AF0EE621A7E
:102A100053EC102B51EC110B05F0EBFB544AC2E9BF
:102A20000A014FF480505549088005E0FFE74FF454
:102A300080505249891E08804D4890ED001BB0EE31
:102A4000410AF0EE610A1FEDC81B53EC112B51EC4B
:102A5000100B05F005FD25D0454890ED021BB0EEAA
:102A6000410AF0EE610A1FEDD01B53EC112B51EC23
:102A7000100B05F0F5FC15D038482938C07A4128EC
:102A800010D13B4890F8980060B9394890ED000BA0
:102A900080ED040B90ED020B80ED060B0120344914
:102AA00081F89800BDEC068B10BD1D2017E0411E7B
:102AB000334A02EBC10191ED002B114601EBC0013D
:102AC00081ED002B411E2F4A02EBC10191ED002B3D
:102AD000114601EBC00181ED002B411EC8B2002858
:102AE000E5DC274981ED000B264981ED001B70478D
:102AF0002DE9F0412DED0E8BB0EE408A9FED220ABC
:102B0000F0EE408A9FED200A10EE104A9FED1E0A5B
:102B100010EE105A9FED1C0A10EE106A144890ED4A
:102B2000001BB0EE410AF0EE610A9FED121B53EC60
:102B3000112B2BE0000000000088C34000000000C3
:102B400000408F400000000000005940000000607D
:102B500066266740000000C0CCCC0C40210C002051
:102B60000000000000806640000000000080764009
:102B7000580B00200000006066A64C401A08024076
:102B8000C8140020B81500200000000051EC100B04
:102B900005F0A7FB41EC1B0BB0EE4B0AF0EE6B0A05
:102BA00005F042FEB0EE409AF0EE609AFE4890EDDD
:102BB0000A1BB0EE410AF0EE610A9FEDFC1B53ECDC
:102BC000112B51EC100B05F01AFB41EC1A0B53ECD6
:102BD000192B05F014FBF74AC2E91A01F24890EDEF
:102BE000081BB0EE410AF0EE610A9FEDF01B53ECBA
:102BF000112B51EC100B05F002FBEE4A7832C2E9C2
:102C00000201EC4890ED202BB0EE421AF0EE621A71
:102C100090ED1A2BB0EE420AF0EE620AFFF745FF84
:102C2000B3EE0D0A28EE000A10EE101A084605F061
:102C300004FC41EC190BE04890ED3A2BB0EE420A4F
:102C4000F0EE620ADB4890ED1A2BB0EE421AF0EE7D
:102C5000621A53EC102B51EC110B05F0CAFA41EC3F
:102C60001A0B53EC192B05F03CFBD24AC2E91C01AC
:102C7000B3EE0D0A28EE000A10EE101A084605F011
:102C8000DCFB41EC190BCD4890ED3A2BB0EE420A3B
:102C9000F0EE620AC74890ED202BB0EE421AF0EE3B
:102CA000621A53EC102B51EC110B05F0A2FA41EC17
:102CB0001A0B53EC192B05F014FBBE4A7832C2E90B
:102CC0000401BF4890ED0E0ABE48D0ED000A20EE88
:102CD000200ABB48D0ED0F0ABB4890ED001A00EE69
:102CE000810AB748D0ED100AB84890ED001A00EEFE
:102CF000810ADFEDB70A20EE200ADFEDB60A80EE8A
:102D0000201A11EE104AAE4890ED0E0AB248D0EDEE
:102D1000000A20EE200AAA48D0ED0F0AAF4890ED35
:102D2000001A00EE810AA648D0ED100AAC4890EDDA
:102D3000001A10EEC10ADFEDA60A20EE200ADFED30
:102D4000A50A80EE201AF0EE418AA64890ED020A0C
:102D5000DFEDA50A80EE201A11EE107A384605F054
:102D60006CFB41EC1E0BB0EE4E0AF0EE6E0A06F064
:102D70008FFCB0EE40CAF0EE60CA204605F05DFB65
:102D800041EC1D0B53EC1C2B05F039FA41EC1A0BEE
:102D9000944890ED020ADFED940A80EE201A11EEBD
:102DA000107A384605F049FB41EC1E0BB0EE4E0A96
:102DB000F0EE6E0A05F038FDB0EE40CAF0EE60CAE3
:102DC00018EE900A05F039FB41EC1D0B53EC1C2B5F
:102DD00005F015FA41EC1B0B53EC1A2B05F068F9C2
:102DE00041EC190B05F06CFB05467E4890ED020A9C
:102DF000DFED7D0A80EE201A11EE107A384605F0DC
:102E00001CFB41EC1E0BB0EE4E0AF0EE6E0A05F014
:102E10000BFDB0EE40CAF0EE60CA204605F00DFB97
:102E200041EC1D0B53EC1C2B05F0E9F941EC1A0B9E
:102E30006C4890ED020ADFED6C0A80EE201A11EE6C
:102E4000107A384605F0F9FA41EC1E0BB0EE4E0A46
:102E5000F0EE6E0A06F01CFCB0EE40CAF0EE60CA5E
:102E6000B1EE680A10EE100A05F0E7FA41EC1D0B0E
:102E700053EC1C2B05F0C3F941EC1B0B53EC1A2B44
:102E800005F016F941EC190B05F01AFB06465748F8
:102E900090ED120ADFED540A80EE201A11EE107A3E
:102EA000384605F0CAFA41EC1D0BB0EE4D0AF0EEC3
:102EB0006D0A06F0EDFBB0EE40BAF0EE60BA3046B7
:102EC00005F0BBFA41EC1C0B53EC1B2B05F097F9FA
:102ED00041EC190B454890ED120ADFED430A80EEF4
:102EE000201A11EE107A384605F0A7FA41EC1D0BB6
:102EF000B0EE4D0AF0EE6D0A05F096FCB0EE40BA69
:102F0000F0EE60BA284605F098FA41EC1C0B53EC41
:102F10001B2B05F074F941EC1A0B53EC192B05F03F
:102F200068F9244A03C2314890ED120ADFED2E0AF7
:102F300080EE201A11EE107A384605F07EFA41EC48
:102F40001D0BB0EE4D0AF0EE6D0A05F06DFCB0EE13
:102F500040BAF0EE60BA304605F06FFA41EC1C0B57
:102F600053EC1B2B05F04BF941EC190B1F4890ED6E
:102F7000120ADFED1D0A80EE201A11EE107A384693
:102F800005F05BFA41EC1D0BB0EE4D0AF0EE6D0A58
:102F900006F07EFBB0EE40BAF0EE60BA284605F0CF
:102FA0004CFA41EC1C0B23E0580B00200000008081
:102FB00019976541380C0020C8140020B81500206E
:102FC000C40500203C0000204000002044000020F8
:102FD0000000754400008045480000204C0000209F
:102FE000500000208807002033336542000700208E
:102FF00053EC1B2B05F003F941EC1A0B53EC192B86
:1030000005F056F8FE4AC2E9060118EE100A05F06E
:1030100014FA41EC1D0BFA4890ED001BB0EE410A8A
:10302000F0EE610A53EC102B51EC1D0B05F0E7F8A4
:1030300041EC1C0BF24890ED0C1BB0EE410AF0EE97
:10304000610A53EC102B51EC1C0B05F031F841ECEC
:103050001B0B9FEDEC0B53EC102B05F0D0F841EC63
:10306000190BE74890ED1C1BB0EE410AF0EE610A27
:1030700053EC102B9FEDE51B51EC110B05F0BFF845
:1030800041EC1A0B53EC192B05F012F8DC4AC2E99B
:103090000C0118EE100A05F0D0F941EC190BD848D4
:1030A00090ED061BB0EE410AF0EE610A53EC102BD6
:1030B00051EC190B05F0A3F841EC1D0BD04890ED35
:1030C000121BB0EE410AF0EE610A53EC102B51ECEA
:1030D0001D0B04F0EDFF41EC1C0B9FEDCA0B53ECF4
:1030E000102B05F08CF841EC1A0BC54890ED221B13
:1030F000B0EE410AF0EE610A53EC102B9FEDC31BBA
:1031000051EC110B05F07BF841EC1B0B53EC1A2B27
:1031100004F0CEFFBA4AC2E91201BDEC0E8BBDE845
:10312000F08110B52DED068BBA48007888287CD147
:10313000B8484078A12878D1B649C9780906B54A77
:10314000127941EA0241B34A527941EA0221B14A75
:10315000927941EA020005F033F941EC180B9FED3A
:10316000AE0B53EC102B05F0BCF8AD4AC2E90C01D4
:10317000104690ED002BB0EE420AF0EE620A90EDA0
:103180000C2BB0EE421AF0EE621A53EC102B51ECFD
:10319000110B05F02EF841EC180B1FED7C0B53ECD6
:1031A000102B05F02CF89E4AC2E912019949C97901
:1031B0000906984A127A41EA0241964A527A41EA4D
:1031C0000221944A927A41EA020005F0F9F841ECB2
:1031D000180B9FED910B53EC102B05F082F8904AE1
:1031E000C2E90E01104690ED001BB0EE410AF0EE70
:1031F000610A9FED8C1B53EC112B51EC100B05F069
:1032000070F841EC1A0BB0EE4A0AF0EE6A0A05F0CB
:103210000BFBB0EE408AF0EE608A814890ED022B05
:10322000B0EE420AF0EE620A00E01CE090ED0E2BD8
:10323000B0EE421AF0EE621A53EC102B51EC110B67
:1032400004F0D7FF41EC1A0B1FEDA80B53EC102B29
:1032500004F0D5FF41EC190B53EC182B04F0CFFF11
:103260006F4AC2E91001BDEC068B10BD10B52DED03
:10327000108B84B0B0EE408A9FED6C0AF0EE408A6D
:103280009FED6A0AB0EE40FA6248007888287DD146
:1032900060484078A128FAD15E48C07D012804D05A
:1032A00002280BD003281BD111E09FED600AF0EE3D
:1032B000408A9FED5E0AB0EE40FA1AE09FED5C0A8C
:1032C000F0EE408A9FED5B0AB0EE40FA11E09FED10
:1032D000580AF0EE408A9FED580AB0EE40FA08E036
:1032E0009FED520AF0EE408A9FED500AB0EE40FA90
:1032F00000BF00BF514890ED000AB4EEE80AF1EEBD
:1033000010FA08DD90ED000AF2EE040A30EE600AD1
:1033100080ED000A0FE0494890ED000AB4EEE80A9B
:10332000F1EE10FA07D290ED000AF2EE040A30EE48
:10333000200A80ED000A424890ED000AB4EECF0A60
:10334000F1EE10FA08DD90ED000AF2EE040A30EE1C
:10335000600A80ED000A0FE0394890ED000AB4EEF3
:10336000CF0AF1EE10FA07D290ED000AF2EE040A4D
:1033700030EE200A80ED000A324890ED120A5FED2F
:10338000E60A80EE201A11EE104A00E0C6E320465D
:1033900005F053F841EC1D0BB0EE4D0AF0EE6D0A4E
:1033A00006F076F9B0EE40BAF0EE60BA2648B0F911
:1033B000020000EE100AB8EEC00ADFED240A60EE4B
:1033C000200A9FED231A80EE810A20EE080A10EEF3
:1033D000104A204605F031F841EC1C0B53EC1B2B36
:1033E00004F00DFF41EC1E0B164890ED120ADFEDC4
:1033F000190A80EE201A11EE104A20462CE0000037
:10340000380C0020000000A09999E93F000000A0BE
:103410009999C93FD816002000000000D0126341DE
:10342000580B00200000006066A64C400000000021
:103430000000FA440000FAC400007AC570040020BD
:103440007404002000070020F816002000007A43D2
:10345000000025443333654204F0EFFF41EC1D0BBF
:10346000B0EE4D0AF0EE6D0A05F0DEF9B0EE40BAAE
:10347000F0EE60BAFE48B0F9000000EE100AB8EEB7
:10348000C00A5FED0E0A60EE200A1FED0F1A80EEF3
:10349000810A20EE080A10EE104A204604F0CDFF03
:1034A00041EC1C0B53EC1B2B04F0A9FE41EC1A0B56
:1034B00053EC1E2B04F09DFE41EC190BED4890EDF2
:1034C000221BB0EE410AF0EE610A53EC102B51ECD6
:1034D000190B04F0EDFDE74A6032C2E90A01E64843
:1034E00090ED120A5FED250A80EE201A11EE104AC7
:1034F000204604F0A2FF41EC1D0BB0EE4D0AF0EEA9
:103500006D0A06F0C5F8B0EE40BAF0EE60BAD848E1
:10351000B0F9000000EE100AB8EEC00A5FED350AFF
:1035200060EE200A1FED361A80EE810A20EE080AAE
:1035300010EE104A204604F080FF41EC1C0B53ECC7
:103540001B2B04F05CFE41EC190BCB4890ED120AEA
:103550005FED400A80EE201A11EE104A204604F07A
:103560006CFF41EC1D0BB0EE4D0AF0EE6D0A05F05C
:103570005BF9B0EE40BAF0EE60BABD48B0F90200B7
:1035800000EE100AB8EEC00A5FED500A60EE200AA5
:103590001FED511A80EE810A20EE080A10EE104A43
:1035A000204604F04AFF41EC1C0B53EC1B2B04F0AB
:1035B00026FE41EC1A0B53EC192B04F079FD41EC7B
:1035C0001E0BAC4890ED2E1BB0EE410AF0EE610AE6
:1035D00053EC102B51EC1E0B04F06AFDA54A9032FF
:1035E000C2E90A01A549C9780906A44A127941EA43
:1035F0000241A24A527941EA0221A04A927941EA63
:10360000020004F0DDFE41EC190B1FED7D0B53ECC5
:10361000102B04F066FE9A4AC2E90C019948006832
:1036200004F00BFF41EC1B0B954890ED042BB0EE22
:10363000420AF0EE620A90ED0C2BB0EE421AF0EE68
:10364000621A53EC102B51EC110B04F0D2FD41EC3B
:103650001E0B9FED8D0B53EC102B04F0D0FD41ECB5
:103660001D0B874890ED121BB0EE410AF0EE610A87
:1036700053EC102B51EC1D0B04F0BBFD41EC1C0B6B
:1036800053EC1B2B04F014FD41EC1A0B794890ED20
:103690002E1BB0EE410AF0EE610A53EC102B51ECF8
:1036A0001A0B04F005FD41EC190B04F009FF7149F8
:1036B000C1F890007149C9790906704A127A41EA45
:1036C00002416E4A527A41EA02216C4A927A41EAF8
:1036D000020004F075FE41EC190B1FEDB10B53EC29
:1036E000102B04F0FEFD664AC2E90E01684800682E
:1036F00004F0A3FE41EC1A0B614890ED001BB0EE04
:10370000410AF0EE610A1FEDB91B53EC112B51EC8D
:10371000100B04F0E6FD41EC1D0BB0EE4D0AF0EE8F
:103720006D0A05F081F8B0EE40CAF0EE60CA544868
:1037300090ED062BB0EE420AF0EE620A90ED0E2BF1
:10374000B0EE421AF0EE621A53EC102B51EC110B52
:1037500004F04FFD41EC1D0B9FED4B0B53EC102B78
:1037600004F04DFD41EC1E0B53EC1C2B04F047FD07
:10377000CDE90001424890ED101BB0EE410AF0EE99
:10378000610A53EC102B9DED001B51EC110B04F062
:1037900030FD41EC1B0B53EC1A2B04F089FCCDE9F6
:1037A0000201344890ED221BB0EE410AF0EE610AAE
:1037B00053EC102B9DED021B51EC110B04F078FC27
:1037C00041EC190B04F07CFE2A4908662B48007B6B
:1037D0002A49C97A40EA012000EE100AB8EEC00A70
:1037E000274880ED250A90ED250ADFED2A0AB4EE80
:1037F000E00AF1EE10FA07DD90ED250ADFED260A6A
:1038000030EE600A80ED250A1C48807B1B49497B0D
:1038100040EA012000EE100AB8EEC00A184880ED18
:10382000200A1648007C1549C97B40EA012000EEB9
:10383000100AB8EEC00A124880ED210A0F48807CB9
:103840000E49497C40EA012000EE100AB8EEC00A99
:103850000B4880ED220A90ED200ADFED0E0AB4EE4F
:10386000E00AF1EE10FA1FDD90ED200A16E00000EC
:10387000F8160020900A002000070020D81600202B
:10388000580B002074040020000000801997654147
:103890007004002000FEFF4600FF7F475FED020A34
:1038A00030EE600A80ED200AF94890ED210A5FEDC4
:1038B000070AB4EEE00AF1EE10FA07DD90ED210AF6
:1038C0005FED0B0A30EE600A80ED210AF04890EDC2
:1038D000220A5FED100AB4EEE00AF1EE10FA07DDFD
:1038E00090ED220A5FED140A30EE600A80ED220AA4
:1038F000E74890ED200AF2EE040A80EE201ABBEEB3
:10390000040AB4EEC01AF1EE10FA02D2BBEE040AB9
:1039100017E0DF4890ED200AF2EE040A80EE201A4C
:10392000B3EE040AB4EEC01AF1EE10FA02DDB3EE03
:10393000040A06E0D648D0ED200AB2EE041A80EE62
:10394000810AD34880ED200AD0ED210AB2EE041A94
:1039500080EE810AFBEE040AB4EEE00AF1EE10FA02
:1039600002D2BBEE040A17E0C94890ED210AB2EE7C
:10397000041AC0EE010AB3EE040AF4EEC00AF1EE36
:1039800010FA02DDB3EE040A06E0C148D0ED210AC8
:10399000B2EE041A80EE810ABD4880ED210AD0ED16
:1039A000220AB2EE041A80EE810ADFEDBA0AB4EE02
:1039B000E00AF1EE10FA02D29FEDB60A17E0B44821
:1039C00090ED220AB2EE041AC0EE010A9FEDB20A8F
:1039D000F4EEC00AF1EE10FA02DD9FEDAF0A06E048
:1039E000AB48D0ED220AB2EE041A80EE810AA84854
:1039F00080ED220AA948007DA849C97C40EA01203F
:103A000000EE100AB8EEC00AA14880ED240AA348CF
:103A1000807DA249497D40EA012000EE100AB8EEFF
:103A2000C00A9B4880ED230A90ED240A5FED670AE7
:103A3000B4EEE00AF1EE10FA07DD90ED240A5FED36
:103A40006A0A30EE600A80ED240A914890ED230A5C
:103A50005FED700AB4EEE00AF1EE10FA07DD90EDCA
:103A6000230A5FED730A30EE600A80ED230A88486E
:103A7000D0ED240AB2EE041A80EE810ADFED880A46
:103A8000B4EEE00AF1EE10FA02D29FED850A17E0DB
:103A90007F48D0ED240AB2EE041A80EE810ADFEDF1
:103AA000810AB4EEE00AF1EE10FA02DD9FED7D0A24
:103AB00006E07748D0ED240AB2EE041A80EE810ABF
:103AC000734880ED240A90ED230AF2EE040A80EE9A
:103AD000201A9FED730AB4EEC01AF1EE10FA02D26A
:103AE0009FED6F0A17E06A48D0ED230AB2EE041A80
:103AF00080EE810ADFED6B0AB4EEE00AF1EE10FA17
:103B000002DD9FED680A06E06148D0ED230AB2EEBF
:103B1000041A80EE810A5E4880ED230A04B0BDECF1
:103B2000108B10BD10B52DED108B82B05E4890ED5E
:103B3000001BB0EE410AF0EE610A51EC100B04F0EC
:103B4000BFFC08EE100AB0EE480A01F0AAF88DEDAD
:103B5000010A554890ED061BB0EE410AF0EE610AED
:103B600051EC100B04F0ACFC08EE100AB0EE480A61
:103B700001F09CF98DED000A4C484089012803D0E2
:103B80004A484089022875D148484089022810D106
:103B90009FED470A3E4880ED200A9FED450A80EDE3
:103BA000210A9FED430A80ED240A9FED410A80ED32
:103BB000230A404890ED1D0A10EE101A084604F042
:103BC0003CFC41EC190B384890ED0C1BB0EE410A5F
:103BD000F0EE610A53EC102B51EC190B04F009FBC9
:103BE00041EC180B04F06CFC32494860084690ED3B
:103BF000290A10EE101A084604F01FFC41EC190BBC
:103C0000294890ED121BB0EE410AF0EE610A53EC28
:103C1000102B51EC190B04F0ECFA41EC180B04F0EA
:103C20004FFC24494863084690ED010AD0ED060A8E
:103C300020EE200A80ED020AD0ED080A9DED010A6F
:103C4000B1EE400A20EE800A80ED040A90ED020AEF
:103C5000D0ED040A30EE200A80ED050A90ED050A49
:103C6000FAEE0E0AB4EEE00AF1EE10FA03D2BAEE62
:103C70000E0A24E07CE10F4890ED050AF2EE0E0AF0
:103C8000B4EEE00AF1EE10FA16DDB2EE0E0A16E01E
:103C9000580B0020000034C300003443D816002025
:103CA000000048C300004843380C0020F8160020EC
:103CB00000000000900A0020FE4890ED050AFD4833
:103CC00080ED050A90ED0D0AD0ED120A20EE200AD3
:103CD00080ED0E0AD0ED140A9DED000AB1EE400A07
:103CE00020EE800A80ED100A90ED0E0AD0ED100A49
:103CF00030EE200A80ED110A90ED110AFAEE0E0A5C
:103D0000B4EEE00AF1EE10FA02D2BAEE0E0A0FE0BB
:103D1000E84890ED110AF2EE0E0AB4EEE00AF1EE78
:103D200010FA02DDB2EE0E0A02E0E24890ED110A4E
:103D3000E04880ED110AE04890ED120ADFEDDF0A5D
:103D400080EE201A11EE104A204604F076FB41EC7A
:103D50001D0BB0EE4D0AF0EE6D0A04F065FDB0EEFD
:103D600040BAF0EE60BAD34890ED110A10EE101A86
:103D7000084604F062FB41EC1C0B53EC1B2B04F0D7
:103D80003EFA41EC190BCC4890ED120ADFEDCB0A5C
:103D900080EE201A11EE104A204604F04EFB41EC52
:103DA0001F0BB0EE4F0AF0EE6F0A05F071FCB0EE9B
:103DB00040DAF0EE60DABF4890ED050A10EE101A16
:103DC000084604F03AFB41EC1E0B53EC1D2B04F0AB
:103DD00016FA41EC1B0BBA4890ED200ADFEDB90A48
:103DE00020EE200A10EE101A084604F026FB41ECE3
:103DF0001C0B53EC1B2B04F0FCF941EC1A0B53EC9D
:103E0000192B04F055F941EC180B04F059FBA949A2
:103E1000C1F8C000A84890ED120ADFEDA80A80EEB4
:103E2000201A11EE104A204604F007FB41EC1D0B4E
:103E3000B0EE4D0AF0EE6D0A05F02AFCB0EE40BA85
:103E4000F0EE60BA9B4890ED110A10EE101A084689
:103E500004F0F3FA41EC1C0B53EC1B2B04F0CFF9EC
:103E600041EC190B944890ED120ADFED940A80EEB4
:103E7000201A11EE104A204604F0DFFA41EC1F0B25
:103E8000B0EE4F0AF0EE6F0A04F0CEFCB0EE40DA6E
:103E9000F0EE60DA874890ED050A10EE101A084639
:103EA00004F0CBFA41EC1E0B53EC1D2B04F0A7F9E8
:103EB00041EC1B0B824890ED210ADFED820A20EED7
:103EC000200A10EE101A084604F0B7FA41EC1C0B59
:103ED00053EC1B2B04F0ECF841EC1A0B53EC192BB0
:103EE00004F0E6F841EC180B04F0EAFA7149C1F865
:103EF000C400084690ED300AFBEE040AB4EEE00A76
:103F0000F1EE10FA02D2BBEE040A0FE0694890ED20
:103F1000300AF3EE040AB4EEE00AF1EE10FA02DD24
:103F2000B3EE040A02E0634890ED300A614880ED88
:103F3000300A90ED310AFBEE040AB4EEE00AF1EE2D
:103F400010FA02D2BBEE040A0FE05A4890ED310A93
:103F5000F3EE040AB4EEE00AF1EE10FA02DDB3EE7D
:103F6000040A02E0534890ED310A524880ED310ACC
:103F700055484089032810D11FEDB30A4D4880ED04
:103F8000300A1FEDB50A80ED310A9FED500B80ED30
:103F9000220B9FED4E0B80ED2E0B02B0BDEC108B73
:103FA00010BD10B52DED108B82B0B0EE408A4648A2
:103FB000B0F90A10B0F91600814224D04248408975
:103FC00002281AD1434890ED1A1BB0EE410AF0EED8
:103FD000610A51EC100B04F073FA364908663D484B
:103FE00090ED201BB0EE410AF0EE610A51EC100B8F
:103FF00004F066FA2F49C1F890003348408901283F
:1040000001D1FFF78EF830484089012803D1B0EE86
:10401000480AFFF72BF92C484089012803D02A4889
:10402000408902287DD1244890ED120ADFED230A51
:1040300080EE201A11EE104A204604F0FEF941EC01
:104040001F0BB0EE4F0AF0EE6F0A05F021FBB0EE49
:1040500040DAF0EE60DA1C48B0F9020000EE100A17
:10406000B8EEC00ADFED1C0A60EE200A9FED1B1AB5
:1040700080EE810A20EE080A10EE104A204604F075
:10408000DCF941EC1E0B53EC1D2B04F0B8F841ECAD
:104090001C0B094890ED120ADFED080A80EE201A89
:1040A00011EE104A204604F0C8F941EC1F0BB0EEA7
:1040B0004F0A15E0900A00200007002033336542C4
:1040C000580B00209A99193FF816002000000000B4
:1040D00000000000380C002000007A430000254456
:1040E000F0EE6F0A04F0A0FBB0EE40DAF0EE60DA1A
:1040F000EA48B0F9000000EE100AB8EEC00A5FED21
:104100000A0A60EE200A1FED0B1A80EE810A20EEEB
:10411000080A10EE104A204604F08FF941EC1E0BFD
:1041200000E09EE153EC1D2B04F069F853EC1C2BCE
:10413000CDE900019DED000B51EC100B04F059F896
:1041400041EC1A0BD64890ED180A10EE101A0846EA
:1041500004F073F941EC1B0B53EC1A2B03F0A8FF8E
:1041600041EC190B04F0ACF9CD490866CD4890ED4F
:10417000120A5FED2E0A80EE201A11EE104A204638
:1041800004F05BF941EC1F0BB0EE4F0AF0EE6F0A42
:1041900005F07EFAB0EE40DAF0EE60DABF48B0F932
:1041A000000000EE100AB8EEC00A5FED350A60EEBE
:1041B000200A1FED361A80EE810A20EE080A10EE62
:1041C000104A204604F039F941EC1E0B53EC1D2B2C
:1041D00004F015F841EC1B0BB24890ED120A5FEDAC
:1041E000490A80EE201A11EE104A204604F025F903
:1041F00041EC1F0BB0EE4F0AF0EE6F0A04F014FB17
:10420000B0EE40DAF0EE60DAA448B0F9020000EE59
:10421000100AB8EEC00A5FED500A60EE200A1FEDEA
:10422000511A80EE810A20EE080A10EE104A20464C
:1042300004F003F941EC1E0B53EC1D2B03F0DFFFE0
:1042400041EC1C0B53EC1B2B03F032FF41EC190B20
:10425000934890ED240A10EE101A084604F0EDF889
:1042600041EC1A0B53EC192B03F022FFCDE90001AE
:104270009DED000B51EC100B04F022F98849C1F8B8
:104280009000084690ED180A10EE101A084604F047
:10429000D4F841EC1A0B844890ED1A1BB0EE410A99
:1042A000F0EE610A53EC102B51EC1A0B03F0A1FF56
:1042B00041EC190B04F004F979494866084690ED81
:1042C000240A10EE101A084604F0B7F841EC1A0B55
:1042D000754890ED201BB0EE410AF0EE610A53ECF8
:1042E000102B51EC1A0B03F084FF41EC190B04F076
:1042F000E7F86B49C1F89400084690ED190AD0ED33
:104300001E0A20EE200A80ED1A0A90ED190AD0ED5F
:104310001F0A60EE200A90ED1B0A00EE880A80ED6D
:104320001B0A90ED1B0ADFED610AB4EEE00AF1EE24
:1043300010FA02D29FED5D0A0FE0594890ED1B0A7A
:10434000DFED5B0AB4EEE00AF1EE10FA02DD9FED5C
:10435000580A02E0524890ED1B0A514880ED1B0AB2
:1043600090ED1A0AD0ED1B0A30EE200A80ED1D0AEE
:1043700090ED1D0ADFED4F0AB4EEE00AF1EE10FAFF
:1043800002D29FED4C0A0FE0454890ED1D0ADFED8B
:104390004A0AB4EEE00AF1EE10FA02DD9FED460A99
:1043A00002E03F4890ED1D0A3D4880ED1D0A90ED6A
:1043B000250AD0ED2A0A20EE200A80ED260A90ED8B
:1043C000250AD0ED2B0A60EE200A90ED270A00EEB8
:1043D000880A80ED270A90ED270ADFED340AB4EE53
:1043E000E00AF1EE10FA02D29FED300A0FE02C48FD
:1043F00090ED270ADFED2E0AB4EEE00AF1EE10FA96
:1044000002DD9FED2B0A02E0254890ED270A2448A3
:1044100080ED270A90ED260AD0ED270A30EE200A1B
:1044200080ED290A90ED290ADFED220AB4EEE00AB8
:10443000F1EE10FA02D29FED1F0A0FE0184890ED3E
:10444000290ADFED1D0AB4EEE00AF1EE10FA02DDF2
:104450009FED190A02E0124890ED290A104880EDFC
:10446000290A0E484089032810D19FED140A0C48F0
:1044700080ED1B0A9FED110A80ED270A9FED0F0AC0
:1044800080ED1D0A9FED0D0A80ED290A0348418940
:10449000C18202B0BDEC108B10BD0000F8160020E8
:1044A000900A002000070020380C00200000A0C265
:1044B0000000A042000096C30000964300000000E8
:1044C00010B52DED068BF0EE409AF0EE608A9FED70
:1044D000FE0AB0EE40AA9FEDFC0AB0EE408A9FEDC6
:1044E000FA0AB0EE409A89EEA80AB0EE40AA9FED13
:1044F000F70AC0EE0A0AF0EE60AAB0EE6A0A05F00A
:104500002BF9B0EE408A9FEDF20A04F0F1F9F0EEDB
:10451000000A60EE200AB7EE000A00EE880A08EEF4
:10452000080AB0EE409AEB48C0ED008A90ED000A10
:10453000B5EEC00AF1EE10FA35DD28EE080AC0EE3D
:10454000090AE548C0ED000A90ED000AF0EE000A05
:1045500020EE200AE14880ED000ADF4890ED000AD5
:10456000DF4880ED000AB7EE000A18EE080AF0EE08
:10457000000A20EE200AC0EE090ADA48C0ED000A5F
:104580009FEDD30A04F0B4F9F0EE000A60EE200AC1
:10459000B7EE000A00EEC80A08EE080AC0EE090AE3
:1045A000D148C0ED000ABDEC068B10BD10B52DED55
:1045B000048BF0EE408A9FEDC40AB0EE408A9FED76
:1045C000C20AB0EE409AC34890ED000AB5EEC00AA8
:1045D000F1EE10FA04D8B0EE680ABDEC048B10BD01
:1045E000B0EE680AC148D0ED000ABE4890ED001A4E
:1045F00000EEC10ABE48D0ED000ABB4890ED001A9B
:1046000000EEC10AB0EE408A18EE100A00F005FF75
:1046100020B918EE100A00F0F6FE08B1B0EE688A74
:10462000AD4890ED000A28EE000AB048D0ED000A2F
:10463000AA4890ED001A00EE810AAD48D0ED000ABC
:10464000A74890ED001A00EE810AB0EE409AA74804
:1046500090ED000AA64880ED000AA44880ED008A8B
:10466000B0EE490AB9E710B52DED068BF0EE409A91
:10467000F0EE608A9FED940AB0EE40AA9FED920A98
:10468000B0EE408A9FED900AB0EE409A89EEA80AFB
:10469000B0EE40AA9FED8D0AC0EE0A0AF0EE60AAC5
:1046A000B0EE6A0A05F058F8B0EE408A9FED880A2D
:1046B00004F01EF9F0EE000A60EE200AB7EE000AE0
:1046C00000EE880A08EE080AB0EE409A8948C0ED6C
:1046D000008A90ED000AB5EEC00AF1EE10FA35DD61
:1046E00028EE080AC0EE090A8348C0ED000A90EDE2
:1046F000000AF0EE000A20EE200A804880ED000A51
:104700007D4890ED000A7E4880ED000AB7EE000A71
:1047100018EE080AF0EE000A20EE200AC0EE090AA0
:104720007848C0ED000A9FED6A0A04F0E1F8F0EE67
:10473000000A60EE200AB7EE000A00EEC80A08EE92
:10474000080AC0EE090A7048C0ED000ABDEC068BED
:1047500010BD10B52DED048BF0EE408A9FED5A0A86
:10476000B0EE408A9FED580AB0EE409A614890ED55
:10477000000AB5EEC00AF1EE10FA04D8B0EE680AED
:10478000BDEC048B10BDB0EE680A6048D0ED000AA5
:104790005C4890ED001A00EEC10A5D48D0ED000AB9
:1047A000594890ED001A00EEC10AB0EE408A18EEAA
:1047B000100A00F032FE20B918EE100A00F023FEB5
:1047C00008B1B0EE688A4C4890ED000A28EE000A65
:1047D0004E48D0ED000A494890ED001A00EE810ADB
:1047E0004B48D0ED000A464890ED001A00EE810AD1
:1047F000B0EE409A454890ED000A454880ED000A29
:10480000424880ED008AB0EE490AB9E710B52DEDB7
:10481000068BF0EE409AF0EE608A9FED2B0AB0EE28
:1048200040AA9FED290AB0EE408A9FED270AB0EE1C
:10483000409A89EEA80AB0EE40AA9FED240AC0EE85
:104840000A0AF0EE60AAB0EE6A0A04F085FFB0EE44
:10485000408A9FED1F0A04F04BF8F0EE000A60EE6C
:10486000200AB7EE000A00EE880A08EE080AB0EE49
:10487000409A2848C0ED008A90ED000AB5EEC00AC3
:10488000F1EE10FA64DD28EE080AC0EE090A2248AB
:10489000C0ED000A90ED000AF0EE000A20EE200ABA
:1048A0001E4880ED000A1C4890ED000A1C4880ED6F
:1048B000000AB7EE000A18EE080AF0EE000A20EE31
:1048C000200AC0EE090A2DE000000000DA0F49407E
:1048D000DA0F493F78040020840400208804002077
:1048E0008C0400207C040020800400209004002020
:1048F0009404002098040020A4040020A8040020B0
:10490000AC0400209C040020A0040020B00400207F
:10491000B4040020B8040020C4040020C80400200F
:10492000CC040020FE48C0ED000A1FED170A03F07A
:10493000DFFFF0EE000A60EE200AB7EE000A00EE9C
:10494000C80A08EE080AC0EE090AF648C0ED000AD7
:10495000BDEC068B10BD10B52DED048BF0EE408A3A
:104960001FED270AB0EE408A1FED290AB0EE409AEB
:10497000ED4890ED000AB5EEC00AF1EE10FA04D849
:10498000B0EE680ABDEC048B10BDB0EE680AE748D3
:10499000D0ED000AE24890ED001A00EEC10AE448AA
:1049A000D0ED000ADF4890ED001A00EEC10AB0EE2B
:1049B000408A18EE100A00F030FD20B918EE100AF7
:1049C00000F021FD08B1B0EE688ADA4890ED000AE7
:1049D00028EE000AD548D0ED000AD74890ED001A1D
:1049E00000EE810AD248D0ED000AD44890ED001ABA
:1049F00000EE810AB0EE409ACC4890ED000ACC4817
:104A000080ED000AC94880ED008AB0EE490AB9E796
:104A100010B52DED068BF0EE409AF0EE608A1FED9A
:104A2000560AB0EE40AA1FED580AB0EE408A1FEDBC
:104A30005A0AB0EE409A89EEA80AB0EE40AA1FEDDD
:104A40005D0AC0EE0A0AF0EE60AAB0EE6A0A04F04F
:104A500083FEB0EE408A1FED620A03F049FFF0EEDC
:104A6000000A60EE200AB7EE000A00EE880A08EE9F
:104A7000080AB0EE409AB248C0ED008A90ED000AF4
:104A8000B5EEC00AF1EE10FA35DD28EE080AC0EEE8
:104A9000090AAC48C0ED000A90ED000AF0EE000AE9
:104AA00020EE200AA84880ED000AA64890ED000AF2
:104AB000A64880ED000AB7EE000A18EE080AF0EEEC
:104AC000000A20EE200AC0EE090AA148C0ED000A43
:104AD0001FED810A03F00CFFF0EE000A60EE200AE1
:104AE000B7EE000A00EEC80A08EE080AC0EE090A8E
:104AF0009848C0ED000ABDEC068B10BD10B52DED39
:104B0000048BF0EE408A1FED900AB0EE408A1FED54
:104B1000920AB0EE409A8A4890ED000AB5EEC00ABB
:104B2000F1EE10FA04D8B0EE680ABDEC048B10BDAB
:104B3000B0EE680A8848D0ED000A854890ED001A6A
:104B400000EEC10A8548D0ED000A824890ED001AB7
:104B500000EEC10AB0EE408A18EE100A00F05DFCCB
:104B600020B918EE100A00F04EFC08B1B0EE688AC9
:104B7000744890ED000A28EE000A7748D0ED000A4C
:104B8000714890ED001A00EE810A7448D0ED000AD9
:104B90006E4890ED001A00EE810AB0EE409A6E4821
:104BA00090ED000A6D4880ED000A6B4880ED008AA8
:104BB000B0EE490AB9E710B52DED068BF0EE409A3C
:104BC000F0EE608A1FEDC00AB0EE40AA1FEDC20AE7
:104BD000B0EE408A1FEDC40AB0EE409A89EEA80AF2
:104BE000B0EE40AA1FEDC70AC0EE0A0AF0EE60AAB6
:104BF000B0EE6A0A04F0B0FDB0EE408A1FEDCC0AB8
:104C000003F076FEF0EE000A60EE200AB7EE000A2E
:104C100000EE880A08EE080AB0EE409A5048C0ED4F
:104C2000008A90ED000AB5EEC00AF1EE10FA35DD0B
:104C300028EE080AC0EE090A4A48C0ED000A90EDC5
:104C4000000AF0EE000A20EE200A474880ED000A34
:104C5000444890ED000A454880ED000AB7EE000A8E
:104C600018EE080AF0EE000A20EE200AC0EE090A4B
:104C70003F48C0ED000A1FEDEA0A03F039FEF0EEEE
:104C8000000A60EE200AB7EE000A00EEC80A08EE3D
:104C9000080AC0EE090A3748C0ED000ABDEC068BD1
:104CA00010BD10B52DED048BF0EE408A1FEDFA0A11
:104CB000B0EE408A1FEDFC0AB0EE409A284890ED15
:104CC000000AB5EEC00AF1EE10FA04D8B0EE680A98
:104CD000BDEC048B10BDB0EE680A2748D0ED000A89
:104CE000234890ED001A00EEC10A2448D0ED000AD6
:104CF000204890ED001A00EEC10AB0EE408A18EE8E
:104D0000100A00F08AFB20B918EE100A00F07BFBB5
:104D100008B1B0EE688A134890ED000A30E0000058
:104D2000BC040020C0040020B8040020D0040020EF
:104D3000D4040020C4040020C8040020CC040020B7
:104D4000D8040020E4040020E8040020EC04002043
:104D5000DC040020E0040020F0040020F404002023
:104D6000F804002004050020080500200C050020A0
:104D7000FC04002000050020100500201405002080
:104D800028EE000AFE48D0ED000AFE4890ED001A19
:104D900000EE810AFC48D0ED000AFC4890ED001AB4
:104DA00000EE810AB0EE409AF54890ED000AF64810
:104DB00080ED000AF24880ED008AB0EE490A87E7EC
:104DC00010B52DED068BF0EE409AF0EE608A9FED67
:104DD000F00AB0EE40AA9FEDEE0AB0EE408A9FEDD9
:104DE000EC0AB0EE409A89EEA80AB0EE40AA9FED18
:104DF000E90AC0EE0A0AF0EE60AAB0EE6A0A04F010
:104E0000ABFCB0EE408A9FEDE40A03F071FDF0EEDA
:104E1000000A60EE200AB7EE000A00EE880A08EEEB
:104E2000080AB0EE409ADD48C0ED008A90ED000A15
:104E3000B5EEC00AF1EE10FA35DD28EE080AC0EE34
:104E4000090AD748C0ED000A90ED000AF0EE000A0A
:104E500020EE200AD34880ED000AD14890ED000AE8
:104E6000D14880ED000AB7EE000A18EE080AF0EE0D
:104E7000000A20EE200AC0EE090ACC48C0ED000A64
:104E80009FEDC50A03F034FDF0EE000A60EE200A43
:104E9000B7EE000A00EEC80A08EE080AC0EE090ADA
:104EA000C348C0ED000ABDEC068B10BD10B52DED5A
:104EB000048BF0EE408A9FEDB60AB0EE408A9FED7B
:104EC000B40AB0EE409AB54890ED000AB5EEC00ABB
:104ED000F1EE10FA04D8B0EE680ABDEC048B10BDF8
:104EE000B0EE680AB348D0ED000AB04890ED001A61
:104EF00000EEC10AB048D0ED000AAD4890ED001AAE
:104F000000EEC10AB0EE408A18EE100A00F085FAF1
:104F100020B918EE100A00F076FA08B1B0EE688AEF
:104F20009F4890ED000A28EE000AA248D0ED000A42
:104F30009C4890ED001A00EE810A9F48D0ED000ACF
:104F4000994890ED001A00EE810AB0EE409A994817
:104F500090ED000A984880ED000A964880ED008A9E
:104F6000B0EE490AB9E710B52DED068BF0EE409A88
:104F7000F0EE608A9FED860AB0EE40AA9FED840AAB
:104F8000B0EE408A9FED820AB0EE409A89EEA80A00
:104F9000B0EE40AA9FED7F0AC0EE0A0AF0EE60AACA
:104FA000B0EE6A0A04F0D8FBB0EE408A9FED7A0AB0
:104FB00003F09EFCF0EE000A60EE200AB7EE000A55
:104FC00000EE880A08EE080AB0EE409A7B48C0ED71
:104FD000008A90ED000AB5EEC00AF1EE10FA35DD58
:104FE00028EE080AC0EE090A7548C0ED000A90EDE7
:104FF000000AF0EE000A20EE200A724880ED000A56
:105000006F4890ED000A704880ED000AB7EE000A84
:1050100018EE080AF0EE000A20EE200AC0EE090A97
:105020006A48C0ED000A9FED5C0A03F061FCF0EEF7
:10503000000A60EE200AB7EE000A00EEC80A08EE89
:10504000080AC0EE090A6248C0ED000ABDEC068BF2
:1050500010BD10B52DED048BF0EE408A9FED4C0A8B
:10506000B0EE408A9FED4A0AB0EE409A534890ED68
:10507000000AB5EEC00AF1EE10FA04D8B0EE680AE4
:10508000BDEC048B10BDB0EE680A5248D0ED000AAA
:105090004E4890ED001A00EEC10A4F48D0ED000ACC
:1050A0004B4890ED001A00EEC10AB0EE408A18EEAF
:1050B000100A00F0B2F920B918EE100A00F0A3F9B6
:1050C00008B1B0EE688A3E4890ED000A28EE000A6A
:1050D0004048D0ED000A3B4890ED001A00EE810AEE
:1050E0003D48D0ED000A384890ED001A00EE810AE4
:1050F000B0EE409A374890ED000A374880ED000A3C
:10510000344880ED008AB0EE490AB9E710B52DEDBC
:10511000068BF0EE409AF0EE608A9FED1D0AB0EE2D
:1051200040AA9FED1B0AB0EE408A9FED190AB0EE2F
:10513000409A89EEA80AB0EE40AA9FED160AC0EE8A
:105140000A0AF0EE60AAB0EE6A0A04F005FBB0EEBF
:10515000408A9FED110A03F0CBFBF0EE000A60EEEF
:10516000200AB7EE000A00EE880A08EE080AB0EE40
:10517000409A1A48C0ED008A90ED000A30E0000025
:105180001005002008050020140500200C05002053
:1051900000000000DA0F4940DA0F493F18050020EF
:1051A00024050020280500202C0500201C050020D7
:1051B000200500203005002034050020380500209F
:1051C00044050020480500204C0500203C05002037
:1051D00040050020500500205405002058050020FF
:1051E000B5EEC00AF1EE10FA35DD28EE080AC0EE81
:1051F000090A8D48C0ED000A90ED000AF0EE000AA1
:1052000020EE200A894880ED000A874890ED000AC8
:10521000874880ED000AB7EE000A18EE080AF0EEA3
:10522000000A20EE200AC0EE090A8248C0ED000AFA
:105230001FED270A03F05CFBF0EE000A60EE200A87
:10524000B7EE000A00EEC80A08EE080AC0EE090A26
:105250007948C0ED000ABDEC068B10BD10B52DEDF0
:10526000048BF0EE408A1FED360AB0EE408A1FED47
:10527000380AB0EE409A714890ED000AB5EEC00AC7
:10528000F1EE10FA04D8B0EE680ABDEC048B10BD44
:10529000B0EE680A6A48D0ED000A664890ED001A40
:1052A00000EEC10A6748D0ED000A634890ED001A8D
:1052B00000EEC10AB0EE408A18EE100A00F0ADF818
:1052C00020B918EE100A00F09EF808B1B0EE688A16
:1052D000554890ED000A28EE000A5948D0ED000A22
:1052E000524890ED001A00EE810A5648D0ED000AAF
:1052F0004F4890ED001A00EE810AB0EE409A5048F7
:1053000090ED000A4F4880ED000A4D4880ED008A7C
:10531000B0EE490AB9E700B52DED108B89B0B0EEBB
:1053200040BAF0EE60BAB0EE418AF0EE618AB0EEBB
:10533000429AF0EE629A8DED069B8DED048B424809
:1053400090ED000BB0EE40CAF0EE60CA90ED000B9D
:10535000B0EE40CAF0EE60CA9DED048B53EC182B02
:105360003A4890ED000B51EC100B02F0A1FE41EC1D
:105370001A0B9DED069B53EC192B51EC1A0B02F006
:1053800097FE41EC1F0B53EC1F2B51EC1A0B02F054
:10539000A8FF41EC1E0B53EC1C2B51EC1B0B02F035
:1053A00028FF41EC1F0B53EC1E2B02F028FF53EC9F
:1053B0001C2BCDE900019DED000B51EC100B02F010
:1053C00077FE41EC1D0B53EC1E2B9FED210B51EC96
:1053D000100B02F00EFF41EC1F0B53EC1A2B02F0E6
:1053E0000EFFCDE902019DED020B184880ED000B88
:1053F000154880ED00DBB0EE4D0AF0EE6D0A09B005
:10540000BDEC108B00BD01464FF07F40B0EB410F6B
:1054100001D1012070470020FCE7014621F0004047
:10542000C0F1FF40C00F70476405002068050020F0
:105430006C0500205C050020600500205805002058
:1054400070050020740500207805002080050020EC
:10545000000000000000F03F00B585B001210420ED
:1054600001F08CFB0121880301F0CCFB08200390A4
:1054700001208DF8100000208DF8120003208DF817
:10548000110003A94F4801F0B3FD10200390002044
:105490008DF8100001208DF8130003208DF8110005
:1054A00003A9484801F0A4FD0421022002F050FAAB
:1054B0001020019000208DF8080010208DF80900C0
:1054C00001208DF80A0001A801F0A4FC0A208DF843
:1054D000000003208DF8010001208DF802008DF8F6
:1054E0000300684600F007FB05B000BD10B51021B1
:1054F000344801F0DFFD01280DD1FAF7C6FE00EEB9
:10550000100AB8EE400ADFED300A80EE201A2F486C
:1055100080ED001A2DE0FAF7B8FE00EE100AB8EEA2
:10552000400A9FED291AC0EE010A284890ED000AB2
:1055300030EEC00A80ED010A90ED010ADFED240A89
:1055400020EE200AF0EE000A80EE201A80ED021A0A
:1055500090ED020ADFED1F0AB4EEE00AF1EE10FA58
:1055600002D290ED020A01E09FED1A0A174880ED81
:10557000020A102001F0C5FC10BD10B52DED048B02
:10558000124890ED020A10EE101A084602F055FF7C
:1055900041EC190B9FED102B9FED111BB0EE490A4A
:1055A000F0EE690AFFF7B7FEB0EE408AF0EE608ACF
:1055B00051EC180B02F084FF0449C860BDEC048B69
:1055C00010BD00000008024000247449A816002005
:1055D0000000AA439A99993F00000000000024406F
:1055E000B81E85EB51B89E3F70B50446002502F009
:1055F0003FFBF32002F055FD0221204602F084FB20
:10560000082800D000BF02F040FB0125284670BDED
:1056100010B55820FFF7E8FF10BD002109E0244A2B
:1056200002EBC1200068401C08B908467047481CBE
:10563000C1B24029F3DBFF20F8E770B52DED028BF6
:1056400006460C46B0EE408AB4F5FF7F03DD00202D
:10565000BDEC028B70BD18EE105A06EB8400294693
:1056600002F0FBFB082801D10120F1E70020EFE761
:1056700070B505460C461646B4F5FF7F01DD0020E7
:1056800070BD05EB8400314602F0E7FB082801D12C
:105690000120F5E70020F3E750F8212000EE902AE2
:1056A000B0EE600A7047024652F8210070470000D1
:1056B00000000E08704710B52DED048B002405E0A6
:1056C000FD48005DFD490855601CC4B2042CF7DBA1
:1056D000FA48B0F9000000EE100AB8EEC00AF84827
:1056E00080ED000A042406E0F348015D201FF34A20
:1056F0001154601CC4B2082CF6DBF048B0F900006D
:1057000000EE100AB8EEC00AED4880ED010A082448
:1057100007E0E948015DA4F10800E84A1154601C63
:10572000C4B20C2CF5DBE548B0F9000000EE100A1D
:10573000B8EEC00AE24880ED020A0C2407E0DE4819
:10574000015DA4F10C00DD4A1154601CC4B2102CA0
:10575000F5DBDA48B0F9000000EE100AB8EEC00A36
:10576000D74880ED030A102407E0D348015DA4F177
:105770001000D24A1154601CC4B2142CF5DBCF487F
:10578000B0F9000000EE100AB8EEC00ACC4880ED77
:10579000040A142407E0C848015DA4F11400C74AB4
:1057A0001154601CC4B2182CF5DBC448B0F90000D9
:1057B00000EE100AB8EEC00AC14880ED050A90ED6F
:1057C000030A10EE101A084602F037FE41EC190BDE
:1057D0009FEDBC0B53EC102B02F011FD41EC180BAC
:1057E00002F06EFEB6498861084690ED040A10EE9C
:1057F000101A084602F021FE41EC190B9FEDB10B87
:1058000053EC102B02F0FBFC41EC180B02F058FE9D
:10581000AB49C861084690ED050A10EE101A08461B
:1058200002F00BFE41EC190B9FEDA60B53EC102B75
:1058300002F0E5FC41EC180B02F042FEA0490862C0
:10584000BDEC048B10BD00B597B001219F4801F05D
:1058500095F90121880401F0C4F907220B219C4825
:1058600001F051FC07220A21994801F04CFC4FF449
:105870004060119002208DF8480000208DF84A0009
:1058800003208DF8490000208DF84B0011A99048A5
:1058900001F0AEFB4FF4FA2013900020ADF8500059
:1058A000ADF85200ADF854000C20ADF856000020C1
:1058B000ADF8580013A9874801F07CFE0121854806
:1058C00001F000FF01228021824801F0A8FF01229F
:1058D0004021804801F0A3FF0E208DF840000120F8
:1058E0008DF8410002208DF8420001208DF8430020
:1058F00010A800F000F9784801F03AFC4FF0006081
:1059000001907448001D0290744803904020049058
:1059100009200590002006904FF480600790002039
:10592000089009900A904FF440300B9000200C90A2
:105930000D900E900F9001A9674801F0BBFC012269
:105940001021654801F07DFD0021634801F0ECFC69
:10595000012240F224415F4801F06AFF27208DF8C0
:10596000400001208DF841008DF842008DF8430081
:1059700010A800F0C0F85848303801F0F9FB4FF09B
:10598000006001905348001D02904B480390002096
:10599000049080200590002006904FF480600790CE
:1059A0000020089009904FF480700A904FF4403026
:1059B0000B9000200C900D900E900F9001A946487E
:1059C000303801F077FC01214348303801F0ACFC5D
:1059D00017B000BD10B542493F4801F04FFD40B13E
:1059E0004FF0C0513C4801F018FD3D493A4801F0E4
:1059F0006FFD10BD70B53848303801F0B8FCC0F10B
:105A0000800085B233480088C4B23248001D008847
:105A1000C4B200213048303801F086FC31492E48AC
:105A2000303801F0FAFC80212B48303801F09DFC21
:105A300040F22441274801F06DFFFBF7D2FA012123
:105A40002548303801F070FC70BD10B500212248A7
:105A500001F06AFC24480088000A204908702248A6
:105A60000078487020484088000A88701E48807876
:105A7000C8701D488088000A08711B480079487169
:105A80001948C088000A887117488079C87116487B
:105A9000007A08720846007A1349897A890640EA32
:105AA00011600E49087209210B4801F05EFC0121CA
:105AB000094801F039FC10BD651700208C05002055
:105AC0002C170020FBEB1516DCA54C400400200031
:105AD0000008024000480040586002405C17002067
