:020000040800F2
:10000000C01B002001AD0008BD010008BF010008B1
:10001000C3010008C7010008CB0100080000000070
:10002000000000000000000000000000CF010008F8
:10003000D101000800000000D3010008D50100082C
:100040001BAD00081BAD00081BAD00081BAD000870
:100050001BAD00081BAD00081BAD00081BAD000860
:100060001BAD00081BAD0008C96500081BAD0008EA
:100070001BAD00081BAD00081BAD00081BAD000840
:100080001BAD00081BAD00081BAD00081BAD000830
:100090001BAD00081BAD00081BAD00081BAD000820
:1000A0001BAD00081BAD00081BAD00081BAD000810
:1000B0001BAD00081BAD0008173900081BAD000878
:1000C0001BAD00081BAD00081BAD00081BAD0008F0
:1000D0001BAD00081BAD00081BAD0008672400081D
:1000E0001BAD00081BAD00081BAD00081BAD0008D0
:1000F0001BAD00081BAD00081BAD00081BAD0008C0
:100100001BAD00081BAD0008493B00081BAD0008F3
:100110001BAD00086D4B00081BAD00081BAD0008AF
:100120001BAD00081BAD00081BAD00081BAD00088F
:100130001BAD00081BAD00081BAD00081BAD00087F
:100140001BAD00081BAD00081BAD00081BAD00086F
:100150001BAD00081BAD00081BAD00081BAD00085F
:100160001BAD00081BAD00081BAD00081BAD00084F
:100170001BAD00081BAD00081BAD00081BAD00083F
:100180001BAD00081BAD0008DFF80CD00BF09AFB8C
:10019000004800479D010008C01B002000F0B1F896
:1001A00002A00BF01DFC00BFFEE700007468652094
:1001B000626567696E6E696E67200A00704700BFEE
:1001C000FEE700BFFEE700BFFEE700BFFEE77047A7
:1001D0007047704710B516480068401C1449086005
:1001E00014480088401C1349088008464088401C79
:1001F000488008468088401C88800846C088401C8B
:10020000C88008460089401C088108464089401C77
:1002100048810948D0E90020521C40F100000649FD
:10022000C1E900200548C07808B100F0EEF910BD22
:1002300000000020C8050020080000206400002005
:100240007FB5684609F09DFC4FF47A710198B0FBC8
:10025000F1F4E4082146481EB0F1807F00D31BE092
:10026000481E4FF0E022506150170F22002807DA95
:1002700013071E0E554B00F00F052D1F5E5503E0B2
:1002800013071D0E524B1D5400BF00204FF0E022FB
:1002900090610720106100BF6FF0040008F010FDAE
:1002A0007FBD4C4A11684FF0E02252694FF0E023C5
:1002B0009B69D21A4FF47A735A434FF0E0235B697B
:1002C000B2FBF3F201EB4103C3EBC11302EBC3003A
:1002D000704730B50446FFF7E4FF054600BFFFF75F
:1002E000E0FF401BA042FAD330BD10B5044603E046
:1002F0004FF47A70FFF7EDFF201EA4F10104F7D14F
:1003000010BD10B54FF4806008F088FCFFF798FF2F
:1003100004F07CFD02F015F804F0A6FC04F056FD94
:1003200000F0E2F96420FFF7E0FF14214FF47A7047
:1003300000F086FB4FF4C87003F018FE04F0D4FA06
:1003400001F08CF900F008FF06F0F4F804F07DFCF1
:1003500000F061FC00F051FC01F0ACF801F0AAFAE9
:10036000F2EE040A9FED1C0A05F018F9F2EE040AF9
:100370009FED1A0A05F0E5F9F2EE040A9FED160A60
:1003800005F0B2FAF2EE040A9FED130A05F0AEFB97
:10039000F2EE040A9FED100A05F07BFCF2EE040A6F
:1003A0009FED0D0A05F07AFDF2EE040A9FED0A0AB0
:1003B00005F047FEF2EE040A9FED070A05F014FF70
:1003C00004F029FA01200649C87010BD18ED00E0BC
:1003D00000E400E0000000200000C84200004843A4
:1003E00064000020704710B52DED028B002004F052
:1003F000F1FBB0EE408A00F0F7FB00F02CFDB0EE10
:10040000480A02F003FC03F044FEA348006880F0B1
:100410000800A1490860BDEC028B10BD10B52DEDA0
:10042000028B012004F0D6FBB0EE408A9B48D0ED51
:10043000103AB0EE633AD0ED0F3AF0EE632AD0ED09
:100440000E3AB0EE632AD0ED2D3AF0EE631AD0EDFD
:100450002C3AB0EE631AD0ED2B3AF0EE630AF6EECA
:10046000003A68EE233AB0EE630A01F08BFAB0EE80
:10047000480A02F025F8B0EE480A06F034F9BDEC5F
:10048000028B10BD10B52DED028B022004F0A2FBF3
:10049000B0EE408A01F0F2F9B0EE480A00F0D8FE62
:1004A000B0EE480A02F04EFFB0EE480A06F068FED1
:1004B000B0EE480A04F060FCBDEC028B10BD10B534
:1004C0002DED028B032004F085FBB0EE408AB0EEE8
:1004D000480A02F055FFB0EE480A07F06BFEBDEC8B
:1004E000028B10BD00B52DED0A8B87B0042004F0FF
:1004F00071FBB0EE408AB0EE480A02F078FFB0EE31
:10050000480A08F096F866480078401CC0B2644972
:1005100008700A2807DD002008705F48006880F036
:1005200001005D4908605F4890ED030A10EE101A63
:1005300008460BF02CF841EC190B5A4890ED020AD2
:1005400010EE101A08460BF022F841EC1A0B554831
:1005500090ED010A10EE101A08460BF018F841EC65
:100560001B0B504890ED000A10EE101A08460BF0D5
:100570000EF841EC1C0B8DED049B8DED02AB8DED67
:1005800000BB53EC1C2B48A00BF02AFA07B0BDECC3
:100590000A8B00BD00B52DED088B87B0414890ED6A
:1005A000030A10EE101A08460AF0F1FF41EC180B8E
:1005B0003C4890ED020A10EE101A08460AF0E7FFD8
:1005C00041EC190B374890ED010A10EE101A08465D
:1005D0000AF0DDFF41EC1A0B324890ED000A10EEF4
:1005E000101A08460AF0D3FF41EC1B0B8DED048B6B
:1005F0008DED029B8DED00AB53EC1B2B2AA00BF075
:10060000EFF907B0BDEC088B00BD10B53448008889
:10061000012804DBFFF7E6FE00203149088030485E
:100620004088022804DBFFF7DEFE00202C494880CA
:100630002B488088052804DBFFF7F0FE00202849BE
:1006400088802748C0880A2804DBFFF71BFF0020AA
:100650002349C88022480089142804DBFFF72FFFB4
:1006600000201F4908811E484089322804DBFFF71B
:1006700039FF00201A4948811A48D0E900304FF468
:100680007A729A1A70F1000005DBFFF783FF0021F0
:10069000144A1160516010BD14080240D4050020B6
:1006A00010000020240A00206D6F746F72312069E1
:1006B000732025660A6D6F746F723220697320256E
:1006C000660A6D6F746F72332069732025660A6D38
:1006D0006F746F72342069732025660A0000000071
:1006E000C8050020080000201CB50121022009F0E7
:1006F000DDFA0320009001208DF804008DF806003B
:1007000003208DF8050001208DF807006946CA48CE
:1007100009F006FD1CBD00BF00BF00BF00BF00BF49
:1007200000BF00BF00BF00BFC448007838B90F2029
:1007300000BF011EA0F10102D0B2FAD100BF704784
:1007400000B50220BC491831088001200880FFF75D
:10075000E2FFB9481030006808B9012000E000202D
:1007600000F0020008B1002000BD0220B2491A3199
:100770000880FFF7D0FFB0481030006800F002009A
:1007800008B10020F0E70220AB491A310880FFF7DA
:10079000C2FF0120E8E700B50120A7491A3108800F
:1007A000FFF7B9FF0220A4491A310880FFF7B3FF11
:1007B0000120A14918310880FFF7ADFF02209E49B2
:1007C00018310880FFF7A7FF00BD00B501209A4946
:1007D0001A310880FFF79FFF022097491A310880DD
:1007E000FFF799FF0120944918310880FFF793FF24
:1007F000012091491A310880FFF78DFF00BD00B537
:1008000001208D491A310880FFF785FF02208A49AF
:1008100018310880FFF77FFF0120874918310880D1
:10082000FFF779FF012084491A310880FFF773FF31
:1008300000BD00B5012080491A310880FFF76BFF29
:1008400002207D4918310880FFF765FF01207A49B1
:1008500018310880FFF75FFF77481030006800F01C
:10086000020038B1012074491A310880FFF753FFA4
:10087000002000BD012070491A310880FFF74BFFAE
:100880000120F6E710B5034608241BE001206A4961
:100890001A310880FFF73FFF03F0800020B10220EB
:1008A00065491831088003E0022063491A31088045
:1008B0005806030EFFF72FFF01205F49183108800B
:1008C000FFF729FF201EA4F10101CCB2DED10120E7
:1008D00059491A31088010BD10B5082400230220A0
:1008E00055491831088015E05806030E0120524979
:1008F0001A310880FFF70FFF01204F491831088097
:10090000FFF709FF4C481030006800F0020008B102
:1009100043F00103201EA4F10101CCB2E4D1012077
:1009200045491A310880184610BD70B506460C4678
:100930001546FFF705FF08B9002070BD3046FFF7E8
:10094000A1FFFFF776FF18B9FFF725FF0020F4E7B6
:100950002046FFF797FFFFF76CFF2846FFF792FF4F
:10096000FFF767FFFFF717FF0120E6E770B50446C2
:100970000D46FFF7E5FE08B9002070BD2046FFF7E1
:1009800081FFFFF756FF18B9FFF705FF0020F4E7D6
:100990002846FFF777FFFFF74CFFFFF7D1FE611CFA
:1009A000C8B2FFF76FFFFFF744FFFFF795FF06465A
:1009B000FFF725FFFFF7EFFE3046DEE72DE9F041B8
:1009C0000746884614461D46012D02DA0020BDE880
:1009D000F081FFF7B5FE08B90020F8E73846FFF7C9
:1009E00051FFFFF726FF18B9FFF7D5FE0020EEE70D
:1009F0004046FFF747FFFFF71CFFFFF7A1FE791CFA
:100A0000C8B2FFF73FFFFFF714FF012607E0FFF72B
:100A100063FF04F8010BFFF7D8FE701CC6B2AE42AC
:100A2000F5DBFFF759FF04F8010BFFF7E8FEFFF7CE
:100A3000B2FE0120CBE700000004024011000020BC
:100A40002DE9F04105460E462A2E15D006DC052E6E
:100A50000CD00A2E0CD0142E16D10BE0622E0DD025
:100A6000BC2E0DD0B6F5807F0ED10BE006240DE034
:100A700005240BE0042409E0032407E0022405E038
:100A8000012403E0002401E0022400BF00BF802213
:100A90006B21D020FFF749FF0520FFF726FC4FF41C
:100AA0007A7090FBF5F0401EC7B23A461921D0206B
:100AB000FFF73BFF03226B21D020FFF736FF022216
:100AC0003721D020FFF731FF22461A21D020FFF72F
:100AD0002CFF18221B21D020FFF727FF10221C21FA
:100AE000D020FFF722FFBDE8F08110B53C21D020D7
:100AF000FFF73CFFFE4908703B21D020FFF736FF8F
:100B0000FB49487008460078497840EA012000B265
:100B1000F84908803E21D020FFF728FFF44988706B
:100B20003D21D020FFF722FFF149C87008468078A8
:100B3000C97840EA012000B2EE4948804021D02027
:100B4000FFF714FFEA4908713F21D020FFF70EFF9D
:100B5000E749487108460079497940EA012000B226
:100B6000E449888010BD10B54421D020FFF7FEFE77
:100B7000DF4988714321D020FFF7F8FEDC49C871B6
:100B800008468079C97940EA012000B2D949A1F824
:100B90005C004621D020FFF7E9FED54908724521C7
:100BA000D020FFF7E3FED24948720846007A497A1E
:100BB00040EA012001B2CF48A0F85E104821D020C1
:100BC000FFF7D4FECA4988724721D020FFF7CEFE36
:100BD000C749C8720846807AC97A40EA012001B242
:100BE000C448A0F8601010BD10B50120C2490870BB
:100BF000FFF77BFFFFF7B7FF10BD9FEDC00ABD48B1
:100C000080ED080A9FEDBE0A80ED090A9FEDBD0A3E
:100C100080ED0A0A70472DE9F0414FF47A770024FD
:100C2000002500269FEDB80AB24880ED190A9FED15
:100C3000B60A80ED1A0A9FEDB40A80ED1B0A9FEDFB
:100C4000B30A80ED1C0A9FEDB10A80ED1D0A9FEDED
:100C5000AF0A80ED1E0AA0E00220FFF746FBFFF777
:100C6000C3FFA448B0F95C0000EE100AB8EEC00A59
:100C7000A048D0ED190AB4EEE00AF1EE10FA08DD52
:100C8000B0F95C0000EE100AB8EEC00A994880ED99
:100C9000190A9848B0F95E0000EE100AB8EEC00AD2
:100CA0009448D0ED1A0AB4EEE00AF1EE10FA08DD2D
:100CB000B0F95E0000EE100AB8EEC00A8D4880ED73
:100CC0001A0A8C48B0F9600000EE100AB8EEC00AAB
:100CD0008848D0ED1B0AB4EEE00AF1EE10FA08DD08
:100CE000B0F9600000EE100AB8EEC00A814880ED4D
:100CF0001B0A8048B0F95C0000EE100AB8EEC00A8A
:100D00007C48D0ED1C0AB4EEE00AF1EE10FA08D2ED
:100D1000B0F95C0000EE100AB8EEC00A754880ED2C
:100D20001C0A7448B0F95E0000EE100AB8EEC00A62
:100D30007048D0ED1D0AB4EEE00AF1EE10FA08D2C8
:100D4000B0F95E0000EE100AB8EEC00A694880ED06
:100D50001D0A6848B0F9600000EE100AB8EEC00A3B
:100D60006448D0ED1E0AB4EEE00AF1EE10FA08D2A3
:100D7000B0F9600000EE100AB8EEC00A5D4880EDE0
:100D80001E0A5C48B0F95C0004445A48B0F95E00A1
:100D900005445848B0F960000644381EA7F1010127
:100DA0008FB27FF459AF534890ED190AD0ED1C0A69
:100DB00030EE600AF3EE040AB4EEE00AF1EE10FA47
:100DC00019DC90ED1A0AD0ED1D0A30EE600AF3EE40
:100DD000040AB4EEE00AF1EE10FA0CDC90ED1B0A06
:100DE000D0ED1E0A30EE600AF3EE040AB4EEE00A1B
:100DF000F1EE10FA02DDFFF70EFF2AE000EE104AD6
:100E0000B8EEC00ADFED420A80EE201A394880EDC4
:100E10001F1A00EE105AB8EEC00ADFED3D0A80EE50
:100E2000201A80ED201A00EE106AB8EEC00ADFED3D
:100E3000380A80EE201A80ED211A4FF4004035491F
:100E40000880C820FFF751FA4FF400403149891C4F
:100E50000880BDE8F08110B586B0182168460AF018
:100E6000C6F92448B0F9000000EE100AB8EEC00A36
:100E70002048D0ED080A30EE600A80ED0B0AB0F988
:100E8000020000EE100AB8EEC00A1A48D0ED090AB6
:100E900030EE600A80ED0C0AB0F9040000EE100A92
:100EA000B8EEC00A1348D0ED0A0A30EE600A80EDB1
:100EB0000D0AB0F95C0000EE100AB8EEC00A0D4849
:100EC000D0ED1F0A30EE600A80ED220AB0F95E0014
:100ED00000EE100AB8EEC00A0648D0ED200A30EE47
:100EE000600A80ED230AB0F9600000EE100A13E0FA
:100EF0008C060020D4050020110000200000C8420C
:100F00000000C8C200000000000000C700FEFF464D
:100F100000007A4418040240B8EEC00A8A48D0EDB6
:100F2000210A30EE600A80ED240A092433E0601EB5
:100F3000864931F8100021F81400601E143131F890
:100F400010108248143020F81410601E7F49283198
:100F500031F810107D48283020F81410601E7B49AD
:100F60003C3131F8101079483C3020F81410601EE4
:100F70007649503131F810107448503020F8141070
:100F8000601E7249643131F810107048643020F8E6
:100F90001410601EC4B2012CC9DA6B4890ED0B0A24
:100FA000BDEEC00A10EE100A00B26849088066481B
:100FB00090ED0C0ABDEEC00A10EE100A00B2888255
:100FC000614890ED0D0ABDEEC00A10EE100A00B2A5
:100FD00008855D4890ED220ABDEEC00A10EE100AA9
:100FE00000B28887584890ED230ABDEEC00A10EE83
:100FF000100A00B2A1F85000534890ED240ABDEE4B
:10100000C00A10EE100A00B2A1F8640000242AE021
:101010004E4931F914100098084400904B481430A0
:1010200030F914000199084401904848283030F9FB
:10103000140002990844029044483C3030F91400EE
:101040000399084403904148503030F91400049942
:10105000084404903D48643030F914000599084470
:101060000590601CC4B20A2CD2DB9DED000AB8EEDC
:10107000C00AF2EE040A80EE201A334880ED0E1A00
:101080009DED010AB8EEC00AF2EE040A80EE201AC5
:1010900080ED0F1A9DED020AB8EEC00AF2EE040AC6
:1010A00080EE201A80ED101A9DED030AB8EEC00AFA
:1010B000F2EE040A80EE201A80ED251A9DED040A56
:1010C000B8EEC00AF2EE040A80EE201A80ED261A6D
:1010D0009DED050AB8EEC00AF2EE040A80EE201A71
:1010E00080ED271A90ED250ADFED190A20EE200A7F
:1010F00080ED280A90ED260ADFED150A20EE200A81
:1011000080ED290A90ED270ADFED110A20EE200A72
:1011100080ED2A0A90ED280ADFED0E0A20EE200A63
:1011200080ED2B0A90ED290ADFED0A0A20EE200A55
:1011300080ED2C0A90ED2A0ADFED060A20EE200A47
:1011400080ED2D0A06B010BDD405002098060020C1
:10115000E2007A3D34FA8E3C10B5002202213C2098
:10116000FFF7E3FB10BD10B503213C20FFF7FEFBAA
:10117000FE49087004213C20FFF7F8FBFB4948704A
:1011800005213C20FFF7F2FBF849887006213C203E
:10119000FFF7ECFBF549C87007213C20FFF7E6FBA1
:1011A000F249087108213C20FFF7E0FBEF49487144
:1011B00010BD10B5FFF7D7FFEC484078EB49097830
:1011C00040EA012000B2EA490880E848C078E749CF
:1011D000897840EA0120404200B2E5498880E3482E
:1011E0004079E249097940EA0120404200B2E049F1
:1011F00048800846B0F90000B0F5004F04DB08460F
:101200000088401C00B20880D948B0F90200B0F54F
:10121000004F05DBD6484088401C00B2D4494880C6
:10122000D348B0F90400B0F5004F05DBD048808802
:10123000401C00B2CE49888010BDF0B50446059D23
:101240005E1BA71A7E438F1A96FBF7F67019F0BD46
:1012500010B52DED0A8BB0EE40CAC64890ED000ADD
:10126000DFEDC50A80EE201A11EE104A20460AF082
:101270008EF941EC1B0BB0EE4B0AF0EE6B0A0AF054
:101280009BFDB0EE40AAF0EE60AA51EC1A0B0AF0FA
:10129000C1F909EE900AB74890ED000ADFEDB60AF1
:1012A00080EE201A11EE104A20460AF070F941EC47
:1012B0001B0BB0EE4B0AF0EE6B0A0BF0B1FCB0EE7C
:1012C00040AAF0EE60AA51EC1A0B0AF0A3F908EE5E
:1012D000100AA84890ED010ADFEDA70A80EE201A57
:1012E00011EE104A20460AF052F941EC1B0BB0EE09
:1012F0004B0AF0EE6B0A0AF05FFDB0EE40AAF0EE8A
:1013000060AA51EC1A0B0AF085F908EE900A994888
:1013100090ED010ADFED980A80EE201A11EE104AD6
:1013200020460AF034F941EC1B0BB0EE4B0AF0EE0C
:101330006B0A0BF075FCB0EE40AAF0EE60AA51EC1F
:101340001A0B0AF067F909EE100AFFF732FF884816
:1013500090ED0E0AB0F9000000EE900AF8EEE00AF7
:10136000834890ED0B1A10EE810A80ED020A90ED91
:101370000F0AB0F9020000EE900AF8EEE00A7C488D
:1013800090ED0C1A10EE810A80ED030A90ED100A20
:10139000B0F9040000EE900AF8EEE00A744890ED0F
:1013A0000D1A10EE810A80ED040A90ED020A20EE7B
:1013B000290AD0ED030A60EE890A00EE880AD0ED12
:1013C000040A60EEA80A00EEC80A80ED050A90ED56
:1013D000030A20EE280AD0ED040A00EE890A80ED07
:1013E000060A90ED050A10EE101A08460AF0CFF82A
:1013F00041EC1B0B0AF00EF90AEE100A5C4890ED66
:10140000060A10EE101A08460AF0C1F841EC1B0B50
:101410000AF000F90AEE900AF0EE4A0AB0EE6A0A03
:1014200003F048FEF1EE400A514890ED130A9FED9B
:10143000521A00EE810A80ED110A90ED110ADFEDDB
:101440004F0AB4EEE00AF1EE10FA07D290ED110A5D
:10145000DFED4B0A30EE200A80ED110A444890ED92
:10146000110ADFED480AB4EEE00AF1EE10FA07DDEA
:1014700090ED110ADFED420A30EE600A80ED110AAC
:101480003B4890ED110ADFED3D0AB4EEE00AF1EEC3
:1014900010FA0CDD90ED110ADFED3A0AB4EEE00A25
:1014A000F1EE10FA03D290ED110A80ED120ABDECB4
:1014B0000A8B10BD40F28B102D49088440F279113F
:1014C0002B4841844FF4B57181846FF0B5002849F1
:1014D000C8846FF0AD01264801856FF0E8014185B1
:1014E000B7EE000A80ED0B0AB0F920002049B1F9EF
:1014F0002610401A00EE100AF8EEC00A1C48B0F997
:101500002210B0F92800081A00EE100AB8EEC00A3E
:1015100080EE801A164880ED0C1AB0F920001449AC
:10152000B1F92610401A00EE100AF8EEC00A104871
:10153000B0F92410B0F92A00081A00EE100AB8EE2B
:10154000C00A80EE801A0A4880ED0D1AB0F920001A
:101550000749B1F92610084400EE100AB8EEC00A97
:10156000F6EE000A20EE200A01480DE012000020ED
:10157000100700209807002033336542000034C371
:101580000000B44300003443D0ED0B0A20EE200AE3
:1015900080ED0E0AB0F92210B0F92800084400EEE0
:1015A000100AB8EEC00AF6EE000A20EE200A104833
:1015B000D0ED0C0A20EE200A80ED0F0AB0F92410BD
:1015C000B0F92A00084400EE100AB8EEC00AF6EEA0
:1015D000000A20EE200A0648D0ED0D0A20EE200A6F
:1015E00080ED100A9FED030A80ED130A704700009A
:1015F0001007002000002F4310B501221E21EE200D
:10160000FFF793F910BD38B50020009000250024A5
:1016100015E0A02000EB4400C1B202236A46EE2090
:10162000FFF7CCF92844C5B29DF801009DF80010E1
:1016300040EA0120C24921F81400601CC4B2082C01
:10164000E7DB082D01D1012038BD0020FCE710B5F3
:1016500001225821EE20FFF768F910BD10B50A20CD
:10166000FEF743FEFFF7C8FF0320FEF73EFEFFF73D
:10167000CAFFFFF7ECFF10BD10B50323B14A0021EC
:10168000EE20FFF79BF910BD10B50323AE4A0021F1
:10169000EE20FFF793F910BD10B501224821EE208E
:1016A000FFF743F910BD2DE9F04F2DED088B83B006
:1016B00000260027A34800780004A249497840EAA0
:1016C0000120A04989780843A04988619E48007894
:1016D00000049D49497840EA01209B4989780843E4
:1016E0009A49C8610846806995494989A0EB012457
:1016F0009348808800040022914909894FEAE47ADE
:10170000A1FB04CB02FB04B301FB0A334FEADC115B
:1017100041EA436110EB010842EBE3198848408835
:101720004FEAC0308649C9884FEAE47AA1FB04CB6E
:1017300002FB04B301FB0A334FEA1C2141EA0361B7
:10174000401842EB2322CDE900027D4880893246D1
:101750004FEAE471A0FB043C02FB04C200FB012041
:101760004FEA402141EAD3504FF4FA6140187749DB
:10177000886008468068B0F5FA6F1DDA0846806810
:10178000A0F5FA656D4305EB8500461005EB850075
:101790008710084680686E4988420DDA6B48806879
:1017A00000F2DC556D43072000FB056605EB4500A4
:1017B00000EBC50007EB6007B8EB060869EBE679BC
:1017C000DDE90001C01B61EBE771CDE900015F4875
:1017D0004FF00003C169DDE9002CA1FB020A03FB05
:1017E00002A201FB0C214FEA505040EAC1224FEA0D
:1017F0006150B2EB080160EB0900420442EAD130CB
:1018000052494860084690ED010AB8EEC00ADFED83
:10181000510A80EE201A11EE10AA504609F0B7FEC8
:1018200041EC1B0B9FED4C1BB0EE4B0AF0EE6B0A2C
:101830000AF0CEFBB0EE40AAF0EE60AA9FED480B96
:1018400053EC102B51EC1A0B09F080FD9FED460B69
:1018500053EC102B09F07DFD09F07AFE3B494860FE
:101860000846406928B1084640684969401A374926
:10187000086003B0BDEC088BBDE8F08F10B5002008
:101880003B4908703B48006848B1FFF7FDFEFFF791
:10189000DEFEFFF708FF00203649086006E0FFF78C
:1018A000EBFEFFF7F9FE01203249086010BD274822
:1018B0000068704770B5C82500242F482349C860C8
:1018C000400C08611BE00A20FEF70FFDFFF7D6FF72
:1018D0001E4840681D49C968884203DD1B484068AE
:1018E0001A49C8601948406818490969884203DAEA
:1018F0001648406815490861144840680444281E89
:10190000A5F101018DB2DED100EE104AB8EEC00A99
:10191000DFED1A0A80EE201ABDEEC10A0B4880EDF9
:10192000050A4FF40040164908804FF49670FEF700
:10193000DCFC4FF400401249891C088070BD000097
:1019400088070020180000201B00002060070020EE
:1019500024FAFFFF80E6C54700000020965BC83FE1
:10196000000000000000F03F000000001AE95041B4
:1019700011000020200000200080FFFF00004843ED
:101980001804024000B52DED108B83B0B0EE408AF4
:10199000B0EE609AF0EE419AB0EE61AAF0EE42DA53
:1019A000F0EE62AAB0EE43DA6DEEAD0A4AEEAA0A94
:1019B0004DEE0D0AB0EE600A03F045FCF0EE408AF1
:1019C0008DEEA80AF0EE40DA8AEEA80AF0EE40AA00
:1019D0008DEE280AB0EE40DAFE4890ED000AFE488F
:1019E000D0ED000A20EE200AFC48D0ED000AFC48A9
:1019F00090ED001A00EEC10AF0EE000A20EE200A77
:101A0000F84880ED000AF54890ED000AF148D0ED65
:101A1000000A20EE200AF248D0ED000AEE4890EDD0
:101A2000001A00EE810AF0EE000A20EE200AEE48CD
:101A300080ED000AE74890ED000A20EE000AE84831
:101A4000D0ED000A90ED001A00EE810AF7EE000AD0
:101A5000B0EE001A41EE400AE448C0ED000A90EDF5
:101A6000000A2AEE800AE048D0ED000A0DEE600A76
:101A7000B0EE40EADB4890ED000A2DEE000ADB48AC
:101A8000D0ED000A0DEEE00AF0EE40EAD64890ED07
:101A9000000A2DEE800AD348D0ED000A0AEEE00AD3
:101AA000B0EE40FA9FEDD20A2EEE000AF0EE000AE8
:101AB00060EE200ACF4890ED000A00EE880A80ED23
:101AC000000A9FEDCB0A2EEE800AF0EE000A60EECF
:101AD000200AC94890ED000A00EE880A80ED000A4D
:101AE0009FEDC30A2FEE000AF0EE000A60EE200A16
:101AF000C24890ED000A00EE880A80ED000ABD4859
:101B000090ED000ADFEDBE0AB4EEE00AF1EE10FA45
:101B100002D29FEDBB0A0FE0B64890ED000ADFED60
:101B2000B90AB4EEE00AF1EE10FA02DD9FEDB50A53
:101B300002E0B04890ED000AAE4880ED000A90ED5A
:101B4000000ADFEDAF0AB4EEE00AF1EE10FA02D2BD
:101B50009FEDAB0A0FE0A74890ED000ADFEDA90A60
:101B6000B4EEE00AF1EE10FA02DD9FEDA60A02E003
:101B7000A04890ED000A9F4880ED000A90ED000A11
:101B8000DFED9F0AB4EEE00AF1EE10FA02D29FED0B
:101B90009C0A0FE0974890ED000ADFED9A0AB4EE38
:101BA000E00AF1EE10FA02DD9FED960A02E091489C
:101BB00090ED000A8F4880ED000A90ED000A7EEE5D
:101BC000000A9FED911AB0EE490A01EE200AB0EE2C
:101BD000409A894890ED000A7EEE800A9FED8A1AAD
:101BE000B0EE690A01EE200AF0EE409A834890EDCB
:101BF000000A7FEE000A9FED841AB0EE4A0A01EE59
:101C0000200AB0EE40AA734890ED000AB1EE400AF7
:101C100020EE090A7248D0ED000A00EEE90A6E488B
:101C2000D0ED000A00EECA0A6C48D0ED000A40EE82
:101C3000080AC0ED000A90ED000A20EE090A684883
:101C4000D0ED000A00EE8A0A6348D0ED000A00EEEB
:101C5000E90A6048D0ED000A40EE080AC0ED000A2B
:101C60005E4890ED000A20EE290A5A48D0ED000A9D
:101C700000EECA0A5848D0ED000A00EE890A58481A
:101C8000D0ED000A40EE080AC0ED000A534890ED7E
:101C9000000A20EE0A0A4F48D0ED000A00EEA90A19
:101CA0004F48D0ED000A00EEC90A4B48D0ED000ABB
:101CB00040EE080AC0ED000A4848D0ED000A60EE88
:101CC000A00A444890ED001AD0ED001A41EE210A16
:101CD000434890ED001AD0ED001A41EE210A3E482B
:101CE00090ED001AD0ED001A41EE210AB0EE600A24
:101CF00003F0A9FAF0EE408A384890ED000AC0EEF1
:101D0000280AC0ED000A334890ED000AC0EE280A08
:101D1000C0ED000A324890ED000AC0EE280AC0ED7E
:101D2000000A2D4890ED000AC0EE280AC0ED000A16
:101D30002B4890ED001AF8EE001A21EE211AD0ED92
:101D4000001A21EE211A2448D0ED001AB0EE002A24
:101D500061EE821A90ED002A01EEC21AF7EE001A27
:101D600031EE211AF0EE410A1A4890ED001AF0EE19
:101D7000001A21EE211A1A48D0ED001A21EE211A7C
:101D80001648D0ED001AB0EE002A61EE821A124811
:101D900090ED002A01EE821AB0EE410A03F08AF9B2
:101DA000DFED1A0A20EE200A194880ED020A0948E0
:101DB00090ED001AF8EE001A21EE211AD0ED001A6B
:101DC00021EE211A0648D0ED001AB0EE002A61EE8D
:101DD000821A1FE02800002030000020240000208C
:101DE0002C000020580000205C0000206000002033
:101DF000CDCCCC3D34000020380000203C00002039
:101E000034FA0EBD34FA0E3D9A99193F33336542C8
:101E10009807002090ED002A01EEC21AF7EE001A92
:101E200031EE211AF0EE410A90ED001AF0EE001AA0
:101E300021EE211A7048D0ED001A21EE211A6F48C8
:101E4000D0ED001AB0EE002A61EE821A6C4890EDD7
:101E5000002A01EE821AB0EE410A03F02BF95FED81
:101E6000150A20EE200A674880ED010A644890EDCB
:101E7000000AF8EE000A20EE200A5F48D0ED000AC2
:101E800020EE200A5D48D0ED000AB0EE001A60EEA8
:101E9000810A5D4890ED001A00EE810A10EE101ADA
:101EA000084609F074FB41EC1C0BB0EE4C0AF0EE56
:101EB0006C0A09F0D1FDB0EE40BAF0EE60BA9FEDC9
:101EC000530B53EC102B51EC1B0B09F042FACDE9EC
:101ED00000019DED000B51EC100B09F09BFB4949F3
:101EE0000860494890ED000A20EE000A4248D0ED13
:101EF000000A90ED001A00EE810AF7EE000AB0EE3B
:101F0000001A41EE400A4348C0ED000A3C4890EDFB
:101F1000000A3D48D0ED000A20EE200A3748D0EDF7
:101F2000000A354890ED001A00EEC10AF0EE000AF2
:101F300020EE200A384880ED000A314890ED000A72
:101F40002D48D0ED000A20EE200A2C48D0ED000AE2
:101F50002D4890ED001A00EE810AF0EE000A20EE06
:101F6000200A2E4880ED000A254890ED000A2648F8
:101F7000D0ED000A20EE200A2048D0ED000A1E48CD
:101F800090ED001A00EE810AF0EE000A20EE200A21
:101F9000234880ED000A1A4890ED000A20EE000A5E
:101FA0001548D0ED000A90ED001A00EE810AF7EE18
:101FB000000AB0EE001A41EE400A1A48C0ED000ACD
:101FC000114890ED000A0C48D0ED000A20EE200ADE
:101FD0000A48D0ED000A0A4890ED001A00EEC10A46
:101FE000F0EE000A20EE200A0F4880ED000A03B050
:101FF000BDEC108B00BD000030000020240000204C
:1020000028000020980700202C000020000000601D
:1020100066A64C40400000204400002048000020FC
:102020004C0000205000002054000020B2EE0E1A98
:10203000F4EEC10AF1EE10FA00D270479FEDFE1ADD
:10204000C0EE811AFD48018E008E401CFB4A1086AE
:102050004EF66020814206DA1046008E1146098E47
:10206000491C118601E04EF6602001EE100AB8EE20
:10207000C11A21EE001AF4EEC11AF1EE10FA03D2E1
:102080000120EE4981F83200EC4890F83200012836
:102090000BD10020E9490880488088804FF6FC6019
:1020A000C880032008810220488100BFC5E710B521
:1020B0002DED028B052002F08DFDB0EE408ADF4849
:1020C0000088DE49888108464188C1818188018273
:1020D000C1884182DA480078D949497840EA01202C
:1020E000C0F30A00D74908800846B0F90000A0F5FF
:1020F000806000EE900AF8EEE00AB0EE600AF1EEC1
:10210000040A03F009FABDEEC00A10EE100A00B28C
:10211000CA490880CA484078C010C949897840EA4D
:102120004110C0F30A00C74948800846B0F90200D0
:10213000A0F5806000EE900AF8EEE00AB0EE600ACA
:10214000F1EE040A03F0E8F9BDEEC00A10EE100A41
:1021500000B2BA494880BA4880788011B849C97835
:1021600040EA8100B649097940EA8120C0F30A00BB
:10217000B44988800846B0F90400A0F5806000EEFC
:10218000900AF8EEE00AB0EE600AF1EE040A03F0FD
:10219000C3F9BDEEC00A10EE100A00B2A74988804C
:1021A000A74800794010A649497940EAC110C0F318
:1021B0000A00A449C8800846B0F90600A0F580606E
:1021C00000EE900AF8EEE00AB0EE600AF1EE040AC2
:1021D00003F0A2F9BDEEC00A10EE100A00B2974952
:1021E000C880974840790011800808819448407958
:1021F000C0F3011048810846B0F90000B1F90C1095
:10220000401A00EE100AB8EEC00AC0EE080A9FEDB0
:102210008A0AF4EEC00AF1EE10FA0DD28748B0F93E
:1022200000008649B1F90C10401A00EE100AF8EED1
:10223000C00A80EE880A01E09FED7F0A7F4880EDAA
:10224000060AB0F90210B0F90E00081A00EE100AE2
:10225000B8EEC00AC0EE080A9FED770AF4EEC00A95
:10226000F1EE10FA0CD27548B0F90210B0F90E0078
:10227000081A00EE100AF8EEC00A80EE880A01E0A3
:102280009FED6D0A6D4880ED070AB0F90410B0F9B2
:102290001000081A00EE100AB8EEC00AC0EE080AD4
:1022A0009FED650AF4EEC00AF1EE10FA0CD2634815
:1022B000B0F90410B0F91000081A00EE100AF8EE98
:1022C000C00A80EE880A01E09FED5B0A5B4880ED62
:1022D000080AB0F90610B0F91200081A00EE100A48
:1022E000B8EEC00AC0EE080A9FED530AF4EEC00A29
:1022F000F1EE10FA0CD25148B0F90610B0F9120004
:10230000081A00EE100AF8EEC00A80EE880A01E012
:102310009FED490A494880ED090A0020474908868F
:1023200081F8320008460089012803D1042046497B
:10233000088003E004204449891E0880BDEC028B1C
:1023400010BD00B597B00121404807F0AFFC012156
:10235000880407F0DEFC07220B213B481A3807F0FF
:102360006AFF4FF40060119002208DF848000020B1
:102370008DF84A0003208DF8490000208DF84B00AD
:1023800011A931481A3807F0CBFE314813900020CC
:10239000ADF85000ADF85200ADF854000420ADF88F
:1023A00056000020ADF8580013A92A4808F09AF901
:1023B00001224021274808F0CAFA012240F22441B4
:1023C000244808F0CDFA27208DF8400001208DF830
:1023D00041008DF842008DF8430010A806F023FC60
:1023E0001D4807F05DFF4FF0006001901948001D87
:1023F0000290134803900020049080200590002054
:1024000006904FF4806007900020089009904FF4E8
:1024100080700A904FF440300B9000200C900D908B
:102420000E900F9001A90C4807F0DCFF01210A482B
:1024300008F012F8012111E000007A44A4070020FE
:10244000D8070020F20700201A08024004002000EC
:10245000A08601000048004028600240154808F0AE
:10246000C9F917B000BD70B5134808F018F8C0F1ED
:10247000800085B20F480088C4B20E48001D008855
:10248000C4B200210C4807F0E7FF0C490A4808F0E5
:102490005CF8FFF70CFE8021074807F0FEFF40F2D2
:1024A0002441044808F0CEFA0121034807F0D4FF84
:1024B00070BD00000048004028600240400F00103E
:1024C00010B52DED028BB0EE408AFC4890ED000A6D
:1024D000DFEDFB0AB4EEE00AF1EE10FA11DBF94889
:1024E00090ED270AF848B0F90400404200EE900A47
:1024F000F8EEE00A9FEDF51A00EE810AF14880ED52
:10250000270AF04890ED270ADFEDF10AB4EEE00A61
:10251000F1EE10FA07DD90ED270ADFEDEE0A30EE5E
:10252000600A80ED270AE74890ED270ADFEDEA0A06
:10253000B4EEE00AF1EE10FA07D290ED270ADFEDD3
:10254000E50A30EE200A80ED270ADF48408903289B
:1025500024D1DD48B0F9000000EE100AB8EEC00A40
:10256000F3EE090A20EE200ADFEDDC0A80EE201AE5
:10257000D44880ED251AD448B0F9020000EE100AC4
:10258000B8EEC00AF3EE090A20EE200ADFEDD30A06
:1025900080EE201ACB4880ED261A35E0CA48B0F903
:1025A000000000EE100AB8EEC00AF3EE090A20EEB1
:1025B000200ADFEDCB0A20EE200ADFEDC80A80EE0C
:1025C000201AC84890ED310A31EE000ABD4880ED6E
:1025D000250ABD48B0F9020000EE100AB8EEC00AA4
:1025E000F3EE090A20EE200ADFEDBD0A20EE200AF4
:1025F0009FEDBA1AC0EE010ABA4890ED300A30EEEB
:10260000800AB04880ED260AAE4890ED250AB6480B
:10261000D0ED010A30EE600AAA4880ED280A90ED5C
:10262000260AB148D0ED000A30EE600AA54880EDD8
:10263000290A90ED270AAC48D0ED020A30EE600A74
:10264000A04880ED2A0AD0ED2A0AB0EE600A02F016
:1026500082FF9C4880ED2A0A90ED280AB5EEC00A58
:10266000F1EE10FA02DD90ED280A04E0954890EDB5
:10267000280AB1EE400AF3EE0E0A80EE201A9148C5
:1026800080ED2B1A90ED290AB5EEC00AF1EE10FA92
:1026900002DD90ED290A04E08A4890ED290AB1EEA6
:1026A000400AF3EE0E0A80EE201A864880ED2C1ABE
:1026B00090ED2A0AB5EEC00AF1EE10FA02DD90EDB7
:1026C0002A0A04E07F4890ED2A0AB1EE400AF3EEB0
:1026D0000E0A80EE201A7B4880ED2D1A7A4890ED84
:1026E000060A20EE080AF3EE090A60EE200A9FEDC2
:1026F0007F1A80EE810A7C48D0ED010AF1EE600A73
:10270000704890ED2E1A70EEC10A30EE200A78481B
:10271000D0ED050AB2EE041A60EE810A20EE200A1E
:10272000DFED740A80EE881A60EE010A654890EDCC
:102730002B1A9FED710ADFED711A01EE810A20EE6E
:10274000800A80ED310A604890ED070A20EE080A01
:10275000F3EE090A60EE200A9FED641A80EE810A0A
:102760006148D0ED000AF1EE600A564890ED2F1A4C
:1027700070EEC10A30EE200A5D48D0ED020AB2EEDA
:10278000041A60EE810A20EE200ADFED5A0A80EE7C
:10279000881A60EE010A4B4890ED2C1A9FED560AFC
:1027A000DFED561A01EE810A20EE800A80ED320A32
:1027B000DFED500A80EE880AD0ED2A0A90ED301A3B
:1027C00070EEC10A4A4890ED081AF2EE041A21EEA2
:1027D000211A60EE810A60EE200A3A4890ED2D1A27
:1027E0009FED450ADFED451A01EE810A20EE800AD1
:1027F00080ED330A3E4890ED040A3248D0ED280AB5
:1028000060EE200A90ED370A00EE880A80ED370A64
:10281000374890ED010A2B48D0ED290A60EE200AD6
:1028200090ED380A00EE880A80ED380A304890EDC5
:10283000070A2448D0ED2A0A60EE200A90ED390AF2
:1028400000EE880A80ED390A1C4890ED020AF6EE87
:10285000000A20EE200AF3EE090A20EE200A1948A9
:1028600080ED430A154890ED020AF6EE000A20EECC
:10287000200AF3EE090A20EE200A124880ED440AED
:102880000E4890ED020AF6EE000A20EE200AF3EE62
:10289000090A20EE200A0B4880ED450A90ED370A20
:1028A000D0ED430AF1EE600AB4EEE00AF1EE10FA60
:1028B00026D290ED430AB1EE400A31E038090020FB
:1028C0000000704310080020A407002052491D3A60
:1028D000000034430000B443000034C3000025442A
:1028E000CDCC4C3E680B0020980700200000164419
:1028F000AC0A00200AD7A33B6666263F3333B33EBB
:10290000FC4890ED370AD0ED430AB4EEE00AF1EE50
:1029100010FA02DD90ED430A02E0F64890ED370A26
:10292000F44880ED370A90ED380AD0ED440AF1EE14
:10293000600AB4EEE00AF1EE10FA04D290ED440A17
:10294000B1EE400A0FE0EB4890ED380AD0ED440AB2
:10295000B4EEE00AF1EE10FA02DD90ED440A02E076
:10296000E44890ED380AE34880ED380A90ED390AE2
:10297000D0ED450AF1EE600AB4EEE00AF1EE10FA8D
:1029800004D290ED450AB1EE400A0FE0D94890ED2F
:10299000390AD0ED450AB4EEE00AF1EE10FA02DD94
:1029A00090ED450A02E0D34890ED390AD14880ED18
:1029B000390A90ED280ADFEDD00AB4EEE00AF1EE14
:1029C00010FA02D29FEDCC0A0FE0CA4890ED280A17
:1029D000DFEDCA0AB4EEE00AF1EE10FA02DD9FED77
:1029E000C70A02E0C34890ED280AC24880ED280AD1
:1029F00090ED290ADFEDC00AB4EEE00AF1EE10FA1C
:102A000002D29FEDBD0A0FE0BA4890ED290ADFED32
:102A1000BB0AB4EEE00AF1EE10FA02DD9FEDB70A50
:102A200002E0B44890ED290AB24880ED290A90ED01
:102A30002A0ADFEDB10AB4EEE00AF1EE10FA02D292
:102A40009FEDAD0A0FE0AB4890ED2A0ADFEDAB0A2F
:102A5000B4EEE00AF1EE10FA02DD9FEDA80A02E002
:102A6000A44890ED2A0AA34880ED2A0A90ED280A8E
:102A7000D0ED310A30EE200AD0ED370A30EE200AD0
:102A80009F48D0ED030A20EE200A9A4880ED460ABE
:102A900090ED290AD0ED320A30EE200AD0ED380A46
:102AA00030EE200A9648D0ED000A20EE200A914828
:102AB00080ED470A90ED2A0AD0ED330A30EE200A65
:102AC000D0ED390A30EE200A8D48D0ED060A20EE0E
:102AD000200A884880ED480A8A4890ED010AB1EE44
:102AE000400A844880ED2E0A864890ED000AB1EE37
:102AF000400A804880ED2F0A824890ED020AB1EE2C
:102B0000400A7C4880ED300ABDEC028B10BD10B548
:102B10002DED088BB0EE408A7B480078A0B37B494E
:102B2000B1F9060008F0F6FC41EC1B0B9FED780BA9
:102B300053EC102B08F00DFC41EC1A0B9FED760BBB
:102B400053EC102B08F05EFB41EC190B08F062FD12
:102B500073490860084690ED000ADFED720AB4EE92
:102B6000E00AF1EE10FA02D29FED6E0A10E06C4816
:102B700090ED000ADFED6C0AB4EEE00AF1EE10FA17
:102B800003DD9FED690A03E006E0654890ED000A69
:102B9000634880ED000A04E09FED640A604880ED20
:102BA000000A5F48D0ED000A9FED611A80EE810AAD
:102BB000D0ED010A70EE600A90ED010A9FED5D1AFA
:102BC00028EE011A01EE200A80ED010A90ED010ABB
:102BD000B5EEC00AF1EE10FA02D29FED540A0FE0F2
:102BE0004F4890ED010AF7EE000AB4EEE00AF1EE6C
:102BF00010FA02DDB7EE000A02E0494890ED010A42
:102C0000474880ED020ABDEC088B10BD10B52DEDD4
:102C1000028BB0EE408A374890ED460AF3EE0E0A7A
:102C200080EE201A9FED440A21EE000A80ED000A92
:102C3000D0ED470AB3EE0E1A80EE810ADFED3E0AB0
:102C400020EE200A80ED010A90ED480AF3EE0E0A0C
:102C500080EE201A9FED380A21EE000A80ED020A6C
:102C600090ED000ADFED350AB4EEE00AF1EE10FA5D
:102C700002D29FED320A0FE01E4890ED000ADFED10
:102C80002E0AB4EEE00AF1EE10FA02DD9FED2A0AF8
:102C900002E0184890ED000A164880ED000A90ED19
:102CA000010ADFED260AB4EEE00AF1EE10FA02D2D4
:102CB0009FED220A0FE00F4890ED010ADFED1E0A9A
:102CC000B4EEE00AF1EE10FA02DD9FED1B0A02E01D
:102CD000084890ED010A074880ED010A90ED020ACC
:102CE000DFED160AB4EEE00AF1EE10FA28D29FEDFD
:102CF000130A35E0100800200000B4C20000B442FE
:102D0000AC0A00209807002064000020A4070020DF
:102D10001361C3D32B65E33F0000000000407F40F8
:102D2000380900200000C84200007A44000000007A
:102D30000000C8433433FB4100005C4300005CC327
:102D4000FA4890ED020A5FED040AB4EEE00AF1EEF3
:102D500010FA02DD1FED080A02E0F44890ED020AC5
:102D6000F24880ED020A90ED000AF148D0ED280A01
:102D700030EE600AED4880ED030A90ED010AEC4860
:102D8000D0ED290A30EE600AE84880ED040A90EDA3
:102D9000020AE748D0ED2A0A30EE600AE34880EDE7
:102DA000050A90ED030AB5EEC00AF1EE10FA02DD55
:102DB00090ED030A04E0DD4890ED030AB1EE400A0D
:102DC0005FED230A80EE201AD84880ED061A90EDB8
:102DD000040AB5EEC00AF1EE10FA02DD90ED040A25
:102DE00004E0D24890ED040AB1EE400A5FED2E0AED
:102DF00080EE201ACD4880ED071A90ED050AB5EE59
:102E0000C00AF1EE10FA02DD90ED050A04E0C748B1
:102E100090ED050AB1EE400ADFEDC60A80EE201AF9
:102E2000C24880ED081AC24890ED280ABF48D0ED8C
:102E3000090A30EE600AC048D0ED0E0AF1EE600AD1
:102E400020EE200AC0EE080AB848C0ED0C0AB848C7
:102E500090ED290AB548D0ED0A0A30EE600AB6486E
:102E6000D0ED0B0AF1EE600A20EE200AC0EE080A4F
:102E7000AE48C0ED0D0AAE4890ED2A0AAB48D0ED41
:102E80000B0A30EE600AAC48D0ED110AF1EE600A90
:102E900020EE200AC0EE080AA448C0ED0E0A90ED0C
:102EA000030AD0ED0C0A30EE600AA348D0ED0D0AFB
:102EB00060EE200A9D4890ED120A00EE880A80ED2F
:102EC000120A90ED040AD0ED0D0A30EE600A9A481D
:102ED000D0ED0A0A60EE200A944890ED130A00EE45
:102EE000880A80ED130A90ED050AD0ED0E0A30EE47
:102EF000600A9148D0ED100A60EE200A8B4890EDF0
:102F0000140A00EE880A80ED140A8C4890ED020A3B
:102F1000F6EE000A20EE200A5FED790A20EE200A84
:102F2000824880ED1E0A854890ED020AF6EE000AFE
:102F300020EE200A5FED800A20EE200A7B4880ED1B
:102F40001F0A7E4890ED020AF6EE000A20EE200AE3
:102F50005FED870A20EE200A744880ED200A90ED8C
:102F6000120AD0ED1E0AF1EE600AB4EEE00AF1EEAC
:102F700010FA04D290ED1E0AB1EE400A0FE06B4841
:102F800090ED120AD0ED1E0AB4EEE00AF1EE10FA4E
:102F900002DD90ED1E0A02E0644890ED120A6348DB
:102FA00080ED120A90ED130AD0ED1F0AF1EE600ACF
:102FB000B4EEE00AF1EE10FA04D290ED1F0AB1EE81
:102FC000400A0FE0594890ED130AD0ED1F0AB4EE05
:102FD000E00AF1EE10FA02DD90ED1F0A02E053481C
:102FE00090ED130A514880ED130A90ED140AD0EDCC
:102FF000200AF1EE600AB4EEE00AF1EE10FA04D213
:1030000090ED200AB1EE400A0FE0484890ED140A16
:10301000D0ED200AB4EEE00AF1EE10FA02DD90EDF8
:10302000200A02E0414890ED140A404880ED140A5D
:1030300090ED240AF7EE000A30EEC00A3E48D0EDCB
:103040000C0A20EE200A3948D0ED030A90ED0C1A44
:1030500070EE810A90ED121A70EE810A60EE200A7D
:1030600090ED241AD0ED061A9FED350A9FED352A12
:1030700002EE210AB5EEC00AF1EE10FA02D21FEDFF
:10308000D50A1BE02948D0ED061A9FED2D0A9FEDC9
:103090002D2A02EE210AF7EE001AB4EEE10AF1EE53
:1030A00010FA02DDB7EE000A08E02048D0ED061A5B
:1030B0009FED230A9FED232A02EE210A21EE000A4A
:1030C0001A4890ED251A40EE010AB0EE080A20EEEB
:1030D000800A80ED210A90ED240AF7EE000A30EE16
:1030E000C00A1548D0ED090A20EE200A0F48D0ED9D
:1030F000040A90ED0D1A70EE810A90ED131A70EE2D
:10310000810A60EE200A90ED241AD0ED071A9FED97
:103110000C0A9FED0C2A02EE210AB5EEC00AF1EE70
:1031200010FA13D29FED080A2CE0000010080020CE
:10313000D405002000001643AC0A00203809002006
:103140006666E63ECDCC0C3F000000007848D0ED2E
:10315000071A1FED050A1FED052A02EE210AF7EEF8
:10316000001AB4EEE10AF1EE10FA02DDB7EE000A41
:1031700008E06F48D0ED071A1FED0F0A1FED0F2A68
:1031800002EE210A21EE000A694890ED261A40EE6F
:10319000010AB0EE080A20EE800A80ED220A90EDC6
:1031A000240AF7EE000A30EEC00A6248D0ED0F0A9A
:1031B00020EE200A5E48D0ED050A90ED0E1A70EE62
:1031C000810A90ED141A70EE810A60EE200A90EDEB
:1031D000241AD0ED081A1FED260A1FED262A02EE4A
:1031E000210AB5EEC00AF1EE10FA02D21FED2A0A4A
:1031F0001BE04F48D0ED081A1FED2F0A1FED2F2AB4
:1032000002EE210AF7EE001AB4EEE10AF1EE10FA2E
:1032100002DDB7EE000A08E04548D0ED081A1FEDC0
:10322000380A1FED382A02EE210A21EE000A404832
:1032300090ED271A40EE010AB0EE080A20EE800A4F
:1032400080ED230A90ED210ADFED3B0AB4EEE00A9F
:10325000F1EE10FA02D29FED380A0FE0344890EDFB
:10326000210ADFED360AB4EEE00AF1EE10FA02DDD3
:103270009FED320A02E02E4890ED210A2C4880EDA5
:10328000210A90ED220ADFED2C0AB4EEE00AF1EEFD
:1032900010FA02D29FED280A0FE0254890ED220A8D
:1032A000DFED260AB4EEE00AF1EE10FA02DD9FED42
:1032B000230A02E01E4890ED220A1D4880ED220AF2
:1032C00090ED230ADFED1C0AB4EEE00AF1EE10FAED
:1032D00002D29FED190A0FE0154890ED230ADFEDA9
:1032E000170AB4EEE00AF1EE10FA02DD9FED130AC0
:1032F00002E00F4890ED230A0D4880ED230A1048A4
:1033000090ED280A0A4880ED090A0D4890ED290A37
:10331000074880ED0A0A0A4890ED2A0A044880ED21
:103320000B0AB0EE480AFFF7F2FBBDEC028B10BDB2
:1033300010080020AC0A0020000048C300004843E9
:10334000D405002010B52DED028BF0EE408AB74871
:10335000D0ED020AB0EE600A02F096F9B0EE408AB3
:10336000B34890ED0A0AF1EE480A20EE200A80EDFB
:10337000060A90ED060A80ED090ABDEC028B10BD2D
:10338000AB48D0ED230AA94890ED051A70EEC10AAA
:10339000A748C0ED0E0AD0ED0E0A9FEDA61AF4EE76
:1033A000C10AF1EE10FA02D2DFEDA20A0FE0A04846
:1033B000D0ED0E0A9FEDA01AF4EEC10AF1EE10FA5C
:1033C00002DDDFED9D0A02E09948D0ED0E0A984833
:1033D000C0ED0E0AD0ED0E0A90ED171A60EE810ACC
:1033E000C0ED130AD0ED130AC0ED160A70479348DA
:1033F000B0F90810B0F91400814209D08F48008953
:10340000012805D18948D0ED080A8948C0ED1A0A7B
:103410008A48008901287DD104208949088089488B
:10342000D0ED000A9FED881AF4EEC10AF1EE10FA11
:1034300012DD7F48D0ED1A0A824890ED001ADFEDC8
:10344000821A31EE611A21EE001AF5EE001A41EEF1
:10345000210A7748C0ED1A0A7A48D0ED000A9FED9C
:103460007B1AF4EEC10AF1EE10FA12D27048D0EDD8
:103470001A0A744890ED001ADFED741A31EE611AE1
:1034800021EE001AF5EE001A41EE210A6848C0ED5F
:103490001A0A6A484089012809D16D48D0ED250AE9
:1034A0009FED6C1A70EE810A6148C0ED1A0A6048FF
:1034B000D0ED1A0A5D4890ED081A70EEC10A5C481A
:1034C000C0ED1B0AD0ED250A90ED1B1A20EE811AE3
:1034D000D0ED210A41EE000AC0ED210AD0ED1B0A11
:1034E000F5EEC00AF1EE10FA02DDD0ED1B0A04E0A1
:1034F0004F48D0ED1B0AF1EE600A4D48C0ED1F0A9F
:10350000D0ED1F0AB3EE041AF4EEC10AF1EE10FA80
:1035100004D200E048E0F3EE040A0FE04448D0EDA6
:103520001F0A9FED4D1AF4EEC10AF1EE10FA02DD0A
:10353000DFED490A02E03E48D0ED1F0A3C48C0EDED
:103540001F0AD0ED210A90ED1F1AB1EE411AF4EED8
:10355000C10AF1EE10FA04D2D0ED1F0AF1EE600AB2
:103560000FE03348D0ED210A90ED1F1AF4EEC10AA6
:10357000F1EE10FA02DDD0ED1F0A02E02C48D0ED8A
:10358000210A2B48C0ED210AD0ED1B0A90ED241A28
:1035900060EE810AC0ED200AD0ED200A90ED211ADC
:1035A00070EE810AC0ED230A24480089032802D066
:1035B0002248008978BB04202149891E0880DFED5C
:1035C000270A1B48C0ED210A1E48D0ED000A9FEDD6
:1035D000241A70EEC10AB6EE001A60EE810A144891
:1035E000C0ED230AD0ED230A9FED1E1AF4EEC10AA6
:1035F000F1EE10FA02D2DFED1B0A10E00C48D0ED1C
:10360000230A9FED191AF4EEC10AF1EE10FA03DD58
:10361000DFED150A03E005E00548D0ED230A044874
:10362000C0ED230A0548018981827047040B002000
:1036300048090020000016C300001643A40700201C
:103640001A08024038090020000016440000C84350
:10365000300C00200000FA43000048420000000047
:103660000000E14300007AC300007A4300B587B050
:103670000121042006F04DFB0121022006F016FB7B
:103680001E208DF8040002208DF8050001208DF821
:1036900006008DF8070001A805F0C5FA4FF4707018
:1036A000059002208DF8180003208DF819000020E5
:1036B0008DF81A0002208DF81B0005A9FE4806F0BF
:1036C0002FFD02220621FC4806F0B5FD022207214B
:1036D000F94806F0B0FD02220821F74806F0ABFDDC
:1036E00002220921F44806F0A6FD1120F3490880C2
:1036F0000020ADF808000A20ADF80A000120ADF85E
:103700000C000020ADF80E00ADF8100002A9EB4847
:10371000283805F077FF0420ADF808000A20ADF83E
:103720000A000120ADF80C000020ADF80E00ADF845
:10373000100002A9E148283805F064FF0820ADF820
:1037400008000A20ADF80A000120ADF80C000020A6
:10375000ADF80E00ADF8100002A9D848283805F0E1
:1037600051FF0C20ADF808000A20ADF80A00012036
:10377000ADF80C000020ADF80E00ADF8100002A965
:10378000CE48283805F03EFF0121CC48283805F006
:10379000EBFB01220221C948283805F0FDFF012278
:1037A0000421C648283805F0F7FF01220821C34844
:1037B000283805F0F1FF01221021C048283805F013
:1037C000EBFF0121082006F0A4FA0121084606F0CB
:1037D0006DFA32208DF8040002208DF805000120DA
:1037E0008DF806008DF8070001A805F01CFA0F20DF
:1037F000059002208DF8180003208DF81900002094
:103800008DF81A0002208DF81B0005A9AC4806F0BF
:1038100087FC02220021AA4806F00DFD02220121A8
:10382000A74806F008FD02221146A54806F003FD50
:1038300002220321A24806F0FEFC1120A1490880C3
:103840000020ADF808000A20ADF80A000120ADF80C
:103850000C000020ADF80E00ADF8100002A9994848
:10386000283805F0CFFE0420ADF808000A20ADF896
:103870000A000120ADF80C000020ADF80E00ADF8F4
:10388000100002A98F48283805F0BCFE0820ADF8CA
:1038900008000A20ADF80A000120ADF80C00002055
:1038A000ADF80E00ADF8100002A98648283805F0E2
:1038B000A9FE0C20ADF808000A20ADF80A0001208E
:1038C000ADF80C000020ADF80E00ADF8100002A914
:1038D0007C48283805F096FE01217A48283805F002
:1038E00043FB012202217748283805F055FF0122C9
:1038F00004217448283805F04FFF0122082171483F
:10390000283805F049FF012210216E48283805F0BB
:1039100043FF07B000BD10B52DED068B6748183882
:10392000008800F00200A0B34FF6FD70634918391B
:1039300008804FF6FF5008805F481030006800F0A4
:10394000400028B15D480C3000685F49088020E0E5
:103950005A480C3000685C490988401A5A49488026
:10396000488807F0E8FD41EC1A0B9FED580B53EC2B
:10397000102B07F0EEFC41EC190B9FED560B53ECAE
:10398000102B07F0E0FC41EC180B07F043FE534905
:1039900008604A481838008800F00400B0B34FF6B9
:1039A000FB704649183908804FF6FF50088042489E
:1039B0001030006800F0800028B1404810300068E6
:1039C0004149888022E03D48103000683E4989889E
:1039D000401A81B23C48C1800146C88807F0ABFD5F
:1039E00041EC1A0B9FED3E0B53EC102B07F0B1FC92
:1039F00041EC190B9FED3C0B53EC102B07F002FC34
:103A000041EC180B07F006FE344948602B48183883
:103A1000008800F00800B0B34FF6F7702749183956
:103A200008804FF6FF50088023481030006800F4EB
:103A3000807028B12148143000682349088122E0B1
:103A40001E481430006820490989401A81B21E4876
:103A500041810146488907F06EFD41EC1A0B9FED4C
:103A60001B0B53EC102B07F074FC41EC190B9FED72
:103A7000200B53EC102B07F066FC41EC180B07F001
:103A8000C9FD164988600D481838008800F01000FC
:103A900090B34FF6EF700949183908804FF6FF5080
:103AA000088005481030006800F4007038B30348FF
:103AB00018300068044920E0000402402808004053
:103AC00000000240280C0040040A0020A779C72902
:103AD0003A92D73FCBA145B6F319A440E4090020A0
:103AE000A779C7293A92D7BFAAF1D24DA22FA440F5
:103AF0002EFF21FDF6EDA34023E0888121E0F84868
:103B00000068F8498989401A81B2F648C1810146A6
:103B1000C88907F010FD41EC1A0B1FED0F0B53EC99
:103B2000102B07F016FC41EC190B1FED160B53EC94
:103B3000102B07F067FB41EC180B07F06BFDEA490F
:103B4000C860BDEC068B10BD10B52DED068BE748A7
:103B5000008800F0020050B34FF6FD70E349088082
:103B60004FF6FF500880E248006900F0010028B1DC
:103B7000DE4824300068DF4908802FE0DB4824302D
:103B80000068DC490988401ADA49488008464088BC
:103B900041F2301188420BDDD648408841F2B441F1
:103BA000884205DAB7EE000ACF4880ED040A15E036
:103BB000D0484088B0F5FA5F0BDDCE48408842F22D
:103BC0002831884205DAB0EE000AC74880ED040AC1
:103BD00004E0B0EE080AC44880ED040AC348008837
:103BE00000F00400A0B34FF6FB70C04908804FF608
:103BF000FF500880BE48006900F0020028B1BB48B1
:103C000028300068BB49888022E0B8482830006826
:103C1000B8498988401A81B2B648C1800146C8882F
:103C200007F089FC41EC1A0B1FED530B53EC102BE2
:103C300007F08FFB41EC190B9FEDAF0B53EC102BF2
:103C400007F0E0FA41EC180B07F0E4FCA6494861E4
:103C5000A648008800F0080050B34FF6F770A3495B
:103C600008804FF6FF500880A148006900F004006A
:103C700028B19E482C3000689E4908812FE09B485F
:103C80002C3000689B490989401A81B299484181CA
:103C9000408941F2301188420BDD9648408941F25B
:103CA000B441884205DAB7EE000A8F4880ED060A73
:103CB00015E090484089B0F5FA5F0BDD8D484089EA
:103CC00042F22831884205DAB0EE000A864880EDDB
:103CD000060A04E0B0EE080A834880ED060A83482D
:103CE000008800F01000A0B34FF6EF707F49088005
:103CF0004FF6FF5008807E48006900F0080028B1A8
:103D00007A48303000687B49888122E0774830303B
:103D1000006878498989401A81B27648C181014694
:103D2000C88907F008FC41EC1A0B1FED930B53EC0C
:103D3000102B07F00EFB41EC190B9FED710B53ECB0
:103D4000102B07F05FFA41EC180B07F063FC664993
:103D5000C861BDEC068B10BD10B52DED028BB0EE29
:103D6000408A694800886849888108464188C1813D
:103D700081880182C18841825B48D0ED010AB0EEA2
:103D8000600AF1EE040A01F0C7FBBDEEC00A10EEB6
:103D9000100A00B25C4908805348D0ED030AB0EE27
:103DA000600AF1EE040A01F0B7FBBDEEC00A10EEA6
:103DB000100A00B2544948804B48D0ED000AB0EEDA
:103DC000600AF1EE040A01F0A7FBBDEEC00A10EE96
:103DD000100A00B24C498880434890ED020ABDEEBB
:103DE000C00A10EE100A00B2C8803F4890ED040AE5
:103DF000BDEEC00A10EE100A00B208813A4890EDFC
:103E0000060ABDEEC00A10EE100A00B2488108464C
:103E1000B0F90000B1F90C10401A00EE100AB8EE2B
:103E2000C00AC0EE080A9FED390AF4EEC00AF1EEAE
:103E300010FA0DD23448B0F900003349B1F90C1032
:103E4000401A00EE100AF8EEC00A80EE880A01E07F
:103E50009FED2E0A2C4880ED060AB0F90210B0F949
:103E60000E00081A00EE100AB8EEC00AC0EE080AEA
:103E70009FED260AF4EEC00AF1EE10FA0CD22248A9
:103E8000B0F90210B0F90E00081A00EE100AF8EEB0
:103E9000C00A80EE880A01E09FED1C0A1A4880EDF6
:103EA000070AB0F90410B0F91000081A00EE100A61
:103EB000F8EEC00A80EE880ADFED140AB4EEE00ADC
:103EC000F1EE10FA24D21048B0F90410B0F9100045
:103ED000081A00EE100AF8EEC00A80EE880A19E00F
:103EE00040080040040A0020E4090020100C0040B3
:103EF00000000240140A0020AAF1D24DA259A340AA
:103F0000CBA145B6F355A340A407002000007A4496
:103F10001FED020A144880ED080AB0F90610B0F946
:103F20001200081A00EE100AF8EEC00A80EE880AA5
:103F30005FED0A0AB4EEE00AF1EE10FA0CD20A487C
:103F4000B0F90610B0F91200081A00EE100AF8EEE7
:103F5000C00A80EE880A01E01FED140A024880EDD5
:103F6000090ABDEC028B10BDA407002010B58AB071
:103F700004460121022005F0CCFE0121042005F0B9
:103F800095FE02220621FE4806F055F9022207217D
:103F9000FB4806F050F902220821F94806F04BF9D7
:103FA00002220921F64806F046F94FF47070089095
:103FB00002208DF8240003208DF8250000208DF8C4
:103FC000260001208DF8270008A9ED4806F0A8F882
:103FD0001420ADF814000020ADF8160042F2107065
:103FE00006900020ADF81C008DF81E0005A9E548DC
:103FF00004F031FF6020ADF800000020ADF80C00A7
:104000000120ADF802006946DE4804F0B9FF6946B8
:10401000DC4804F0EEFF6946DA4805F037F86946F7
:10402000D84805F099F80821D64805F036F9082156
:10403000D44805F03BF90821D24805F044F908219D
:10404000D04805F049F90121CE4804F06FFF012165
:10405000CC4804F089FF4FF4FA50CA493431086063
:10406000091D0860091D0860091D08608010FCF723
:104070003CF94FF47A60C34934310860091D086087
:10408000091D0860091D08604010FCF72EF90AB0F0
:1040900010BD10B52DED108BBB48B0F9040040F2F7
:1040A0008A21884217DBB848B0F9060049428842A5
:1040B00011DCB6480068B0F5487F06DD0120B44940
:1040C00048700020B149086008E0B0480068401C12
:1040D000AE49086002E00020AD494870AC48407825
:1040E00030BBAB488078012822D1A948007818B1AC
:1040F0000020A74908701BE00120A54908709FED2A
:10410000A50AA54880ED270AB7EE000AA34880ED6E
:10411000000A9FEDA00AA24880ED000A9FED9D0ACB
:10412000A04880ED000A9FED9B0A9F4880ED000AA1
:1041300097484078964988700846C07800287CD017
:1041400008460078002879D0984890ED010ADFED04
:10415000980A80EE201A11EE104A204607F017FA4E
:1041600041EC1B0BB0EE4B0AF0EE6B0A07F024FE9D
:10417000B0EE409AF0EE609A8C4890ED000ADFEDC8
:104180008C0A80EE201A11EE104A204607F0FFF943
:1041900041EC1D0BB0EE4D0AF0EE6D0A07F00CFE7F
:1041A000B0EE40BAF0EE60BA824890ED000A10EE30
:1041B000101A084607F0EBF941EC1C0B53EC1B2BD3
:1041C00007F039F941EC1A0B53EC192B07F033F9CE
:1041D00041EC180B07F01EFA7649C860734890ED61
:1041E000010ADFED730A80EE201A11EE104A204614
:1041F00007F0CDF941EC1D0BB0EE4D0AF0EE6D0A63
:1042000007F0DAFDB0EE40BAF0EE60BA674890ED24
:10421000000ADFED670A80EE201A11EE104A2046F0
:1042200007F0B5F941EC1F0BB0EE4F0AF0EE6F0A44
:1042300007F0C2FDB0EE40DA01E0DDE274E2F0EE3C
:1042400060DA5D4890ED090AD0ED160A30EE200ADA
:1042500010EE101A084607F09AF941EC1E0B53ECC9
:104260001D2B07F0E8F841EC1C0B53EC1B2B07F05F
:10427000E2F841EC190B4F4890ED030A4648D0EDA7
:10428000210A30EE600AD0ED220A30EE600AD0ED4D
:10429000230A30EE600A10EE101A084607F077F98C
:1042A00041EC1A0B53EC192B06F0ACFF41EC180B48
:1042B00007F0B0F9414908603C4890ED010ADFED94
:1042C0003C0A80EE201A11EE104A204607F05FF9F2
:1042D00041EC1D0BB0EE4D0AF0EE6D0A07F06CFDDF
:1042E000B0EE40BAF0EE60BA304890ED000ADFED73
:1042F000300A80EE201A11EE104A204607F047F9E6
:1043000041EC1F0BB0EE4F0AF0EE6F0A07F054FDC0
:10431000B0EE40DAF0EE60DA274890ED090AD0ED11
:10432000160A30EE200A10EE101A084607F02FF990
:1043300041EC1E0B53EC1D2B07F07DF841EC1C0BE0
:1043400053EC1B2B07F077F841EC190B194890ED53
:10435000030A1148D0ED210A30EE200AD0ED220ADE
:1043600030EE600AD0ED230A30EE200A10EE101A6B
:10437000084607F00CF941EC1A0B53EC192B1FE01F
:104380000008024000040040A4070020680000204C
:10439000640000200000000010080020240000201D
:1043A000280000202C00002030000020980700206A
:1043B000A34C65423809002048090020240A002047
:1043C00006F020FF41EC180B07F024F9FE49486085
:1043D000FE4890ED010A5FED0A0A80EE201A11EE08
:1043E000104A204607F0D3F841EC1D0BB0EE4D0A01
:1043F000F0EE6D0A07F0E0FCB0EE40BAF0EE60BA05
:10440000F24890ED000A5FED160A80EE201A11EED8
:10441000104A204607F0BBF841EC1F0BB0EE4F0AE4
:10442000F0EE6F0A07F0C8FCB0EE40DAF0EE60DAAA
:10443000E74890ED090AD0ED160A30EE200A10EE9A
:10444000101A084607F0A3F841EC1E0B53EC1D2B85
:1044500006F0F1FF41EC1C0B53EC1B2B06F0EBFFBD
:1044600041EC190BDB4890ED030ADB48D0ED210A43
:1044700030EE200AD0ED220A30EE200AD0ED230AD9
:1044800030EE600A10EE101A084607F080F841EC92
:104490001A0B53EC192B06F0B5FE41EC180B07F084
:1044A000B9F8C9498860C94890ED010A5FED400A32
:1044B00080EE201A11EE104A204607F068F841EC11
:1044C0001D0BB0EE4D0AF0EE6D0A07F075FCB0EE74
:1044D00040BAF0EE60BABD4890ED000A5FED4C0ABC
:1044E00080EE201A11EE104A204607F050F841ECF9
:1044F0001F0BB0EE4F0AF0EE6F0A07F05DFCB0EE56
:1045000040DAF0EE60DAB24890ED090AD0ED160A12
:1045100030EE200A10EE101A084607F038F841EC89
:104520001E0B53EC1D2B06F086FF41EC1C0B53ECCD
:104530001B2B06F080FF41EC190BA64890ED030AF7
:10454000A548D0ED210A30EE600AD0ED220A30EE07
:10455000200AD0ED230A30EE200A10EE101A084689
:1045600007F015F841EC1A0B53EC192B06F04AFE34
:1045700041EC180B07F04EF89349C860084690EDDF
:10458000000A10EE101A084607F001F841EC190B6A
:104590009FED920B53EC102B06F0DBFE41EC180B59
:1045A00007F038F888490860084690ED010A10EED7
:1045B000101A084606F0EBFF41EC190B9FED870B34
:1045C00053EC102B06F0C5FE41EC180B07F022F857
:1045D0007D494860084690ED020A10EE101A084620
:1045E00006F0D5FF41EC190B9FED7C0B53EC102B23
:1045F00006F0AFFE41EC180B07F00CF8724988602A
:10460000084690ED030A10EE101A084606F0BFFFA8
:1046100041EC190B9FED710B53EC102B06F099FE3A
:1046200041EC180B06F0F6FF6749C860084690EDAC
:10463000000ADFED6C0AB4EEE00AF1EE10FA02D2E5
:104640009FED680A0FE0604890ED000ADFED660A12
:10465000B4EEE00AF1EE10FA02DD9FED630A02E02B
:10466000594890ED000A584880ED000A90ED010A83
:10467000DFED5C0AB4EEE00AF1EE10FA02D29FED33
:10468000590A0FE0504890ED010ADFED570AB4EEE9
:10469000E00AF1EE10FA02DD9FED530A02E04A480B
:1046A00090ED010A484880ED010A90ED020ADFED25
:1046B0004D0AB4EEE00AF1EE10FA02D29FED490A7B
:1046C0000FE0414890ED020ADFED470AB4EEE00A40
:1046D000F1EE10FA02DD9FED440A02E03A4890ED57
:1046E000020A394880ED020A90ED030ADFED3D0A27
:1046F000B4EEE00AF1EE10FA02D29FED3A0A0FE0B2
:10470000314890ED030ADFED380AB4EEE00AF1EE2D
:1047100010FA02DD9FED340A02E02B4890ED030A07
:10472000294880ED030A10E01FEDE60A264880EDD7
:10473000000A1FEDE80A80ED010A1FEDEA0A80ED8C
:10474000020A1FEDEC0A80ED030A1F48D0ED000AB3
:104750009FED260AB1EE001A01EE200ABDEEC00A56
:1047600010EE100A00B2224908601748D0ED010A85
:104770009FED1E0AB1EE001A01EE200ABDEEC00A3E
:1047800010EE100A00B2091D08600F48D0ED020AB1
:104790009FED160AB1EE001A01EE200ABDEEC00A26
:1047A00010EE100A00B2091D08600748D0ED030A98
:1047B0009FED0E0AB1EE001A01EE200ABDEEC00A0E
:1047C00010EE100A00B215E0240A0020980700201D
:1047D0004809002038090020100800203333333303
:1047E0003333F33F0000A0420080894400007A4543
:1047F00034040040091D0860BDEC108B10BD0000A2
:1048000000BF2F4A128802F04002002AF9D0C2B23B
:104810002B4B9A80704700B587B00121294805F0DD
:1048200045FA0121102005F085FA072209212648C2
:1048300005F001FD07220A21234805F0FCFC4FF496
:10484000C060019002208DF8080000208DF80A0059
:1048500003208DF8090000208DF80B0001A91A48EB
:1048600005F05EFC4FF4165003900020ADF81000E8
:10487000ADF81200ADF814000C20ADF816000020C1
:10488000ADF8180003A90E4805F02CFF012240F2F4
:1048900025510B4806F064F80121094805F0AAFFEC
:1048A00007B000BD10B5044600BF4021044806F023
:1048B0007CF80028F9D02146014805F0C6FF10BD5C
:1048C00000100140010040000000024010B5044605
:1048D00000BF4021B84806F068F80028F9D021460A
:1048E000B54805F0B2FF10BD00B597B00121B3483F
:1048F00005F0DCF90121080505F00BFA08220C216E
:10490000AF4805F098FC08220221AE4805F093FC60
:104910004FF48050119002208DF8480000208DF84F
:104920004A0003208DF8490000208DF84B0011A9A2
:10493000A34805F0F5FB0420119002208DF84800F3
:1049400000208DF84A0003208DF8490000208DF8E2
:104950004B0011A99B4805F0E3FB974805F074FE56
:104960004FF4165013900020ADF85000ADF85200EF
:10497000ADF854000C20ADF856000020ADF85800FA
:1049800013A98D4805F0AEFE01218B4805F032FFDA
:104990006420FBF7AAFCB520FFF798FF6220FFF721
:1049A00095FF0620FFF792FF0020FFF78FFF1420EE
:1049B000FFF78CFF0020FFF789FF0120FFF786FF3C
:1049C0000020FFF783FF0020FFF780FF0020FFF7A4
:1049D0007DFFD020FFF77AFF0820FFF777FF002048
:1049E000FFF774FF0020FFF771FF0020FFF76EFF55
:1049F000C220FFF76BFF0120FFF768FF0020FFF7E1
:104A000065FF0720FFF762FF0020FFF75FFF03202D
:104A1000FFF75CFF0020FFF759FF0020FFF756FF6C
:104A20000020FFF753FF0020FFF750FF0020FFF7A3
:104A30004DFFC020FFF74AFF7E20FFF747FF6420AD
:104A4000FBF753FC00215C4805F0D4FE5A4805F002
:104A5000FBFD4FF4E13013900020ADF85000ADF8AD
:104A60005200ADF854000C20ADF856000020ADF80F
:104A7000580013A9504805F035FE01214E4805F0B5
:104A8000B9FE6420FBF731FCB520FFF71FFF622061
:104A9000FFF71CFF0620FFF719FF0820FFF716FF9E
:104AA0000620FFF713FF0020FFF710FF6420FFF739
:104AB0000DFF0020FFF70AFF0120FFF707FF00208E
:104AC000FFF704FF0120FFF701FF0020FFF7FEFEC4
:104AD0007A20FFF7FBFE1220FFF7F8FE6420FBF7B9
:104AE00004FC012240F22441334805F039FF012241
:104AF0004021314805F02BFF35208DF84000032080
:104B00008DF8410001208DF842008DF8430010A877
:104B100004F089F82C4805F0C3FB4FF000600190C9
:104B20002548001D029029480390002004904FF46E
:104B300000600590002006904FF4806007900020F0
:104B4000089009904FF480700A9040020B9000206A
:104B50000C900D900E900F9001A91B4805F042FC9F
:104B60000121194805F078FC17B000BD10B540F2DE
:104B70002441114805F02FFFE0B10021124805F053
:104B80006BFC062000F026F8114880ED000A0A4868
:104B90000488848802F0E6F94FF400600A4910396D
:104BA000486140F22441044805F04CFF01210648C9
:104BB00005F052FC10BD0000005000400C00200029
:104BC00000080240000C024010600240A00D0020CE
:104BD0007000002010B5044604EB4400204901EBAE
:104BE000800090ED000A04EB440001EB800080EDB2
:104BF000010AFBF756FB00EE100AB8EE400ADFEDA3
:104C0000190A80EE201A04EB4400154901EB8000DC
:104C100080ED001A04EB440001EB800090ED000AE7
:104C200004EB440001EB8000D0ED010A30EE600A95
:104C300004EB440001EB800080ED020A04EB440029
:104C400001EB800090ED020A10BD10B5002404E0D5
:104C50002046FFF7BFFF601CC4B20A2CF8DB10BD72
:104C6000340A0020002474491CB50121042005F0F9
:104C70001DF80720009001208DF8040000208DF819
:104C8000060003208DF805006946494805F048FAFA
:104C90000121022005F00AF844F2200000900120D2
:104CA0008DF8040000208DF8060003208DF8050023
:104CB0006946404805F034FA01203D491831088022
:104CC0000220891C08800420891E088000033949BD
:104CD00018310880202008801CBD37490988491CEC
:104CE00089B2354A118001EE901AF8EE611A61EE30
:104CF000801A9FED322A61EE821AF4EEE01AF1EE8C
:104D000010FA01DD002111802B49098801EE901A6B
:104D1000F8EE611A61EE801A9FED282A61EE821A80
:104D200020EE812AF4EEC21AF1EE10FA11D2032815
:104D300002D004280BD105E04FF480411D4A1A32FD
:104D4000118005E020211B4A1A32118000E000BFCB
:104D500011E0032802D004280BD105E04FF4804174
:104D6000144A1832118005E02021124A18321180AD
:104D700000E000BF00BF704700B5F0EE402A1048C9
:104D800090F8320048B1B6EE001ADFED0E0A0320AB
:104D9000B0EE620AFFF7A1FF08E09FED0B1ADFED0E
:104DA000090A0320B0EE620AFFF797FF00BD00007A
:104DB00000080240000402407400002000007A4411
:104DC000A40700200000FA44000000001CB50121E7
:104DD000022004F06BFF4FF40040009001208DF89A
:104DE000040000208DF8060003208DF80500022045
:104DF0008DF807006946044805F092F94FF4004029
:104E000001491A3108801CBD000402409FED960A3A
:104E1000964880ED000A9FED960A80ED010AB0EEFB
:104E2000000A80ED020A9FED900A80ED030A9FEDD3
:104E3000900A80ED040AB0EE000A80ED050AB7EE94
:104E4000000A80ED060A9FED8B0A80ED070A9FEDB0
:104E5000890A80ED080A9FED880A80ED090A9FED16
:104E6000850A80ED0A0A9FED850A80ED0B0A9FED09
:104E7000820A80ED0C0A9FED7F0A80ED0D0A9FEDFE
:104E80007F0A80ED0E0A9FED7E0A80ED0F0A9FEDEE
:104E9000790A80ED100A9FED7B0A80ED110A9FEDE3
:104EA0007A0A7A4880ED240A9FED790A794880EDE4
:104EB0000A0AB0EE040A80ED170AB7EE000A80ED88
:104EC000240A9FED750A80ED250AB2EE040A80EDF2
:104ED0001F0A9FED720A724880ED060A9FED6F0A65
:104EE00080ED120A9FED650A80ED080A9FED630AC6
:104EF00080ED140A9FED6B0A80ED1E0A9FED690A92
:104F000080ED2A0A9FED680A80ED1F0A9FED660A70
:104F100080ED2B0A704770B5FF250026002403F0B2
:104F200030FE05463E2D06DD03F026FE08B10025C5
:104F300001E0002070BD5D4800EBC52605F030FFA4
:104F40005B48B0F920202146631C9CB2304603F038
:104F500043FE08B90020EDE75548B0F9222021466C
:104F6000631C9CB2304603F037FE08B90020E1E72D
:104F70004F48B0F924202146631C9CB2304603F010
:104F80002BFE08B90020D5E74948B0F92620214674
:104F9000631C9CB2304603F01FFE08B90020C9E72D
:104FA0004348B0F928202146631C9CB2304603F0E8
:104FB00013FE08B90020BDE73D48B0F92A2021467C
:104FC000631C9CB2304603F007FE08B90020B1E72D
:104FD00005F0F3FE0120ADE770B5FF2500260024A3
:104FE00003F0CFFD05460DB9002070BD681EC5B2A7
:104FF0002E4800EBC5262146621C94B2304603F0D1
:1050000006FE00B22A4908842146621C94B230464A
:1050100003F0FDFD01B2264841842146621C94B292
:10502000304603F0F4FD01B2214881842146621C20
:1050300094B2304603F0EBFD00B21D49C88421460E
:10504000621C94B2304603F0E2FD01B218480185BB
:105050002146621C94B2304603F0D9FD01B21448D7
:1050600041850120C1E70000CDCC4C3FAC0A0020B7
:10507000AE47E13D00000000CDCCCC3E0AD7A33CBA
:105080009A99193F295C0F3D8FC2753D1008002089
:105090003333B33E48090020CDCCCC3D295C8F3D55
:1050A000680B00209A99993ECDCC4C3E00000E082A
:1050B00010070020B0EE401AF0EE601AB5EEC01AEC
:1050C000F1EE10FA07D1F5EEC01AF1EE10FA02D1A6
:1050D0009FEDF90AA5E0B5EEC01AF1EE10FA02DD77
:1050E000B0EE414A01E0B1EE414AB0EE443AF5EE8D
:1050F000C01AF1EE10FA02DDB0EE614A01E0B1EE45
:10510000614AF0EE442AB4EEE23AF1EE10FA02D22D
:1051100083EE222A01E082EE832A9FEDE84AB4EE74
:10512000C42AF1EE10FA02D2F0EE420A2DE0DFEDD1
:10513000E44AB6EE004A12EE244AF0EE443ABDEEDE
:10514000E34A14EE100A04EE100AB8EEC44A33EE35
:10515000C44AF0EE443ADB4901EB800191ED004A8C
:10516000F0EE440AD74A411C02EB810191ED004A5E
:10517000114601EB8001D1ED004A74EE644AB0EEB5
:10518000604A04EEA34AF0EE440AF4EEC32AF1EEBC
:1051900010FA20DDF5EEC01AF1EE10FA0ADBB5EEDA
:1051A000C01AF1EE10FA02DBB0EE600A39E0B1EE9F
:1051B000600A36E09FEDC40AB5EEC01AF1EE10FAAF
:1051C00004DB30EE604AB0EE440A2AE030EEC04A1A
:1051D000B0EE440A25E0B5EEC01AF1EE10FA10DB8D
:1051E0009FEDBA0AF5EEC01AF1EE10FA04DB30EECC
:1051F000604AB0EE440A14E030EE204AB0EE440AB1
:105200000FE09FEDB30AF5EEC01AF1EE10FA04DBE1
:1052100030EE204AB0EE440A03E030EE604AB0EED1
:10522000440A704700B5B0EE405AF0EE605AF0EE16
:10523000450AB0EE650AFFF73DFF00BDF0EE400AFB
:1052400020EEA00A7047B0EE401AB7EE080AB0EEA2
:10525000402AB6EE000A21EE000AF0EE401AF0EE07
:10526000410A10EE900A9B49A1EB600000EE900A03
:1052700061EEA02AB7EE080A02EEE00A20EE200A4C
:10528000F0EE400A61EEA02AB7EE080A02EEE00A4C
:1052900020EE200AF0EE400A21EE200A704710B5F9
:1052A0002DED0A8BB0EE409AF0EE609A9FED8A0BDE
:1052B00053EC102B51EC190B06F07CF918D29FED32
:1052C000880B53EC102B51EC190B06F042F841EC13
:1052D0001B0B9FED850B53EC102B05F093FF41EC5E
:1052E0001A0B53EC192B06F034F841EC180B17E0AD
:1052F0009FED7B0B53EC102B51EC190B06F029F8AA
:1053000041EC1B0B9FED780B53EC102B06F01EF8B5
:1053100041EC1A0B53EC192B06F01BF841EC180B5F
:105320009FED6D0B53EC102B51EC180B06F042F96E
:1053300020D29FED6F0B53EC102B51EC180B05F0A6
:1053400061FF41EC1C0B9FED6C0B53EC102B06F036
:1053500000F841EC1B0B9FED660B53EC102B05F096
:1053600051FF41EC1A0B53EC182B05F0F2FF41EC06
:10537000180B1FE09FED5E0B53EC102B51EC180B3C
:1053800005F0E1FF41EC1C0B9FED5D0B53EC102B86
:1053900005F0DFFF41EC1B0B9FED550B53EC102B81
:1053A00005F030FF41EC1A0B53EC182B05F0D1FF40
:1053B00041EC180BB0EE480AF0EE680ABDEC0A8B1F
:1053C00010BD10B52DED068BB0EE408AF0EE608A70
:1053D00001249FED4D0B53EC102B51EC180B06F0F4
:1053E00001F90AD89FED480B53EC102B51EC180B28
:1053F00005F0A9FF41EC180BA41E204606F08AF820
:1054000041EC190BB0EE480AF0EE680AFFF747FFCF
:10541000B0EE40AAF0EE60AA53EC192B51EC1A0B37
:1054200005F097FF41EC100BBDEC068B10BD10B5DD
:105430002DED088BB0EE408AF0EE608A01249FEDDE
:10544000340B53EC102B51EC180B05F0DBFE41EC48
:10545000180B9FED2D0B53EC102B51EC180B06F095
:10546000C1F80AD8A41E9FED280B53EC102B51EC69
:10547000180B05F068FF41EC180B204606F04AF8BF
:1054800041EC1A0BB0EE480AF0EE680AFFF799FFFC
:10549000B0EE40BAF0EE60BA53EC1A2B51EC1B0B95
:1054A00005F057FF41EC190B06F0B4F800EE100AB6
:1054B000BDEC088B10BD0000000000008180803B27
:1054C0000000804378000020DB0F4940DB0FC93F1C
:1054D000DB0FC9BFDF59375F00000000000000008C
:1054E000000000602FF0D93F00000060305FF43F03
:1054F000000000000000F03F000000C0CCCCCCBF9A
:10550000000000C0CCCCCC3FF1D4C853FB210940F3
:10551000F1D4C853FB21F93FB0EE401AB5EEC01AE2
:10552000F1EE10FA0BDD31EE600AB5EEC00AF1EED5
:1055300010FA0FD25FED201AB0EE610A0AE031EEE8
:10554000200AB5EEC00AF1EE10FA03DD5FED261A6F
:10555000B0EE610A7047F0EE400A9FED0D0AF4EEDE
:10556000C00AF1EE10FA04DD9FED0A0A30EEC00A1F
:1055700070479FED090AF4EEC00AF1EE10FA04D26A
:105580009FED040A30EE800AF2E7B0EE600AEFE722
:10559000000034430000B443000034C310B52DEDC7
:1055A000068BF0EE409AF0EE608A9FEDFE0AB0EEB8
:1055B00040AA9FEDFC0AB0EE408A9FEDFA0AB0EED9
:1055C000409A89EEA80AB0EE40AA9FEDF70AC0EE15
:1055D0000A0AF0EE60AAB0EE6A0A07F085FBB0EEA8
:1055E000408A9FEDF20A06F04BFCF0EE000A60EEF6
:1055F000200AB7EE000A00EE880A08EE080AB0EEAC
:10560000409AEB48C0ED008A90ED000AB5EEC00A62
:10561000F1EE10FA35DD28EE080AC0EE090AE54879
:10562000C0ED000A90ED000AF0EE000A20EE200A1C
:10563000E14880ED000ADF4890ED000ADF4880ED88
:10564000000AB7EE000A18EE080AF0EE000A20EE93
:10565000200AC0EE090ADA48C0ED000A9FEDD30A1D
:1056600006F00EFCF0EE000A60EE200AB7EE000A2B
:1056700000EEC80A08EE080AC0EE090AD148C0EDDB
:10568000000ABDEC068B10BD10B52DED048BF0EEBD
:10569000408A9FEDC40AB0EE408A9FEDC20AB0EE88
:1056A000409AC34890ED000AB5EEC00AF1EE10FA38
:1056B00004D8B0EE680ABDEC048B10BDB0EE680AE9
:1056C000C148D0ED000ABE4890ED001A00EEC10AB4
:1056D000BE48D0ED000ABB4890ED001A00EEC10AAA
:1056E000B0EE408A18EE100A00F005FF20B918EE5F
:1056F000100A00F0F6FE08B1B0EE688AAD4890EDF1
:10570000000A28EE000AB048D0ED000AAA4890ED41
:10571000001A00EE810AAD48D0ED000AA74890EDCE
:10572000001A00EE810AB0EE409AA74890ED000AF8
:10573000A64880ED000AA44880ED008AB0EE490A30
:10574000B9E710B52DED068BF0EE409AF0EE608AC9
:105750009FED940AB0EE40AA9FED920AB0EE408A07
:105760009FED900AB0EE409A89EEA80AB0EE40AAEA
:105770009FED8D0AC0EE0A0AF0EE60AAB0EE6A0A4A
:1057800007F0B2FAB0EE408A9FED880A06F078FB87
:10579000F0EE000A60EE200AB7EE000A00EE880A7A
:1057A00008EE080AB0EE409A8948C0ED008A90EDF4
:1057B000000AB5EEC00AF1EE10FA35DD28EE080A4F
:1057C000C0EE090A8348C0ED000A90ED000AF0EE31
:1057D000000A20EE200A804880ED000A7D4890ED06
:1057E000000A7E4880ED000AB7EE000A18EE080AAB
:1057F000F0EE000A20EE200AC0EE090A7848C0ED5B
:10580000000A9FED6A0A06F03BFBF0EE000A60EE2C
:10581000200AB7EE000A00EEC80A08EE080AC0EE39
:10582000090A7048C0ED000ABDEC068B10BD10B52A
:105830002DED048BF0EE408A9FED5A0AB0EE408ABF
:105840009FED580AB0EE409A614890ED000AB5EE1F
:10585000C00AF1EE10FA04D8B0EE680ABDEC048B71
:1058600010BDB0EE680A6048D0ED000A5C4890EDCB
:10587000001A00EEC10A5D48D0ED000A594890EDCB
:10588000001A00EEC10AB0EE408A18EE100A00F0CD
:1058900032FE20B918EE100A00F023FE08B1B0EE77
:1058A000688A4C4890ED000A28EE000A4E48D0ED78
:1058B000000A494890ED001A00EE810A4B48D0EDED
:1058C000000A464890ED001A00EE810AB0EE409AB8
:1058D000454890ED000A454880ED000A424880EDB9
:1058E000008AB0EE490AB9E710B52DED068BF0EE4F
:1058F000409AF0EE608A9FED2B0AB0EE40AA9FED31
:10590000290AB0EE408A9FED270AB0EE409A89EE50
:10591000A80AB0EE40AA9FED240AC0EE0A0AF0EEF3
:1059200060AAB0EE6A0A07F0DFF9B0EE408A9FED98
:105930001F0A06F0A5FAF0EE000A60EE200AB7EEA4
:10594000000A00EE880A08EE080AB0EE409A2848DD
:10595000C0ED008A90ED000AB5EEC00AF1EE10FA33
:1059600064DD28EE080AC0EE090A2248C0ED000AEC
:1059700090ED000AF0EE000A20EE200A1E4880EDAD
:10598000000A1C4890ED000A1C4880ED000AB7EEA2
:10599000000A18EE080AF0EE000A20EE200AC0EE17
:1059A000090A2DE000000000DA0F4940DA0F493FF4
:1059B000800400208C040020900400209404002027
:1059C0008404002088040020980400209C04002007
:1059D000A0040020AC040020B0040020B404002087
:1059E000A4040020A8040020B8040020BC04002067
:1059F000C0040020CC040020D0040020D4040020E7
:105A0000FE48C0ED000A1FED170A06F039FAF0EE65
:105A1000000A60EE200AB7EE000A00EEC80A08EE9F
:105A2000080AC0EE090AF648C0ED000ABDEC068B74
:105A300010BD10B52DED048BF0EE408A1FED270A46
:105A4000B0EE408A1FED290AB0EE409AED4890ED85
:105A5000000AB5EEC00AF1EE10FA04D8B0EE680AFA
:105A6000BDEC048B10BDB0EE680AE748D0ED000A2B
:105A7000E24890ED001A00EEC10AE448D0ED000AB9
:105A8000DF4890ED001A00EEC10AB0EE408A18EE31
:105A9000100A00F030FD20B918EE100A00F021FDC8
:105AA00008B1B0EE688ADA4890ED000A28EE000AE4
:105AB000D548D0ED000AD74890ED001A00EE810AD3
:105AC000D248D0ED000AD44890ED001A00EE810AC9
:105AD000B0EE409ACC4890ED000ACC4880ED000A28
